:100000000C9415010C943D010C943D010C94BB0A19
:100010000C94BB0A0C94BB0A0C943D010C943D015A
:100020000C943D010C943D010C943D010C940D1079
:100030000C943D010C943D010C943D010C943D0148
:100040000C94C3140C943D010C94B40D0C948E0DBF
:100050000C943D010C943D010C943D010C943D0128
:100060000C943D010C943D014578747261205072EE
:10007000657373656400537461727420536572769E
:100080006F732043616C696200457874726120501F
:10009000726573736564204C6F6E6700436C6F7399
:1000A00065205468756D62004F70656E20546875E8
:1000B0006D62005468756D6220507265737365647B
:1000C000005468756D622050726573736564204CCE
:1000D0006F6E6700556E6C6F636B2046696E676567
:1000E0007273004C6F636B2046696E6765727300B4
:1000F0004C6F636B2050726573736564006E657737
:100100002048616E642074797065203D20004C6F3A
:10011000636B2050726573736564204C6F6E67006B
:1001200053746172742053656E736F722043616CF7
:1001300069620043616C6962205072657373656423
:10014000204C6F6E670043616C696220507265736A
:10015000736564004D61785468756D62203D2000C0
:100160004D696E5468756D62203D20004D61784682
:10017000696E67657273203D20004D696E46696E39
:1001800067657273203D20004D6178496E64657823
:10019000203D20004D696E496E646578203D200049
:1001A000536572766F732043616C69622046696E95
:1001B0006973686564004E6578742043616C696298
:1001C0002053746570000000000023002600290001
:1001D00053746172740000000000240027002A009C
:1001E00000000000250028002B000404040404047F
:1001F00004040202020202020303030303030102D6
:1002000004081020408001020408102001020408A4
:100210001020000000080002010000030407000095
:100220000000000000007A18AA1911241FBECFEFA9
:10023000D8E0DEBFCDBF12E0A0E0B1E0E4EAF9E330
:1002400002C005900D92AC35B107D9F724E0ACE5BA
:10025000B2E001C01D92AE3CB207E1F711E0C4E18B
:10026000D1E004C02197FE010E94C31AC331D10717
:10027000C9F70E940D150C94C51C0C9400000F9337
:100280001F938091DA039091DB038130910521F077
:10029000029709F49CC0E8C1E0910E04F0910F04AC
:1002A000ED5AFF4F80819181019709F0DDC10E94D5
:1002B000B714E0910E04F0910F04DF01AB5ABF4F69
:1002C0000D911D912D913C911397AB01BC01401BE9
:1002D000510B620B730B403157426105710508F4F5
:1002E00056C01D921D921D921C92139712971D923B
:1002F0001C9280911204909113042091100430916B
:10030000110434AF23AF96AF85AF609110047091A4
:1003100011048DE090E00E948911609112047091A7
:1003200013048FE090E00E9489118CE591E00E9417
:10033000580986E791E00E9458098CE591E00E94F7
:10034000580982E991E00E9458098DE991E00E94E4
:100350007D088DE090E00E949A110E941F0A8AEAAF
:1003600091E00E947D088FE090E00E949A110E9427
:100370001F0A87EB91E00E94580910921304109213
:1003800012048FEF93E09093110480931004E09196
:100390000E04F0910F0480AD91AD0E94660920918A
:1003A0001204309113042817390724F4909313048E
:1003B0008093120420911004309111048217930746
:1003C0000CF052C190931104809310044DC18091A0
:1003D000140490911504FC01ED5AFF4F20813181E6
:1003E0002230310509F040C12091170430911804E2
:1003F0002115310509F432C1369680819181281783
:10040000390709F457C0909318048093170486EBBA
:1004100091E00E94EB0880911704909118048330BA
:10042000910559F184F481309105D9F1029709F0D1
:1004300041C0809114049091150481960E94E60DAC
:100440008093190437C08530910509F164F006974F
:1004500089F5809114049091150487960E94E60D09
:1004600080931D0427C080911404909115044B962D
:100470000E94E60D80931B041DC08091140490918E
:1004800015044B960E94E60D80931C0413C08091C6
:1004900014049091150487960E94E60D80931E0423
:1004A00009C0809114049091150481960E94E60D74
:1004B00080931A0480911704909118048730910555
:1004C0000CF063C08530910534F48330910504F558
:1004D000019724F4C9C00797D4F1C6C080911404D1
:1004E000909115040E946513209114043091150415
:1004F000882311F061E019C0C9010E944E138823BE
:1005000009F4B2C0809114049091150461E038C0E0
:1005100080911404909115040E9465132091140495
:1005200030911504882339F062E0C90148961F9183
:100530000F910C94AA09C9010E944E13882309F453
:1005400093C0809114049091150462E019C08091C9
:100550001404909115040E946513209114043091A5
:100560001504882311F063E0E0CFC9010E944E1307
:10057000882309F479C0809114049091150463E0F4
:1005800048961F910F910C948B09109218041092A9
:10059000170440911A046091190481E090E00E94D0
:1005A000DC0940911C0460911B0482E090E00E94F1
:1005B000DC0940911E0460911D0483E090E00E94DC
:1005C000DC0980EA91E00E94EB0884E991E00E9456
:1005D000D00888E090E00E9498110E94C90988E83C
:1005E00091E00E94D00889E090E00E9498110E945A
:1005F000C9098AE791E00E94D0088AE090E00E9451
:1006000098110E94C9098CE691E00E94D0088BE005
:1006100090E00E9498110E94C90980E691E00E9432
:10062000D00886E090E00E9498110E94C90984E5F4
:1006300091E00E94D00887E090E00E9498110E940B
:10064000C9098091140490911504FC01E75AFF4FE9
:100650001182108236971182108206C081E090E0EC
:1006600090931804809317041F910F910895CF92CF
:10067000DF92EF92FF920F931F93CF93DF93C0917E
:100680000804D0910904FE01ED5AFF4F8081918149
:10069000892B09F095C088AD99AD0E946609CBAC55
:1006A000DCAC0D2C000CEE08FF08092E000CAA0B88
:1006B000BB0B9C01AD012C193D094E095F09AFEF41
:1006C000B3E00E94141A2DAD3EAD8901330F220B09
:1006D000330BA90198012C193D094E095F090E94AD
:1006E000F51937FD0AC0211584E0380714F02FEF03
:1006F00033E02535E1E03E0734F580910804909120
:1007000009047C01F8E1EF0EF11CFC0125A5211183
:1007100002C0CBEF01C0C5E087960E94E60D4C2FCA
:10072000480F20E063E0C7010E94D71380910804BE
:10073000909109047C01F8E1EF0EF11CFC0125A564
:10074000222349F12AC02B3A3240D4F18091080487
:10075000909109047C0128E1E20EF11CFC0125A521
:10076000222311F0CBEF01C0C5E087960E94E60D71
:100770004C2F480F20E063E0C7010E94D7138091FF
:100780000804909109047C01F8E1EF0EF11CFC01D2
:1007900025A5222311F0CBEF01C0C5E04B960E94A6
:1007A000E60D4C2F480F20E062E0C701DF91CF91AA
:1007B0001F910F91FF90EF90DF90CF900C94D71383
:1007C000DF91CF911F910F91FF90EF90DF90CF902D
:1007D00008951F93CF93DF938091E4039091E503F5
:1007E0000E946513882309F462C048EE53E060E07C
:1007F00070E088EE93E00E944F08882321F086E4A1
:1008000091E00E94EB088091E4039091E503AC0134
:10081000485F5F4FFC0160810E94F908882309F45A
:10082000C8C148E853E160E070E088EF93E00E94BF
:100830004F08882309F4BDC183E391E00E94EB08CF
:10084000E091E403F091E503ED5AFF4F808191813F
:10085000892B09F0AEC180E291E00E94EB08809103
:10086000E4039091E50321E040E062E048960E94B5
:10087000D7138091E4039091E50321E044EB62E01B
:1008800048960E94D713C091E403D091E5030E94DB
:10089000B714FE01EB5AFF4F608371838283938309
:1008A000CD5ADF4F81E090E09983888382C1C09167
:1008B000E403D091E5036981CE010E94AE11182FA7
:1008C0008D81181739F00E94B7146C877D878E8749
:1008D0009F871D83112309F471C048EE53E060E047
:1008E00070E08CEE93E00E944F088823B1F088E618
:1008F00090E00E94EB08E091E403F091E503DF0152
:10090000AD5ABF4F8D919C91029739F4E75AFF4F32
:10091000808191810196918380838091E4039091FD
:10092000E503AC01445F5F4FFC0161810E94F9085F
:10093000882309F43EC148E853E160E070E08CEFA1
:1009400093E00E944F08882309F433C189E890E0BE
:100950000E94EB08E091E403F091E503ED5AFF4FAC
:1009600080819181892B09F024C186E790E00E9463
:10097000EB088091E4039091E50321E040E063E01F
:1009800048960E94D7138091E4039091E50321E0FB
:1009900044EB63E048960E94D7138091E403909162
:1009A000E503FC01E75AFF4F21E030E0318320836B
:1009B000369722E030E031832083FBC08091E4034E
:1009C0009091E5030E944E13882309F460C048EE1D
:1009D00053E060E070E080EF93E00E944F088823CE
:1009E000B1F183EB90E00E94EB08E091E403F09119
:1009F000E503ED5AFF4F80819181892B41F580916C
:100A0000E603882391F08CE990E00E94EB08809146
:100A1000E4039091E50321E0FC0143A961E04896DD
:100A20000E94D7131092E60312C088EA90E00E9459
:100A3000EB088091E4039091E50321E0FC0142A9D9
:100A400061E048960E94D71381E08093E60380918D
:100A5000E4039091E503AC01405F5F4FFC016281CC
:100A60000E94F908882309F4A4C048E853E160E033
:100A700070E080E094E00E944F08882309F499C058
:100A800081EC90E0DF91CF911F910C94EB08C09125
:100A9000E403D091E5036B81CE010E94AE11182FC3
:100AA0008F81181739F00E94B7146C8B7D8B8E8B59
:100AB0009F8B1F83112309F47CC048EE53E060E054
:100AC00070E084EF93E00E944F08882351F180EF9B
:100AD00090E00E94EB08E091E403F091E503ED5A09
:100AE000FF4F80819181892BE1F48091E703882376
:100AF00061F084ED90E00E94EB08E091E403F09156
:100B0000E50310AA1092E7030CC083EE90E00E9468
:100B1000EB08E091E403F091E50381E080AB809382
:100B2000E7038091E4039091E503AC014C5E5F4FD5
:100B3000FC0163810E94F9088823D9F148E853E158
:100B400060E070E084E094E00E944F08882389F11F
:100B50008EE091E00E94EB08E091E403F091E50360
:100B6000DF01AD5ABF4F8D919C91892B11F595A551
:100B700081E0892785A7882311F061E301C060E344
:100B800084E090E00E9475118DEF90E00E94D00803
:100B9000E091E403F091E50385A5811103C088EDA0
:100BA00091E002C082ED91E0DF91CF911F910C9412
:100BB0005809DF91CF911F9108954F925F926F92E4
:100BC0007F928F929F92AF92BF92EF92FF921F936C
:100BD000CF93DF93EC01888199819D838C83892B4E
:100BE00031F48F819885009711F00E94DD0511E0A6
:100BF0008C819D81892B09F47DC08F819885009718
:100C000029F00E94DD05811101C010E0EC81FD8119
:100C1000E1A0F2A0808180FF6AC085859685A785C6
:100C2000B089892B8A2B8B2B69F4908180818E7FF0
:100C3000808380818D7F808390FF59C0CF010E9487
:100C4000721455C00E94B714EC81FD81218132815C
:100C50004381548141845284638474848580968066
:100C6000A780B084DC01CB0184199509A609B709D6
:100C700088159905AA05BB05D0F185859685A785B8
:100C8000B089181619061A061B065CF48585968528
:100C9000A785B0890197A109B10985879687A7879C
:100CA000B08B85899689A789B08D0196A11DB11D4C
:100CB000858B968BA78BB08F85809680A780B0841C
:100CC00081859285A385B485880D991DAA1DBB1DBC
:100CD00081879287A387B48725833683478350878C
:100CE000018CF28DE02D309711F0099510E0FD8216
:100CF000EC827ECF112399F08E81882381F083B717
:100D0000817F83BF83B7816083BF83B7816083BFE7
:100D1000889583B78E7F83BF83B78E7F83BF812FF4
:100D2000DF91CF911F91FF90EF90BF90AF909F9078
:100D30008F907F906F905F904F9008950F931F93C7
:100D4000CF93DF93FC01A3A1B4A11097E9F1EC01CB
:100D5000158A168A178A108E038CF48DE02D309731
:100D600079F1888181FD2CC014960D911C91159705
:100D70001596DC93CE9314978881826088830995B9
:100D8000988180FB90F9988388818D7F8883EBA17F
:100D9000FCA1158304830E94B71409811A812B8159
:100DA0003C810D831E832F833887DC01CB01801BA0
:100DB000910BA20BB30B89879A87AB87BC8704C0C2
:100DC000888181608883E7CFDF91CF911F910F9158
:100DD0000895CF93DF93EC01988188818E7F88837B
:100DE00088818D7F888390FF03C0CE010E9472149A
:100DF0008BA19CA1009769F11CA21BA2EF8DF8A109
:100E0000A9A1BAA1309799F4109749F4DC01119681
:100E10001C921E9213961C921E9212971AC09096C4
:100E20001C921E925F97FC01B183A08312C01097A1
:100E300041F412A211A2DC011396FC93EE931297D7
:100E400008C0B2A3A1A3A9A1BAA19096FC93EE9366
:100E50005F97DF91CF9108950E94B01CFC0124811F
:100E600035816217730748F480819181009729F0DA
:100E7000FC01E60FF71F8081089580E0089520911E
:100E80005E0230915F022817390771F490915D027C
:100E900080915C02981741F0E0915D02F0E0E15E24
:100EA000FB4F808190E008958FEF9FEF08950895A4
:100EB0001F93CF93DF93DC015C968D919C915D979E
:100EC000009739F421E030E013963C932E9312976B
:100ED0003BC05196ED91FC91529750962C915097B2
:100EE000322F30951FB75E964C915E97742F7270BB
:100EF00041FD6095F8944081772311F0422B01C0A9
:100F000043234083EC012197F1F748E0508160FFD3
:100F100002C0522B01C053235083EC012197F1F7FB
:100F20006695415099F78081772319F08323808358
:100F300002C0282B20831FBF5C968D919C915D97EA
:100F40000197F1F781E090E0DF91CF911F91089533
:100F500020915E0230915F022817390771F4809169
:100F60005C0220915D0290E0805C9F4F821B9109A2
:100F700060E470E00E949B1A089580E090E008957C
:100F800020915E0230915F0228173907B9F49091E1
:100F90005D0280915C02981789F0E0915D02F0E0BB
:100FA000E15EFB4F808120915D0230E02F5F3F4F7B
:100FB0002F73332720935D0290E008958FEF9FEF0A
:100FC00008950F931F93CF93DF93EC0188818E7F59
:100FD000888388818D7F888319861A861B861C8664
:100FE0001D821E821F82188619821A821B821C8211
:100FF00018A21F8E1AA219A21CA21BA21D8A1E8A49
:101000001F8A188E3A8F298F1C8E1B8E1E8E1D8E66
:1010100049835A836B837C8389819A81AB81BC81AC
:101020008D839E83AF83B8870E94B71469877A87C0
:101030008B879C878FEF9FEFDC018D879E87AF8723
:10104000B88B898B9A8BAB8BBC8B0115110501F189
:101050008BA19CA108171907D9F01CA30BA3D801D9
:101060008D919C911197892B29F4CD93DC9318A233
:101070001F8E09C0D8011296ED91FC911397F8A329
:10108000EF8FD2A3C1A31AA219A2F801D383C283FE
:10109000CE01DF91CF911F910F910C949E06CF92BC
:1010A000DF92EF92FF920F931F93CF93DF93EC01A8
:1010B0006A017B010E94B714088119812A813B8152
:1010C000DC01CB01801B910BA20BB30B11E0C81606
:1010D000D906EA06FB0608F010E00E94B714688300
:1010E00079838A839B83812FDF91CF911F910F9109
:1010F000FF90EF90DF90CF900895009769F0FC018A
:1011000001900020E9F73197AF01481B590BBC0152
:1011100080E692E00C94E00B80E090E008958F92DE
:101120009F92AF92BF920F931F93CF93DF93CDB750
:10113000DEB7A1970FB6F894DEBF0FBECDBF19A2E0
:10114000423008F44AE08E010F5D1F4F842E912C2F
:10115000A12CB12CA50194010E945E1AE62FB901C1
:10116000CA0101501109EA3014F4E05D01C0E95CE4
:10117000D801EC93232B242B252B61F7C8010E9467
:101180007D08A1960FB6F894DEBF0FBECDBFDF91EC
:10119000CF911F910F91BF90AF909F908F90089526
:1011A0000F931F93CF93DF938C01C0E0D0E0F80141
:1011B000EC0FFD1F6491662341F080E692E00E94EF
:1011C000770C892B11F02196F2CFCE01DF91CF91D0
:1011D0001F910F910895CF93DF930E94D008EC01E7
:1011E0008DED91E00E947D088C0F9D1FDF91CF91C6
:1011F00008950F931F93CF93DF93EA010E94AE11DE
:10120000811107C00E94B714688379838A839B8306
:1012100012C00E94B714088119812A813B81AB0159
:10122000BC01401B510B620B730B81E048385341EA
:101230006105710508F480E0DF91CF911F910F9156
:1012400008958F929F92AF92BF92CF92DF92EF92CA
:10125000FF920E9492144B015C0185E0C82ED12CB4
:10126000E12CF12C0E949214DC01CB018819990920
:10127000AA09BB09883E9340A105B10598F321E076
:10128000C21AD108E108F10888EE880E83E0981EA2
:10129000A11CB11CC114D104E104F10419F7FF90A1
:1012A000EF90DF90CF90BF90AF909F908F90089578
:1012B000CF93DF930E947D08EC018DED91E00E94B9
:1012C0007D088C0F9D1FDF91CF910895EF92FF92C3
:1012D0000F931F93CF93DF937C0100E110E0C0E0F8
:1012E000D0E0D701ED91FC910190F081E02DC70194
:1012F0000995C80FD91F0150110999F7CE0124E0B3
:10130000959587952A95E1F7DF91CF911F910F91E0
:10131000FF90EF9008950F931F93CF93DF938C016D
:10132000D62FFC018589811102C0CBEF01C0C5E039
:101330006D2FC8010E949F134C2F480F453B08F0AA
:1013400044EB20E06D2FC801DF91CF911F910F91E9
:101350000C94AF130F931F93CF93DF938C01D62F71
:10136000FC018589882311F0CBEF01C0C5E06D2F0A
:10137000C8010E949F134C2F480F453B08F044EBD7
:1013800020E06D2FC801DF91CF911F910F910C9438
:10139000AF13CF93DF93682F70E080E090E04AE0D6
:1013A0000E948F08EC018DED91E00E947D088C0F6A
:1013B0009D1FDF91CF9108951F93CF93DF93C82F87
:1013C000D62F641710F4142F02C0162FD42FC2305A
:1013D00051F0C33071F0C13091F46D2F86E090E090
:1013E0000E94751112C06D2F88E090E00E94751167
:1013F00010C06D2F8AE090E00E9475110EC0C230BF
:1014000041F0C33051F0C13069F4612F87E090E0C2
:1014100007C0612F89E090E003C0612F8BE090E06E
:101420000E9475118091140490911504212F4D2F65
:101430006C2F4896DF91CF911F910C947C13CF9223
:10144000DF92EF92FF92CF93DF936C01990FEE083A
:10145000FF08F7FE13C06DE280E692E00E94770C71
:10146000EC0166277727CB016C197D098E099F094E
:101470004AE00E948F08C80FD91F06C04AE0C70182
:10148000B6010E948F08EC018DED91E00E947D086D
:101490008C0F9D1FDF91CF91FF90EF90DF90CF9049
:1014A0000895CF92DF92EF92FF920F931F93CF9305
:1014B000DF93DC0112962C912223E1F08B017C0159
:1014C000C0E0D0E0F80184819581C817D90790F475
:1014D000D701CD90DC90BE01C8010E942E07D60135
:1014E000ED91FC910190F081E02D682FC6010995E6
:1014F0002196E8CFDF91CF911F910F91FF90EF9050
:10150000DF90CF900895FC01808191810C94611B44
:10151000EF92FF920F931F93CF93DF93EC01FB01A8
:1015200004811581E080F180E114F104C9F0011516
:101530001105C9F08C819D81080F191FB801CE01DA
:101540000E94F00C882361F0288139818C819D8173
:10155000B701820F931F0E94BE1C1D830C8303C022
:10156000CE010E94170DCE01DF91CF911F910F91F7
:10157000FF90EF9008951F920F920FB60F921124D3
:101580002F933F934F935F936F937F938F939F938B
:10159000AF93BF93EF93FF93E0915E02F0915F02F0
:1015A000309709F451C0968DA685B785858591FF42
:1015B00004C09C91892329F447C09C91892309F098
:1015C00043C0A389B4899C918589809589238C9394
:1015D000868997890197F1F7608D718DA685B7850A
:1015E000558538E020E0CB010197F1F7822F90E09C
:1015F00095958795282F4C91452309F02068315007
:1016000091F7868D81FD209580915C0290E0019696
:101610008F73992730915D02381749F0A0915C02D1
:10162000B0E0A15EBB4F2C9380935C0203C0868D1B
:101630008160868F828D938D0197F1F7A389B4899C
:101640009C918589892B8C93FF91EF91BF91AF91EC
:101650009F918F917F916F915F914F913F912F91CA
:101660000F900FBE0F901F901895833081F028F4D3
:10167000813099F08230A1F008958730A9F0883048
:10168000B9F08430D1F4809180008F7D03C08091C7
:1016900080008F7780938000089584B58F7702C093
:1016A00084B58F7D84BD08958091B0008F7703C08D
:1016B0008091B0008F7D8093B00008951F93CF93E9
:1016C000DF93282F30E0F901EE5EFD4F8491F901A0
:1016D000E250FE4FD491F901E651FE4FC491CC2364
:1016E000C1F0162F81110E94350BEC2FF0E0EE0FA8
:1016F000FF1FE052FE4FA591B4919FB7F8941111CE
:1017000004C08C91D095D82302C0EC91DE2BDC93E1
:101710009FBFDF91CF911F910895CF93DF9390E00A
:10172000FC01E250FE4F2491FC01E651FE4F8491F2
:10173000882361F190E0880F991FFC01EA52FE4F67
:10174000C591D491FC01E052FE4FA591B491611175
:1017500009C09FB7F8948881209582238883EC91F3
:101760002E230BC0623061F49FB7F8948881322F2A
:10177000309583238883EC912E2B2C939FBF06C03A
:101780008FB7F894E8812E2B28838FBFDF91CF91FC
:1017900008958E3008F08E508770806480937C00AE
:1017A00080917A00806480937A0080917A0086FD2F
:1017B000FCCF809178002091790090E0922B0895E1
:1017C000CF92DF92EF92FF920F931F93CF93DF930D
:1017D0006C017A018B01C0E0D0E0CE15DF0581F00D
:1017E000D8016D918D01D601ED91FC910190F081B0
:1017F000E02DC6010995892B11F02196EECF7E01CF
:10180000C701DF91CF911F910F91FF90EF90DF9073
:10181000CF900895089580E090E00895FC01538DE5
:10182000448D252F30E0842F90E0821B930B5417BA
:1018300010F0CF96089501970895FC01918D828D47
:10184000981761F0828DDF01A80FB11D5D968C9114
:10185000928D9F5F9F73928F90E008958FEF9FEF1F
:101860000895FC01918D828D981731F0828DE80FDB
:10187000F11D858D90E008958FEF9FEF0895FC0195
:10188000918D228D892F90E0805C9F4F821B910962
:101890008F739927089580E692E00E943F0C21E023
:1018A000892B09F420E0822F0895FC01848DDF014B
:1018B000A80FB11DA35ABF4F2C91848D90E00196C3
:1018C0008F739927848FA689B7892C93A089B189B2
:1018D0008C91837080648C93938D848D981306C053
:1018E0000288F389E02D80818F7D80830895EF92B7
:1018F000FF920F931F93CF93DF93EC0181E0888FCA
:101900009B8D8C8D981305C0E889F989808185FDB0
:1019100026C0F62E0B8D10E00F5F1F4F0F7311279F
:10192000E02E8C8DE8120CC00FB607FCFACFE889C8
:10193000F989808185FFF5CFCE010E94550CF1CF4A
:101940008B8DFE01E80FF11DE35AFF4FF0829FB728
:10195000F8940B8FEA89FB89808180620AC09FB767
:10196000F894EE89FF896083E889F9898081837022
:10197000806480839FBF81E090E0DF91CF911F91D1
:101980000F91FF90EF900895CF93DF93EC01888D36
:101990008823C9F0EA89FB89808185FD05C0A88973
:1019A000B9898C9186FD0FC00FB607FCF5CF8081F9
:1019B00085FFF2CFA889B9898C9185FFEDCFCE0143
:1019C0000E94550CE7CFDF91CF91089580E090E021
:1019D000892B29F00E944B0C81110C940000089572
:1019E0000F931F93CF93DF93EC0188819981009728
:1019F00029F02A813B812617370788F48B016F5F16
:101A00007F4F0E94EA1B009761F0998388831B83B4
:101A10000A832C813D81232B11F4FC01108281E08B
:101A200001C080E0DF91CF911F910F910895CF9376
:101A3000DF93EC0188819981009711F00E94611B6E
:101A4000198218821D821C821B821A82DF91CF911B
:101A50000895EF92FF920F931F93CF93DF93EC01C2
:101A600086179707C1F0FB0100811181011511054F
:101A700039F0E480F580B7010E94F00C811104C0B8
:101A8000CE010E94170D07C0FD82EC82B80188814B
:101A900099810E94BE1CCE01DF91CF911F910F91C1
:101AA000FF90EF900895EF92FF920F931F93CF93C3
:101AB000DF93EC01198218821B821A821D821C821C
:101AC0006115710521F18B01FB0101900020E9F7FF
:101AD00031977F01E61AF70AB7010E94F00C8111D5
:101AE00009C0CE01DF91CF911F910F91FF90EF9030
:101AF0000C94170DFD82EC82B80188819981DF91E9
:101B0000CF911F910F91FF90EF900C94BE1CDF912D
:101B1000CF911F910F91FF90EF9008951F920F9218
:101B20000FB60F9211242F933F934F935F936F93B0
:101B30007F938F939F93AF93BF93EF93FF9380E631
:101B400092E00E94550CFF91EF91BF91AF919F9150
:101B50008F917F916F915F914F913F912F910F9056
:101B60000FBE0F901F9018951F920F920FB60F92F5
:101B700011242F938F939F93EF93FF93E091700223
:101B8000F09171028081E0917602F091770282FDFE
:101B900012C09081809179028F5F8F7320917A02B9
:101BA000821751F0E0917902F0E0E05AFD4F958FF5
:101BB0008093790201C08081FF91EF919F918F9175
:101BC0002F910F900FBE0F901F9018958F929F929C
:101BD000AF92BF92CF92DF92EF92FF92FC0182818F
:101BE00028E532E06901C81AD10887FDD394CC0CEE
:101BF000DD1CCC0CDD1C0D2C000CEE08FF088181D7
:101C000028E830E04901881A910887FD9394880CF0
:101C1000991C880C991C092C000CAA08BB08E081AF
:101C2000EF3FA9F088E0E89FF0011124EF59FB4F46
:101C30002181328183E0220F331F8A95E1F794E0FE
:101C4000369527959A95E1F72E5F3F4F02C020E029
:101C500030E02F5F3F4FC901330FAA0BBB0B9C0134
:101C6000AD01281939094A095B09A4EBB0E00E94CB
:101C7000141AA7019601281939094A095B090E941B
:101C8000F519C901FF90EF90DF90CF90BF90AF9012
:101C90009F908F9008950F931F93CF93DF938C01A4
:101CA000DC01EC91B8E0EB9FF0011124EF59FB4F00
:101CB000C381D481C03282E0D80784F4C8010E9475
:101CC000E60DC817D90711F10E942109F7CF80E06E
:101CD00090E0C817D907D1F00E942109D801EC91F2
:101CE000EF3FA9F3B8E0EB9FF0011124EF59FB4F50
:101CF0008181928123E0880F991F2A95E1F734E0D2
:101D0000969587953A95E1F70296E3CFDF91CF91CB
:101D10001F910F9108958F929F92AF92BF92EF9271
:101D2000FF920F931F93CF93DF937C01142FFC013D
:101D30000081F8E00F9FE0011124FE01EF59FB4FF5
:101D400074836383442309F471C0603282E07807AE
:101D50000CF03FC0CB01653B710514F084EB90E0C3
:101D6000F7012181A8E8B0E04D01821A910827FD12
:101D70009394D401AA0FBB1FAA0FBB1F4D01BB0F29
:101D8000AA08BB08428128E532E0241B310947FD3F
:101D90003395220F331F220F331FA901330F660B18
:101DA000770B9A01AB01281939094A095B09DC0153
:101DB00097FF02C0A0E0B0E00E941F1A24EB30E0C1
:101DC00040E050E00E94F519820E931EA41EB51E3D
:101DD000B4010C3008F09FC0F701218188E890E041
:101DE000821B910927FD9395880F991F880F991FD2
:101DF000681779077CF0228188E592E0821B9109BF
:101E000027FD9395880F991F880F991F68177907E9
:101E10000CF4CB012FB7F894CF59DB4F0297880F02
:101E2000991F9E838D831F832FBF75C06032F2E0A0
:101E30007F070CF03FC0CB01653B710514F084EBCC
:101E400090E0F7012181A8E8B0E04D01821A9108E5
:101E500027FD9394D401AA0FBB1FAA0FBB1F4D01EE
:101E6000BB0FAA08BB08428128E532E0241B3109D8
:101E700047FD3395220F331F220F331FA901330F64
:101E8000660B770B9A01AB01281939094A095B09DE
:101E9000DC0197FF02C0A0E0B0E00E941F1A24EB13
:101EA00030E040E050E00E94F519820E931EA41E1F
:101EB000B51EB401FE01EF59FB4F748363830C30F0
:101EC00050F5F701218188E890E0821B910927FDF8
:101ED0009395880F991F880F991F6817790784F0C9
:101EE000828128E532E0281B310987FD3395220FD6
:101EF000331F220F331FCB01261737070CF4C901FC
:101F00002FB7F894CF59DB4F0297880F991F9A8308
:101F100089832FBF1F82DF91CF911F910F91FF9077
:101F2000EF90BF90AF909F908F9008951F93CF93A5
:101F3000DF93EC01162F88818C3008F048C061E0F7
:101F4000812F0E948D0B888198E0899FF0011124D8
:101F5000EF59FB4F1F739081907C192B10831982CE
:101F60001A826CE00E948F1A9CE0899FA0011124C4
:101F700020E030E0FA01E20FF31F93E0EE0FFF1FC5
:101F80009A95E1F7EF59FB4F908196FD16C02F5FB0
:101F90003F4F2C30310571F781110FC01092800036
:101FA00082E0809381001092850010928400B19AA3
:101FB00080916F00826080936F00E88188E0E89FE5
:101FC000F0011124EF59FB4F808180648083888168
:101FD000DF91CF911F910895DC01E0916004EC3016
:101FE000C8F481E08E0F80936004EC9388E0E89F52
:101FF000F0011124EF59FB4F88EB9BE09283818322
:1020000015961C92159780E091E014969C938E9300
:10201000139708958FEF8C9308951F920F920FB628
:102020000F9211242F933F934F935F936F937F935E
:102030008F939F93AF93BF93EF93FF9380915F0430
:1020400087FF05C0109285001092840016C0209171
:102050005F04022E000C330B8091600490E028177F
:1020600039075CF4E0915F0428E0E202F0011124FA
:10207000EF59FB4F808186FD15C080915F048F5F13
:1020800080935F0420915F04022E000C330B80913B
:10209000600490E0281739079CF480915F048C302D
:1020A00034F10EC0E0915F0428E0E202F001112457
:1020B000EF59FB4F808160E08F730E945E0BDDCF94
:1020C000809184009091850084349C4918F480E4C8
:1020D0009CE905C0809184009091850004969093BE
:1020E0008900809388008FEF80935F04EDC0E091BA
:1020F0005F0488E0E802F0011124EF59FB4F87816B
:10210000882309F4B5C0A0915F04E0915F0488E0E2
:10211000A802D0011124AF59BB4F28E0E202F00120
:102120001124EF59FB4F15962D913C911697818103
:102130009281A0915F04E0915F048217930708F0F9
:102140004BC088E0E802F0011124EF59FB4F28E072
:10215000A202D0011124AF59BB4F17962C91818157
:102160009281820F911D92838183A0915F04E091FF
:102170005F0488E0A802D0011124AF59BB4F28E0CA
:10218000E202F0011124EF59FB4F15962D913C917D
:102190001697818192818217930708F469C0E091B4
:1021A0005F04A0915F0488E0E802F0011124EF5978
:1021B000FB4F28E0A202D0011124AF59BB4F159666
:1021C0008D919C91169792838183E0915F0488E0C2
:1021D000E802F001112449C028E0E202F0011124D4
:1021E000EF59FB4F88E0A802D0011124AF59BB4F33
:1021F00017962C9181819281821B91099283818310
:10220000A0915F04E0915F0428E0A202D0011124B4
:10221000AF59BB4F88E0E802F0011124EF59FB4FA2
:1022200015962D913C911697818192812817390737
:10223000F8F0E0915F04A0915F0428E0E202F00171
:102240001124EF59FB4F88E0A802D0011124AF59A7
:10225000BB4F15968D919C91169792838183E09147
:102260005F0428E0E202F0011124EF59FB4F1782CE
:102270002091840030918500E0915F0488E0E802BD
:10228000F0011124EF59FB4F81819281820F931F3E
:102290009093890080938800E0915F0428E0E20237
:1022A000F0011124EF59FB4F808186FF0DC0E091B2
:1022B0005F0488E0E802F0011124EF59FB4F8081B0
:1022C00061E08F730E945E0BFF91EF91BF91AF9120
:1022D0009F918F917F916F915F914F913F912F913E
:1022E0000F900FBE0F901F9018951F93CF93DF9301
:1022F000EC01162F0E94DF19181739F0612FCE015B
:10230000DF91CF911F910C94E719DF91CF911F912D
:1023100008951F93CF93DF93EC01172F0E9475113F
:10232000612FCE010196DF91CF911F910C94751111
:102330000C94DF191F93CF93DF93EC010E94981147
:10234000182FCE0101960E94981190E0982F8827AF
:10235000810F911DDF91CF911F910895CF93DF934E
:102360008CEE860F823048F4862F0E94C90B21E044
:10237000883C91055CF120E029C070E0FB01EE5E35
:10238000FD4F8491FB01E250FE4FD491FB01E651D9
:10239000FE4FC491CC23A1F081110E94350BEC2F8C
:1023A000F0E0EE0FFF1FEA53FE4FA591B491EC91C0
:1023B000ED2331E020E009F430E0832F922F02C0BA
:1023C00080E090E021E08227282F2170822FDF918A
:1023D000CF9108950F931F93CF93DF9300D000D038
:1023E00000D0CDB7DEB78C01411586E958076105ED
:1023F000710509F45EC038F5403CF2E15F07610504
:10240000710509F450C080F4403BE4E05E076105CB
:10241000710509F445C0403659406105710509F060
:1024200066C069EE71E053C0403885E25807610527
:102430007105E1F141155B446105710509F057C073
:1024400064E072E044C04115F4E85F07F3E06F0711
:102450007105A9F178F44115E1EE5E07610571059A
:1024600059F14115524C6140710509F040C06FE1CE
:1024700072E02DC0411580E158078EE068077105B4
:1024800009F14115E8E15E07E5E16E077105E9F044
:1024900040315F426740710551F561E372E017C05A
:1024A00060EE71E014C062EF71E011C06BEF71E09B
:1024B0000EC06DE072E00BC066E172E008C068E239
:1024C00072E005C06AE372E002C063E472E0CE012C
:1024D00001960E94530DBE016F5F7F4FF80182810C
:1024E00093810E94510ACE0101960E94830A26968A
:1024F0000FB6F894DEBF0FBECDBFDF91CF911F9115
:102500000F910895EF92FF920F931F93CF93DF9354
:10251000CDB7DEB72C970FB6F894DEBF0FBECDBF98
:102520008C017B016CE472E0CE0101960E94530D98
:10253000B701CE0101960E94880A18861F821A866A
:1025400019861C861B86BC01CE0107960E94290DA8
:10255000BE01695F7F4FF801828193810E94510A19
:10256000CE0107960E94830ACE0101960E94830A3B
:102570002C960FB6F894DEBF0FBECDBFDF91CF9182
:102580001F910F91FF90EF900895AF92BF92CF925D
:10259000DF92EF92FF920F931F93CF93DF93CDB70C
:1025A000DEB762970FB6F894DEBF0FBECDBF6C01E9
:1025B0005B016FED71E0CE010D960E94530D00E0BE
:1025C00010E0B801C5010E942E079FEC980F9930CA
:1025D00010F010E049C089831A82E988FA88FFEF79
:1025E000EF1AFF0AB701CE010D960E94F00C882366
:1025F00069F02D853E8589899A89BE016F5F7F4F7D
:10260000820F931F0E94BE1CFA8AE98A0F5F1F4F38
:1026100004301105B1F664E572E0CE0101960E9426
:10262000530DBE01635F7F4FCE0101960E94880A61
:1026300018861F821A8619861C861B86BC01CE014D
:1026400007960E94290DBE01695F7F4FF6018281C6
:1026500093810E94510ACE0107960E94830ACE01FF
:1026600001960E94830A11E0CE010D960E94830A12
:10267000812F62960FB6F894DEBF0FBECDBFDF91FB
:10268000CF911F910F91FF90EF90DF90CF90BF906F
:10269000AF900895FC0182810C94C90B1F93CF93D6
:1026A000DF93EC016A810E94AE11182F8E811817FA
:1026B00039F00E94B714688B798B8A8B9B8B1E83B1
:1026C000812FDF91CF911F9108951F93CF93DF93B7
:1026D000EC0168810E94AE11182F8C81181739F017
:1026E0000E94B714688779878A879B871C83812F0C
:1026F000DF91CF911F910895FC01453B08F044EB19
:10270000253B08F024EB822F421708F4842F24176E
:1027100008F4242F9589911103C0982F822F292F17
:10272000623039F0633041F0613041F4228F838FA1
:102730000895248F858F0895268F878F089562309E
:1027400031F0633031F0613041F4099603C00396F3
:1027500001C00F960E94E60D08958FEF08950F9324
:102760001F93CF93FC01C22F623041F0633051F0D0
:102770006130C9F48C01075F1F4F07C08C010D5FEA
:102780001F4F03C08C01015F1F4F642F70E0418D0C
:10279000C8010E948B0ECC2331F0C801CF911F914C
:1027A0000F910C944B0ECF911F910F9108950F93A1
:1027B0001F93CF93FC01942F623039F0633009F4FA
:1027C0003EC0613009F057C017C08789811153C0DE
:1027D000458D348D842F341708F4832F981748F0D3
:1027E000842F431708F4832F482F981718F4492F84
:1027F00001C0482F62E039C0868981113CC0338D09
:10280000828D632F831708F4682F961738F0632F93
:10281000381708F4682F961708F4692FC22F8F0114
:10282000075F1F4F70E0418DC8010E948B0ECC23C3
:1028300011F1C801CF911F910F910C944B0E808D17
:10284000811119C0478D368D842F341708F4832FDA
:10285000981748F0842F431708F4832F482F9817B0
:1028600018F4492F01C0482F63E0CF01CF911F9189
:102870000F910C94AF13CF911F910F910895CF93A7
:10288000DF93EC016D8B2B8D4A8D61E00E947C13F0
:102890002D8D4C8D62E0CE010E947C132F8D4E8DCC
:1028A00063E0CE01DF91CF910C947C130F931F93C3
:1028B000CF93DF938C0183E090E00E94C91AEC0172
:1028C000F80187812AE531E0398328838A8360E033
:1028D0000E948D0BF801D183C083DF91CF911F91AE
:1028E0000F9108950F931F93CF93DF93DC015D96B3
:1028F000ED91FC915E97309781F0EC01ABA1BCA10A
:1029000014960D911C91159715969C938E93149780
:102910000995EBA1FCA115830483DF91CF911F9151
:102920000F9108953FB7F8948091C6049091C70421
:10293000A091C804B091C90426B5A89B05C02F3F3B
:1029400019F00196A11DB11D3FBFBA2FA92F982FD5
:102950008827820F911DA11DB11DBC01CD0142E050
:10296000660F771F881F991F4A95D1F708952FB7D3
:10297000F8946091C2047091C3048091C404909152
:10298000C5042FBF08951F920F920FB60F92112406
:102990002F933F938F939F93AF93BF938091C204E4
:1029A0009091C304A091C404B091C5043091C104B6
:1029B00023E0230F2D3720F40196A11DB11D05C082
:1029C00026E8230F0296A11DB11D2093C104809318
:1029D000C2049093C304A093C404B093C50480912F
:1029E000C6049091C704A091C804B091C90401968F
:1029F000A11DB11D8093C6049093C704A093C80481
:102A0000B093C904BF91AF919F918F913F912F9146
:102A10000F900FBE0F901F901895CF93DF9300D0AB
:102A200000D0CDB7DEB7789484B5826084BD84B51C
:102A3000816084BD85B5826085BD85B5816085BDB9
:102A400080916E00816080936E0010928100809171
:102A500081008260809381008091810081608093F9
:102A60008100809180008160809380008091B1001E
:102A700084608093B1008091B00081608093B00049
:102A800080917A00846080937A0080917A008260DD
:102A900080937A0080917A00816080937A0080919F
:102AA0007A00806880937A001092C100E0917002F1
:102AB000F091710282E08083E0916C02F0916D02EE
:102AC0001082E0916E02F0916F028FEC8083109281
:102AD0007802E0917402F091750286E08083E091C3
:102AE0007202F0917302808180618083E0917202B2
:102AF000F0917302808188608083E0917202F0918E
:102B00007302808180688083E0917202F091730289
:102B100080818F7D808380ED91E00E94EB0861E0F1
:102B200080919F030E948D0B61E08091A0030E9421
:102B30008D0B61E08091A1030E948D0B82E3809355
:102B4000B80360919F0370E082EA93E00E94960FC1
:102B50006091A00370E088EA93E00E94960F609174
:102B6000A10370E08EEA93E00E94960F2BE44FE001
:102B700061E08FE993E00E947C132BE44FE062E078
:102B80008FE993E00E947C132BE44FE063E08FE930
:102B900093E00E947C1362E0809187030E948D0B7A
:102BA00062E0809188030E948D0B62E0809189032E
:102BB0000E948D0B62E080918A030E948D0B10921F
:102BC000C1038FEB93E00E94561461E08091CC0327
:102BD0000E948D0B8FE190E00E94C91A8C01F09049
:102BE000CA03E090CB03DC0113961C921E9212974D
:102BF00088EE93E0A0E0B0E0F80184839583A6839B
:102C0000B7838EE091E091838083178A168A118EB4
:102C1000108E138E128E158E148E668D6E7F6D7FC4
:102C2000668F6695617081E068278F2D0E945E0B2C
:102C300061E08F2D0E948D0B8F2D90E0FC01E25002
:102C4000FE4FE491D8015096EC93FC01E651FE4F03
:102C5000E491F0E0EE0FFF1FE052FE4F859194915A
:102C6000F801928B818B60E08E2D0E948D0BD80134
:102C70005E968C9181FD04C061E08E2D0E945E0BFA
:102C8000F801E4868E2D90E0FC01E250FE4FE491C5
:102C9000D8011D96EC931D97FC01E651FE4FE4917F
:102CA000F0E0EE0FFF1FEA53FE4F25913491F8013B
:102CB000378726871093CE030093CD03138E128E91
:102CC000118E108E178A168A25E630E0358F248FF4
:102CD000F5E1FE1508F458C021E230E057963C9328
:102CE0002E93569723E630E059963C932E935897AF
:102CF00022E430E05B963C932E935A975091680003
:102D0000B7E0BE1560F441E0EDE0EE1508F040E0FC
:102D100031E0232F01C0220F4A95EAF701C024E0D9
:102D2000252B20936800F7E0FE1530F42DE02E15DA
:102D300030F42CE630E005C02DE630E002C02BE692
:102D400030E0D80154963C932E935397B7E0BE15CC
:102D500030F081E001C0880FEA94EAF70EC0EDE0A0
:102D60009C01EE1518F02850310902C02E5031098F
:102D700081E001C0880F2A95EAF7D80155968C9317
:102D800085E690E00197F1F7F801828D938D892B0C
:102D900049F1E0915E02F0915F020E171F0711F1F9
:102DA000309739F0A389B4899C91858980958923CE
:102DB0008C93D8015E968C915E978E7F5E968C93F5
:102DC0005E9710925C0210925D0210935F02009376
:102DD0005E025396ED91FC915497908155968C919B
:102DE000892B808383E090E00E94C91A7C0107E868
:102DF00013E08091CD039091CE03F701128291836D
:102E00008083F092D203E092D10384E090E00E94AC
:102E1000C91ADC011396FC92EE92129720E231E07F
:102E20002D933C939093D0038093CF031092D303C0
:102E30001092D4031092D5031092D60360E08091D3
:102E4000CC030E945E0B1092D7031093E303009310
:102E5000E2031093E5030093E40310930904009345
:102E6000080410930B0400930A0410930D040093BC
:102E70000C0419821A821B821C82FE0131967F018A
:102E800000E010E06F01C8010E94DF19D7018D93A7
:102E90007D010F5F1F4F04301105A9F769817A8109
:102EA0008B819C8120E03DEC4BE257E40E94B619F7
:102EB000811168C000910C0410910D0484E090E031
:102EC0000E94981161E0813309F060E0C8014896E2
:102ED0000E943F1400910C0410910D0486E090E0D4
:102EE0000E949811F82E87E090E00E949811282FF8
:102EF0004F2D61E0C80148960E947C1300910C049C
:102F000010910D0488E090E00E949811F82E89E05D
:102F100090E00E949811282F4F2D62E0C80148963A
:102F20000E947C1300910C0410910D048AE090E043
:102F30000E949811F82E8BE090E00E949811282FA3
:102F40004F2D63E0C80148960E947C13A0900C04AA
:102F5000B0900D048CE090E00E949811182F8DE045
:102F600090E00E949A116C018FE090E00E949A110B
:102F70007C01C501C896F50112AF111154C00E9421
:102F8000561451C061E384E090E00E9475116FE037
:102F900086E090E00E9475116BE487E090E00E946B
:102FA00075116FE088E090E00E9475116BE489E094
:102FB00090E00E9475116FE08AE090E00E94751128
:102FC0006BE48BE090E00E94751160E08CE090E093
:102FD0000E94751160E070E08DE090E00E94891120
:102FE0006FEF73E08FE090E00E94891180E09DEC2C
:102FF000ABE2B7E489839A83AB83BC83760100E0BC
:1030000010E0D701DD907D01C8010E94DF19D816BC
:1030100021F06D2DC8010E94E7190F5F1F4F04308A
:10302000110579F747CF87E893E0E0910C04F09120
:103030000D04D4AEC3AEF6AEE5AE90930F0480930C
:103040000E04909315048093140460E08FE993E0DC
:103050000E943F1460E384E090E00E94751110929A
:10306000C1038FEB93E00E94561460E08CE090E087
:103070000E94751185E793E0B3E08E379B0721F03E
:103080009093860380938503E0918503F0918603F6
:10309000309709F016828CE693E0E3E085379E07CF
:1030A00021F090937D0380937C03E0917C03F09169
:1030B0007D03309709F016820EE713E0D801ED90FA
:1030C000FC90E114F10439F0C7010E949E06F7015B
:1030D000E1A0F2A0F6CFD80117960D911C91189798
:1030E0000115110559F78EE793E00E94DD050E9456
:1030F000E60CF9CFEF92FF920F931F93CF93DF93DC
:10310000E0E6F2E01382128288EE93E0A0E0B0E005
:1031100084839583A683B78388E491E09183808339
:1031200085EC90E09587848784EC90E0978786878C
:1031300080EC90E0918B808B81EC90E0938B828B84
:1031400082EC90E0958B848B86EC90E0978B868B5D
:10315000118E128E138E148EC7E8D3E01C821D824E
:103160001E821F82188619861A861B861C861D865B
:103170001E861F86188A198A1A8A1B8A1C8A1D8A2B
:103180001E8A1F8A84E1888385E189838EE08A8391
:103190008AE08B8382EA93E00E94EC0F88EA93E056
:1031A0000E94EC0F8EEA93E00E94EC0F11E01DA745
:1031B0001EA61FA618AA82E389AB85E0888F89E046
:1031C000898F86E08A8F1CAE1BAEEE24EA9483E0E2
:1031D000F82EFEAEEDAE8FE08FAF8FEF8093C7037A
:1031E0008093C9031092D3031092D4031092D50395
:1031F0001092D6031092D7038093CA038093CB0317
:103200008093CC0381E090E00E94C91A9093D90387
:103210008093D8031092E1031092E0031092E6032A
:103220001092E7031092E8031092E9031092EA0368
:103230001092EB031092EC031092ED031092EE0348
:103240001092EF031092F0031092F1031092F20328
:103250001092F3031092F4031092F5031092F60308
:103260001092F7031092F8031092F9031092FA03E8
:103270001092FB031092FC031092FD031092FE03C8
:103280001092FF03109200041092010410920204A5
:103290001092030410920404109205041092060484
:1032A00010920704F0921104E0921004109213049B
:1032B000109212041092160410921804109217041F
:1032C000EEE7F3E0118210821382128215821482DB
:1032D000108617821683E5E7F3E0118210821382CD
:1032E000128215821482108617821683ECE6F3E0B0
:1032F0001182108213821282158214821086178224
:1033000016830EE713E029EE33E044E650E060E078
:1033100070E087E493E00E94E10727E333E04AE0AE
:1033200050E060E070E082E293E00E94E1070CE68A
:1033300013E02FE331E042E350E060E070E08DEF16
:1033400092E00E94E107DF91CF911F910F91FF90D2
:10335000EF9008958DEF92E00E94E90682E293E0FB
:103360000E94E90687E493E00C94E9060E94BB19E9
:1033700008F481E00895990F0008550FAA0BE0E8C2
:10338000FEEF16161706E807F907C0F01216130627
:10339000E407F50798F0621B730B840B950B39F467
:1033A0000A2661F0232B242B252B21F408950A26CD
:1033B00009F4A140A6958FEF811D811D0895F9990B
:1033C000FECF92BD81BDF89A992780B50895262F2A
:1033D000F999FECF1FBA92BD81BD20BD0FB6F894FA
:1033E000FA9AF99A0FBE01960895052E97FB1EF4DE
:1033F00000940E940C1A57FD07D00E945E1A07FC29
:1034000003D04EF40C940C1A5095409530952195AC
:103410003F4F4F4F5F4F0895909580957095619500
:103420007F4F8F4F9F4F08950E94801AA59F900D48
:10343000B49F900DA49F800D911D11240895B7FF96
:103440000C94141A0E94141A821B930B08952F9245
:103450003F924F925F926F927F928F929F92AF9224
:10346000BF92CF92DF92EF92FF920F931F93CF9371
:10347000DF93CDB7DEB7CA1BDB0B0FB6F894DEBF08
:103480000FBECDBF09942A88398848885F846E842E
:103490007D848C849B84AA84B984C884DF80EE8078
:1034A000FD800C811B81AA81B981CE0FD11D0FB681
:1034B000F894DEBF0FBECDBFED010895A1E21A2E34
:1034C000AA1BBB1BFD010DC0AA1FBB1FEE1FFF1FC8
:1034D000A217B307E407F50720F0A21BB30BE40B18
:1034E000F50B661F771F881F991F1A9469F760955F
:1034F0007095809590959B01AC01BD01CF01089519
:10350000A29FB001B39FC001A39F700D811D112424
:10351000911DB29F700D811D1124911D0895991B5D
:1035200079E004C0991F961708F0961B881F7A95BA
:10353000C9F78095089597FB072E16F4009407D0DD
:1035400077FD09D00E94AF1A07FC05D03EF4909594
:1035500081959F4F0895709561957F4F0895AA1B9F
:10356000BB1B51E107C0AA1FBB1FA617B70710F06E
:10357000A61BB70B881F991F5A95A9F780959095A0
:10358000BC01CD010895EE0FFF1F0590F491E02DD1
:1035900009940F931F93CF93DF938230910510F41A
:1035A00082E090E0E091CC04F091CD0420E030E0A6
:1035B000A0E0B0E0309719F1408151810281138180
:1035C00048175907C8F08417950769F4109731F028
:1035D00012960C93129713961C9327C00093CC0459
:1035E0001093CD0422C02115310519F0421753075D
:1035F00018F49A01BD01EF01DF01F801DBCF2115BD
:103600003105F9F0281B390B2430310580F48A810B
:103610009B816115710521F0FB019383828304C0B6
:103620009093CD048093CC04FE01329644C0FE01F9
:10363000E20FF31F8193919322503109398328833C
:103640003AC02091CA043091CB04232B41F420913D
:103650000601309107013093CB042093CA042091D6
:103660000401309105012115310541F42DB73EB714
:103670004091080150910901241B350BE091CA04C7
:10368000F091CB04E217F307A0F42E1B3F0B281791
:10369000390778F0AC014E5F5F4F2417350748F0CB
:1036A0004E0F5F1F5093CB044093CA0481939193B4
:1036B00002C0E0E0F0E0CF01DF91CF911F910F91C8
:1036C0000895CF93DF93009709F481C0FC013297EE
:1036D00013821282A091CC04B091CD04109781F492
:1036E00020813181820F931F2091CA043091CB0435
:1036F0002817390751F5F093CB04E093CA0467C04B
:10370000ED0120E030E0CE17DF0740F44A815B8115
:103710009E0141155105F1F0EA01F5CFD383C28333
:1037200040815181840F951FC817D90759F48881AA
:103730009981840F951F0296918380838A819B8152
:10374000938382832115310529F4F093CD04E0930E
:10375000CC043DC0E901FB83EA8349915991C40F30
:10376000D51FEC17FD0761F480819181840F951FAF
:103770000296E90199838883828193819B838A835E
:10378000E0E0F0E012968D919C911397009719F06C
:10379000FD01DC01F7CF8D919C9111979D012E5F6A
:1037A0003F4F820F931F2091CA043091CB042817FA
:1037B000390769F4309729F41092CD041092CC04A3
:1037C00002C013821282B093CB04A093CA04DF918B
:1037D000CF910895A0E0B0E0E0EFFBE10C942B1A4C
:1037E000EC01009721F4CB010E94C91AB4C0FC017E
:1037F000E60FF71F9C0122503109E217F30708F486
:10380000A8C0D9010D911C91119706171707B0F0A8
:103810000530110508F49BC0C80104978617970767
:1038200008F495C002501109061B170B0193119360
:103830006D937C93CF010E94611B89C05B01A01A2C
:10384000B10A4C01800E911EA091CC04B091CD0420
:10385000612C712CE12CF12C109709F446C08D914C
:103860009C911197A815B905B1F56C0142E0C40E01
:10387000D11CCA14DB0478F14C018A189B0864013E
:1038800042E0C40ED11C1296BC9012971396AC91D4
:10389000B5E0CB16D10440F0B282A383918280823E
:1038A000D9016D937C9309C00E5F1F4F800F911F4C
:1038B000F90191838083EB2DFA2FE114F10431F0AB
:1038C000D7011396FC93EE93129741C0F093CD0469
:1038D000E093CC043CC06816790608F43C017D01F5
:1038E00012960D90BC91A02DB7CF8091CA049091F3
:1038F000CB0488169906E1F466167706C8F4809121
:10390000040190910501009741F48DB79EB7409155
:10391000080150910901841B950BE817F907C8F4B9
:10392000F093CB04E093CA04F901718360830FC064
:10393000CB010E94C91A7C01009759F0A801BE0171
:103940000E94B51CCE010E94611BC70104C0CE01BC
:1039500002C080E090E0CDB7DEB7EEE00C94471AED
:1039600081E090E0F8940C94C51CFB01DC0102C0DE
:1039700001900D9241505040D8F70895FB01DC01B1
:1039800001900D920020E1F7089511E0C4E1D1E02B
:1039900004C0FE010E94C31A2196C531D107C9F7A0
:0439A000F894FFCFC9
:1039A40000642D640000CE0480000000000058076D
:1039B400E00B0B0C5707A807C0073F0700000000E7
:1039C4008212C512EA11000000002C07E00B0B0C58
:1039D4000A0C2C072C072C07000000002C07E00B16
:1039E4000B0C0A0C00000000770CE00B0E0CC40C4E
:1039F4003F0C1D0C310C000000004A132D2D2D2D01
:103A04002D2D2D2D2D2D2D2D2D2D2D2D2D2D2D2DE2
:103A14002D2D2D2D2D0053656E736F722043616C17
:103A24006962726174696F6E2046696E6973686554
:103A34006400526573756C7473203A200053656E8C
:103A4400736F724D696E203D200053656E736F7203
:103A54004D6178203D20002D2D2D2D2D2D2D2D2D2A
:103A64002D2D2D2D2D2D2D2D2D2D2D2D2D2D2D2D82
:103A74000A005269676874004C656674000D0A0098
:103A840041542B42415544310041542B4241554449
:103A9400320041542B42415544330041542B42419E
:103AA4005544340041542B42415544350041542B74
:103AB40042415544360041542B424155443700415C
:103AC400542B42415544380041542B42415544390A
:103AD4000041542B42415544410041542B4241552D
:103AE40044420041542B42415544430041542B4E1F
:0C3AF400414D450041542B50494E00004C
:00000001FF
