:100000000C94C3000C94EB000C94EB000C94EB00EC
:100010000C94EB000C94EB000C94EB000C94EB00B4
:100020000C94EB000C94EB000C94EB000C94EB0F95
:100030000C94EB000C94EB000C94EB000C94EB0094
:100040000C9492060C94EB000C94EB0E0C94C50EE1
:100050000C94EB000C94EB000C94EB000C94EB0074
:100060000C94EB000C94EB00260A9C0A000B660B28
:10007000C80B2A0C6E0C890AE00C4B0D4B0D4B0D76
:100080004B0DED0C250D300D330D3E0DB814C41481
:1000900025155E1563156C15AC15A01553656E73AB
:1000A0006F724D6178203D200053656E736F726DE5
:1000B000696E203D200053656E736F7254797065D0
:1000C000203D20004D617846696E67657273203D62
:1000D00020004D6178496E646578203D20004D61B7
:1000E000785468756D62203D20004D696E46696EDA
:1000F00067657273203D20004D696E496E646578B6
:10010000203D20004D696E5468756D62203D2000D1
:1001100048616E64203D20000A454550524F4D20F5
:10012000434F4E54454E5400000000002400270069
:100130002A0000000000250028002B00000000001D
:100140002300260029000404040404040404020219
:100150000202020203030303030301020408102046
:100160004080010204081020010204081020000051
:100170000008000201000003040700000000000066
:1001800000004C1D3C1D11241FBECFEFD8E0DEBF88
:10019000CDBF11E0A0E0B1E0E4EAF3E402C00590D5
:1001A0000D92A83CB107D9F723E0A8ECB1E001C05B
:1001B0001D92AD3FB207E1F710E0C2ECD0E004C001
:1001C0002197FE010E94B41FC13CD107C9F70E94CC
:1001D000C6190C94C5210C9400000F931F93CF9364
:1001E000DF938091B0039091B1038130910521F0AC
:1001F000029709F473C092C1E091E803F091E9031A
:1002000086AD97AD019709F089C10E948606E091FD
:10021000E803F091E903DF01AD5BBF4F0D911D9144
:100220002D913C911397AB01BC01401B510B620B0C
:10023000730B403157426105710580F11D921D928B
:100240001D921C92139713978D919C9197AF86AF37
:100250008091EC039091ED032091EA033091EB0340
:1002600035AB24AB97AB86AB6091EA037091EB039F
:1002700080E190E00E9426126091EC037091ED0302
:1002800082E190E00E9426121092ED031092EC039E
:100290008FEF93E09093EB038093EA03E091E80300
:1002A000F091E90381A992A90E941A172091EC0309
:1002B0003091ED032817390724F49093ED038093D0
:1002C000EC032091EA033091EB03821793070CF0C3
:1002D00025C19093EB038093EA0320C18091EE0344
:1002E0009091EF03FC0126AD37AD2230310509F0C6
:1002F00015C12091F1033091F2032115310509F464
:1003000007C1E95BFF4FC081D0E02C173D07C1F169
:100310002330310501F164F42130310541F12230FF
:10032000310551F580960E941D0F8093F30324C080
:1003300025303105B1F04CF026303105E9F48396D3
:100340000E941D0F8093F70317C04D960E941D0F4A
:100350008093F50311C04D960E941D0F8093F60304
:100360000BC083960E941D0F8093F80305C08096F2
:100370000E941D0F8093F403D093F203C093F10306
:100380008091F1039091F203873091050CF096C0B3
:100390008530910534F4833091059CF501972CF458
:1003A000BDC007970CF459C0B9C060E070E08091FF
:1003B000EE039091EF030E94DD10E091EE03F091C7
:1003C000EF03882331F0CF01489626A1211115C0F3
:1003D00011C062E070E0CF010E94DD10882309F4B3
:1003E0009DC0E091EE03F091EF03CF01489626A166
:1003F000222319F045E050E002C04BEF5FEF61E0CF
:1004000057C060E070E08091EE039091EF030E948E
:10041000DD10E091EE03F091EF03882331F0CF017E
:10042000489626A1211115C011C062E070E0CF01ED
:100430000E94DD10882309F471C0E091EE03F09171
:10044000EF03CF01489626A1222319F045E050E0A2
:1004500002C04BEF5FEF62E02BC060E070E0809184
:10046000EE039091EF030E94DD10E091EE03F09116
:10047000EF03882331F0CF01489626A1211115C042
:1004800011C062E070E0CF010E94DD10882309F402
:1004900045C0E091EE03F091EF03CF01489626A10D
:1004A000222319F045E050E002C04BEF5FEF63E01C
:1004B000DF91CF911F910F910C94051D1092F203C3
:1004C0001092F1034091F4036091F30381E090E016
:1004D0000E943F174091F6036091F50382E090E09F
:1004E0000E943F174091F8036091F70383E090E08A
:1004F0000E943F17E091EE03F091EF03DF01A95B4B
:10050000BF4F1C9217978D919C9197AF86AF06C0F5
:1005100081E090E09093F2038093F103DF91CF911B
:100520001F910F9108950F931F93CF93DF93E09145
:10053000DE03F091DF0386AD97AD009749F0049795
:1005400009F0AFC0EE5BFF4F8081882309F4A9C09A
:100550000E9486060091E0031091E1032091E203DE
:100560003091E303DC01CB01801B910BA20BB30B99
:100570004097A105B10508F494C00E9486066093D7
:10058000E0037093E1038093E2039093E30380918F
:10059000DE039091DF03C1960E94CF118C010935D3
:1005A00082E01807C4F0C801012E000CAA0BBB0B97
:1005B0009C01AD012855324041095109AAE0B0E043
:1005C0000E942D1F27EA31E040E050E00E940E1FFC
:1005D000922F832F1AC0003981E01807A4F49801E4
:1005E000A6EFBFEF0E94BA1F20E931E040E050E0E3
:1005F0000E940E1FBA01A901465F5F4F6F4F7F4FE8
:10060000942F852F02C090E080E0C92FD82FCB30E7
:10061000D10514F0CAE0D0E0003981E01807DCF41D
:10062000E091DE03F091DF03CF01489626A14C2F25
:10063000211101C04195042E000C550B63E00E946E
:100640009D11E091DE03F091DF03CF01489626A1D2
:100650002223E1F01CC0093512401CF1E091DE03B9
:10066000F091DF03CF01489626A14C2F211141952F
:10067000042E000C550B63E00E949D11E091DE03F7
:10068000F091DF03CF01489626A12111C1954C2F8F
:10069000CC0F550B62E0DF91CF911F910F910C941D
:1006A0009D11DF91CF911F910F910895CF93DF930B
:1006B00060E070E08091BA039091BB030E94DD106E
:1006C000882309F455C048EE53E060E070E08EEBFB
:1006D00093E00E94A21660E070E08091BA039091CE
:1006E000BB030E94D016882309F45BC148E853E19C
:1006F00060E070E08EEC93E00E94A216882309F47B
:1007000050C18091BA039091BB03FC0126AD37AD77
:10071000232B09F046C140E050E062E048960E9479
:10072000411164E670E080E090E00E94D109809180
:10073000BA039091BB0344EB50E062E048960E94FC
:100740004111C091BA03D091BB03FE01E05CFF4FA1
:10075000118210820E948606FE01ED5BFF4F6083CE
:1007600071838283938381E090E09FAF8EAF19C144
:1007700061E070E08091BA039091BB030E94DD10AC
:10078000882309F45DC048EE53E060E070E082EC3D
:1007900093E00E94A216882369F0E091BA03F091D9
:1007A000BB0386AD97AD029729F4E95BFF4F8081CB
:1007B0008F5F808361E070E08091BA039091BB030A
:1007C0000E94D016882309F4ECC048E853E160E0A9
:1007D00070E082ED93E00E94A216882309F4E1C044
:1007E0008091BA039091BB03FC0126AD37AD232B5A
:1007F00009F0D7C040E050E063E048960E94411104
:1008000064E670E080E090E00E94D1098091BA0334
:100810009091BB0344EB50E063E048960E94411185
:10082000E091BA03F091BB03DF01A05CBF4F1196CA
:100830001C921E92179681E08C9382E090E059C042
:1008400062E070E08091BA039091BB030E94DD10DA
:10085000882309F451C048EE53E060E070E086EC74
:1008600093E00E94A2168823F1F0E091BA03F09180
:10087000BB0386AD97AD892BB1F42091BC03CF01AA
:100880004896222341F044A550E061E00E944111C6
:100890001092BC0308C043A550E061E00E944111E2
:1008A00081E08093BC0362E070E08091BA03909194
:1008B000BB030E94D016882309F473C048E853E1B3
:1008C00060E070E086ED93E00E94A216882309F4B0
:1008D00068C0E091BA03F091BB0386AD97AD009775
:1008E00031F0049709F05DC017AE16AE5AC084E02F
:1008F00090E097AF86AF55C063E070E08091BA0397
:100900009091BB030E94DD10882309F44AC048EE91
:1009100053E060E070E08AEC93E00E94A216E09160
:10092000BA03F091BB03882381F086AD97AD892B84
:1009300061F48091BD03882321F011A61092BD03BC
:1009400004C081E081A78093BD0363E070E0CF0124
:100950000E94D016882329F148E853E160E070E056
:100960008AED93E00E94A2168823D9F0E091BA03A1
:10097000F091BB0386AD97AD892B99F496A181E0E8
:10098000892786A384E090E00E943512813011F01F
:1009900061E001C062E084E090E0DF91CF910C94CF
:1009A0001212DF91CF9108954F925F926F927F92D2
:1009B0008F929F92AF92BF92EF92FF921F93CF932D
:1009C000DF93EC01888199819D838C83892B31F49D
:1009D0008F819885009711F00E94D40411E08C81DA
:1009E0009D81892B09F47DC08F819885009729F01E
:1009F0000E94D404811101C010E0EC81FD81E1A0CE
:100A0000F2A0808180FF6AC085859685A785B08920
:100A1000892B8A2B8B2B69F4908180818E7F808338
:100A200080818D7F808390FF59C0CF010E94C313C6
:100A300055C00E948606EC81FD812181328143816F
:100A40005481418452846384748485809680A78015
:100A5000B084DC01CB0184199509A609B709881572
:100A60009905AA05BB05D0F185859685A785B0892E
:100A7000181619061A061B065CF485859685A78547
:100A8000B0890197A109B10985879687A787B08B9F
:100A900085899689A789B08D0196A11DB11D858B89
:100AA000968BA78BB08F85809680A780B084818538
:100AB0009285A385B485880D991DAA1DBB1D8187CC
:100AC0009287A387B4872583368347835087018C19
:100AD000F28DE02D309711F0099510E0FD82EC8247
:100AE0007ECF112399F08E81882381F083B7817F97
:100AF00083BF83B7816083BF83B7816083BF8895DD
:100B000083B78E7F83BF83B78E7F83BF812FDF91B3
:100B1000CF911F91FF90EF90BF90AF909F908F90DB
:100B20007F906F905F904F9008950F931F93CF9396
:100B3000DF93FC01A3A1B4A11097E9F1EC01158AA0
:100B4000168A178A108E038CF48DE02D309779F178
:100B5000888181FD2CC014960D911C9115971596D6
:100B6000DC93CE931497888182608883099598815D
:100B700080FB90F9988388818D7F8883EBA1FCA10D
:100B8000158304830E94860609811A812B813C818A
:100B90000D831E832F833887DC01CB01801B910BD3
:100BA000A20BB30B89879A87AB87BC8704C0888167
:100BB00081608883E7CFDF91CF911F910F910895D6
:100BC000CF92DF92EF92FF920F931F93CF93DF9319
:100BD0006C017A018B01C0E0D0E0CE15DF0581F019
:100BE000D8016D918D01D601ED91FC910190F081BC
:100BF000E02DC6010995892B11F02196EECF7E01DB
:100C0000C701DF91CF911F910F91FF90EF90DF907F
:100C1000CF9008950E94B0210F931F93CF93DF933D
:100C2000EC0188819981009729F02A813B81261760
:100C3000370788F48B016F5F7F4F0E94EA2000978F
:100C400061F0998388831B830A832C813D81232B48
:100C500011F4FC01108281E001C080E0DF91CF91AE
:100C60001F910F910895EF92FF920F931F93CF93CF
:100C7000DF936115710511F480E01CC04115510529
:100C8000C1F07B01EC018C819D818A01080F191F45
:100C9000B801CE010E940C06882371F328813981A6
:100CA0008C819D81B701820F931F0E94BE211D83FD
:100CB0000C8381E0DF91CF911F910F91FF90EF9016
:100CC00008953FB7F8948091CD019091CE01A09105
:100CD000CF01B091D00126B5A89B05C02F3F19F0D8
:100CE0000196A11DB11D3FBFBA2FA92F982F8827AC
:100CF000820F911DA11DB11DBC01CD0142E0660F07
:100D0000771F881F991F4A95D1F708952FB7F89438
:100D10006091C9017091CA018091CB019091CC0181
:100D20002FBF08951F920F920FB60F9211242F9389
:100D30003F938F939F93AF93BF938091C9019091FD
:100D4000CA01A091CB01B091CC013091C80123E040
:100D5000230F2D3720F40196A11DB11D05C026E8F3
:100D6000230F0296A11DB11D2093C8018093C901D4
:100D70009093CA01A093CB01B093CC018091CD0197
:100D80009091CE01A091CF01B091D0010196A11D0B
:100D9000B11D8093CD019093CE01A093CF01B0936C
:100DA000D001BF91AF919F918F913F912F910F9063
:100DB0000FBE0F901F901895FC01808191810097C4
:100DC00011F00C945E1E60E070E0CB010895FC0110
:100DD000248135816217730748F4808191810097DF
:100DE00029F0FC01E60FF71F8081089580E0089547
:100DF000CF93DF9300D0CDB7DEB769831A8241E08D
:100E000050E0BE016F5F7F4F0E9433060F900F903E
:100E1000DF91CF910895CF93DF93EC018881998181
:100E2000009711F00E946120198218821D821C8295
:100E30001B821A82DF91CF910895EF92FF920F9358
:100E40001F93CF93DF93CDB7DEB728970FB6F894F3
:100E5000DEBF0FBECDBF7C01CB014AE08E010F5F2C
:100E60001F4FB8010E94851EF80101900020E9F78C
:100E70003197AF01401B510BB801C7010E943306E7
:100E8000811103C0C7010E940B07C70128960FB646
:100E9000F894DEBF0FBECDBFDF91CF911F910F91B0
:100EA000FF90EF900895CF93DF93EC010E94F80636
:100EB000811103C0CE010E940B07CE01DF91CF91BB
:100EC0000895CF93DF93EC016115710561F0FB018B
:100ED00001900020E9F73197AF01461B570B0E94A4
:100EE0003306811103C0CE010E940B07CE01DF91B2
:100EF000CF910895CF93DF93EC01FB01448155819D
:100F0000608171810E943306811103C0CE010E946D
:100F10000B07CE01DF91CF910895EF92FF920F93CF
:100F20001F93CF93DF93EC017B018A01BA010E94EA
:100F30000C06811104C0CE010E940B0707C01D835F
:100F40000C83B701888199810E94BE21CE01DF9177
:100F5000CF911F910F91FF90EF900895FC01808138
:100F600091810C946120FB01DC0111961C921E9270
:100F700013961C921E92129715961C921E9214970D
:100F80008617970749F0608171816115710521F01D
:100F9000448155810C948D070895FC0111821082C3
:100FA00013821282158214826115710551F0FB01C2
:100FB00001900020E9F73197AF01461B570B0C94C5
:100FC0008D070895833081F028F4813099F08230C4
:100FD000A1F008958730A9F08830B9F08430D1F4B9
:100FE000809180008F7D03C0809180008F778093F7
:100FF0008000089584B58F7702C084B58F7D84BD4D
:1010000008958091B0008F7703C08091B0008F7DEC
:101010008093B0000895009769F0FC0101900020D2
:10102000E9F73197AF01481B590BBC018BE192E006
:101030000C94E00580E090E008958F929F92AF922B
:10104000BF920F931F93CF93DF93CDB7DEB7A197D6
:101050000FB6F894DEBF0FBECDBF19A2423008F420
:101060004AE08E010F5D1F4F842E912CA12CB12CD4
:10107000A50194010E94771FE62FB901CA01015012
:101080001109EA3014F4E05D01C0E95CD801EC9389
:10109000232B242B252B61F7C8010E940B08A19656
:1010A0000FB6F894DEBF0FBECDBFDF91CF911F9179
:1010B0000F91BF90AF909F908F900895CF92DF9245
:1010C000EF92FF92CF93DF936C01990FEE08FF0828
:1010D000F7FE13C06DE28BE192E00E94C90DEC01B6
:1010E00066277727CB016C197D098E099F094AE095
:1010F0000E941D08C80FD91F06C04AE0C701B601EB
:101100000E941D08EC018DE391E00E940B088C0FFA
:101110009D1FDF91CF91FF90EF90DF90CF900895CA
:101120000F931F93CF93DF938C01C0E0D0E0F801C1
:10113000EC0FFD1F6491662341F08BE192E00E9469
:10114000C90D892B11F02196F2CFCE01DF91CF91FD
:101150001F910F910895CF93DF93682F70E080E087
:1011600090E04AE00E941D08EC018DE391E00E94AE
:101170000B088C0F9D1FDF91CF910895EF92FF9286
:101180000F931F93CF93DF93C82F0091E603109125
:10119000E70378018BE3E80EF11C6C2FC7010E9476
:1011A0008B13D82F6C2FC7010E947913282F4D2F36
:1011B0006C2FC8014896DF91CF911F910F91FF903E
:1011C000EF900C941811FC0144815581608171816C
:1011D0008BE192E00C94E005CF93DF93282F30E071
:1011E000F901E259FE4F8491F901E65AFE4FD4917C
:1011F000F901EA5BFE4FC491CC2391F081110E946A
:10120000E207EC2FF0E0EE0FFF1FE45CFE4FA5912C
:10121000B491EC91ED2381E090E021F480E002C0F4
:1012200080E090E0DF91CF9108951F93CF93DF93FB
:10123000282F30E0F901E259FE4F8491F901E65A76
:10124000FE4FD491F901EA5BFE4FC491CC23C1F06B
:10125000162F81110E94E207EC2FF0E0EE0FFF1F26
:10126000EE5CFE4FA591B4919FB7F894111104C0A4
:101270008C91D095D82302C0EC91DE2BDC939FBFDC
:10128000DF91CF911F910895CF93DF9361E081E1CA
:101290000E9415090E948606CDEDD2E06E837F8301
:1012A000888799878C819D81DC01ED91FC91048078
:1012B000F581E02D40E056E960E070E0099581E0BD
:1012C0008A87E881F98184E090E097AF86AFDF916B
:1012D000CF910895CF93DF93CDEDD2E01E821F8290
:1012E0001886198660E081E10E9415091A86E88156
:1012F000F98117AE16AEDF91CF910895CF93DF93AA
:1013000090E0FC01E65AFE4F2491FC01EA5BFE4F9F
:101310008491882361F190E0880F991FFC01E85DBA
:10132000FE4FC591D491FC01EE5CFE4FA591B491A6
:10133000611109C09FB7F894888120958223888322
:10134000EC912E230BC0623061F49FB7F894888132
:10135000322F309583238883EC912E2B2C939FBFC3
:1013600006C08FB7F894E8812E2B28838FBFDF91BA
:10137000CF9108958E3008F08E50877080648093EE
:101380007C0080917A00806480937A0080917A005A
:1013900086FDFCCF809178002091790090E0922B1F
:1013A00008958F929F92AF92BF92CF92DF92EF9269
:1013B000FF926B017C010E9461064B015C01C1142C
:1013C000D104E104F104F1F00E946106DC01CB01DB
:1013D00088199909AA09BB09883E9340A105B1055E
:1013E00070F321E0C21AD108E108F10888EE880EF6
:1013F00083E0981EA11CB11CC114D104E104F104C6
:1014000019F7DDCFFF90EF90DF90CF90BF90AF90B6
:101410009F908F900895CF92DF92EF92FF920F935B
:101420001F93CF93DF93CDB7DEB72C970FB6F89409
:10143000DEBF0FBECDBF08978231910508F02BC3E8
:101440007B018C5C9F4FFC010C94B41FCE01019674
:101450000E94B30761E0CE0101960E944919182F3E
:10146000882379F0B701CE0107960E94B30762E0A6
:10147000CE0107960E944919182FCE0107960E94A7
:10148000AE07CE0101960E94AE07112309F451C0A8
:10149000B701CE0107960E94B30741E0BE01695F24
:1014A0007F4FCE0101960E942019CE0101960E9425
:1014B000DC06062FCE0101960E94AE07CE010796EC
:1014C0000E94AE07B701CE0107960E94B30742E023
:1014D000BE01695F7F4FCE0101960E942019CE01A7
:1014E00001960E94DC066B017C01CE0101960E94F0
:1014F000AE07CE0107960E94AE078091DD02909163
:10150000DE02A601602F48960E94411188E090E01B
:1015100074C0CE0101960E94B30761E0CE0101962E
:101520000E944919182FCE0101960E94AE07111191
:101530001FC28FEF9FEFABC2CE0101960E94B3078F
:1015400061E0CE0101960E944919182F882379F095
:10155000B701CE0107960E94B30762E0CE0107965D
:101560000E944919182FCE0107960E94AE07CE019E
:1015700001960E94AE071123E1F2B701CE01079652
:101580000E94B30741E0BE01695F7F4FCE01019623
:101590000E942019CE0101960E94DC06062FCE0182
:1015A00001960E94AE07CE0107960E94AE07B701D2
:1015B000CE0107960E94B30742E0BE01695F7F4FEC
:1015C000CE0101960E942019CE0101960E94DC06F0
:1015D0006B017C01CE0101960E94AE07CE010796F9
:1015E0000E94AE078091DD029091DE02A601602F7D
:1015F00048960E949D1189E090E00E94CC174CC251
:10160000CE0101960E94B30761E0CE0101960E94CF
:101610004919182F882379F0B701CE0107960E9447
:10162000B30762E0CE0107960E944919182FCE0138
:1016300007960E94AE07CE0101960E94AE071123C5
:1016400009F477CFB701CE0107960E94B30741E0B6
:10165000BE01695F7F4FCE0101960E942019CE0125
:1016600001960E94DC06062FCE0101960E94AE076D
:10167000CE0107960E94AE07B701CE0107960E94E1
:10168000B30742E0BE01695F7F4FCE0101960E9421
:101690002019CE0101960E94DC066B017C01CE016F
:1016A00001960E94AE07CE0107960E94AE0744271E
:1016B00055274C195D098091DD029091DE02602F63
:1016C00048960E949D118AE090E097CFCE01019646
:1016D0000E94B30761E0CE0101960E944919182FBC
:1016E000882379F0B701CE0107960E94B30762E024
:1016F000CE0107960E944919182FCE0107960E9425
:10170000AE07CE0101960E94AE07112309F411CF56
:10171000B701CE0107960E94B30741E0BE01695FA1
:101720007F4FCE0101960E942019CE0101960E94A2
:10173000DC06D62ECE0101960E94AE07CE0107969A
:101740000E94AE07B701CE0107960E94B30742E0A0
:10175000BE01695F7F4FCE0101960E942019CE0124
:1017600001960E94DC06F62ECE0101960E94AE077D
:10177000CE0107960E94AE078091DD029091DE02B5
:101780004F2D6D2DCB960E949D138BE090E035CFB1
:10179000CE0101960E94B30761E0CE0101960E943E
:1017A0004919182F882379F0B701CE0107960E94B6
:1017B000B30762E0CE0107960E944919182FCE01A7
:1017C00007960E94AE07CE0101960E94AE07112334
:1017D00009F4AFCEB701CE0107960E94B30741E0EE
:1017E000BE01695F7F4FCE0101960E942019CE0194
:1017F00001960E94DC06D62ECE0101960E94AE070D
:10180000CE0107960E94AE07B701CE0107960E944F
:10181000B30742E0BE01695F7F4FCE0101960E948F
:101820002019CE0101960E94DC06F62ECE0101960B
:101830000E94AE07CE0107960E94AE078091DD029E
:101840009091DE024F2D6D2DCB960E94B0138CE04F
:1018500090E0D3CECE0101960E94B30761E0CE01A5
:1018600001960E944919182FCE0101960E94AE07D9
:10187000112309F45ECEB701CE0107960E94B3078B
:1018800041E0BE01695F7F4FCE0101960E942019A1
:10189000CE0101960E94DC066B017C01CE0101960F
:1018A0000E94AE07CE0107960E94AE078091DD022E
:1018B0009091DE026C2DCB960E947913FBE3CF0E44
:1018C000D11CB601680F711DCE0101960E949417BC
:1018D000BE016F5F7F4F8DE090E043C0CE01019667
:1018E0000E94B30761E0CE0101960E944919182FAA
:1018F000CE0101960E94AE07112309F41ACEB7015A
:10190000CE0107960E94B30741E0BE01695F7F4F99
:10191000CE0101960E942019CE0101960E94DC069C
:101920006B017C01CE0101960E94AE07CE010796A5
:101930000E94AE078091DD029091DE026C2DCB9665
:101940000E948B139BE3C90ED11CB601680F711D59
:10195000CE0101960E949417BE016F5F7F4F8EE00B
:1019600090E00E944B18CE0101960E94AE0794C0F1
:10197000B701CE0107960E94B30741E0BE01695F3F
:101980007F4FCE0101960E942019CE0101960E9440
:10199000DC066B017C01CE0101960E94AE07CE01F0
:1019A00007960E94AE07CA94CD2811F461E001C0E9
:1019B00062E084E090E00E9412128FE090E01DCE81
:1019C00084E090E00E94351261E070E0813011F017
:1019D00060E070E080E190E040C0CE0101960E949E
:1019E000B30761E0CE0101960E944919182FCE017C
:1019F00001960E94AE07112309F49BCDB701CE01D9
:101A000007960E94B30741E0BE01695F7F4FCE0198
:101A100001960E942019CE0101960E94DC06F62E46
:101A2000CE0101960E94AE07CE0107960E94AE0736
:101A3000E091DD02F091DE02F2A66F2D653608F02E
:101A400064E662A785E190E0D8CDE091DD02F091F7
:101A5000DE0262A570E086E190E00E94061819C0DF
:101A600087E190E014C0E091DD02F091DE02EE5BD0
:101A7000FF4F81E0808388E190E009C0E091DD02C2
:101A8000F091DE02EE5BFF4F108289E190E00E9450
:101A9000CC1711E001C010E0812F2C960FB6F894FE
:101AA000DEBF0FBECDBFDF91CF911F910F91FF9091
:101AB000EF90DF90CF900895089580E090E0089532
:101AC000FC01538D448D252F30E0842F90E0821B44
:101AD000930B541710F0CF96089501970895FC01C9
:101AE000918D828D981761F0828DDF01A80FB11D55
:101AF0005D968C91928D9F5F9F73928F90E0089579
:101B00008FEF9FEF0895FC01918D828D981731F032
:101B1000828DE80FF11D858D90E008958FEF9FEF86
:101B20000895FC01918D228D892F90E0805C9F4F5C
:101B3000821B91098F73992708958BE192E00E948F
:101B4000910D21E0892B09F420E0822F0895FC01FA
:101B5000848DDF01A80FB11DA35ABF4F2C91848D36
:101B600090E001968F739927848FA689B7892C936B
:101B7000A089B1898C91837080648C93938D848DBE
:101B8000981306C00288F389E02D80818F7D8083C1
:101B90000895EF92FF920F931F93CF93DF93EC0181
:101BA00081E0888F9B8D8C8D981305C0E889F98919
:101BB000808185FD26C0F62E0B8D10E00F5F1F4F34
:101BC0000F731127E02E8C8DE8120CC00FB607FCA6
:101BD000FACFE889F989808185FFF5CFCE010E948F
:101BE000A70DF1CF8B8DFE01E80FF11DE35AFF4FDA
:101BF000F0829FB7F8940B8FEA89FB89808180621D
:101C00000AC09FB7F894EE89FF896083E889F98953
:101C100080818370806480839FBF81E090E0DF914A
:101C2000CF911F910F91FF90EF900895CF93DF9385
:101C3000EC01888D8823C9F0EA89FB89808185FDC4
:101C400005C0A889B9898C9186FD0FC00FB607FC25
:101C5000F5CF808185FFF2CFA889B9898C9185FF66
:101C6000EDCFCE010E94A70DE7CFDF91CF91089570
:101C700080E090E0892B29F00E949D0D81110C9449
:101C800000000895CF92DF92EF92FF92CF93DF93FF
:101C9000EC01603232E073070CF03EC0CB01653BD3
:101CA000710514F084EB90E02981A8E8B0E06D01A3
:101CB000C21AD10827FDD394D601AA0FBB1FAA0FC1
:101CC000BB1F6D01BB0FEE08FF084A8128E532E01B
:101CD000241B310947FD3395220F331F220F331F79
:101CE000A901330F660B770B9A01AB012C193D0943
:101CF0004E095F09DC0197FF02C0A0E0B0E00E943E
:101D0000381F24EB30E040E050E00E940E1FC20E6E
:101D1000D31EE41EF51EB601E881EC3058F529818A
:101D200088E890E0821B910927FD9395880F991F01
:101D3000880F991F681779077CF02A8188E592E05F
:101D4000821B910927FD9395880F991F880F991F72
:101D5000681779070CF4CB010297880F991F2FB7EA
:101D6000F89436E0E39FF0011124ED52FE4F928388
:101D700081832FBFDF91CF91FF90EF90DF90CF90C5
:101D80000895FC0182810C94BA091F920F920FB63C
:101D90000F9211242F933F934F935F936F937F93F1
:101DA0008F939F93AF93BF93EF93FF938BE192E059
:101DB0000E94A70DFF91EF91BF91AF919F918F91DD
:101DC0007F916F915F914F913F912F910F900FBE37
:101DD0000F901F9018951F920F920FB60F9211241B
:101DE0002F938F939F93EF93FF93E0912B02F091AA
:101DF0002C028081E0913102F091320282FD12C00A
:101E00009081809134028F5F8F7320913502821709
:101E100051F0E0913402F0E0E55EFD4F958F809344
:101E2000340201C08081FF91EF919F918F912F919A
:101E30000F900FBE0F901F9018958F929F92AF92A8
:101E4000BF92CF92DF92EF92FF92FC01828128E550
:101E500032E06901C81AD10887FDD394CC0CDD1C8F
:101E6000CC0CDD1C0D2C000CEE08FF08818128E84D
:101E700030E04901881A910887FD9394880C991CD9
:101E8000880C991C092C000CAA08BB08E081EF3FC4
:101E9000A9F086E0E89FF0011124ED52FE4F218168
:101EA000328183E0220F331F8A95E1F794E0369563
:101EB00027959A95E1F72E5F3F4F02C020E030E072
:101EC0002F5F3F4FC901330FAA0BBB0B9C01AD0124
:101ED000281939094A095B09A4EBB0E00E942D1FBB
:101EE000A7019601281939094A095B090E940E1FAA
:101EF000C901FF90EF90DF90CF90BF90AF909F907F
:101F00008F900895623031F0633031F0613041F4E8
:101F1000089603C0059601C00B960E941D0F0895F8
:101F20008FEF08951F93CF93DF93EC01162F8881D5
:101F30008C3008F04BC061E0812F0E947E098881BF
:101F400096E0899FF0011124ED52FE4F1F7390819E
:101F5000907C192B108319821A826CE00E94A81FB2
:101F60009CE0899FA001112420E030E096E0BA01B6
:101F7000620F731F969FF001979FF00D1124ED5291
:101F8000FE4F608166FD16C02F5F3F4F2C3031053C
:101F900071F781110FC01092800082E08093810060
:101FA0001092850010928400B19A80916F00826037
:101FB00080936F00E88186E0E89FF0011124ED52E4
:101FC000FE4F8081806480838FEF83838881DF91DF
:101FD000CF911F9108951F920F920FB60F92112467
:101FE0000F931F932F933F934F935F936F937F9321
:101FF0008F939F93AF93BF93EF93FF938091D10102
:1020000087FF05C0109285001092840037C0209190
:10201000D101022E000C330B8091D20190E02817E1
:10202000390764F52091D10116E02103F001112454
:10203000ED52FE4F808186FF21C02091D101210306
:10204000F0011124ED52FE4F808160E08F730E94F9
:1020500015092091D1012103F0011124ED52FE4F09
:1020600083818F3F59F02091D1012103F001112488
:10207000ED52FE4F60E083810E947E098091D10184
:102080008F5F8093D1012091D101022E000C330B80
:102090008091D20190E0281739070CF064C080913C
:1020A000D1018C300CF05FC04091840050918500CC
:1020B0002091D10116E02103F0011124ED52FE4FD1
:1020C00081819281840F951F90938900809388006D
:1020D0002091D1012103F0011124ED52FE4F8081A6
:1020E00086FF58C02091D1012103F0011124ED5247
:1020F000FE4F808161E08F730E9415092091D1010C
:102100002103F0011124ED52FE4F83818F3F09F42A
:1021100041C00091D1012091D1012103F00111248E
:10212000ED52FE4F83810E94BA090103F001112490
:10213000ED52FE4F958384832091D1012103F0015C
:102140001124ED52FE4F61E083810E947E092091AF
:10215000D1012103F0011124ED52FE4F60E0838193
:102160000E94150917C08091840090918500049603
:1021700080349C4918F480E49CE905C08091840077
:1021800090918500049690938900809388008FEF4A
:102190008093D101FF91EF91BF91AF919F918F916A
:1021A0007F916F915F914F913F912F911F910F916F
:1021B0000F900FBE0F901F901895CF92DF92EF9265
:1021C000FF921F93CF93DF936C01EB017C01E60E2E
:1021D000F71EF70180819CEE980F923038F40E9430
:1021E000BA0911E0883C91053CF005C00E94EC085A
:1021F00011E0892B09F010E0F7018481811779F053
:102200000E9486062296CC0FDD1FCC0FDD1FCC0D61
:10221000DD1D688379838A839B83F7011483812F73
:10222000DF91CF911F91FF90EF90DF90CF900895B5
:10223000FC0150E0453B510514F044EB50E030E028
:10224000253B310514F024EB30E0922F421708F4BF
:10225000242F941708F4942F8685811103C0822FB0
:10226000292F982F623039F0633041F0613041F40A
:10227000938B248B0895958B268B0895978B208FB5
:102280000895FC01623031F06330D1F1613009F022
:1022900053C01BC0808981114FC086899589682FE2
:1022A000981708F4692F262F30E0421753074CF097
:1022B000682F891708F4692F70E0461757070CF448
:1022C000BA0170E0CF01059635C08785811134C011
:1022D00084899389682F981708F4692F262F30E096
:1022E000421753074CF0682F891708F4692F70E0E4
:1022F000461757070CF4BA0170E0CF0108961AC0D0
:102300008189811119C0808D9789682F981708F4E9
:10231000692F262F30E0421753074CF0682F89179A
:1023200008F4692F70E0461757070CF4BA0170E003
:10233000CF010B960C94420E0895FF920F931F93BA
:10234000CF93DF938C01F62EEA010E94820FAE013B
:10235000480F511D6F2DC801DF91CF911F910F9133
:10236000FF900C9441110F931F93CF93DF938C0137
:1023700083E090E00E94C91FEC01F801878124E10D
:1023800031E0398328838A8360E00E947E09F80166
:10239000D183C083DF91CF911F910F910895CF9288
:1023A000DF92EF92FF920F931F93CF93DF93EC0195
:1023B000888199810E941A17CB80DC800D2C000C3B
:1023C000EE08FF08092E000CAA0BBB0B9C01AD0107
:1023D0002C193D094E095F09AFEFB3E00E942D1F94
:1023E0002D813E818901330F220B330BA901980106
:1023F0002C193D094E095F090E940E1FC901811564
:1024000024E0920714F08FEF93E097FF02C080E082
:1024100090E0DF91CF911F910F91FF90EF90DF90AF
:10242000CF9008951F93CF93DF93EC01162F0E9456
:10243000F81E181739F0612FCE01DF91CF911F914F
:102440000C94001FDF91CF911F9108951F93CF939C
:10245000DF93EC01172F0E941212612FCE0101961B
:10246000DF91CF911F910C9412120C94F81E1F93C0
:10247000CF93DF93EC010E943512182FCE01019605
:102480000E94351290E0982F8827810F911DDF91CF
:10249000CF911F910895CF93DF9300D000D000D04B
:1024A000CDB7DEB7411586E958076105710509F416
:1024B0005DC038F5403C82E158076105710509F4BB
:1024C0004FC080F4403B84E058076105710509F472
:1024D00044C0403659406105710509F063C069E4A4
:1024E00071E052C0403885E2580761057105D9F1A5
:1024F00041155B446105710509F054C064E671E063
:1025000043C0411584E8580783E068077105A1F1CD
:1025100070F4411581EE58076105710551F14115BF
:10252000524C61407105F1F56FE771E02DC0411526
:1025300080E158078EE06807710509F1411588E1CF
:10254000580785E168077105E9F040315F4267404F
:10255000710541F561E971E017C060E471E014C0F4
:1025600062E571E011C06BE571E00EC06DE671E0EF
:102570000BC066E771E008C068E871E005C06AE971
:1025800071E002C063EA71E0CE0101960E94CD07BE
:10259000CE0101960E94E308CE0101960E94AE078B
:1025A00081E001C080E026960FB6F894DEBF0FBE32
:1025B000CDBFDF91CF910895EF92FF920F931F93BC
:1025C000CF93DF93CDB7DEB762970FB6F894DEBF37
:1025D0000FBECDBF7B016FE371E0CE010D960E946F
:1025E000CD07F70184819581049711F010E033C085
:1025F00000E010E0B801C7010E94E7069FEC980FC9
:102600009930A0F7682FCE010D960E94F8060F5F53
:102610001F4F0430110571F76CEA71E0CE0101968D
:102620000E94CD07BE01635F7F4FCE0101960E94DD
:102630007A07BC01CE0107960E94B307CE01079628
:102640000E94E308CE0107960E94AE07CE010196D4
:102650000E94AE0711E0CE010D960E94AE07812FB9
:1026600062960FB6F894DEBF0FBECDBFDF91CF915B
:102670001F910F91FF90EF9008950F931F93CF93A9
:10268000DF93CDB7DEB72C970FB6F894DEBF0FBE41
:10269000CDBFFB01848195814597F8F48B0163EBF5
:1026A00071E0CE0101960E94CD07B801CE010196DE
:1026B0000E947A07BC01CE0107960E94B307CE01A3
:1026C00007960E94E308CE0107960E94AE07CE014E
:1026D00001960E94AE0781E001C080E02C960FB603
:1026E000F894DEBF0FBECDBFDF91CF911F910F9148
:1026F0000895623039F0633041F0613051F48AE07E
:1027000090E005C08CE090E002C08EE090E00C9478
:1027100035128FEF0895623039F0633041F0613047
:1027200051F489E090E005C08BE090E002C08DE0BC
:1027300090E00C9435128FEF0895862F642F82302D
:1027400039F0833041F0813051F48AE090E005C0E7
:102750008CE090E002C08EE090E00C94121208959C
:10276000862F642F823039F0833041F0813051F46C
:1027700089E090E005C08BE090E002C08DE090E041
:102780000C94121208950F931F93CF93DF93DC01E3
:102790005D96ED91FC915E97309781F0EC01ABA1D5
:1027A000BCA114960D911C91159715969C938E9330
:1027B00014970995EBA1FCA115830483DF91CF91B8
:1027C0001F910F9108958F929F92AF92BF92CF92D7
:1027D000DF92EF92FF920F931F93CF93DF93CDB7CA
:1027E000DEB7A4970FB6F894DEBF0FBECDBFE09161
:1027F000DD02F091DE0286AD97AD2091E7028430D4
:10280000910519F4211104C087C2892B09F47EC2F5
:102810008091E702882309F482C26FE371E0CE0160
:1028200001960E94CD078BE192E00E94910D18164F
:102830001906BCF46AE070E080E090E00E94D109E3
:102840008BE192E00E94910D1816190664F78BE156
:1028500092E00E946F0D682FCE0101960E94F8064B
:10286000E2CF8D819E81029738F46FE371E0CE0153
:102870004F960E94CD071CC00E9486066093E3021B
:102880007093E4028093E5029093E60289819A8135
:1028900098A38F8F8B819C819AA389A38D819E8120
:1028A0009CA38BA31A8219821C821B821E821D820A
:1028B000CE0101960E94AE070E9486060091E302B7
:1028C0001091E4022091E5023091E602DC01CB0197
:1028D000801B910BA20BB30B803C9742A940B10522
:1028E00010F00E946A098BA19CA1029708F409C20A
:1028F000BE01615E7F4FCE0101960E94B30740E0AA
:1029000050E0BE016F5F7F4FCE0107960E94901886
:10291000CE0107960E94DC066B017C01CE01079672
:102920000E94AE07CE0101960E94AE07BE01615E15
:102930007F4FCE0149960E94B307B090E702BB20BB
:1029400009F4DBC18601BE01675E7F4FCE0143966D
:102950000E94B307C6010D2C000CAA0BBB0B8830DC
:10296000910508F00BC1FC01EA5BFF4F0C94B41F0A
:102970006BEB71E0CE0101960E94CD07BE016F5F47
:102980007F4F80E090E0F3C0BE016D5E7F4FCE01CF
:1029900007960E94B307A090E702AA2041F10E9487
:1029A00086066093E3027093E4028093E5029093BD
:1029B000E602E091E102F091E2020190F081E02D67
:1029C00082809380BE01695F7F4FCE0101960E9495
:1029D000B307BE016F5F7F4F8091E1029091E202E9
:1029E000F4010995A82ECE0101960E94AE07CE01F2
:1029F00007960E94AE07A11003C090E3A92E02C063
:102A000081E3A82E61E070E0CE0101960E94941748
:102A1000BE016F5F7F4FCE0107960E94B3076BE345
:102A2000CE0107960E9453076A2D0E9453076DE35B
:102A300071E00E946107BC01CE010D960E94B307B0
:102A4000CE010D960E94691772C0BE016D5E7F4F68
:102A5000CE0107960E94B3078091E702882339F1DF
:102A60000E9486066093E3027093E4028093E5027D
:102A70009093E602E091E102F091E2020190F08190
:102A8000E02D80809180BE01695F7F4FCE0101966D
:102A90000E94B307BE016F5F7F4F8091E10290916A
:102AA000E202F4010995CE0101960E94AE07CE0123
:102AB00007960E94AE0782E090E00BC00E946A0970
:102AC00083E090E006C00E946A090E94440984E005
:102AD00090E00E94CC1753C061E070E0CE010196F7
:102AE0000E949417BE016F5F7F4FCE0107960E9430
:102AF000B3076EEB71E0CE0107960E94610762E0BA
:102B000070E00E941D076EEB71E00E94610760E0BB
:102B100070E00E941D07BC01CE010D960E94B30714
:102B2000BE01635F7F4F85E090E00E944B18CE01AD
:102B30000D960E94AE07CE0107960E94AE0719C0FF
:102B400060EC71E0CE0101960E94CD07BE016F5F7F
:102B50007F4F87E090E00BC064EC71E0CE010196FE
:102B60000E94CD07BE016F5F7F4F86E090E00E941C
:102B70004B18CE0101960E94AE0701C0B12CCE01C8
:102B800043960E94AE07B110B8C0BE01675E7F4F8A
:102B9000CE0101960E94B307BE016F5F7F4FC60151
:102BA0000E940B0AF82ECE0101960E94AE07F1108A
:102BB000A4C0BE01675E7F4FCE010D960E94B30791
:102BC0000B31110509F44EC07CF40A31110509F0EE
:102BD00090C08091DD029091DE02C1960E94CF11DB
:102BE000BC018AE190E080C00C31110509F474C089
:102BF0000D31110509F07DC08091DD029091DE025A
:102C000040E050E062E048960E94411164E670E0C6
:102C100080E090E00E94D1098091DD029091DE0277
:102C200044EB50E062E048960E9441110091DD02C1
:102C30001091DE02F801E05CFF4F84E090E09183A8
:102C400080830E948606F801ED5BFF4F60837183ED
:102C50008283938381E090E0F80197AF86AF8DE1A6
:102C600090E045C0BE01635F7F4FCE0101960E9498
:102C7000B30761E0CE0101960E944919182FCE01D9
:102C800001960E94AE07112321F1BE01635F7F4FC1
:102C9000CE0101960E94B30741E0BE016F5F7F4FF6
:102CA000CE0107960E942019CE0107960E94DC06ED
:102CB000162FCE0107960E94AE07CE0101960E9404
:102CC000AE07612F8FE090E00E9412128BE190E03E
:102CD0000EC08FEF9FEF0BC08FE090E00E94351287
:102CE000682F70E08CE190E00E94061802C00E94FC
:102CF000CC17CE010D960E94AE07CE0149960E94D8
:102D0000AE07CE014F960E94AE0709C0222309F4F8
:102D10007FCD0E946A097CCD0E94440979CDA4969A
:102D20000FB6F894DEBF0FBECDBFDF91CF911F91DC
:102D30000F91FF90EF90DF90CF90BF90AF909F905A
:102D40008F900895CF92DF92EF92FF920F931F938F
:102D5000CF93DF93EC016A017B010E948606088114
:102D600019812A813B81DC01CB01801B910BA20BD5
:102D7000B30B11E0C816D906EA06FB0608F010E00E
:102D80000E948606688379838A839B83812FDF91E3
:102D9000CF911F910F91FF90EF90DF90CF9008950A
:102DA000EF92FF920F931F93CF93DF937C01FC016F
:102DB000E60FF71F80819CEE980FEB012296923070
:102DC00030F40E94BA09883C91059CF004C00E942E
:102DD000EC08892B71F010E00E948606CC0FDD1FF5
:102DE000CC0FDD1FCE0DDF1D688379838A839B8323
:102DF00019C00E948606CC0FDD1FCC0FDD1FCE0D43
:102E0000DF1D088119812A813B81DC01CB01801BF8
:102E1000910BA20BB30B11E088389341A105B105CA
:102E200008F410E0812FDF91CF911F910F91FF9057
:102E3000EF900895EF92FF920F931F93CF93DF933C
:102E40007C0100E110E0C0E0D0E0D701ED91FC9101
:102E50000190F081E02DC7010995C80FD91F0150DD
:102E6000110999F7CE0124E0959587952A95E1F708
:102E7000DF91CF911F910F91FF90EF9008951F93D5
:102E8000CF93DF93D82FC62F641710F4142F02C0EE
:102E9000162FC42F8091EE039091EF034C2F6D2FCE
:102EA000CB960E94B0138091EE039091EF03412FD7
:102EB0006D2FCB960E949D138091EE039091EF03AE
:102EC000212F4C2F6D2F4896DF91CF911F910C949D
:102ED00018110F931F93CF93DF932091E7022223C2
:102EE000F1F08C01C0E0D0E0F80184819581C81731
:102EF000D90758F4BE01C8010E94E706682F8BE18C
:102F000092E00E94C90D2196EFCF0E948606609341
:102F1000E3027093E4028093E5029093E602DF916E
:102F2000CF911F910F910895EF92FF920F931F93EE
:102F3000CF93DF93CDB7DEB762970FB6F894DEBFBD
:102F40000FBECDBF8C01CB01F8011182108213821C
:102F50001282158214824AE09E012F5F3F4F790151
:102F6000B9010E94851EF70101900020E9F7319711
:102F7000AF014E195F09B701C8010E948D07629623
:102F80000FB6F894DEBF0FBECDBFDF91CF911F917A
:102F90000F91FF90EF900895CF93DF93CDB7DEB7F9
:102FA00062970FB6F894DEBF0FBECDBFBC01CE0155
:102FB0000D960E949417BE01635F7F4FCE01079666
:102FC0000E94B3076DE371E0CE0107960E9461078E
:102FD000BC01CE0101960E94B307CE0101960E946A
:102FE0006917CE0101960E94AE07CE0107960E9496
:102FF000AE07CE010D960E94AE0762960FB6F8940A
:10300000DEBF0FBECDBFDF91CF9108950F931F9309
:10301000CF93DF93CDB7DEB762970FB6F894DEBFDC
:103020000FBECDBF8B01BC01CE010D960E9494173F
:10303000BE01635F7F4FCE0107960E94B3076BE32B
:10304000CE0107960E945307B8010E941D076DE349
:1030500071E00E946107BC01CE0101960E94B30796
:10306000CE0101960E946917CE0101960E94AE071B
:10307000CE0107960E94AE07CE010D960E94AE07C4
:1030800062960FB6F894DEBF0FBECDBFDF91CF9131
:103090001F910F9108950F931F93CF93DF93CDB797
:1030A000DEB762970FB6F894DEBF0FBECDBF8B01BF
:1030B000BC01CE010D960E949417BE01635F7F4F45
:1030C000CE0107960E94B3076BE3CE0107960E94DC
:1030D0005307B8010E947A076DE371E00E9461070F
:1030E000BC01CE0101960E94B307CE0101960E9459
:1030F0006917CE0101960E94AE07CE0107960E9485
:10310000AE07CE010D960E94AE0762960FB6F894F8
:10311000DEBF0FBECDBFDF91CF911F910F910895FC
:103120008F929F92AF92BF92CF92DF92EF92FF92D7
:103130000F931F93CF93DF935C016B017A01DB0147
:1031400014968C9188248A94880EC0E00FEF10E0CA
:10315000D0E0982E812F90E0E816F90694F06D2FBC
:1031600070E0C6010E94E7068B3311F08D1206C095
:103170001F5FC1E0C00F8D1253C0092DDF5F8D1698
:1031800048F7812F90E0E816F9060CF043C0002EB6
:10319000000C110B0C2E000CDD0B0C171D0728F476
:1031A0009C2F8D2FE801092F182F6FE371E0C501C7
:1031B0000E94CD07F601E480F580CE15DF0590F57D
:1031C0000E151F0508F47801D601ED91FC911197B9
:1031D000EE0DFF1D108110826D917C916C0F7D1F93
:1031E0006115710561F0FB0101900020E9F731974D
:1031F000AF01461B570BC5010E948D0703C0C501D7
:103200000E940B07F60180819181FC01EE0DFF1DEC
:10321000108308C06FE371E0C5010E94CD0702C0B2
:103220000D2FACCFC501DF91CF911F910F91FF9072
:10323000EF90DF90CF90BF90AF909F908F900895C8
:10324000EF92FF921F93CF93DF9300D000D000D076
:10325000CDB7DEB77C01142FCE0101960E94B307D3
:10326000412F50E0BE016F5F7F4FC7010E94901851
:10327000CE0101960E94AE07C70126960FB6F894BC
:10328000DEBF0FBECDBFDF91CF911F91FF90EF90BA
:1032900008951F93CF93DF93CDB7DEB72C970FB66A
:1032A000F894DEBF0FBECDBF162FBC01CE0107962E
:1032B0000E94B307412FBE01695F7F4FCE01019687
:1032C0000E9420198D819E81892B41F0E981FA812C
:1032D00011E08081882319F010E001C011E0CE01D7
:1032E00001960E94AE07CE0107960E94AE0781E0CC
:1032F00081272C960FB6F894DEBF0FBECDBFDF91AD
:10330000CF911F910895CF93DF93EC01988188812D
:103310008E7F888388818D7F888390FF03C0CE0154
:103320000E94C3138BA19CA1009769F11CA21BA250
:10333000EF8DF8A1A9A1BAA1309799F4109749F49B
:10334000DC0111961C921E9213961C921E921297EB
:103350001AC090961C921E925F97FC01B183A083C5
:1033600012C0109741F412A211A2DC011396FC9333
:10337000EE93129708C0B2A3A1A3A9A1BAA19096F7
:10338000FC93EE935F97DF91CF910895CF93DF93F6
:1033900000D000D0CDB7DEB7789484B5826084BD0C
:1033A00084B5816084BD85B5826085BD85B5816049
:1033B00085BD80916E00816080936E0010928100C7
:1033C0008091810082608093810080918100816082
:1033D0008093810080918000816080938000809143
:1033E000B10084608093B1008091B00081608093CF
:1033F000B00080917A00846080937A0080917A0096
:10340000826080937A0080917A00816080937A0054
:1034100080917A00806880937A001092C10085E0E4
:1034200080938A0389E080938B0386E080938C03EA
:103430008FEF80938D0380938E0361E085E00E947F
:103440007E0961E080918B030E947E0961E080919A
:103450008C030E947E0982E380939C0360918A031F
:1034600070E08FE893E00E94920F60918B0370E010
:1034700082E993E00E94920F60918C0370E085E9ED
:1034800093E00E94920F2BE44FE061E08AE893E022
:103490000E9418112BE44FE062E08AE893E00E945A
:1034A00018112BE44FE063E08AE893E00E941811C2
:1034B00084E18093720385E1809373038EE08093AF
:1034C00074038AE08093750302E713E062E0F80179
:1034D00081918F010E947E09F3E006371F07B1F743
:1034E0008FE08093AA038FEF8093AB038093AC03AC
:1034F0001092A50383EA93E00E94B31182E793E060
:103500009093E7038093E60319821A821B821C8240
:10351000CE0101967C0100E010E06C01C8010E9420
:10352000F81EF70181937F010F5F1F4F04301105D3
:10353000A9F769817A818B819C8120E03EEC4BE286
:1035400057E40E94CF1E81115BC061E085E090E0EE
:103550000E94121262E086E090E00E94121260E087
:1035600087E090E00E9412120091E6031091E703B9
:1035700084E090E00E9435127801F8E1EF0EF11C32
:1035800091E0813009F090E0F80196A324A543A5CD
:1035900061E0C7010E941811F80126A545A562E067
:1035A000C7010E941811F80120A947A563E0C701CF
:1035B0000E94181181E00E94BE0882E00E94BE08AD
:1035C00083E00E94BE08A090E603B090E7038FE07E
:1035D00090E00E943512182F80E190E00E9437128F
:1035E0006C0182E190E00E9437127C01C501C19616
:1035F000F50113AB123008F054C00E94B31151C052
:1036000061E084E090E00E9412126FE089E090E0B7
:103610000E9412126BE48AE090E00E9412126FE0A6
:103620008BE090E00E9412126BE48CE090E00E942C
:1036300012126FE08DE090E00E9412126BE48EE0B7
:1036400090E00E94121260E08FE090E00E9412125F
:1036500060E070E080E190E00E9426126FEF73E07E
:1036600082E190E00E94261280E09EECABE2B7E49B
:1036700089839A83AB83BC83760100E010E0F70175
:10368000D1907F01C8010E94F81ED81621F06D2D3F
:10369000C8010E94001F0F5F1F4F0430110579F70A
:1036A00054CF02E713E0E091E603F091E703D5AAD7
:1036B000C4AAF7AAE6AA1093BB030093BA03109317
:1036C000DF030093DE030E9486066093E00370939D
:1036D000E1038093E2039093E3031093E9030093E3
:1036E000E8031093EF030093EE0388E191E00E945A
:1036F00090088DE391E00E940B0880E191E00E9428
:10370000900884E090E00E943512813019F083E344
:1037100091E002C088E291E00E940B088DE391E005
:103720000E940B0884E091E00E94900889E090E0FC
:103730000E9435120E94AB0888EF90E00E9490082A
:103740008BE090E00E9435120E94AB088AEE90E078
:103750000E9490088DE090E00E9435120E94AB0814
:103760008EED90E00E9490088AE090E00E94351271
:103770000E94AB0882ED90E00E9490088CE090E0FF
:103780000E9435120E94AB0884EC90E00E949008E1
:103790008EE090E00E9435120E94AB0886EB90E02C
:1037A0000E9490088FE090E00E9435120E94AB08C2
:1037B00089EA90E00E94900880E190E00E94371230
:1037C0000E945E088CE990E00E94900882E190E0FF
:1037D0000E9437120E945E0882E793E09093DE0217
:1037E0008093DD0261E081E10E947E09E0912B027D
:1037F000F0912C0282E08083E0912702F091280270
:103800001082E0912902F0912A0283E380831092D2
:103810003302E0912F02F091300286E08083E09144
:103820002D02F0912E02808180618083E0912D0233
:10383000F0912E02808188608083E0912D02F091CA
:103840002E02808180688083E0912D02F0912E020B
:1038500080818F7D808384E090E00E94C91F209149
:10386000DF023091E002FC01338322832AE031E061
:10387000318320839093E2028093E1020E946A09DF
:1038800080E693E0F3E089369F0721F0909371037F
:1038900080937003E0917003F0917103309709F009
:1038A000168287E593E023E08036920721F090931B
:1038B000680380936703E0916703F0916803309792
:1038C00009F0168209E613E0F801E080F180E114C6
:1038D000F10439F0C7010E949505F701E1A0F2A0BB
:1038E000F6CFF801078110850115110569F789E602
:1038F00093E00E94D4040E94380EF9CF0F931F93D7
:10390000CF93DF93EC0188818E7F888388818D7FC0
:10391000888319861A861B861C861D821E821F823A
:10392000188619821A821B821C8218A21F8E1AA264
:1039300019A21CA21BA21D8A1E8A1F8A188E3A8FEA
:10394000298F1C8E1B8E1E8E1D8E49835A836B837E
:103950007C8389819A81AB81BC818D839E83AF8377
:10396000B8870E94860669877A878B879C878FEF46
:103970009FEFDC018D879E87AF87B88B898B9A8BF1
:10398000AB8BBC8B0115110501F18BA19CA1081714
:103990001907D9F01CA30BA3D8018D919C91119705
:1039A000892B29F4CD93DC9318A21F8E09C0D8016E
:1039B0001296ED91FC911397F8A3EF8FD2A3C1A3B8
:1039C0001AA219A2F801D383C283CE01DF91CF914D
:1039D0001F910F910C949505E091D201EC3088F481
:1039E00021E02E0F2093D201DC01EC93B6E0EB9F97
:1039F000F0011124ED52FE4F88EB9BE0928381830E
:103A000008952FEFFC0120830895FF920F931F93D9
:103A1000CF93DF938C01F62EEA010E94820FBE0144
:103A2000680F711D77FD06C0653B710524F064EBDE
:103A300070E001C060E082E0F81651F083E0F81613
:103A400059F081E0F81212C070E0C801089607C072
:103A500070E0C801059603C070E0C8010B96DF91C5
:103A6000CF911F910F91FF900C94420EDF91CF9157
:103A70001F910F91FF90089588EB92E00E948319A7
:103A800088EE92E00E9483198DE093E00E948319F2
:103A900082E393E00C948319EF92FF920F931F93AC
:103AA000CF93DF93EBE1F2E01382128288EE93E092
:103AB000A0E0B0E084839583A683B7838AE191E098
:103AC0009183808385EC90E09587848784EC90E0F7
:103AD0009787868780EC90E0918B808B81EC90E0DB
:103AE000938B828B82EC90E0958B848B86EC90E0BC
:103AF000978B868B118E128E138E148E8FE893E027
:103B00000E94EC1C82E993E00E94EC1C85E993E0A2
:103B10000E94EC1CC2E7D3E011E01EA31FA218A66E
:103B200019A682E38AA71DAA1CAAEE24EA9483E0C0
:103B3000F82EFFAAEEAA81E090E00E94C91F9CAF78
:103B40008BAF1092B3031092B2031092B403109291
:103B5000B9031092BC031092BD031092BE031092E1
:103B6000BF031092C0031092C1031092C2031092BF
:103B7000C3031092C4031092C5031092C60310929F
:103B8000C7031092C8031092C9031092CA0310927F
:103B9000CB031092CC031092CD031092CE0310925F
:103BA000CF031092D0031092D1031092D20310923F
:103BB000D3031092D4031092D5031092D60310921F
:103BC000D7031092D8031092D9031092DA031092FF
:103BD000DB031092DC031092DD031092E0031092DD
:103BE000E1031092E2031092E303F092EB03E09200
:103BF000EA031092ED031092EC031092F00310927E
:103C0000F2031092F103E9E6F3E0118210821382CD
:103C1000128215821482108617821683E0E6F3E082
:103C200011821082138212821582148210861782EA
:103C30001683E7E5F3E01182108213821282158267
:103C4000148210861782168309E613E026E533E016
:103C500044E650E060E070E082E393E00E947E1C66
:103C600023E932E04AE050E060E070E08DE093E06C
:103C70000E947E1C07E513E02DEE30E042E350E0A9
:103C800060E070E088EE92E00E947E1CEDEDF2E0D4
:103C90001682178210861186128623EE33E146E4DF
:103CA00050E060E070E088EB92E00E947E1CDF91C3
:103CB000CF911F910F91FF90EF9008951F93FC01FA
:103CC00099278827BC01E89411911032E9F3193043
:103CD00010F01E30C8F31B3251F01D3249F46894C5
:103CE00006C00E94901E610F711D811D911D1191D2
:103CF00010531A30B0F33EF490958095709561950D
:103D00007F4F8F4F9F4F1F910895BB274A3031F44B
:103D1000992322F4BDE2909581959F4F0C94A61EA5
:103D2000592F482F372F262F660F771F881F991F6F
:103D3000660F771F881F991F620F731F841F951FBF
:103D4000660F771F881F991F0895BB27FB01552712
:103D5000AA27880F991FAA1FA41710F0A41B8395E8
:103D60005051B9F7A05DAA3308F0A95DA19300975F
:103D700079F7B111B1931192CB010C94BF1EDC0104
:103D8000FC01672F71917723E1F7329704C07C9192
:103D90006D9370836291AE17BF07C8F308950E94B8
:103DA000D41E08F481E00895990F0008550FAA0B5E
:103DB000E0E8FEEF16161706E807F907C0F012163E
:103DC0001306E407F50798F0621B730B840B950B41
:103DD00039F40A2661F0232B242B252B21F4089596
:103DE0000A2609F4A140A6958FEF811D811D089533
:103DF000F999FECF92BD81BDF89A992780B50895B3
:103E0000262FF999FECF1FBA92BD81BD20BD0FB6F6
:103E1000F894FA9AF99A0FBE01960895052E97FB29
:103E20001EF400940E94251F57FD07D00E94771FA3
:103E300007FC03D04EF40C94251F50954095309507
:103E400021953F4F4F4F5F4F089590958095709506
:103E500061957F4F8F4F9F4F08950E94991FA59F97
:103E6000900DB49F900DA49F800D911D1124089575
:103E7000B7FF0C942D1F0E942D1F821B930B0895DA
:103E80002F923F924F925F926F927F928F929F926A
:103E9000AF92BF92CF92DF92EF92FF920F931F9358
:103EA000CF93DF93CDB7DEB7CA1BDB0B0FB6F89409
:103EB000DEBF0FBECDBF09942A88398848885F8449
:103EC0006E847D848C849B84AA84B984C884DF80BA
:103ED000EE80FD800C811B81AA81B981CE0FD11D9E
:103EE0000FB6F894DEBF0FBECDBFED010895A1E27D
:103EF0001A2EAA1BBB1BFD010DC0AA1FBB1FEE1F64
:103F0000FF1FA217B307E407F50720F0A21BB30BAE
:103F1000E40BF50B661F771F881F991F1A9469F72A
:103F200060957095809590959B01AC01BD01CF0186
:103F30000895A29FB001B39FC001A39F700D811D82
:103F40001124911DB29F700D811D1124911D0895A2
:103F5000991B79E004C0991F961708F0961B881FDB
:103F60007A95C9F780950895EE0FFF1F0590F4919B
:103F7000E02D09940E94991F332312F48A1B9B0B96
:103F80000C94C41F0E94991FB7FF0895821B930BC6
:103F900008950F931F93CF93DF938230910510F410
:103FA00082E090E0E091FB03F091FC0320E030E040
:103FB000A0E0B0E0309719F1408151810281138176
:103FC00048175907C8F08417950769F4109731F01E
:103FD00012960C93129713961C9327C00093FB0321
:103FE0001093FC0322C02115310519F04217530725
:103FF00018F49A01BD01EF01DF01F801DBCF2115B3
:104000003105F9F0281B390B2430310580F48A8101
:104010009B816115710521F0FB019383828304C0AC
:104020009093FC038093FB03FE01329644C0FE0193
:10403000E20FF31F81939193225031093983288332
:104040003AC02091F9033091FA03232B41F42091D7
:104050000201309103013093FA032093F903209178
:104060000001309101012115310541F42DB73EB712
:104070004091040150910501241B350BE091F90397
:10408000F091FA03E217F307A0F42E1B3F0B281759
:10409000390778F0AC014E5F5F4F2417350748F0C1
:1040A0004E0F5F1F5093FA034093F903819391934E
:1040B00002C0E0E0F0E0CF01DF91CF911F910F91BE
:1040C0000895CF93DF93009709F481C0FC013297E4
:1040D00013821282A091FB03B091FC03109781F42C
:1040E00020813181820F931F2091F9033091FA03CF
:1040F0002817390751F5F093FA03E093F90367C0E5
:10410000ED0120E030E0CE17DF0740F44A815B810B
:104110009E0141155105F1F0EA01F5CFD383C28329
:1041200040815181840F951FC817D90759F48881A0
:104130009981840F951F0296918380838A819B8148
:10414000938382832115310529F4F093FC03E093D6
:10415000FB033DC0E901FB83EA8349915991C40FF8
:10416000D51FEC17FD0761F480819181840F951FA5
:104170000296E90199838883828193819B838A8354
:10418000E0E0F0E012968D919C911397009719F062
:10419000FD01DC01F7CF8D919C9111979D012E5F60
:1041A0003F4F820F931F2091F9033091FA03281794
:1041B000390769F4309729F41092FC031092FB033D
:1041C00002C013821282B093FA03A093F903DF9125
:1041D000CF910895A0E0B0E0E0EFF0E20C94441F2E
:1041E000EC01009721F4CB010E94C91FB4C0FC016F
:1041F000E60FF71F9C0122503109E217F30708F47C
:10420000A8C0D9010D911C91119706171707B0F09E
:104210000530110508F49BC0C8010497861797075D
:1042200008F495C002501109061B170B0193119356
:104230006D937C93CF010E94612089C05B01A01A1D
:10424000B10A4C01800E911EA091FB03B091FC03BA
:10425000612C712CE12CF12C109709F446C08D9142
:104260009C911197A815B905B1F56C0142E0C40EF7
:10427000D11CCA14DB0478F14C018A189B08640134
:1042800042E0C40ED11C1296BC9012971396AC91CA
:10429000B5E0CB16D10440F0B282A3839182808234
:1042A000D9016D937C9309C00E5F1F4F800F911F42
:1042B000F90191838083EB2DFA2FE114F10431F0A1
:1042C000D7011396FC93EE93129741C0F093FC0331
:1042D000E093FB033CC06816790608F43C017D01BD
:1042E00012960D90BC91A02DB7CF8091F9039091BB
:1042F000FA0388169906E1F466167706C8F48091E9
:10430000000190910101009741F48DB79EB7409153
:10431000040150910501841B950BE817F907C8F4B7
:10432000F093FA03E093F903F901718360830FC0FE
:10433000CB010E94C91F7C01009759F0A801BE0162
:104340000E94B521CE010E946120C70104C0CE01A8
:1043500002C080E090E0CDB7DEB7EEE00C94601FC5
:1043600081E090E0F8940C94C521FB01DC0102C0CF
:1043700001900D9241505040D8F70895FB01DC01A7
:1043800001900D920020E1F7089510E0C2ECD0E01A
:1043900004C0FE010E94B41F2196C33CD107C9F797
:0443A000F894FFCFBF
:1043A4000000FD038000000000003D13DC124B12EE
:1043B40000000000C10E00000000C90DE005600D02
:1043C400160E910D6F0D830D52494748545F4841B5
:1043D4004E44004C4546545F48414E44000D0A008B
:1043E40041542B42415544310041542B42415544E0
:1043F400320041542B42415544330041542B424135
:104404005544340041542B42415544350041542B0A
:1044140042415544360041542B42415544370041F2
:10442400542B42415544380041542B4241554439A0
:104434000041542B42415544410041542B424155C3
:1044440044420041542B42415544430041542B50B3
:10445400494E0041542B4E414D45004F4B002E0018
:084464004D4B32002D31000028
:00000001FF
