:100000000C94C3000C94EB000C94EB000C94EB00EC
:100010000C94EB000C94EB000C94EB000C94EB00B4
:100020000C94EB000C94EB000C94EB000C94471038
:100030000C94EB000C94EB000C94EB000C94EB0094
:100040000C944E0C0C94EB000C94570F0C94310F45
:100050000C94EB000C94EB000C94EB000C94EB0074
:100060000C94EB000C94EB000308D7084E09C5096B
:100070001C0AD70A100B1D0B550B600B630B6E0B84
:100080007B0B7B0B7B0B7B0B730A66088C1598151F
:10009000F915321637164016801674160000000047
:1000A000240027002A0000000000250028002B0063
:1000B00000000000230026002900040404040404B6
:1000C0000404020202020202030303030303010207
:1000D00004081020408001020408102001020408D6
:1000E00010200000000800020100000304070000C7
:1000F00000000000000053656E736F724D61782040
:100100003D200053656E736F726D696E203D200057
:1001100053656E736F7254797065203D20004D6198
:100120007846696E67657273203D20004D6178499D
:100130006E646578203D20004D61785468756D626D
:10014000203D20004D696E46696E67657273203DE3
:1001500020004D696E496E646578203D20004D6930
:100160006E5468756D62203D200048616E64203DCC
:1001700020000A454550524F4D20434F4E54454EA6
:100180005400181E081E11241FBECFEFD8E0DEBF9A
:10019000CDBF11E0A0E0B1E0E0E3F5E402C00590DE
:1001A0000D92A83CB107D9F724E0A8ECB1E001C05A
:1001B0001D92A330B207E1F710E0C2ECD0E004C01A
:1001C0002197FE010E947A20C13CD107C9F70E9405
:1001D0000C1B0C948B220C9400000F931F93CF9355
:1001E000DF938091B6039091B7038130910521F0A0
:1001F000029709F478C09BC1E091EE03F091EF0300
:10020000EC5BFF4F80819181019709F090C10E94C2
:10021000420CE091EE03F091EF03DF01A75BBF4FCB
:100220000D911D912D913C911397AB01BC01401B89
:10023000510B620B730B403157426105710598F108
:100240001D921D921D921C9213971597EF01CA5B88
:10025000DF4F888199818D939C938091F2039091D7
:10026000F3032091F0033091F10333AF22AF95AF48
:1002700084AF6091F0037091F10380E190E00E94FF
:10028000F8126091F2037091F30382E190E00E9412
:10029000F8121092F3031092F2038FEF93E0909311
:1002A000F1038093F003E091EE03F091EF0387A94F
:1002B00090AD0E94EE172091F2033091F3032817BE
:1002C000390724F49093F3038093F2032091F00311
:1002D0003091F103821793070CF029C19093F10339
:1002E0008093F00324C18091F4039091F503FC0105
:1002F000EC5BFF4F208131812230310509F017C1BD
:100300002091F7033091F8032115310509F409C153
:100310003996C081D0E02C173D07C1F1233031055B
:1003200001F164F42130310541F12230310551F5FC
:1003300080960E94890F8093F90324C025303105EF
:10034000B1F04CF026303105E9F483960E94890F14
:100350008093FD0317C04D960E94890F8093FB0385
:1003600011C04D960E94890F8093FC030BC08396A9
:100370000E94890F8093FE0305C080960E94890F1A
:100380008093FA03D093F803C093F7038091F703A7
:100390009091F803873091050CF096C08530910557
:1003A00034F4833091059CF501972CF4C0C0079775
:1003B0000CF459C0BCC060E070E08091F4039091EF
:1003C000F5030E943911E091F403F091F5038823BD
:1003D00031F0CF01489626A1211115C011C062E06D
:1003E00070E0CF010E943911882309F4A0C0E09188
:1003F000F403F091F503CF01489626A1222319F0CA
:1004000045E050E002C04BEF5FEF61E057C060E0B5
:1004100070E08091F4039091F5030E943911E0910E
:10042000F403F091F503882331F0CF01489626A11B
:10043000211115C011C062E070E0CF010E94391196
:10044000882309F474C0E091F403F091F503CF011F
:10045000489626A1222319F045E050E002C04BEF58
:100460005FEF62E02BC060E070E08091F403909158
:10047000F5030E943911E091F403F091F50388230C
:1004800031F0CF01489626A1211115C011C062E0BC
:1004900070E0CF010E943911882309F448C0E0912F
:1004A000F403F091F503CF01489626A1222319F019
:1004B00045E050E002C04BEF5FEF63E0DF91CF918A
:1004C0001F910F910C94E91D1092F8031092F703FD
:1004D0004091FA036091F90381E090E00E941318C3
:1004E0004091FC036091FB0382E090E00E941318AE
:1004F0004091FE036091FD0383E090E00E94131899
:100500008091F4039091F503FC01E35BFF4F1082AF
:100510003997DC01AA5BBF4F8D919C9191838083B9
:1005200006C081E090E09093F8038093F703DF9199
:10053000CF911F910F9108950F931F93CF93DF9346
:100540008091E4039091E503FC01EC5BFF4F208177
:1005500031812115310549F02430310509F09CC065
:1005600034968081882309F497C00E94420C009140
:10057000E6031091E7032091E8033091E903DC01E1
:10058000CB01801B910BA20BB30B4097A105B105CA
:1005900008F482C00E94420C6093E6037093E70364
:1005A0008093E8039093E9038091E4039091E5033D
:1005B000C7960E94A1128C01093582E01807C4F089
:1005C000C801012E000CAA0BBB0B9C01AD012855E4
:1005D000324041095109AAE0B0E00E94F31F27EA26
:1005E00031E040E050E00E94D41F922F832F1AC0C8
:1005F000003981E01807A4F49801A6EFBFEF0E942C
:10060000802020E931E040E050E00E94D41FBA0190
:10061000A901465F5F4F6F4F7F4F942F852F02C018
:1006200090E080E0C92FD82FCB30D10514F0CAE07C
:10063000D0E0003981E01807B4F48091E403909190
:10064000E503AE0163E048960E9466128091E403E0
:100650009091E503AE0162E04896DF91CF911F9142
:100660000F910C94661209351240B4F08091E403A6
:100670009091E503AE0163E048960E944712809195
:10068000E4039091E503AE0162E04896DF91CF91DB
:100690001F910F910C944712DF91CF911F910F91F1
:1006A0000895CF93DF9360E070E08091C003909154
:1006B000C1030E943911882309F459C048EE53E060
:1006C00060E070E084EC93E00E94761760E070E0F8
:1006D0008091C0039091C1030E94A417882309F45C
:1006E00073C148E853E160E070E084ED93E00E945C
:1006F0007617882309F468C18091C0039091C103E3
:10070000FC01EC5BFF4F20813181232B09F05CC1A0
:1007100040E050E062E048960E94D21164E670E04A
:1007200080E090E00E94080C8091C0039091C1038A
:1007300044EB50E062E048960E94D211C091C003A1
:10074000D091C103FE01EA5BFF4F118210820E942B
:10075000420CFE01E75BFF4F6083718382839383CA
:10076000CC5BDF4F81E090E0998388832DC161E00D
:1007700070E08091C0039091C1030E9439118823D9
:1007800009F464C048EE53E060E070E088EC93E068
:100790000E947617882381F0E091C003F091C10395
:1007A000DF01AC5BBF4F8D919C91029729F4E35B15
:1007B000FF4F80818F5F808361E070E08091C00394
:1007C0009091C1030E94A417882309F4FDC048E852
:1007D00053E160E070E088ED93E00E947617882393
:1007E00009F4F2C08091C0039091C103FC01EC5B5D
:1007F000FF4F20813181232B09F0E6C040E050E01B
:1008000063E048960E94D21164E670E080E090E0D8
:100810000E94080C8091C0039091C10344EB50E00A
:1008200063E048960E94D2118091C0039091C10369
:10083000FC01EA5BFF4F11821082379621E0208392
:10084000399722E030E031832083BEC062E070E05F
:100850008091C0039091C1030E943911882309F44B
:1008600056C048EE53E060E070E08CEC93E00E94EC
:100870007617882309F1E091C003F091C103DF01ED
:10088000AC5BBF4F8D919C91892BB1F42091C20339
:10089000CF014896222341F045A556A561E00E946C
:1008A000D2111092C20308C043A554A561E00E9472
:1008B000D21181E08093C20362E070E08091C003B6
:1008C0009091C1030E94A417882309F47DC048E8D1
:1008D00053E160E070E08CED93E00E94761788238E
:1008E00009F472C0E091C003F091C103EC5BFF4FCB
:1008F00080819181009731F0049709F065C01182E1
:10090000108262C084E090E0918380835DC063E0E8
:1009100070E08091C0039091C1030E943911882337
:1009200009F452C048EE53E060E070E080ED93E0DF
:100930000E947617E091C003F091C103882399F0DB
:10094000DF01AC5BBF4F8D919C91892B61F480914D
:10095000C303882321F011A61092C30304C081E0D1
:1009600081A78093C30363E070E0CF010E94A417C6
:10097000882351F148E853E160E070E080EE93E0B5
:100980000E947617882301F1E091C003F091C10322
:10099000DF01AC5BBF4F8D919C91009711F00497E4
:1009A00099F496A181E0892786A384E090E00E94D3
:1009B0000713813011F061E001C062E084E090E053
:1009C000DF91CF910C94E412DF91CF9108954F9273
:1009D0005F926F927F928F929F92AF92BF92EF92AF
:1009E000FF921F93CF93DF93EC01888199819D83C0
:1009F0008C83892B31F48F819885009711F00E94A8
:100A0000E70411E08C819D81892B09F47DC08F81E1
:100A10009885009729F00E94E704811101C010E039
:100A2000EC81FD81E1A0F2A0808180FF6AC0858514
:100A30009685A785B089892B8A2B8B2B69F49081A9
:100A400080818E7F808380818D7F808390FF59C0DD
:100A5000CF010E94951455C00E94420CEC81FD818B
:100A6000218132814381548141845284638474841E
:100A700085809680A780B084DC01CB01841995091C
:100A8000A609B70988159905AA05BB05D0F1858582
:100A90009685A785B089181619061A061B065CF4F8
:100AA00085859685A785B0890197A109B1098587B4
:100AB0009687A787B08B85899689A789B08D01967F
:100AC000A11DB11D858B968BA78BB08F85809680DD
:100AD000A780B08481859285A385B485880D991DF2
:100AE000AA1DBB1D81879287A387B4872583368380
:100AF00047835087018CF28DE02D309711F00995D6
:100B000010E0FD82EC827ECF112399F08E81882344
:100B100081F083B7817F83BF83B7816083BF83B751
:100B2000816083BF889583B78E7F83BF83B78E7FB5
:100B300083BF812FDF91CF911F91FF90EF90BF90E6
:100B4000AF909F908F907F906F905F904F9008959F
:100B50000F931F93CF93DF93FC01A3A1B4A1109730
:100B6000E9F1EC01158A168A178A108E038CF48D30
:100B7000E02D309779F1888181FD2CC014960D917C
:100B80001C9115971596DC93CE93149788818260FB
:100B900088830995988180FB90F9988388818D7F5F
:100BA0008883EBA1FCA1158304830E94420C098178
:100BB0001A812B813C810D831E832F833887DC01B2
:100BC000CB01801B910BA20BB30B89879A87AB8754
:100BD000BC8704C0888181608883E7CFDF91CF9193
:100BE0001F910F910895833081F028F4813099F09E
:100BF0008230A1F008958730A9F08830B9F08430B0
:100C0000D1F4809180008F7D03C0809180008F7728
:100C100080938000089584B58F7702C084B58F7D5E
:100C200084BD08958091B0008F7703C08091B0009B
:100C30008F7D8093B0000895009769F0FC010190CA
:100C40000020E9F73197AF01481B590BBC018BE13C
:100C500092E00C94890D80E090E008958F929F922D
:100C6000AF92BF920F931F93CF93DF93CDB7DEB7B1
:100C7000A1970FB6F894DEBF0FBECDBF19A24230C8
:100C800008F44AE08E010F5D1F4F842E912CA12C99
:100C9000B12CA50194010E943D20E62FB901CA01A3
:100CA00001501109EA3014F4E05D01C0E95CD8019B
:100CB000EC93232B242B252B61F7C8010E941C06E3
:100CC000A1960FB6F894DEBF0FBECDBFDF91CF91D6
:100CD0001F910F91BF90AF909F908F900895CF92EA
:100CE000DF92EF92FF92CF93DF936C01990FEE08A2
:100CF000FF08F7FE13C06DE28BE192E00E94200E28
:100D0000EC0166277727CB016C197D098E099F09B5
:100D10004AE00E942E06C80FD91F06C04AE0C7014C
:100D2000B6010E942E06EC0188E291E00E941C06AA
:100D30008C0F9D1FDF91CF91FF90EF90DF90CF90B0
:100D400008950F931F93CF93DF938C01C0E0D0E001
:100D5000F801EC0FFD1F6491662341F08BE192E0F6
:100D60000E94200E892B11F02196F2CFCE01DF9147
:100D7000CF911F910F910895CF93DF93682F70E06B
:100D800080E090E04AE00E942E06EC0188E291E0CB
:100D90000E941C068C0F9D1FDF91CF910895EF924A
:100DA000FF920F931F93CF93DF93C82F0091EC0313
:100DB0001091ED03780181E4E80EF11C6C2FC7015E
:100DC0000E945D14D82F6C2FC7010E944B14282F4E
:100DD00030E04D2F50E06C2FC8014896DF91CF9145
:100DE0001F910F91FF90EF900C947411FC014481BE
:100DF0005581608171818BE192E00C94890DCF93D4
:100E0000DF93282F30E0F901EE51FF4F8491F90173
:100E1000E253FF4FD491F901E654FF4FC491CC2324
:100E200091F081110E94F305EC2FF0E0EE0FFF1F0F
:100E3000E055FF4FA591B491EC91ED2381E090E056
:100E400021F480E002C080E090E0DF91CF9108952E
:100E50001F93CF93DF93282F30E0F901EE51FF4F1E
:100E60008491F901E253FF4FD491F901E654FF4F09
:100E7000C491CC23C1F0162F81110E94F305EC2FF1
:100E8000F0E0EE0FFF1FEA55FF4FA591B4919FB719
:100E9000F894111104C08C91D095D82302C0EC9124
:100EA000DE2BDC939FBFDF91CF911F910895CF93ED
:100EB000DF9361E081E10E9428070E94420CCDEDA2
:100EC000D2E06E837F83888799878C819D81DC0146
:100ED000ED91FC910480F581E02D40E056E960E061
:100EE00070E0099581E08A87E881F981EC5BFF4F2A
:100EF00084E090E091838083DF91CF910895CF9338
:100F0000DF93CDEDD2E01E821F821886198660E045
:100F100081E10E9428071A86E881F981EC5BFF4F86
:100F200011821082DF91CF910895CF93DF9390E0EB
:100F3000FC01E253FF4F2491FC01E654FF4F8491E2
:100F4000882361F190E0880F991FFC01E456FF4F60
:100F5000C591D491FC01EA55FF4FA591B49161115F
:100F600009C09FB7F8948881209582238883EC91EB
:100F70002E230BC0623061F49FB7F8948881322F22
:100F8000309583238883EC912E2B2C939FBF06C032
:100F90008FB7F894E8812E2B28838FBFDF91CF91F4
:100FA00008958E3008F08E508770806480937C00A6
:100FB00080917A00806480937A0080917A0086FD27
:100FC000FCCF809178002091790090E0922B0895D9
:100FD000CF92DF92EF92FF920F931F93CF93DF9305
:100FE000CDB7DEB762970FB6F894DEBF0FBECDBFA8
:100FF00008978231910508F07EC37B018C5C9F4F7E
:10100000FC010C947A20CE0101960E946F0D61E0E4
:10101000CE0101960E94211A182F882379F0B7017A
:10102000CE0107960E946F0D62E0CE0107960E94E6
:10103000211A182FCE0107960E946A0DCE01019643
:101040000E946A0D112309F462C0B701CE01079610
:101050000E946F0D41E0BE01695F7F4FCE01019696
:101060000E94F819CE0101960E94980C062FCE011D
:1010700001960E946A0DCE0107960E946A0DB70183
:10108000CE0107960E946F0D42E0BE01695F7F4F5F
:10109000CE0101960E94F819CE0101960E94980C8B
:1010A0006B017C01CE0101960E946A0DCE0107966C
:1010B0000E946A0D8091DD029091DE02A601602FF0
:1010C00048960E94D21188E090E06EC0CE01019651
:1010D0000E946F0D61E0CE0101960E94211A182F27
:1010E000882379F0B701CE0107960E946F0D62E068
:1010F000CE0107960E94211A182FCE0107960E9452
:101100006A0DCE0101960E946A0D111103C08FEF86
:101110009FEFEDC2B701CE0107960E946F0D41E02F
:10112000BE01695F7F4FCE0101960E94F819CE0182
:1011300001960E94980C062FCE0101960E946A0D1E
:10114000CE0107960E946A0DB701CE0107960E9454
:101150006F0D42E0BE01695F7F4FCE0101960E9494
:10116000F819CE0101960E94980C6B017C01CE010A
:1011700001960E946A0DCE0107960E946A0DC60173
:10118000853B910514F084EB90E0AC0197FF02C021
:1011900040E050E08091DD029091DE02602F4896A1
:1011A0000E94C21189E190E00E94A418A5C2CE015C
:1011B00001960E946F0D61E0CE0101960E94211AF6
:1011C000182F882379F0B701CE0107960E946F0D82
:1011D00062E0CE0107960E94211A182FCE010796D1
:1011E0000E946A0DCE0101960E946A0D112309F436
:1011F0008ECFB701CE0107960E946F0D41E0BE0170
:10120000695F7F4FCE0101960E94F819CE010196C9
:101210000E94980CD62ECE0101960E946A0DCE0136
:1012200007960E946A0DB701CE0107960E946F0DC6
:1012300042E0BE01695F7F4FCE0101960E94F8191E
:10124000CE0101960E94980CC62E072FCE01019662
:101250000E946A0DCE0107960E946A0D8091DD0200
:101260009091DE024C2D6D2D8F5B9F4F0E946F146D
:10127000E090DD02F090DE026D2DC7018F5B9F4F85
:101280000E945D14482F50E02C2D302F6D2DC7018A
:1012900048960E94741189E090E086CFCE010196B5
:1012A0000E946F0D61E0CE0101960E94211A182F55
:1012B000882379F0B701CE0107960E946F0D62E096
:1012C000CE0107960E94211A182FCE0107960E9480
:1012D0006A0DCE0101960E946A0D112309F417CF01
:1012E000B701CE0107960E946F0D41E0BE01695F14
:1012F0007F4FCE0101960E94F819CE0101960E94FF
:10130000980CD62ECE0101960E946A0DCE0107964A
:101310000E946A0DB701CE0107960E946F0D42E050
:10132000BE01695F7F4FCE0101960E94F819CE0180
:1013300001960E94980CC62E072FCE0101960E949E
:101340006A0DCE0107960E946A0D8091DD02909190
:10135000DE024C2D6D2D8F5B9F4F0E948214E0901A
:10136000DD02F090DE026D2DC7018F5B9F4F0E9462
:101370004B14482F50E02C2D302F6D2DC70148966F
:101380000E9474118AE090E00FCFCE0101960E9476
:101390006F0D61E0CE0101960E94211A182FCE0137
:1013A00001960E946A0D112309F4B1CEB701CE0156
:1013B00007960E946F0D41E0BE01695F7F4FCE012D
:1013C00001960E94F819CE0101960E94980CE62E13
:1013D000D72ECE0101960E946A0DCE0107960E947B
:1013E0006A0D8091DD029091DE026E2D8F5B9F4F22
:1013F0000E944B14F82E6E2D7D2DCE010D960E946D
:101400006C18BE01635F7F4FCE0107960E946F0D7F
:101410006BE3CE0107960E940F0D6F2D70E00E94C6
:10142000D90CBC01CE0101960E946F0DBE016F5F09
:101430007F4F8BE090E0ACC0CE0101960E946F0D13
:1014400061E0CE0101960E94211A182FCE0101966B
:101450000E946A0D112309F45ACEB701CE010796F6
:101460000E946F0D41E0BE01695F7F4FCE01019682
:101470000E94F819CE0101960E94980CE62ED72EF4
:10148000CE0101960E946A0DCE0107960E946A0D58
:101490008091DD029091DE026E2D8F5B9F4F0E9446
:1014A0005D14F82E6E2D7D2DCE010D960E946C18C8
:1014B000BE01635F7F4FCE0107960E946F0D6BE305
:1014C000CE0107960E940F0D6F2D70E00E94D90C7F
:1014D000BC01CE0101960E946F0DBE016F5F7F4F70
:1014E0008CE090E055C0CE0101960E946F0D61E046
:1014F000CE0101960E94211A182FCE0101960E945A
:101500006A0D112309F403CEB701CE0107960E949C
:101510006F0D41E0BE01695F7F4FCE0101960E94D1
:10152000F819CE0101960E94980CE62ED72ECE0116
:1015300001960E946A0DCE0107960E946A0D809165
:10154000DD029091DE026E2D48960E94B211F82EB7
:101550006E2D7D2DCE010D960E946C18BE01635F2D
:101560007F4FCE0107960E946F0D6BE3CE01079669
:101570000E940F0D6F2D70E00E94D90CBC01CE01AE
:1015800001960E946F0DBE016F5F7F4F88E190E072
:101590000E942319CE0101960E946A0DCE01079682
:1015A0000E946A0DCE010D960E946A0DA5C0CE0163
:1015B00001960E946F0D61E0CE0101960E94211AF2
:1015C000182FCE0101960E946A0D112309F49FCDB8
:1015D000B701CE0107960E946F0D41E0BE01695F21
:1015E0007F4FCE0101960E94F819CE0101960E940C
:1015F000980C6B017C01CE0101960E946A0DCE0110
:1016000007960E946A0DCA94CD2811F461E001C0CA
:1016100062E084E090E00E94E4128DE090E0C4CDAE
:1016200084E090E00E94071361E070E0813011F0E7
:1016300060E070E08EE090E040C0CE0101960E9434
:101640006F0D61E0CE0101960E94211A182FCE0184
:1016500001960E946A0D112309F459CDB701CE01FC
:1016600007960E946F0D41E0BE01695F7F4FCE017A
:1016700001960E94F819CE0101960E94980CF62E50
:10168000CE0101960E946A0DCE0107960E946A0D56
:10169000E091DD02F091DE02F2A66F2D653608F0D2
:1016A00064E662A78FE090E07FCDE091DD02F091EB
:1016B000DE0262A570E080E190E00E94DE1819C0B1
:1016C00081E190E014C0E091DD02F091DE02E85B80
:1016D000FF4F81E0808382E190E009C0E091DD026C
:1016E000F091DE02E85BFF4F108283E190E00E9400
:1016F000A41811E001C010E0812F62960FB6F89493
:10170000DEBF0FBECDBFDF91CF911F910F91FF9034
:10171000EF90DF90CF9008953FB7F8948091CD017E
:101720009091CE01A091CF01B091D00126B5A89B98
:1017300005C02F3F19F00196A11DB11D3FBFBA2F63
:10174000A92F982F8827820F911DA11DB11DBC01C3
:10175000CD0142E0660F771F881F991F4A95D1F788
:1017600008950E9476220F931F93CF93DF93EC018D
:1017700088819981009729F02A813B8126173707B4
:1017800088F48B016F5F7F4F0E94B021009761F05A
:10179000998388831B830A832C813D81232B11F439
:1017A000FC01108281E001C080E0DF91CF911F91A8
:1017B0000F910895EF92FF920F931F93CF93DF93B2
:1017C0006115710511F480E01CC041155105C1F08F
:1017D0007B01EC018C819D818A01080F191FB801E2
:1017E000CE010E94B30B882371F3288139818C814B
:1017F0009D81B701820F931F0E9484221D830C8359
:1018000081E0DF91CF911F910F91FF90EF900895AC
:101810008F929F92AF92BF92CF92DF92EF92FF9200
:101820006B017C010E948C0B4B015C01C114D10443
:10183000E104F104F1F00E948C0BDC01CB0188196A
:101840009909AA09BB09883E9340A105B10570F327
:1018500021E0C21AD108E108F10888EE880E83E081
:10186000981EA11CB11CC114D104E104F10419F7A4
:10187000DDCFFF90EF90DF90CF90BF90AF909F9023
:101880008F9008952FB7F8946091C9017091CA01A3
:101890008091CB019091CC012FBF08951F920F92A0
:1018A0000FB60F9211242F933F938F939F93AF9373
:1018B000BF938091C9019091CA01A091CB01B091D1
:1018C000CC013091C80123E0230F2D3720F401967D
:1018D000A11DB11D05C026E8230F0296A11DB11D53
:1018E0002093C8018093C9019093CA01A093CB01B2
:1018F000B093CC018091CD019091CE01A091CF0108
:10190000B091D0010196A11DB11D8093CD0190939E
:10191000CE01A093CF01B093D001BF91AF919F9121
:101920008F913F912F910F900FBE0F901F901895A0
:10193000FC0180819181009711F00C94241F60E0DC
:1019400070E0CB010895FC01248135816217730793
:1019500048F480819181009729F0FC01E60FF71F80
:101960008081089580E00895CF93DF9300D0CDB7B4
:10197000DEB769831A8241E050E0BE016F5F7F4F9E
:101980000E94DA0B0F900F90DF91CF910895CF93C3
:10199000DF93EC0188819981009711F00E94272143
:1019A000198218821D821C821B821A82DF91CF91BC
:1019B0000895EF92FF920F931F93CF93DF93CDB7CC
:1019C000DEB728970FB6F894DEBF0FBECDBF7C01FF
:1019D000CB014AE08E010F5F1F4FB8010E944B1FE1
:1019E000F80101900020E9F73197AF01401B510B3E
:1019F000B801C7010E94DA0B811103C0C7010E9420
:101A0000C70CC70128960FB6F894DEBF0FBECDBF36
:101A1000DF91CF911F910F91FF90EF900895CF9399
:101A2000DF93EC010E94B40C811103C0CE010E942F
:101A3000C70CCE01DF91CF910895CF93DF93EC01D6
:101A40006115710561F0FB0101900020E9F7319704
:101A5000AF01461B570B0E94DA0B811103C0CE0168
:101A60000E94C70CCE01DF91CF910895CF93DF93F1
:101A7000EC01FB0144815581608171810E94DA0B88
:101A8000811103C0CE010E94C70CCE01DF91CF911E
:101A90000895EF92FF920F931F93CF93DF93EC0182
:101AA0007B018A01BA010E94B30B811104C0CE01EF
:101AB0000E94C70C07C01D830C83B70188819981E0
:101AC0000E948422CE01DF91CF911F910F91FF9050
:101AD000EF900895FC01808191810C942721FB01F6
:101AE000DC0111961C921E9213961C921E92129764
:101AF00015961C921E9214978617970749F06081DD
:101B000071816115710521F0448155810C94490D55
:101B10000895CF92DF92EF92FF920F931F93CF938E
:101B2000DF936C017A018B01C0E0D0E0CE15DF05B8
:101B300081F0D8016D918D01D601ED91FC9101905C
:101B4000F081E02DC6010995892B11F02196EECF89
:101B50007E01C701DF91CF911F910F91FF90EF9010
:101B6000DF90CF900895089580E090E00895FC0103
:101B7000538D448D252F30E0842F90E0821B930BF2
:101B8000541710F0CF96089501970895FC01918D98
:101B9000828D981761F0828DDF01A80FB11D5D96CF
:101BA0008C91928D9F5F9F73928F90E008958FEF3D
:101BB0009FEF0895FC01918D828D981731F0828DF1
:101BC000E80FF11D858D90E008958FEF9FEF089548
:101BD000FC01918D228D892F90E0805C9F4F821BAC
:101BE00091098F73992708958BE192E00E94E80D87
:101BF00021E0892B09F420E0822F0895FC01848DD7
:101C0000DF01A80FB11DA35ABF4F2C91848D90E026
:101C100001968F739927848FA689B7892C93A08901
:101C2000B1898C91837080648C93938D848D98138B
:101C300006C00288F389E02D80818F7D808308951E
:101C4000EF92FF920F931F93CF93DF93EC0181E00C
:101C5000888F9B8D8C8D981305C0E889F9898081C8
:101C600085FD26C0F62E0B8D10E00F5F1F4F0F7302
:101C70001127E02E8C8DE8120CC00FB607FCFACFAE
:101C8000E889F989808185FFF5CFCE010E94FE0D9C
:101C9000F1CF8B8DFE01E80FF11DE35AFF4FF0826B
:101CA0009FB7F8940B8FEA89FB89808180620AC014
:101CB0009FB7F894EE89FF896083E889F98980816C
:101CC0008370806480839FBF81E090E0DF91CF913B
:101CD0001F910F91FF90EF900895CF93DF93EC0148
:101CE000888D8823C9F0EA89FB89808185FD05C03C
:101CF000A889B9898C9186FD0FC00FB607FCF5CF76
:101D0000808185FFF2CFA889B9898C9185FFEDCFBD
:101D1000CE010E94FE0DE7CFDF91CF91089580E0C4
:101D200090E0892B29F00E94F40D81110C940000A1
:101D30000895CF92DF92EF92FF92CF93DF93EC0161
:101D4000603232E073070CF03EC0CB01653B710599
:101D500014F084EB90E02981A8E8B0E06D01C21A8C
:101D6000D10827FDD394D601AA0FBB1FAA0FBB1F12
:101D70006D01BB0FEE08FF084A8128E532E0241B05
:101D8000310947FD3395220F331F220F331FA9015D
:101D9000330F660B770B9A01AB012C193D094E09E5
:101DA0005F09DC0197FF02C0A0E0B0E00E94FE1FC7
:101DB00024EB30E040E050E00E94D41FC20ED31E5E
:101DC000E41EF51EB601E881EC3058F5298188E85B
:101DD00090E0821B910927FD9395880F991F880F2A
:101DE000991F681779077CF02A8188E592E0821BA9
:101DF000910927FD9395880F991F880F991F6817E0
:101E000079070CF4CB010297880F991F2FB7F8942C
:101E100036E0E39FF0011124ED52FE4F928381835F
:101E20002FBFDF91CF91FF90EF90DF90CF9008957B
:101E3000FC0182810C94D107FC0111821082138273
:101E40001282158214826115710551F0FB01019017
:101E50000020E9F73197AF01461B570B0C94490D51
:101E600008951F920F920FB60F9211242F933F9354
:101E70004F935F936F937F938F939F93AF93BF9392
:101E8000EF93FF938BE192E00E94FE0DFF91EF91A3
:101E9000BF91AF919F918F917F916F915F914F9182
:101EA0003F912F910F900FBE0F901F9018951F928A
:101EB0000F920FB60F9211242F938F939F93EF934E
:101EC000FF93E0912B02F0912C028081E09131028E
:101ED000F091320282FD12C09081809134028F5FB6
:101EE0008F7320913502821751F0E0913402F0E0B7
:101EF000E55EFD4F958F8093340201C08081FF9194
:101F0000EF919F918F912F910F900FBE0F901F9087
:101F100018958F929F92AF92BF92CF92DF92EF92DD
:101F2000FF92FC01828128E532E06901C81AD108DC
:101F300087FDD394CC0CDD1CCC0CDD1C0D2C000CCF
:101F4000EE08FF08818128E830E04901881A9108ED
:101F500087FD9394880C991C880C991C092C000C03
:101F6000AA08BB08E081EF3FA9F086E0E89FF001F6
:101F70001124ED52FE4F2181328183E0220F331F65
:101F80008A95E1F794E0369527959A95E1F72E5FCB
:101F90003F4F02C020E030E02F5F3F4FC901330FB9
:101FA000AA0BBB0B9C01AD01281939094A095B0931
:101FB000A4EBB0E00E94F31FA7019601281939098C
:101FC0004A095B090E94D41FC901FF90EF90DF907E
:101FD000CF90BF90AF909F908F9008951F93CF9315
:101FE000DF93EC01162F88818C3008F04BC061E044
:101FF000812F0E949507888196E0899FF001112426
:10200000ED52FE4F1F739081907C192B1083198223
:102010001A826CE00E946E209CE0899FA00111242E
:1020200020E030E096E0BA01620F731F969FF00146
:10203000979FF00D1124ED52FE4F608166FD16C092
:102040002F5F3F4F2C30310571F781110FC0109277
:10205000800082E0809381001092850010928400BD
:10206000B19A80916F00826080936F00E88186E072
:10207000E89FF0011124ED52FE4F8081806480833F
:102080008FEF83838881DF91CF911F9108951F92F5
:102090000F920FB60F9211240F931F932F933F931C
:1020A0004F935F936F937F938F939F93AF93BF9360
:1020B000EF93FF938091D10187FF05C010928500B7
:1020C0001092840037C02091D101022E000C330BF6
:1020D0008091D20190E02817390764F52091D10151
:1020E00016E02103F0011124ED52FE4F808186FF9E
:1020F00021C02091D1012103F0011124ED52FE4FA6
:10210000808160E08F730E9428072091D101210314
:10211000F0011124ED52FE4F83818F3F59F0209141
:10212000D1012103F0011124ED52FE4F60E08381C3
:102130000E9495078091D1018F5F8093D1012091FA
:10214000D101022E000C330B8091D20190E02817B0
:1021500039070CF064C08091D1018C300CF05FC065
:1021600040918400509185002091D10116E0210317
:10217000F0011124ED52FE4F81819281840F951F51
:1021800090938900809388002091D1012103F00170
:102190001124ED52FE4F808186FF58C02091D1015D
:1021A0002103F0011124ED52FE4F808161E08F7315
:1021B0000E9428072091D1012103F0011124ED5242
:1021C000FE4F83818F3F09F441C00091D1012091DE
:1021D000D1012103F0011124ED52FE4F83810E94B1
:1021E000D1070103F0011124ED52FE4F9583848342
:1021F0002091D1012103F0011124ED52FE4F61E045
:1022000083810E9495072091D1012103F0011124BF
:10221000ED52FE4F60E083810E94280717C0809135
:10222000840090918500049680349C4918F480E4E1
:102230009CE905C08091840090918500049690935C
:102240008900809388008FEF8093D101FF91EF91F7
:10225000BF91AF919F918F917F916F915F914F91BE
:102260003F912F911F910F910F900FBE0F901F90D4
:102270001895CF92DF92EF92FF921F93CF93DF9347
:102280006C01EB017C01E60EF71EF70180819CEEEC
:10229000980F923038F40E94D10711E0883C9105E4
:1022A0003CF005C00E94FF0611E0892B09F010E008
:1022B000F7018481811779F00E94420C2296CC0F9D
:1022C000DD1FCC0FDD1FCC0DDD1D688379838A8374
:1022D0009B83F7011483812FDF91CF911F91FF9092
:1022E000EF90DF90CF900895FC01453B510514F02D
:1022F00044EB50E057FF02C040E050E037FD0DC016
:10230000253B310514F024EB30E0922F832F421748
:1023100053073CF4942F852F04C020E030E090E078
:1023200080E0421753070CF4A9012685211105C04E
:102330009C01942F852F432F522F623049F0633038
:1023400061F0613071F4548B438B958B868B0895CB
:10235000508F478B918F828F0895548F438F958F25
:10236000868F0895623031F0633031F0613041F48E
:10237000089603C0059601C00B960E94890F089528
:102380008FEF0895262FBA01223031F0233031F03B
:10239000213039F4089603C0059601C00B960C94C1
:1023A000990E0895CF93DF93FC01623039F06330CA
:1023B00009F446C0613009F067C021C080898111ED
:1023C00063C0C18DD28DA789B08DAC17BD0754F005
:1023D0009C2F8D2FCA17DB0714F49A2F8B2FDE0149
:1023E000C92FD82F4A175B0734F0BA01C417D50795
:1023F0001CF4BE0101C0BD01CF01059641C0878517
:10240000811142C0C589D689238934892C173D079B
:1024100054F09C2F8D2FC217D30714F4922F832FC3
:102420009E01C92FD82F4217530734F0BA01C417A1
:10243000D5071CF4BE0101C0B901CF01089620C028
:102440008189811121C0C58DD68D838D948D8C1786
:102450009D0754F03C2F2D2FC817D90714F4382F9F
:10246000292FCE01C32FD22F4817590734F0BA01B4
:10247000C417D5071CF4BE0101C0BC01CF010B96E7
:10248000DF91CF910C94990EDF91CF910895FF9237
:102490000F931F93CF93DF938C01F62EEA01FC017B
:1024A0008685882319F0D195C195D1096F2DC80172
:1024B0000E94B211AE01480F511D6F2DC801DF916E
:1024C000CF911F910F91FF900C94D211FF920F9317
:1024D0001F93CF93DF938C01F62EEA01FC018685D2
:1024E000811103C0D195C195D1096F2DC8010E94FA
:1024F000B211AE01480F511D6F2DC801DF91CF9170
:102500001F910F91FF900C94D2110F931F93CF93B3
:10251000DF938C0183E090E00E948F20EC01F801B2
:10252000878124E131E0398328838A8360E00E9437
:102530009507F801D183C083DF91CF911F910F914F
:102540000895CF92DF92EF92FF920F931F93CF9354
:10255000DF93EC01888199810E94EE17CB80DC80AB
:102560000D2C000CEE08FF08092E000CAA0BBB0B6B
:102570009C01AD012C193D094E095F09AFEFB3E095
:102580000E94F31F2D813E818901330F220B330BF3
:10259000A90198012C193D094E095F090E94D41F19
:1025A000C901811524E0920714F08FEF93E097FFA3
:1025B00002C080E090E0DF91CF911F910F91FF90DA
:1025C000EF90DF90CF9008951F93CF93DF93EC01AE
:1025D000162F0E94BE1F181739F0612FCE01DF9110
:1025E000CF911F910C94C61FDF91CF911F91089539
:1025F0001F93CF93DF93EC01172F0E94E412612FFA
:10260000CE010196DF91CF911F910C94E4120C94AE
:10261000BE1F1F93CF93DF93EC010E940713182F67
:10262000CE0101960E94071390E0982F8827810F12
:10263000911DDF91CF911F910895CF93DF9300D02B
:1026400000D000D0CDB7DEB7411586E95807610547
:10265000710509F45DC038F5403C82E15807610519
:10266000710509F44FC080F4403B84E058076105D0
:10267000710509F444C0403659406105710509F0FF
:1026800063C069E471E052C0403885E258076105D3
:102690007105D9F141155B446105710509F054C01C
:1026A00064E671E043C0411584E8580783E0680799
:1026B0007105A1F170F4411581EE580761057105AE
:1026C00051F14115524C61407105F1F56FE771E030
:1026D0002DC0411580E158078EE06807710509F1AA
:1026E000411588E1580785E168077105E9F0403137
:1026F0005F426740710541F561E971E017C060E430
:1027000071E014C062E571E011C06BE571E00EC0CC
:102710006DE671E00BC066E771E008C068E871E043
:1027200005C06AE971E002C063EA71E0CE0101967A
:102730000E941C0FCE0101960E94F606CE01019662
:102740000E946A0D81E001C080E026960FB6F894E1
:10275000DEBF0FBECDBFDF91CF910895EF92FF9204
:102760000F931F93CF93DF93CDB7DEB762970FB66A
:10277000F894DEBF0FBECDBF7B016AE271E0CE01EF
:102780000D960E941C0FF70184819581049711F02A
:1027900010E033C000E010E0B801C7010E94A30CB4
:1027A0009FEC980F9930A0F7682FCE010D960E94EC
:1027B000B40C0F5F1F4F0430110571F76CEA71E024
:1027C000CE0101960E941C0FBE01635F7F4FCE01B8
:1027D00001960E94360DBC01CE0107960E946F0D36
:1027E000CE0107960E94F606CE0107960E946A0D5A
:1027F000CE0101960E946A0D11E0CE010D960E9455
:102800006A0D812F62960FB6F894DEBF0FBECDBF62
:10281000DF91CF911F910F91FF90EF9008950F934B
:102820001F93CF93DF93CDB7DEB72C970FB6F894F5
:10283000DEBF0FBECDBFFB01848195814597F8F4C3
:102840008B0163EB71E0CE0101960E941C0FB80171
:10285000CE0101960E94360DBC01CE0107960E9462
:102860006F0DCE0107960E94F606CE0107960E94D4
:102870006A0DCE0101960E946A0D81E001C080E0E0
:102880002C960FB6F894DEBF0FBECDBFDF91CF916F
:102890001F910F910895623039F0633041F061303B
:1028A00051F48AE090E005C08CE090E002C08EE038
:1028B00090E00C9407138FEF0895623039F0633085
:1028C00041F0613051F489E090E005C08BE090E088
:1028D00002C08DE090E00C9407138FEF0895862FCF
:1028E000642F823039F0833041F0813051F48AE036
:1028F00090E005C08CE090E002C08EE090E00C9487
:10290000E4120895862F642F823039F0833041F02D
:10291000813051F489E090E005C08BE090E002C086
:102920008DE090E00C94E41208950F931F93CF93E1
:10293000DF93DC015D96ED91FC915E97309781F01D
:10294000EC01ABA1BCA114960D911C9115971596A5
:102950009C938E9314970995EBA1FCA11583048396
:10296000DF91CF911F910F9108958F929F92AF9217
:10297000BF92CF92DF92EF92FF920F931F93CF936C
:10298000DF93CDB7DEB7A4970FB6F894DEBF0FBEC6
:10299000CDBFE091DD02F091DE02EC5BFF4F808164
:1029A00091812091E7028430910519F4211104C02E
:1029B00087C2892B09F47EC28091E702882309F43B
:1029C00082C26AE271E0CE0101960E941C0F8BE187
:1029D00092E00E94E80D18161906BCF46AE070E057
:1029E00080E090E00E94080C8BE192E00E94E80DEC
:1029F0001816190664F78BE192E00E94C60D682F45
:102A0000CE0101960E94B40CE2CF8D819E81029787
:102A100038F46AE271E0CE014F960E941C0F1CC090
:102A20000E94420C6093E3027093E4028093E502FB
:102A30009093E60289819A8198A38F8F8B819C81E4
:102A40009AA389A38D819E819CA38BA31A8219824C
:102A50001C821B821E821D82CE0101960E946A0D7D
:102A60000E94420C0091E3021091E4022091E502E1
:102A70003091E602DC01CB01801B910BA20BB30B62
:102A8000803C9742A940B10510F00E947F078BA1BE
:102A90009CA1029708F409C2BE01615E7F4FCE017E
:102AA00001960E946F0D40E050E0BE016F5F7F4FC6
:102AB000CE0107960E946819CE0107960E94980CD5
:102AC0006B017C01CE0107960E946A0DCE01019632
:102AD0000E946A0DBE01615E7F4FCE0149960E9441
:102AE0006F0DB090E702BB2009F4DBC18601BE0187
:102AF000675E7F4FCE0143960E946F0DC6010D2C7D
:102B0000000CAA0BBB0B8830910508F00BC1FC012F
:102B1000EA5BFF4F0C947A206BEB71E0CE010196DB
:102B20000E941C0FBE016F5F7F4F80E090E0F3C0FA
:102B3000BE016D5E7F4FCE0107960E946F0DA09083
:102B4000E702AA2041F10E94420C6093E3027093D5
:102B5000E4028093E5029093E602E091E102F091B5
:102B6000E2020190F081E02D82809380BE01695FD6
:102B70007F4FCE0101960E946F0DBE016F5F7F4FA8
:102B80008091E1029091E202F4010995A82ECE0114
:102B900001960E946A0DCE0107960E946A0DA1104F
:102BA00003C090E3A92E02C081E3A82E61E070E08B
:102BB000CE0101960E946C18BE016F5F7F4FCE015F
:102BC00007960E946F0D6BE3CE0107960E940F0DD2
:102BD0006A2D0E940F0D68E271E00E941D0DBC017C
:102BE000CE010D960E946F0DCE010D960E944118E8
:102BF00072C0BE016D5E7F4FCE0107960E946F0DC1
:102C00008091E702882339F10E94420C6093E3022D
:102C10007093E4028093E5029093E602E091E10272
:102C2000F091E2020190F081E02D80809180BE0160
:102C3000695F7F4FCE0101960E946F0DBE016F5FED
:102C40007F4F8091E1029091E202F4010995CE015B
:102C500001960E946A0DCE0107960E946A0D82E0DD
:102C600090E00BC00E947F0783E090E006C00E94C6
:102C70007F070E94570784E090E00E94A41853C089
:102C800061E070E0CE0101960E946C18BE016F5F9A
:102C90007F4FCE0107960E946F0D6EEB71E0CE0163
:102CA00007960E941D0D62E070E00E94D90C6EEB49
:102CB00071E00E941D0D61E070E00E94D90CBC0122
:102CC000CE010D960E946F0DBE01635F7F4F85E0C0
:102CD00090E00E942319CE010D960E946A0DCE014C
:102CE00007960E946A0D19C060EC71E0CE01019652
:102CF0000E941C0FBE016F5F7F4F87E090E00BC00A
:102D000064EC71E0CE0101960E941C0FBE016F5F62
:102D10007F4F86E090E00E942319CE0101960E9429
:102D20006A0D01C0B12CCE0143960E946A0DB1100C
:102D3000B8C0BE01675E7F4FCE0101960E946F0D45
:102D4000BE016F5F7F4FC6010E94E807F82ECE01DB
:102D500001960E946A0DF110A4C0BE01675E7F4F0C
:102D6000CE010D960E946F0D0531110509F44EC07C
:102D70007CF40431110509F090C08091DD0290913E
:102D8000DE02C7960E94A112BC0184E190E080C0DF
:102D90000631110509F474C00731110509F07DC031
:102DA0008091DD029091DE0240E050E062E04896C2
:102DB0000E94D21164E670E080E090E00E94080C6E
:102DC0008091DD029091DE0244EB50E062E0489693
:102DD0000E94D2110091DD021091DE02F801EA5B3F
:102DE000FF4F84E090E0918380830E94420CF801C1
:102DF000E75BFF4F6083718382839383359781E024
:102E000090E09183808387E190E045C0BE01635FDD
:102E10007F4FCE0101960E946F0D61E0CE010196B9
:102E20000E94211A182FCE0101960E946A0D1123CB
:102E300021F1BE01635F7F4FCE0101960E946F0DAD
:102E400041E0BE016F5F7F4FCE0107960E94F819E7
:102E5000CE0107960E94980C162FCE0107960E946D
:102E60006A0DCE0101960E946A0D612F8FE090E0FD
:102E70000E94E41285E190E00EC08FEF9FEF0BC03F
:102E80008FE090E00E940713682F70E086E190E0E9
:102E90000E94DE1802C00E94A418CE010D960E9466
:102EA0006A0DCE0149960E946A0DCE014F960E948E
:102EB0006A0D09C0222309F47FCD0E947F077CCDD3
:102EC0000E94570779CDA4960FB6F894DEBF0FBEC7
:102ED000CDBFDF91CF911F910F91FF90EF90DF90C9
:102EE000CF90BF90AF909F908F900895CF92DF9238
:102EF000EF92FF920F931F93CF93DF93EC016A0140
:102F00007B010E94420C088119812A813B81DC01EE
:102F1000CB01801B910BA20BB30B11E0C816D90695
:102F2000EA06FB0608F010E00E94420C68837983F1
:102F30008A839B83812FDF91CF911F910F91FF9007
:102F4000EF90DF90CF900895EF92FF920F931F9331
:102F5000CF93DF937C01FC01E60FF71F80819CEE8D
:102F6000980FEB012296923030F40E94D107883CF2
:102F700091059CF004C00E94FF06892B71F010E0BF
:102F80000E94420CCC0FDD1FCC0FDD1FCE0DDF1DCC
:102F9000688379838A839B8319C00E94420CCC0F7B
:102FA000DD1FCC0FDD1FCE0DDF1D088119812A81A9
:102FB0003B81DC01CB01801B910BA20BB30B11E019
:102FC00088389341A105B10508F410E0812FDF9105
:102FD000CF911F910F91FF90EF900895EF92FF9284
:102FE0000F931F93CF93DF937C0100E110E0C0E0CB
:102FF000D0E0D701ED91FC910190F081E02DC70167
:103000000995C80FD91F0150110999F7CE0124E085
:10301000959587952A95E1F7DF91CF911F910F91B3
:10302000FF90EF9008951F93CF93DF93182FC62F33
:10303000641710F4D42F02C0D62FC42F8091F4034C
:103040009091F5034C2F612F8F5B9F4F0E9482144C
:103050008091F4039091F5034D2F612F8F5B9F4F6B
:103060000E946F142D2F30E04C2F50E08091F4031C
:103070009091F503612F4896DF91CF911F910C94A9
:1030800074110F931F93CF93DF932091E7022223B4
:10309000F1F08C01C0E0D0E0F80184819581C8177F
:1030A000D90758F4BE01C8010E94A30C682F8BE118
:1030B00092E00E94200E2196EFCF0E94420C609376
:1030C000E3027093E4028093E5029093E602DF91BD
:1030D000CF911F910F910895EF92FF920F931F933D
:1030E000CF93DF93CDB7DEB762970FB6F894DEBF0C
:1030F0000FBECDBF8C01CB01F8011182108213826B
:103100001282158214824AE09E012F5F3F4F79019F
:10311000B9010E944B1FF70101900020E9F7319798
:10312000AF014E195F09B701C8010E94490D6296AF
:103130000FB6F894DEBF0FBECDBFDF91CF911F91C8
:103140000F91FF90EF900895CF93DF93CDB7DEB747
:1031500062970FB6F894DEBF0FBECDBFBC01CE01A3
:103160000D960E946C18BE01635F7F4FCE010796DB
:103170000E946F0D68E271E0CE0107960E941D0D5E
:10318000BC01CE0101960E946F0DCE0101960E94F6
:103190004118CE0101960E946A0DCE0107960E9449
:1031A0006A0DCE010D960E946A0D62960FB6F894D4
:1031B000DEBF0FBECDBFDF91CF9108950F931F9358
:1031C000CF93DF93CDB7DEB762970FB6F894DEBF2B
:1031D0000FBECDBF8B01BC01CE010D960E946C18B5
:1031E000BE01635F7F4FCE0107960E946F0D6BE3B8
:1031F000CE0107960E940F0DB8010E94D90C68E21B
:1032000071E00E941D0DBC01CE0101960E946F0D60
:10321000CE0101960E944118CE0101960E946A0DCE
:10322000CE0107960E946A0DCE010D960E946A0D8E
:1032300062960FB6F894DEBF0FBECDBFDF91CF917F
:103240001F910F9108950F931F93CF93DF93CDB7E5
:10325000DEB762970FB6F894DEBF0FBECDBF8B010D
:10326000BC01CE010D960E946C18BE01635F7F4FBA
:10327000CE0107960E946F0D6BE3CE0107960E9468
:103280000F0DB8010E94360D68E271E00E941D0D1D
:10329000BC01CE0101960E946F0DCE0101960E94E5
:1032A0004118CE0101960E946A0DCE0107960E9438
:1032B0006A0DCE010D960E946A0D62960FB6F894C3
:1032C000DEBF0FBECDBFDF91CF911F910F9108954B
:1032D0008F929F92AF92BF92CF92DF92EF92FF9226
:1032E0000F931F93CF93DF935C016B017A01DB0196
:1032F00014968C9188248A94880EC0E00FEF10E019
:10330000D0E0982E812F90E0E816F90694F06D2F0A
:1033100070E0C6010E94A30C8B3311F08D1206C021
:103320001F5FC1E0C00F8D1253C0092DDF5F8D16E6
:1033300048F7812F90E0E816F9060CF043C0002E04
:10334000000C110B0C2E000CDD0B0C171D0728F4C4
:103350009C2F8D2FE801092F182F6AE271E0C5011B
:103360000E941C0FF601E480F580CE15DF0590F574
:103370000E151F0508F47801D601ED91FC91119707
:10338000EE0DFF1D108110826D917C916C0F7D1FE1
:103390006115710561F0FB0101900020E9F731979B
:1033A000AF01461B570BC5010E94490D03C0C50163
:1033B0000E94C70CF60180819181FC01EE0DFF1D7A
:1033C000108308C06AE271E0C5010E941C0F02C0B0
:1033D0000D2FACCFC501DF91CF911F910F91FF90C1
:1033E000EF90DF90CF90BF90AF909F908F90089517
:1033F000EF92FF921F93CF93DF9300D000D000D0C5
:10340000CDB7DEB77C01142FCE0101960E946F0D5F
:10341000412F50E0BE016F5F7F4FC7010E946819C6
:10342000CE0101960E946A0DC70126960FB6F89448
:10343000DEBF0FBECDBFDF91CF911F91FF90EF9008
:1034400008951F93CF93DF93CDB7DEB72C970FB6B8
:10345000F894DEBF0FBECDBF162FBC01CE0107967C
:103460000E946F0D412FBE01695F7F4FCE01019613
:103470000E94F8198D819E81892B41F0E981FA81A2
:1034800011E08081882319F010E001C011E0CE0125
:1034900001960E946A0DCE0107960E946A0D81E096
:1034A00081272C960FB6F894DEBF0FBECDBFDF91FB
:1034B000CF911F910895CF93DF93EC01988188817C
:1034C0008E7F888388818D7F888390FF03C0CE01A3
:1034D0000E9495148BA19CA1009769F11CA21BA2CC
:1034E000EF8DF8A1A9A1BAA1309799F4109749F4EA
:1034F000DC0111961C921E9213961C921E9212973A
:103500001AC090961C921E925F97FC01B183A08313
:1035100012C0109741F412A211A2DC011396FC9381
:10352000EE93129708C0B2A3A1A3A9A1BAA1909645
:10353000FC93EE935F97DF91CF9108950F931F93C4
:10354000CF93DF93EC0188818E7F888388818D7F84
:10355000888319861A861B861C861D821E821F82FE
:10356000188619821A821B821C8218A21F8E1AA228
:1035700019A21CA21BA21D8A1E8A1F8A188E3A8FAE
:10358000298F1C8E1B8E1E8E1D8E49835A836B8342
:103590007C8389819A81AB81BC818D839E83AF833B
:1035A000B8870E94420C69877A878B879C878FEF48
:1035B0009FEFDC018D879E87AF87B88B898B9A8BB5
:1035C000AB8BBC8B0115110501F18BA19CA10817D8
:1035D0001907D9F01CA30BA3D8018D919C911197C9
:1035E000892B29F4CD93DC9318A21F8E09C0D80132
:1035F0001296ED91FC911397F8A3EF8FD2A3C1A37C
:103600001AA219A2F801D383C283CE01DF91CF9110
:103610001F910F910C94A805CF93DF9300D000D099
:10362000CDB7DEB7789484B5826084BD84B58160FF
:1036300084BD85B5826085BD85B5816085BD80917D
:103640006E00816080936E001092810080918100F5
:1036500082608093810080918100816080938100ED
:10366000809180008160809380008091B1008460AF
:103670008093B1008091B00081608093B000809110
:103680007A00846080937A0080917A0082608093CF
:103690007A0080917A00816080937A0080917A002C
:1036A000806880937A001092C10085E080938A033D
:1036B00089E080938B0386E080938C038FEF809367
:1036C0008D0380938E0361E085E00E94950761E0A1
:1036D00080918B030E94950761E080918C030E948A
:1036E000950782E380939C0360918A0370E08FE8E2
:1036F00093E00E94EE0F60918B0370E082E993E00B
:103700000E94EE0F60918C0370E085E993E00E94C7
:10371000EE0F2BE430E04FE050E061E08AE893E008
:103720000E9474112BE430E04FE050E062E08AE840
:1037300093E00E9474112BE430E04FE050E063E02E
:103740008AE893E00E94741184E18093720385E11A
:10375000809373038EE0809374038AE080937503F3
:1037600002E713E062E0F80181918F010E94950762
:10377000F3E006371F07B1F78FE08093B0038FEFB8
:103780008093B1038093B2031092AB0389EA93E074
:103790000E94851282E793E09093ED038093EC03FF
:1037A00019821A821B821C82CE0101967C0100E0E4
:1037B00010E06C01C8010E94BE1FF70181937F01D8
:1037C0000F5F1F4F04301105A9F769817A818B8142
:1037D0009C8120E03EEC4BE257E40E94951F811152
:1037E00061C061E085E090E00E94E41262E086E062
:1037F00090E00E94E41261E087E090E00E94E41211
:103800000091EC031091ED0384E090E00E94071317
:103810007801F8E1EF0EF11C91E0813009F090E0C1
:10382000F80196A325A536A543A554A561E0C701D7
:103830000E947411F80121A932A947A550A962E09C
:10384000C7010E947411F80125A936A943A954A9FA
:1038500063E0C7010E94741181E00E94CF0682E0FC
:103860000E94CF0683E00E94CF06A090EC03B090A8
:10387000ED038FE090E00E940713182F80E190E0A5
:103880000E9409136C0182E190E00E9409137C01FF
:10389000C501C796F50111AF123008F054C00E945F
:1038A000851251C061E084E090E00E94E4126FE074
:1038B00089E090E00E94E4126BE48AE090E00E94CC
:1038C000E4126FE08BE090E00E94E4126BE48CE085
:1038D00090E00E94E4126FE08DE090E00E94E4121C
:1038E0006BE48EE090E00E94E41260E08FE090E0F4
:1038F0000E94E41260E070E080E190E00E94F81223
:103900006FEF73E082E190E00E94F81280E09EEC9D
:10391000ABE2B7E489839A83AB83BC83760100E092
:1039200010E0F701D1907F01C8010E94BE1FD81698
:1039300021F06D2DC8010E94C61F0F5F1F4F04307C
:10394000110579F74ECF02E713E0E091EC03F09117
:10395000ED03D3AEC2AEF5AEE4AE1093C103009357
:10396000C0031093E5030093E4030E94420C6093AC
:10397000E6037093E7038093E8039093E9031093C1
:10398000EF030093EE031093F5030093F40382E733
:1039900091E00E94A10688E291E00E941C068AE65E
:1039A00091E00E94A10684E090E00E94071381301C
:1039B00019F086E391E002C08BE291E00E941C06C0
:1039C00088E291E00E941C068EE591E00E94A1062B
:1039D00089E090E00E9407130E94BC0682E591E016
:1039E0000E94A1068BE090E00E9407130E94BC0693
:1039F00084E491E00E94A1068DE090E00E9407130C
:103A00000E94BC0688E391E00E94A1068AE090E053
:103A10000E9407130E94BC068CE291E00E94A1065E
:103A20008CE090E00E9407130E94BC068EE191E0BA
:103A30000E94A1068EE090E00E9407130E94BC063F
:103A400080E191E00E94A1068FE090E00E940713C0
:103A50000E94BC0683E091E00E94A10680E190E014
:103A60000E9409130E946F0686EF90E00E94A10653
:103A700082E190E00E9409130E946F0682E793E0C2
:103A80009093DE028093DD0261E081E10E94950760
:103A9000E0912B02F0912C0282E08083E0912702DA
:103AA000F09128021082E0912902F0912A0283E32A
:103AB000808310923302E0912F02F091300286E071
:103AC0008083E0912D02F0912E02808180618083BD
:103AD000E0912D02F0912E02808188608083E09138
:103AE0002D02F0912E02808180688083E0912D026A
:103AF000F0912E0280818F7D808384E090E00E948F
:103B00008F202091DF023091E002FC013383228379
:103B10002AE031E0318320839093E2028093E10236
:103B20000E947F0780E693E0F3E089369F0721F04B
:103B30009093710380937003E0917003F09171038F
:103B4000309709F0168287E593E023E080369207EC
:103B500021F09093680380936703E0916703F091ED
:103B60006803309709F0168209E613E0F801E08057
:103B7000F180E114F10439F0C7010E94A805F701B2
:103B8000E1A0F2A0F6CFF80107811085011511051B
:103B900069F789E693E00E94E7040E948F0EF9CF4F
:103BA000E091D201EC3088F421E02E0F2093D20175
:103BB000DC01EC93B6E0EB9FF0011124ED52FE4FD7
:103BC00088EB9BE09283818308952FEFFC01208393
:103BD0000895FF920F931F93CF93DF938C01F62EDE
:103BE000EA010E94B211AE01480F511D453B51053B
:103BF00014F044EB50E057FF02C040E050E06F2D5E
:103C0000C801DF91CF911F910F91FF900C94C211C9
:103C100088EB92E00E945B1A88EE92E00E945B1AA9
:103C20008DE093E00E945B1A82E393E00C945B1AB0
:103C30000F931F93CF93EBE1F2E01382128288EE91
:103C400093E0A0E0B0E084839583A683B7838AE104
:103C500091E09183808385EC90E09587848784EC64
:103C600090E09787868780EC90E0918B808B81EC49
:103C700090E0938B828B82EC90E0958B848B86EC2A
:103C800090E0978B868B118E128E138E148E8FE898
:103C900093E00E94D01D82E993E00E94D01D85E947
:103CA00093E00E94D01DE2E7F3E0C1E0C6A317A2B3
:103CB00010A611A682E382A713AE12AE0FEF13E097
:103CC00015AF04AF81E090E00E948F209093B40381
:103CD0008093B3031092B9031092B8031092BA0301
:103CE0001092BF031092C2031092C3031092C40338
:103CF0001092C5031092C6031092C7031092C80316
:103D00001092C9031092CA031092CB031092CC03F5
:103D10001092CD031092CE031092CF031092D003D5
:103D20001092D1031092D2031092D3031092D403B5
:103D30001092D5031092D6031092D7031092D80395
:103D40001092D9031092DA031092DB031092DC0375
:103D50001092DD031092DE031092DF031092E00355
:103D60001092E1031092E2031092E3031092E60333
:103D70001092E7031092E8031092E9031093F10305
:103D80000093F0031092F3031092F2031092F603E3
:103D90001092F8031092F703E9E6F3E01182108223
:103DA000138212821582148210861782C683E0E67F
:103DB000F3E011821082138212821582148210861F
:103DC0001782C683E7E5F3E0118210821382128224
:103DD0001582148210861782C68309E613E021E556
:103DE00033E044E650E060E070E082E393E00E945C
:103DF0009E1A2CE932E04AE050E060E070E08DE08D
:103E000093E00E949E1A07E513E02DEE30E042E3B6
:103E100050E060E070E088EE92E00E949E1AEDEDC6
:103E2000F2E01682178210861186128625EB34E1A5
:103E300046E450E060E070E088EB92E00E949E1A59
:103E4000CF911F910F9108951F93FC019927882707
:103E5000BC01E89411911032E9F3193010F01E30D2
:103E6000C8F31B3251F01D3249F4689406C00E9419
:103E7000561F610F711D811D911D119110531A3034
:103E8000B0F33EF490958095709561957F4F8F4F7C
:103E90009F4F1F910895BB274A3031F4992322F494
:103EA000BDE2909581959F4F0C946C1F592F482F20
:103EB000372F262F660F771F881F991F660F771FD2
:103EC000881F991F620F731F841F951F660F771F2E
:103ED000881F991F0895BB27FB015527AA27880F24
:103EE000991FAA1FA41710F0A41B83955051B9F76E
:103EF000A05DAA3308F0A95DA193009779F7B111ED
:103F0000B1931192CB010C94851FDC01FC01672F4A
:103F100071917723E1F7329704C07C916D937083A0
:103F20006291AE17BF07C8F308950E949A1F08F464
:103F300081E00895990F0008550FAA0BE0E8FEEF05
:103F400016161706E807F907C0F012161306E4075D
:103F5000F50798F0621B730B840B950B39F40A2656
:103F600061F0232B242B252B21F408950A2609F434
:103F7000A140A6958FEF811D811D0895F999FECF6F
:103F800092BD81BDF89A992780B50895262FF99999
:103F9000FECF1FBA92BD81BD20BD0FB6F894FA9A2C
:103FA000F99A0FBE01960895052E97FB1EF4009412
:103FB0000E94EB1F57FD07D00E943D2007FC03D055
:103FC0004EF40C94EB1F50954095309521953F4F42
:103FD0004F4F5F4F089590958095709561957F4FF5
:103FE0008F4F9F4F08950E945F20A59F900DB49F13
:103FF000900DA49F800D911D11240895B7FF0C947E
:10400000F31F0E94F31F821B930B08952F923F9280
:104010004F925F926F927F928F929F92AF92BF92D8
:10402000CF92DF92EF92FF920F931F93CF93DF9384
:10403000CDB7DEB7CA1BDB0B0FB6F894DEBF0FBEE1
:10404000CDBF09942A88398848885F846E847D842E
:104050008C849B84AA84B984C884DF80EE80FD8030
:104060000C811B81AA81B981CE0FD11D0FB6F894A6
:10407000DEBF0FBECDBFED010895A1E21A2EAA1B2F
:10408000BB1BFD010DC0AA1FBB1FEE1FFF1FA21708
:10409000B307E407F50720F0A21BB30BE40BF50B05
:1040A000661F771F881F991F1A9469F7609570958E
:1040B000809590959B01AC01BD01CF010895A29F11
:1040C000B001B39FC001A39F700D811D1124911DEC
:1040D000B29F700D811D1124911D0895991B79E0E7
:1040E00004C0991F961708F0961B881F7A95C9F788
:1040F00080950895EE0FFF1F0590F491E02D09942F
:104100000E945F20332312F48A1B9B0B0C948A209D
:104110000E945F20B7FF0895821B930B08950F93B1
:104120001F93CF93DF938230910510F482E090E0EB
:10413000E0910104F091020420E030E0A0E0B0E062
:10414000309719F140815181028113814817590735
:10415000C8F08417950769F4109731F012960C9304
:10416000129713961C9327C0009301041093020426
:1041700022C02115310519F04217530718F49A018E
:10418000BD01EF01DF01F801DBCF21153105F9F0A9
:10419000281B390B2430310580F48A819B816115FD
:1041A000710521F0FB019383828304C09093020484
:1041B00080930104FE01329644C0FE01E20FF31F1A
:1041C0008193919322503109398328833AC02091F9
:1041D000FF0330910004232B41F420910201309120
:1041E0000301309300042093FF03209100013091DC
:1041F00001012115310541F42DB73EB7409104016D
:1042000050910501241B350BE091FF03F091000450
:10421000E217F307A0F42E1B3F0B2817390778F09D
:10422000AC014E5F5F4F2417350748F04E0F5F1FFC
:10423000509300044093FF038193919302C0E0E008
:10424000F0E0CF01DF91CF911F910F910895CF93AF
:10425000DF93009709F481C0FC0132971382128228
:10426000A0910104B0910204109781F42081318162
:10427000820F931F2091FF03309100042817390704
:1042800051F5F0930004E093FF0367C0ED0120E0D7
:1042900030E0CE17DF0740F44A815B819E01411573
:1042A0005105F1F0EA01F5CFD383C28340815181FA
:1042B000840F951FC817D90759F488819981840FF5
:1042C000951F0296918380838A819B819383828349
:1042D0002115310529F4F0930204E09301043DC057
:1042E000E901FB83EA8349915991C40FD51FEC176B
:1042F000FD0761F480819181840F951F0296E90189
:1043000099838883828193819B838A83E0E0F0E0B4
:1043100012968D919C911397009719F0FD01DC0185
:10432000F7CF8D919C9111979D012E5F3F4F820F8A
:10433000931F2091FF03309100042817390769F477
:10434000309729F4109202041092010402C01382E3
:104350001282B0930004A093FF03DF91CF910895E0
:10436000A0E0B0E0E6EBF1E20C940A20EC0100974B
:1043700021F4CB010E948F20B4C0FC01E60FF71F8F
:104380009C0122503109E217F30708F4A8C0D901B3
:104390000D911C91119706171707B0F00530110504
:1043A00008F49BC0C80104978617970708F495C0C6
:1043B00002501109061B170B019311936D937C9307
:1043C000CF010E94272189C05B01A01AB10A4C01CC
:1043D000800E911EA0910104B0910204612C712CF9
:1043E000E12CF12C109709F446C08D919C91119706
:1043F000A815B905B1F56C0142E0C40ED11CCA1470
:10440000DB0478F14C018A189B08640142E0C40E79
:10441000D11C1296BC9012971396AC91B5E0CB16B6
:10442000D10440F0B282A38391828082D9016D933E
:104430007C9309C00E5F1F4F800F911FF90191837C
:104440008083EB2DFA2FE114F10431F0D70113969C
:10445000FC93EE93129741C0F0930204E0930104A1
:104460003CC06816790608F43C017D0112960D9057
:10447000BC91A02DB7CF8091FF03909100048816C6
:104480009906E1F466167706C8F4809100019091D0
:104490000101009741F48DB79EB7409104015091FE
:1044A0000501841B950BE817F907C8F4F093000485
:1044B000E093FF03F901718360830FC0CB010E9479
:1044C0008F207C01009759F0A801BE010E947B2239
:1044D000CE010E942721C70104C0CE0102C080E0A6
:1044E00090E0CDB7DEB7EEE00C94262081E090E0BE
:1044F000F8940C948B22FB01DC0102C001900D9218
:1045000041505040D8F70895FB01DC0101900D9215
:104510000020E1F7089510E0C2ECD0E004C0FE01F5
:104520000E947A202196C33CD107C9F7F894FFCFA7
:10453000000003048000000000000F14AE131D13E0
:1045400000000000180F00000000200E890DB70DBC
:104550006D0EE80DC60DDA0D0D0A0052494748549C
:104560005F48414E44004C4546545F48414E44002C
:1045700041542B42415544310041542B4241554452
:10458000320041542B42415544330041542B4241A7
:104590005544340041542B42415544350041542B7D
:1045A00042415544360041542B4241554437004165
:1045B000542B42415544380041542B424155443913
:1045C0000041542B42415544410041542B42415536
:1045D00044420041542B42415544430041542B5026
:1045E000494E0041542B4E414D45004F4B002E008B
:0845F0004D4B32002D3100009B
:00000001FF
