:100000000C94C3000C94EB000C94EB000C94EB00EC
:100010000C94EB000C94EB000C94EB000C94EB00B4
:100020000C94EB000C94EB000C94EB000C941C1063
:100030000C94EB000C94EB000C94EB000C94EB0094
:100040000C94B9060C94EB000C941C0F0C94F60E57
:100050000C94EB000C94EB000C94EB000C94EB0074
:100060000C94EB000C94EB00530AC90A2D0B930B74
:10007000F60B590C9E0CB60A110D7C0D7C0D7C0DF7
:100080007C0D1E0D560D610D640D6F0D1915251596
:100090008615BF15C415CD150D16011653656E7363
:1000A0006F724D6178203D200053656E736F726DE5
:1000B000696E203D200053656E736F7254797065D0
:1000C000203D20004D617846696E67657273203D62
:1000D00020004D6178496E646578203D20004D61B7
:1000E000785468756D62203D20004D696E46696EDA
:1000F00067657273203D20004D696E496E646578B6
:10010000203D20004D696E5468756D62203D2000D1
:1001100048616E64203D20000A454550524F4D20F5
:10012000434F4E54454E5400000000002400270069
:100130002A0000000000250028002B00000000001D
:100140002300260029000404040404040404020219
:100150000202020203030303030301020408102046
:100160004080010204081020010204081020000051
:100170000008000201000003040700000000000066
:100180000000BA1DAA1D11241FBECFEFD8E0DEBFAC
:10019000CDBF11E0A0E0B1E0E4E7F4E402C00590D7
:1001A0000D92A83CB107D9F724E0A8ECB1E001C05A
:1001B0001D92A330B207E1F710E0C2ECD0E004C01A
:1001C0002197FE010E941C20C13CD107C9F70E9463
:1001D0002B1A0C942D220C9400000F931F93CF9395
:1001E000DF938091B6039091B7038130910521F0A0
:1001F000029709F478C09BC1E091EE03F091EF0300
:10020000EC5BFF4F80819181019709F090C10E94C2
:10021000AD06E091EE03F091EF03DF01A75BBF4F66
:100220000D911D912D913C911397AB01BC01401B89
:10023000510B620B730B403157426105710598F108
:100240001D921D921D921C9213971597EF01CA5B88
:10025000DF4F888199818D939C938091F2039091D7
:10026000F3032091F0033091F10333AF22AF95AF48
:1002700084AF6091F0037091F10380E190E00E94FF
:1002800085126091F2037091F30382E190E00E9485
:1002900085121092F3031092F2038FEF93E0909384
:1002A000F1038093F003E091EE03F091EF0387A94F
:1002B00090AD0E947B172091F2033091F303281731
:1002C000390724F49093F3038093F2032091F00311
:1002D0003091F103821793070CF029C19093F10339
:1002E0008093F00324C18091F4039091F503FC0105
:1002F000EC5BFF4F208131812230310509F017C1BD
:100300002091F7033091F8032115310509F409C153
:100310003996C081D0E02C173D07C1F1233031055B
:1003200001F164F42130310541F12230310551F5FC
:1003300080960E944E0F8093F90324C0253031052A
:10034000B1F04CF026303105E9F483960E944E0F4F
:100350008093FD0317C04D960E944E0F8093FB03C0
:1003600011C04D960E944E0F8093FC030BC08396E4
:100370000E944E0F8093FE0305C080960E944E0F90
:100380008093FA03D093F803C093F7038091F703A7
:100390009091F803873091050CF096C08530910557
:1003A00034F4833091059CF501972CF4C0C0079775
:1003B0000CF459C0BCC060E070E08091F4039091EF
:1003C000F5030E940E11E091F403F091F5038823E8
:1003D00031F0CF01489626A1211115C011C062E06D
:1003E00070E0CF010E940E11882309F4A0C0E091B3
:1003F000F403F091F503CF01489626A1222319F0CA
:1004000045E050E002C04BEF5FEF61E057C060E0B5
:1004100070E08091F4039091F5030E940E11E09139
:10042000F403F091F503882331F0CF01489626A11B
:10043000211115C011C062E070E0CF010E940E11C1
:10044000882309F474C0E091F403F091F503CF011F
:10045000489626A1222319F045E050E002C04BEF58
:100460005FEF62E02BC060E070E08091F403909158
:10047000F5030E940E11E091F403F091F503882337
:1004800031F0CF01489626A1211115C011C062E0BC
:1004900070E0CF010E940E11882309F448C0E0915A
:1004A000F403F091F503CF01489626A1222319F019
:1004B00045E050E002C04BEF5FEF63E0DF91CF918A
:1004C0001F910F910C94761D1092F8031092F70370
:1004D0004091FA036091F90381E090E00E94A01737
:1004E0004091FC036091FB0382E090E00E94A01722
:1004F0004091FE036091FD0383E090E00E94A0170D
:100500008091F4039091F503FC01E35BFF4F1082AF
:100510003997DC01AA5BBF4F8D919C9191838083B9
:1005200006C081E090E09093F8038093F703DF9199
:10053000CF911F910F9108950F931F93CF93DF9346
:100540008091E4039091E503FC01EC5BFF4F208177
:1005500031812115310549F02430310509F0B2C04F
:1005600034968081882309F4ADC00E94AD060091C5
:10057000E6031091E7032091E8033091E903DC01E1
:10058000CB01801B910BA20BB30B4097A105B105CA
:1005900008F498C00E94AD066093E6037093E703E9
:1005A0008093E8039093E9038091E4039091E5033D
:1005B000C7960E942E128C01093582E01807C4F0FC
:1005C000C801012E000CAA0BBB0B9C01AD012855E4
:1005D000324041095109AAE0B0E00E94951F27EA84
:1005E00031E040E050E00E94761F922F832F1AC026
:1005F000003981E01807A4F49801A6EFBFEF0E942C
:10060000222020E931E040E050E00E94761FBA014C
:10061000A901465F5F4F6F4F7F4F942F852F02C018
:1006200090E080E0C92FD82FCB30D10514F0CAE07C
:10063000D0E0003981E01807E4F4E091E403F091A0
:10064000E503CF01489626A1211105C0442755276F
:100650004C1B5D0B01C0AE0163E00E94FC11E091F8
:10066000E403F091E503CF01489626A12223F9F097
:1006700021C00935124034F1E091E403F091E50323
:10068000CF01489626A1222329F0442755274C1B49
:100690005D0B01C0AE0163E00E94FC11E091E40338
:1006A000F091E503CF01489626A1222319F0D195B8
:1006B000C195D109AE0162E0DF91CF911F910F91F9
:1006C0000C94FC11DF91CF911F910F910895CF935E
:1006D000DF9360E070E08091C0039091C1030E94BD
:1006E0000E11882309F459C048EE53E060E070E031
:1006F00084EC93E00E94031760E070E08091C003F7
:100700009091C1030E943117882309F471C148E810
:1007100053E160E070E084ED93E00E9403178823CA
:1007200009F466C18091C0039091C103FC01EC5BA8
:10073000FF4F20813181232B09F05AC140E050E066
:1007400062E048960E94871164E670E080E090E0E5
:100750000E94FE098091C0039091C10344EB50E0D8
:1007600062E048960E948711C091C003D091C103F6
:10077000FE01EA5BFF4F118210820E94AD06FE016E
:10078000E75BFF4F6083718382839383CC5BDF4F92
:1007900081E090E0998388832BC161E070E08091D3
:1007A000C0039091C1030E940E11882309F464C014
:1007B00048EE53E060E070E088EC93E00E9403179D
:1007C000882381F0E091C003F091C103DF01AC5BAD
:1007D000BF4F8D919C91029729F4E35BFF4F80817D
:1007E0008F5F808361E070E08091C0039091C103CE
:1007F0000E943117882309F4FBC048E853E160E008
:1008000070E088ED93E00E940317882309F4F0C09C
:100810008091C0039091C103FC01EC5BFF4F2081EC
:100820003181232B09F0E4C040E050E063E04896BA
:100830000E94871164E670E080E090E00E94FE096B
:100840008091C0039091C10344EB50E063E048966F
:100850000E9487118091C0039091C103FC01EA5B63
:10086000FF4F11821082379621E02083399722E0D2
:1008700030E031832083BCC062E070E08091C0032F
:100880009091C1030E940E11882309F456C048EECE
:1008900053E060E070E08CEC93E00E940317882343
:1008A00009F1E091C003F091C103DF01AC5BBF4FE0
:1008B0008D919C91892BB1F42091C203CF01489670
:1008C000222341F045A556A561E00E9487111092B0
:1008D000C20308C043A554A561E00E94871181E0CE
:1008E0008093C20362E070E08091C0039091C103E5
:1008F0000E943117882309F47BC048E853E160E087
:1009000070E08CED93E00E940317882309F470C017
:10091000E091C003F091C103EC5BFF4F80819181B6
:10092000009731F0049709F063C01182108260C013
:1009300084E090E0918380835BC063E070E080910D
:10094000C0039091C1030E940E11882309F450C086
:1009500048EE53E060E070E080ED93E00E94031702
:10096000E091C003F091C103882399F0DF01AC5BF3
:10097000BF4F8D919C91892B61F48091C303882393
:1009800021F011A61092C30304C081E081A78093D7
:10099000C30363E070E0CF010E943117882341F167
:1009A00048E853E160E070E080EE93E00E940317B6
:1009B0008823F1F0E091C003F091C103DF01AC5B4B
:1009C000BF4F8D919C91892B99F496A181E0892745
:1009D00086A384E090E00E949412813011F061E0DF
:1009E00001C062E084E090E0DF91CF910C9471123D
:1009F000DF91CF9108954F925F926F927F928F9285
:100A00009F92AF92BF92EF92FF921F93CF93DF938B
:100A1000EC01888199819D838C83892B31F48F81AE
:100A20009885009711F00E94FB0411E08C819D8154
:100A3000892B09F47DC08F819885009729F00E9449
:100A4000FB04811101C010E0EC81FD81E1A0F2A066
:100A5000808180FF6AC085859685A785B089892BAE
:100A60008A2B8B2B69F4908180818E7F808380819B
:100A70008D7F808390FF59C0CF010E94221455C002
:100A80000E94AD06EC81FD81218132814381548138
:100A9000418452846384748485809680A780B08466
:100AA000DC01CB0184199509A609B70988159905B8
:100AB000AA05BB05D0F185859685A785B08918164E
:100AC00019061A061B065CF485859685A785B089EC
:100AD0000197A109B10985879687A787B08B85897A
:100AE0009689A789B08D0196A11DB11D858B968B26
:100AF000A78BB08F85809680A780B08481859285F2
:100B0000A385B485880D991DAA1DBB1D8187928779
:100B1000A387B4872583368347835087018CF28D62
:100B2000E02D309711F0099510E0FD82EC827ECF28
:100B3000112399F08E81882381F083B7817F83BF51
:100B400083B7816083BF83B7816083BF889583B794
:100B50008E7F83BF83B78E7F83BF812FDF91CF913D
:100B60001F91FF90EF90BF90AF909F908F907F90DC
:100B70006F905F904F9008950F931F93CF93DF93E3
:100B8000FC01A3A1B4A11097E9F1EC01158A168A22
:100B9000178A108E038CF48DE02D309779F18881BF
:100BA00081FD2CC014960D911C9115971596DC9320
:100BB000CE9314978881826088830995988180FB01
:100BC00090F9988388818D7F8883EBA1FCA11583A0
:100BD00004830E94AD0609811A812B813C810D831B
:100BE0001E832F833887DC01CB01801B910BA20B66
:100BF000B30B89879A87AB87BC8704C088818160E3
:100C00008883E7CFDF91CF911F910F910895CF9205
:100C1000DF92EF92FF920F931F93CF93DF936C01BC
:100C20007A018B01C0E0D0E0CE15DF0581F0D8015C
:100C30006D918D01D601ED91FC910190F081E02D37
:100C4000C6010995892B11F02196EECF7E01C701CF
:100C5000DF91CF911F910F91FF90EF90DF90CF9098
:100C600008950E9418220F931F93CF93DF93EC01F6
:100C700088819981009729F02A813B8126173707BF
:100C800088F48B016F5F7F4F0E945221009761F0C3
:100C9000998388831B830A832C813D81232B11F444
:100CA000FC01108281E001C080E0DF91CF911F91B3
:100CB0000F910895EF92FF920F931F93CF93DF93BD
:100CC0006115710511F480E01CC041155105C1F09A
:100CD0007B01EC018C819D818A01080F191FB801ED
:100CE000CE010E943306882371F3288139818C81DB
:100CF0009D81B701820F931F0E9426221D830C83C2
:100D000081E0DF91CF911F910F91FF90EF900895B7
:100D10003FB7F8948091CD019091CE01A091CF0181
:100D2000B091D00126B5A89B05C02F3F19F00196C0
:100D3000A11DB11D3FBFBA2FA92F982F8827820F61
:100D4000911DA11DB11DBC01CD0142E0660F771FB1
:100D5000881F991F4A95D1F708952FB7F89460918D
:100D6000C9017091CA018091CB019091CC012FBF34
:100D700008951F920F920FB60F9211242F933F9355
:100D80008F939F93AF93BF938091C9019091CA01B4
:100D9000A091CB01B091CC013091C80123E0230F89
:100DA0002D3720F40196A11DB11D05C026E8230FA3
:100DB0000296A11DB11D2093C8018093C901909393
:100DC000CA01A093CB01B093CC018091CD01909149
:100DD000CE01A091CF01B091D0010196A11DB11D0E
:100DE0008093CD019093CE01A093CF01B093D00119
:100DF000BF91AF919F918F913F912F910F900FBE17
:100E00000F901F901895FC0180819181009711F03F
:100E10000C94C61E60E070E0CB010895FC012481B3
:100E200035816217730748F480819181009729F01A
:100E3000FC01E60FF71F8081089580E00895CF93AD
:100E4000DF9300D0CDB7DEB769831A8241E050E06E
:100E5000BE016F5F7F4F0E945A060F900F90DF9187
:100E6000CF910895CF93DF93EC018881998100970A
:100E700011F00E94C920198218821D821C821B82D7
:100E80001A82DF91CF910895EF92FF920F931F93F3
:100E9000CF93DF93CDB7DEB728970FB6F894DEBFB8
:100EA0000FBECDBF7C01CB014AE08E010F5F1F4F0B
:100EB000B8010E94ED1EF80101900020E9F731977A
:100EC000AF01401B510BB801C7010E945A068111A6
:100ED00003C0C7010E943207C70128960FB6F894D5
:100EE000DEBF0FBECDBFDF91CF911F910F91FF905D
:100EF000EF900895CF93DF93EC010E941F078111BB
:100F000003C0CE010E943207CE01DF91CF91089538
:100F1000CF93DF93EC016115710561F0FB01019046
:100F20000020E9F73197AF01461B570B0E945A0684
:100F3000811103C0CE010E943207CE01DF91CF9113
:100F40000895CF93DF93EC01FB01448155816081CB
:100F500071810E945A06811103C0CE010E9432079E
:100F6000CE01DF91CF910895EF92FF920F931F93DF
:100F7000CF93DF93EC017B018A01BA010E94330613
:100F8000811104C0CE010E94320707C01D830C836B
:100F9000B701888199810E942622CE01DF91CF91ED
:100FA0001F910F91FF90EF900895FC018081918136
:100FB0000C94C920FB01DC0111961C921E92139621
:100FC0001C921E92129715961C921E9214978617C9
:100FD000970749F0608171816115710521F04481A5
:100FE00055810C94B4070895FC011182108213827C
:100FF0001282158214826115710551F0FB01019076
:101000000020E9F73197AF01461B570B0C94B4074A
:101010000895833081F028F4813099F08230A1F076
:1010200008958730A9F08830B9F08430D1F48091E8
:1010300080008F7D03C0809180008F778093800037
:10104000089584B58F7702C084B58F7D84BD0895DF
:101050008091B0008F7703C08091B0008F7D809326
:10106000B0000895009769F0FC0101900020E9F7B5
:101070003197AF01481B590BBC018BE192E00C94F6
:10108000070680E090E008958F929F92AF92BF9202
:101090000F931F93CF93DF93CDB7DEB7A1970FB612
:1010A000F894DEBF0FBECDBF19A2423008F44AE06B
:1010B0008E010F5D1F4F842E912CA12CB12CA50108
:1010C00094010E94DF1FE62FB901CA0101501109E6
:1010D000EA3014F4E05D01C0E95CD801EC93232B05
:1010E000242B252B61F7C8010E943208A1960FB668
:1010F000F894DEBF0FBECDBFDF91CF911F910F914E
:10110000BF90AF909F908F900895CF92DF92EF9213
:10111000FF92CF93DF936C01990FEE08FF08F7FE63
:1011200013C06DE28BE192E00E94FA0DEC0166279C
:101130007727CB016C197D098E099F094AE00E942F
:101140004408C80FD91F06C04AE0C701B6010E9473
:101150004408EC018DE391E00E9432088C0F9D1F42
:10116000DF91CF91FF90EF90DF90CF9008950F9394
:101170001F93CF93DF938C01C0E0D0E0F801EC0F18
:10118000FD1F6491662341F08BE192E00E94FA0D0D
:10119000892B11F02196F2CFCE01DF91CF911F91D3
:1011A0000F910895CF93DF93682F70E080E090E077
:1011B0004AE00E944408EC018DE391E00E9432086D
:1011C0008C0F9D1FDF91CF910895EF92FF920F93A7
:1011D0001F93CF93DF93C82F0091EC031091ED0381
:1011E000780181E4E80EF11C6C2FC7010E94EA131C
:1011F000D82F6C2FC7010E94D813282F30E04D2F15
:1012000050E06C2FC8014896DF91CF911F910F914C
:10121000FF90EF900C944911FC014481558160814D
:1012200071818BE192E00C940706CF93DF93282F16
:1012300030E0F901E259FE4F8491F901E65AFE4F80
:10124000D491F901EA5BFE4FC491CC2391F0811156
:101250000E940908EC2FF0E0EE0FFF1FE45CFE4F48
:10126000A591B491EC91ED2381E090E021F480E030
:1012700002C080E090E0DF91CF9108951F93CF935B
:10128000DF93282F30E0F901E259FE4F8491F901F4
:10129000E65AFE4FD491F901EA5BFE4FC491CC238C
:1012A000C1F0162F81110E940908EC2FF0E0EE0F1B
:1012B000FF1FEE5CFE4FA591B4919FB7F8941111FA
:1012C00004C08C91D095D82302C0EC91DE2BDC9326
:1012D0009FBFDF91CF911F910895CF93DF9361E07E
:1012E00081E10E943E090E94AD06CDEDD2E06E8301
:1012F0007F83888799878C819D81DC01ED91FC91AA
:101300000480F581E02D40E056E960E070E0099549
:1013100081E08A87E881F981EC5BFF4F84E090E00F
:1013200091838083DF91CF910895CF93DF93CDEDAB
:10133000D2E01E821F821886198660E081E10E9439
:101340003E091A86E881F981EC5BFF4F1182108219
:10135000DF91CF910895CF93DF9390E0FC01E65A9F
:10136000FE4F2491FC01EA5BFE4F8491882361F1DA
:1013700090E0880F991FFC01E85DFE4FC591D49164
:10138000FC01EE5CFE4FA591B491611109C09FB7BD
:10139000F8948881209582238883EC912E230BC0BA
:1013A000623061F49FB7F8948881322F309583239F
:1013B0008883EC912E2B2C939FBF06C08FB7F89497
:1013C000E8812E2B28838FBFDF91CF9108958E3037
:1013D00008F08E508770806480937C0080917A0042
:1013E000806480937A0080917A0086FDFCCF8091A2
:1013F00078002091790090E0922B08958F929F922F
:10140000AF92BF92CF92DF92EF92FF926B017C017D
:101410000E9488064B015C01C114D104E104F1046F
:10142000F1F00E948806DC01CB0188199909AA090C
:10143000BB09883E9340A105B10570F321E0C21AB3
:10144000D108E108F10888EE880E83E0981EA11CFF
:10145000B11CC114D104E104F10419F7DDCFFF90F0
:10146000EF90DF90CF90BF90AF909F908F900895B6
:10147000CF92DF92EF92FF920F931F93CF93DF9360
:10148000CDB7DEB72C970FB6F894DEBF0FBECDBF39
:1014900008978231910508F02FC37B018C5C9F4F28
:1014A000FC010C941C20CE0101960E94DA0761E039
:1014B000CE0101960E94AE19182F882379F0B7014A
:1014C000CE0107960E94DA0762E0CE0107960E94DD
:1014D000AE19182FCE0107960E94D507CE010196AE
:1014E0000E94D507112309F451C0B701CE01079618
:1014F0000E94DA0741E0BE01695F7F4FCE0101968D
:101500000E948519CE0101960E940307062FCE0185
:1015100001960E94D507CE0107960E94D507B70114
:10152000CE0107960E94DA0742E0BE01695F7F4F55
:10153000CE0101960E948519CE0101960E940307F3
:101540006B017C01CE0101960E94D507CE01079662
:101550000E94D5078091DD029091DE02A601602FE6
:1015600048960E94871188E090E074C0CE010196F1
:101570000E94DA0761E0CE0101960E94AE19182F91
:10158000CE0101960E94D507111123C28FEF9FEF64
:10159000AFC2CE0101960E94DA0761E0CE0101964A
:1015A0000E94AE19182F882379F0B701CE01079653
:1015B0000E94DA0762E0CE0107960E94AE19182F4A
:1015C000CE0107960E94D507CE0101960E94D5074D
:1015D0001123E1F2B701CE0107960E94DA0741E03C
:1015E000BE01695F7F4FCE0101960E948519CE0131
:1015F00001960E940307062FCE0101960E94D5078F
:10160000CE0107960E94D507B701CE0107960E942A
:10161000DA0742E0BE01695F7F4FCE0101960E946A
:101620008519CE0101960E9403076B017C01CE0152
:1016300001960E94D507CE0107960E94D50780919A
:10164000DD029091DE02A601602F48960E94FC11F7
:1016500089E090E00E94311850C2CE0101960E94AC
:10166000DA0761E0CE0101960E94AE19182F882397
:1016700079F0B701CE0107960E94DA0762E0CE0149
:1016800007960E94AE19182FCE0107960E94D50723
:10169000CE0101960E94D507112309F477CFB70137
:1016A000CE0107960E94DA0741E0BE01695F7F4FD5
:1016B000CE0101960E948519CE0101960E94030772
:1016C000062FCE0101960E94D507CE0107960E94F3
:1016D000D507B701CE0107960E94DA0742E0BE01A6
:1016E000695F7F4FCE0101960E948519CE01019658
:1016F0000E9403076B017C01CE0101960E94D50771
:10170000CE0107960E94D507442755274C195D093D
:101710008091DD029091DE02602F48960E94FC11BC
:101720008AE090E097CFCE0101960E94DA0761E04F
:10173000CE0101960E94AE19182F882379F0B701C7
:10174000CE0107960E94DA0762E0CE0107960E945A
:10175000AE19182FCE0107960E94D507CE0101962B
:101760000E94D507112309F411CFB701CE010796C6
:101770000E94DA0741E0BE01695F7F4FCE0101960A
:101780000E948519CE0101960E940307D62ECE0134
:1017900001960E94D507CE0107960E94D507B70192
:1017A000CE0107960E94DA0742E0BE01695F7F4FD3
:1017B000CE0101960E948519CE0101960E94030771
:1017C000F62ECE0101960E94D507CE0107960E9403
:1017D000D5078091DD029091DE024F2D6D2D8F5B3C
:1017E0009F4F0E94FC138BE090E034CFCE01019616
:1017F0000E94DA0761E0CE0101960E94AE19182F0F
:10180000882379F0B701CE0107960E94DA0762E0DB
:10181000CE0107960E94AE19182FCE0107960E949E
:10182000D507CE0101960E94D507112309F4AECE4B
:10183000B701CE0107960E94DA0741E0BE01695F59
:101840007F4FCE0101960E948519CE0101960E941C
:101850000307D62ECE0101960E94D507CE0107962A
:101860000E94D507B701CE0107960E94DA0742E031
:10187000BE01695F7F4FCE0101960E948519CE019E
:1018800001960E940307F62ECE0101960E94D5070D
:10189000CE0107960E94D5078091DD029091DE026D
:1018A0004F2D6D2D8F5B9F4F0E940F148CE090E0A9
:1018B000D1CECE0101960E94DA0761E0CE010196F9
:1018C0000E94AE19182FCE0101960E94D507112350
:1018D00009F45CCEB701CE0107960E94DA0741E019
:1018E000BE01695F7F4FCE0101960E948519CE012E
:1018F00001960E9403076B017C01CE0101960E94B4
:10190000D507CE0107960E94D5078091DD02909100
:10191000DE026C2D8F5B9F4F0E94D813FBE3CF0E2E
:10192000D11CB601680F711DCE0101960E94F917F6
:10193000BE016F5F7F4F8DE090E044C0CE01019605
:101940000E94DA0761E0CE0101960E94AE19182FBD
:10195000CE0101960E94D507112309F417CEB701D5
:10196000CE0107960E94DA0741E0BE01695F7F4F12
:10197000CE0101960E948519CE0101960E940307AF
:101980006B017C01CE0101960E94D507CE0107961E
:101990000E94D5078091DD029091DE026C2D8F5B55
:1019A0009F4F0E94EA139BE3C90ED11CB601680F3A
:1019B000711DCE0101960E94F917BE016F5F7F4F26
:1019C0008EE090E00E94B018CE0101960E94D507EB
:1019D00094C0B701CE0107960E94DA0741E0BE012C
:1019E000695F7F4FCE0101960E948519CE01019655
:1019F0000E9403076B017C01CE0101960E94D5076E
:101A0000CE0107960E94D507CA94CD2811F461E053
:101A100001C062E084E090E00E9471128FE090E0EB
:101A200019CE84E090E00E94941261E070E0813071
:101A300011F060E070E080E190E040C0CE010196DE
:101A40000E94DA0761E0CE0101960E94AE19182FBC
:101A5000CE0101960E94D507112309F497CDB70155
:101A6000CE0107960E94DA0741E0BE01695F7F4F11
:101A7000CE0101960E948519CE0101960E940307AE
:101A8000F62ECE0101960E94D507CE0107960E9440
:101A9000D507E091DD02F091DE02F2A66F2D6536EA
:101AA00008F064E662A785E190E0D4CDE091DD0224
:101AB000F091DE0262A570E086E190E00E946B1872
:101AC00019C087E190E014C0E091DD02F091DE02E0
:101AD000E85BFF4F81E0808388E190E009C0E091FE
:101AE000DD02F091DE02E85BFF4F108289E190E0B9
:101AF0000E94311811E001C010E0812F2C960FB622
:101B0000F894DEBF0FBECDBFDF91CF911F910F9133
:101B1000FF90EF90DF90CF900895089580E090E0DF
:101B20000895FC01538D448D252F30E0842F90E0E3
:101B3000821B930B541710F0CF96089501970895C8
:101B4000FC01918D828D981761F0828DDF01A80FC5
:101B5000B11D5D968C91928D9F5F9F73928F90E0E7
:101B600008958FEF9FEF0895FC01918D828D981756
:101B700031F0828DE80FF11D858D90E008958FEF93
:101B80009FEF0895FC01918D228D892F90E0805C5C
:101B90009F4F821B91098F73992708958BE192E0E3
:101BA0000E94C20D21E0892B09F420E0822F0895C4
:101BB000FC01848DDF01A80FB11DA35ABF4F2C91EA
:101BC000848D90E001968F739927848FA689B789B9
:101BD0002C93A089B1898C91837080648C93938DB0
:101BE000848D981306C00288F389E02D80818F7D53
:101BF00080830895EF92FF920F931F93CF93DF930B
:101C0000EC0181E0888F9B8D8C8D981305C0E8894D
:101C1000F989808185FD26C0F62E0B8D10E00F5FBF
:101C20001F4F0F731127E02E8C8DE8120CC00FB6DA
:101C300007FCFACFE889F989808185FFF5CFCE01CD
:101C40000E94D80DF1CF8B8DFE01E80FF11DE35AF4
:101C5000FF4FF0829FB7F8940B8FEA89FB89808150
:101C600080620AC09FB7F894EE89FF896083E88993
:101C7000F98980818370806480839FBF81E090E0D8
:101C8000DF91CF911F910F91FF90EF900895CF9327
:101C9000DF93EC01888D8823C9F0EA89FB89808174
:101CA00085FD05C0A889B9898C9186FD0FC00FB646
:101CB00007FCF5CF808185FFF2CFA889B9898C9187
:101CC00085FFEDCFCE010E94D80DE7CFDF91CF91F8
:101CD000089580E090E0892B29F00E94CE0D8111BB
:101CE0000C9400000895CF92DF92EF92FF92CF9371
:101CF000DF93EC01603232E073070CF03EC0CB01A1
:101D0000653B710514F084EB90E02981A8E8B0E010
:101D10006D01C21AD10827FDD394D601AA0FBB1FAB
:101D2000AA0FBB1F6D01BB0FEE08FF084A8128E513
:101D300032E0241B310947FD3395220F331F220F58
:101D4000331FA901330F660B770B9A01AB012C19D6
:101D50003D094E095F09DC0197FF02C0A0E0B0E039
:101D60000E94A01F24EB30E040E050E00E94761F6C
:101D7000C20ED31EE41EF51EB601E881EC3058F504
:101D8000298188E890E0821B910927FD9395880FAF
:101D9000991F880F991F681779077CF02A8188E5B9
:101DA00092E0821B910927FD9395880F991F880F58
:101DB000991F681779070CF4CB010297880F991FB8
:101DC0002FB7F89436E0E39FF0011124ED52FE4F57
:101DD000928381832FBFDF91CF91FF90EF90DF90AF
:101DE000CF900895FC0182810C94E7091F920F9215
:101DF0000FB60F9211242F933F934F935F936F93DE
:101E00007F938F939F93AF93BF93EF93FF938BE158
:101E100092E00E94D80DFF91EF91BF91AF919F91F9
:101E20008F917F916F915F914F913F912F910F9083
:101E30000FBE0F901F9018951F920F920FB60F9222
:101E400011242F938F939F93EF93FF93E0912B0295
:101E5000F0912C028081E0913102F091320282FDFA
:101E600012C09081809134028F5F8F732091350270
:101E7000821751F0E0913402F0E0E55EFD4F958F5E
:101E80008093340201C08081FF91EF919F918F91E7
:101E90002F910F900FBE0F901F9018958F929F92C9
:101EA000AF92BF92CF92DF92EF92FF92FC018281BC
:101EB00028E532E06901C81AD10887FDD394CC0C1B
:101EC000DD1CCC0CDD1C0D2C000CEE08FF08818104
:101ED00028E830E04901881A910887FD9394880C1E
:101EE000991C880C991C092C000CAA08BB08E081DD
:101EF000EF3FA9F086E0E89FF0011124ED52FE4F7C
:101F00002181328183E0220F331F8A95E1F794E02B
:101F1000369527959A95E1F72E5F3F4F02C020E056
:101F200030E02F5F3F4FC901330FAA0BBB0B9C0161
:101F3000AD01281939094A095B09A4EBB0E00E94F8
:101F4000951FA7019601281939094A095B090E94C2
:101F5000761FC901FF90EF90DF90CF90BF90AF90B8
:101F60009F908F900895623031F0633031F061308E
:101F700041F4089603C0059601C00B960E944E0FCF
:101F800008958FEF08951F93CF93DF93EC01162FE1
:101F900088818C3008F04BC061E0812F0E94AB0932
:101FA000888196E0899FF0011124ED52FE4F1F7346
:101FB0009081907C192B108319821A826CE00E9408
:101FC00010209CE0899FA001112420E030E096E0E1
:101FD000BA01620F731F969FF001979FF00D1124B5
:101FE000ED52FE4F608166FD16C02F5F3F4F2C30D3
:101FF000310571F781110FC01092800082E080934B
:1020000081001092850010928400B19A80916F0037
:10201000826080936F00E88186E0E89FF0011124E0
:10202000ED52FE4F8081806480838FEF83838881AF
:10203000DF91CF911F9108951F920F920FB60F92CB
:1020400011240F931F932F933F934F935F936F939D
:102050007F938F939F93AF93BF93EF93FF93809161
:10206000D10187FF05C0109285001092840037C00F
:102070002091D101022E000C330B8091D20190E00F
:102080002817390764F52091D10116E02103F001EA
:102090001124ED52FE4F808186FF21C02091D10195
:1020A0002103F0011124ED52FE4F808160E08F7317
:1020B0000E943E092091D1012103F0011124ED522B
:1020C000FE4F83818F3F59F02091D1012103F00110
:1020D0001124ED52FE4F60E083810E94AB09809194
:1020E000D1018F5F8093D1012091D101022E000C8C
:1020F000330B8091D20190E0281739070CF064C0AF
:102100008091D1018C300CF05FC0409184005091DF
:1021100085002091D10116E02103F0011124ED5238
:10212000FE4F81819281840F951F90938900809347
:1021300088002091D1012103F0011124ED52FE4FBE
:10214000808186FF58C02091D1012103F001112424
:10215000ED52FE4F808161E08F730E943E09209115
:10216000D1012103F0011124ED52FE4F83818F3FF5
:1021700009F441C00091D1012091D1012103F00166
:102180001124ED52FE4F83810E94E7090103F00103
:102190001124ED52FE4F958384832091D1012103B8
:1021A000F0011124ED52FE4F61E083810E94AB09E2
:1021B0002091D1012103F0011124ED52FE4F60E086
:1021C00083810E943E0917C0809184009091850010
:1021D000049680349C4918F480E49CE905C0809101
:1021E00084009091850004969093890080938800E4
:1021F0008FEF8093D101FF91EF91BF91AF919F91AC
:102200008F917F916F915F914F913F912F911F918E
:102210000F910F900FBE0F901F901895CF92DF92E5
:10222000EF92FF921F93CF93DF936C01EB017C0140
:10223000E60EF71EF70180819CEE980F923038F47D
:102240000E94E70911E0883C91053CF005C00E941E
:10225000150911E0892B09F010E0F701848181173D
:1022600079F00E94AD062296CC0FDD1FCC0FDD1F4A
:10227000CC0DDD1D688379838A839B83F7011483EA
:10228000812FDF91CF911F91FF90EF90DF90CF9042
:102290000895FC01453B510514F044EB50E057FF15
:1022A00002C040E050E037FD0DC0253B310514F081
:1022B00024EB30E0922F832F421753073CF4942FE6
:1022C000852F04C020E030E090E080E04217530703
:1022D0000CF4A9012685211105C09C01942F852F9E
:1022E000432F522F623049F0633061F0613071F456
:1022F000548B438B958B868B0895508F478B918F92
:10230000828F0895548F438F958F868F0895CF9332
:10231000DF93FC01623039F0633009F446C061306C
:1023200009F067C021C08089811163C0C18DD28D41
:10233000A789B08DAC17BD0754F09C2F8D2FCA17FD
:10234000DB0714F49A2F8B2FDE01C92FD82F4A17E1
:102350005B0734F0BA01C417D5071CF4BE0101C0F5
:10236000BD01CF01059641C08785811142C0C58955
:10237000D689238934892C173D0754F09C2F8D2F43
:10238000C217D30714F4922F832F9E01C92FD82F81
:102390004217530734F0BA01C417D5071CF4BE0125
:1023A00001C0B901CF01089620C08189811121C0E7
:1023B000C58DD68D838D948D8C179D0754F03C2F41
:1023C0002D2FC817D90714F4382F292FCE01C32F6A
:1023D000D22F4817590734F0BA01C417D5071CF497
:1023E000BE0101C0BC01CF010B96DF91CF910C94CF
:1023F000730EDF91CF910895FF920F931F93CF93A8
:10240000DF938C01F62EEA010E94B30FAE01480F54
:10241000511D6F2DC801DF91CF911F910F91FF903A
:102420000C9487110F931F93CF93DF938C0183E05C
:1024300090E00E943120EC01F801878124E131E035
:10244000398328838A8360E00E94AB09F801D18335
:10245000C083DF91CF911F910F910895CF92DF92AA
:10246000EF92FF920F931F93CF93DF93EC0188813C
:1024700099810E947B17CB80DC800D2C000CEE082C
:10248000FF08092E000CAA0BBB0B9C01AD012C19F7
:102490003D094E095F09AFEFB3E00E94951F2D8102
:1024A0003E818901330F220B330BA90198012C19AE
:1024B0003D094E095F090E94761FC901811524E07C
:1024C000920714F08FEF93E097FF02C080E090E056
:1024D000DF91CF911F910F91FF90EF90DF90CF9000
:1024E00008951F93CF93DF93EC01162F0E94601F76
:1024F000181739F0612FCE01DF91CF911F910C9405
:10250000681FDF91CF911F9108951F93CF93DF93A1
:10251000EC01172F0E947112612FCE010196DF91FD
:10252000CF911F910C9471120C94601F1F93CF9345
:10253000DF93EC010E949412182FCE0101960E94A5
:10254000941290E0982F8827810F911DDF91CF91F1
:102550001F910895CF93DF9300D000D000D0CDB766
:10256000DEB7411586E958076105710509F45DC0BC
:1025700038F5403C82E158076105710509F44FC008
:1025800080F4403B84E058076105710509F444C0BC
:10259000403659406105710509F063C069E471E096
:1025A00052C0403885E2580761057105D9F14115DF
:1025B0005B446105710509F054C064E671E043C0F5
:1025C000411584E8580783E068077105A1F170F4AC
:1025D000411581EE58076105710551F14115524CC5
:1025E00061407105F1F56FE771E02DC0411580E1A3
:1025F00058078EE06807710509F1411588E1580711
:1026000085E168077105E9F040315F426740710577
:1026100041F561E971E017C060E471E014C062E562
:1026200071E011C06BE571E00EC06DE671E00BC0AA
:1026300066E771E008C068E871E005C06AE971E02A
:1026400002C063EA71E0CE0101960E94F407CE0158
:1026500001960E940C09CE0101960E94D50781E0E7
:1026600001C080E026960FB6F894DEBF0FBECDBF46
:10267000DF91CF910895EF92FF920F931F93CF9325
:10268000DF93CDB7DEB762970FB6F894DEBF0FBE0B
:10269000CDBF7B016FE371E0CE010D960E94F40780
:1026A000F70184819581049711F010E033C000E0B8
:1026B00010E0B801C7010E940E079FEC980F9930F7
:1026C000A0F7682FCE010D960E941F070F5F1F4FC6
:1026D0000430110571F76CEA71E0CE0101960E9499
:1026E000F407BE01635F7F4FCE0101960E94A107F0
:1026F000BC01CE0107960E94DA07CE0107960E9420
:102700000C09CE0107960E94D507CE0101960E94C2
:10271000D50711E0CE010D960E94D507812F629654
:102720000FB6F894DEBF0FBECDBFDF91CF911F91E2
:102730000F91FF90EF9008950F931F93CF93DF9326
:10274000CDB7DEB72C970FB6F894DEBF0FBECDBF66
:10275000FB01848195814597F8F48B0163EB71E06F
:10276000CE0101960E94F407B801CE0101960E94A5
:10277000A107BC01CE0107960E94DA07CE01079699
:102780000E940C09CE0107960E94D507CE01019642
:102790000E94D50781E001C080E02C960FB6F89426
:1027A000DEBF0FBECDBFDF91CF911F910F91089576
:1027B000623039F0633041F0613051F48AE090E0EA
:1027C00005C08CE090E002C08EE090E00C94941282
:1027D0008FEF0895623039F0633041F0613051F489
:1027E00089E090E005C08BE090E002C08DE090E0D1
:1027F0000C9494128FEF0895862F642F823039F055
:10280000833041F0813051F48AE090E005C08CE0E3
:1028100090E002C08EE090E00C9471120895862F33
:10282000642F823039F0833041F0813051F489E0F7
:1028300090E005C08BE090E002C08DE090E00C9449
:10284000711208950F931F93CF93DF93DC015D9670
:10285000ED91FC915E97309781F0EC01ABA1BCA1AA
:1028600014960D911C91159715969C938E93149721
:102870000995EBA1FCA115830483DF91CF911F91F2
:102880000F9108958F929F92AF92BF92CF92DF9255
:10289000EF92FF920F931F93CF93DF93CDB7DEB7E5
:1028A000A4970FB6F894DEBF0FBECDBFE091DD0256
:1028B000F091DE02EC5BFF4F808191812091E70275
:1028C0008430910519F4211104C087C2892B09F4C1
:1028D0007EC28091E702882309F482C26FE371E02F
:1028E000CE0101960E94F4078BE192E00E94C20D96
:1028F00018161906BCF46AE070E080E090E00E94CF
:10290000FE098BE192E00E94C20D1816190664F7C9
:102910008BE192E00E94A00D682FCE0101960E94EB
:102920001F07E2CF8D819E81029738F46FE371E03B
:10293000CE014F960E94F4071CC00E94AD06609322
:10294000E3027093E4028093E5029093E6028981AA
:102950009A8198A38F8F8B819C819AA389A38D8163
:102960009E819CA38BA31A8219821C821B821E82C9
:102970001D82CE0101960E94D5070E94AD060091EE
:10298000E3021091E4022091E5023091E602DC01BD
:10299000CB01801B910BA20BB30B803C9742A9404B
:1029A000B10510F00E9495098BA19CA1029708F433
:1029B00009C2BE01615E7F4FCE0101960E94DA0717
:1029C00040E050E0BE016F5F7F4FCE0107960E944E
:1029D000F518CE0107960E9403076B017C01CE011A
:1029E00007960E94D507CE0101960E94D507BE0129
:1029F000615E7F4FCE0149960E94DA07B090E702F0
:102A0000BB2009F4DBC18601BE01675E7F4FCE01AA
:102A100043960E94DA07C6010D2C000CAA0BBB0BD3
:102A20008830910508F00BC1FC01EA5BFF4F0C9464
:102A30001C206BEB71E0CE0101960E94F407BE01F1
:102A40006F5F7F4F80E090E0F3C0BE016D5E7F4F0F
:102A5000CE0107960E94DA07A090E702AA2041F172
:102A60000E94AD066093E3027093E4028093E50256
:102A70009093E602E091E102F091E2020190F08190
:102A8000E02D82809380BE01695F7F4FCE01019669
:102A90000E94DA07BE016F5F7F4F8091E102909143
:102AA000E202F4010995A82ECE0101960E94D507F5
:102AB000CE0107960E94D507A11003C090E3A92E6E
:102AC00002C081E3A82E61E070E0CE0101960E9471
:102AD000F917BE016F5F7F4FCE0107960E94DA079C
:102AE0006BE3CE0107960E947A076A2D0E947A074F
:102AF0006DE371E00E948807BC01CE010D960E9433
:102B0000DA07CE010D960E94CE1772C0BE016D5E2F
:102B10007F4FCE0107960E94DA078091E702882353
:102B200039F10E94AD066093E3027093E402809352
:102B3000E5029093E602E091E102F091E202019059
:102B4000F081E02D80809180BE01695F7F4FCE01D2
:102B500001960E94DA07BE016F5F7F4F8091E1020C
:102B60009091E202F4010995CE0101960E94D507E9
:102B7000CE0107960E94D50782E090E00BC00E942C
:102B8000950983E090E006C00E9495090E946D09B6
:102B900084E090E00E94311853C061E070E0CE0103
:102BA00001960E94F917BE016F5F7F4FCE01079615
:102BB0000E94DA076EEB71E0CE0107960E9488074B
:102BC00062E070E00E9444076EEB71E00E948807AB
:102BD00060E070E00E944407BC01CE010D960E94A7
:102BE000DA07BE01635F7F4F85E090E00E94B01876
:102BF000CE010D960E94D507CE0107960E94D507FB
:102C000019C060EC71E0CE0101960E94F407BE018C
:102C10006F5F7F4F87E090E00BC064EC71E0CE0106
:102C200001960E94F407BE016F5F7F4F86E090E03F
:102C30000E94B018CE0101960E94D50701C0B12CA8
:102C4000CE0143960E94D507B110B8C0BE01675EA1
:102C50007F4FCE0101960E94DA07BE016F5F7F4F62
:102C6000C6010E94380AF82ECE0101960E94D507AF
:102C7000F110A4C0BE01675E7F4FCE010D960E9489
:102C8000DA070B31110509F44EC07CF40A31110545
:102C900009F090C08091DD029091DE02C7960E94FB
:102CA0002E12BC018AE190E080C00C31110509F4BC
:102CB00074C00D31110509F07DC08091DD02909145
:102CC000DE0240E050E062E048960E94871164E630
:102CD00070E080E090E00E94FE098091DD0290911A
:102CE000DE0244EB50E062E048960E9487110091BA
:102CF000DD021091DE02F801EA5BFF4F84E090E014
:102D0000918380830E94AD06F801E75BFF4F6083EB
:102D1000718382839383359781E090E091838083F0
:102D20008DE190E045C0BE01635F7F4FCE0101960B
:102D30000E94DA0761E0CE0101960E94AE19182FB9
:102D4000CE0101960E94D507112321F1BE01635FD8
:102D50007F4FCE0101960E94DA0741E0BE016F5F0E
:102D60007F4FCE0107960E948519CE0107960E94DB
:102D70000307162FCE0107960E94D507CE010196B4
:102D80000E94D507612F8FE090E00E9471128BE1C5
:102D900090E00EC08FEF9FEF0BC08FE090E00E949D
:102DA0009412682F70E08CE190E00E946B1802C0D2
:102DB0000E943118CE010D960E94D507CE0149968A
:102DC0000E94D507CE014F960E94D50709C0222345
:102DD00009F47FCD0E9495097CCD0E946D0979CDC3
:102DE000A4960FB6F894DEBF0FBECDBFDF91CF9192
:102DF0001F910F91FF90EF90DF90CF90BF90AF9019
:102E00009F908F900895CF92DF92EF92FF920F9351
:102E10001F93CF93DF93EC016A017B010E94AD0603
:102E2000088119812A813B81DC01CB01801B910B38
:102E3000A20BB30B11E0C816D906EA06FB0608F090
:102E400010E00E94AD06688379838A839B83812F7B
:102E5000DF91CF911F910F91FF90EF90DF90CF9076
:102E60000895EF92FF920F931F93CF93DF937C010E
:102E7000FC01E60FF71F80819CEE980FEB01229674
:102E8000923030F40E94E709883C91059CF004C020
:102E90000E941509892B71F010E00E94AD06CC0F3D
:102EA000DD1FCC0FDD1FCE0DDF1D688379838A8384
:102EB0009B8319C00E94AD06CC0FDD1FCC0FDD1F18
:102EC000CE0DDF1D088119812A813B81DC01CB01F8
:102ED000801B910BA20BB30B11E088389341A10525
:102EE000B10508F410E0812FDF91CF911F910F9170
:102EF000FF90EF900895EF92FF920F931F93CF935F
:102F0000DF937C0100E110E0C0E0D0E0D701ED915B
:102F1000FC910190F081E02DC7010995C80FD91FE0
:102F20000150110999F7CE0124E0959587952A95CE
:102F3000E1F7DF91CF911F910F91FF90EF900895EE
:102F40001F93CF93DF93182FC62F641710F4D42F3D
:102F500002C0D62FC42F8091F4039091F5034C2F1B
:102F6000612F8F5B9F4F0E940F148091F40390910B
:102F7000F5034D2F612F8F5B9F4F0E94FC132D2F68
:102F800030E04C2F50E08091F4039091F503612FD5
:102F90004896DF91CF911F910C9449110F931F9385
:102FA000CF93DF932091E7022223F1F08C01C0E060
:102FB000D0E0F80184819581C817D90758F4BE0183
:102FC000C8010E940E07682F8BE192E00E94FA0D63
:102FD0002196EFCF0E94AD066093E3027093E40266
:102FE0008093E5029093E602DF91CF911F910F91BC
:102FF0000895EF92FF920F931F93CF93DF93CDB776
:10300000DEB762970FB6F894DEBF0FBECDBF8C015E
:10301000CB01F80111821082138212821582148270
:103020004AE09E012F5F3F4F7901B9010E94ED1EDA
:10303000F70101900020E9F73197AF014E195F09C0
:10304000B701C8010E94B40762960FB6F894DEBFBC
:103050000FBECDBFDF91CF911F910F91FF90EF90E9
:103060000895CF93DF93CDB7DEB762970FB6F8948C
:10307000DEBF0FBECDBFBC01CE010D960E94F91779
:10308000BE01635F7F4FCE0107960E94DA076DE3B2
:1030900071E0CE0107960E948807BC01CE0101961F
:1030A0000E94DA07CE0101960E94CE17CE0101964A
:1030B0000E94D507CE0107960E94D507CE010D9636
:1030C0000E94D50762960FB6F894DEBF0FBECDBF43
:1030D000DF91CF9108950F931F93CF93DF93CDB7D7
:1030E000DEB762970FB6F894DEBF0FBECDBF8B017F
:1030F000BC01CE010D960E94F917BE01635F7F4FA0
:10310000CE0107960E94DA076BE3CE0107960E9474
:103110007A07B8010E9444076DE371E00E948807B6
:10312000BC01CE0101960E94DA07CE0101960E94F1
:10313000CE17CE0101960E94D507CE0107960E94B8
:10314000D507CE010D960E94D50762960FB6F8946A
:10315000DEBF0FBECDBFDF91CF911F910F910895BC
:103160000F931F93CF93DF93CDB7DEB762970FB660
:10317000F894DEBF0FBECDBF8B01BC01CE010D9612
:103180000E94F917BE01635F7F4FCE0107960E9430
:10319000DA076BE3CE0107960E947A07B8010E9416
:1031A000A1076DE371E00E948807BC01CE01019682
:1031B0000E94DA07CE0101960E94CE17CE01019639
:1031C0000E94D507CE0107960E94D507CE010D9625
:1031D0000E94D50762960FB6F894DEBF0FBECDBF32
:1031E000DF91CF911F910F9108958F929F92AF928F
:1031F000BF92CF92DF92EF92FF920F931F93CF93E4
:10320000DF935C016B017A01DB0114968C918824B9
:103210008A94880EC0E00FEF10E0D0E0982E812F46
:1032200090E0E816F90694F06D2F70E0C6010E9458
:103230000E078B3311F08D1206C01F5FC1E0C00F67
:103240008D1253C0092DDF5F8D1648F7812F90E056
:10325000E816F9060CF043C0002E000C110B0C2EE2
:10326000000CDD0B0C171D0728F49C2F8D2FE80197
:10327000092F182F6FE371E0C5010E94F407F601D2
:10328000E480F580CE15DF0590F50E151F0508F4D6
:103290007801D601ED91FC911197EE0DFF1D108183
:1032A00010826D917C916C0F7D1F6115710561F02D
:1032B000FB0101900020E9F73197AF01461B570B46
:1032C000C5010E94B40703C0C5010E943207F60180
:1032D00080819181FC01EE0DFF1D108308C06FE31A
:1032E00071E0C5010E94F40702C00D2FACCFC501EB
:1032F000DF91CF911F910F91FF90EF90DF90CF90D2
:10330000BF90AF909F908F900895EF92FF921F9380
:10331000CF93DF9300D000D000D0CDB7DEB77C01D3
:10332000142FCE0101960E94DA07412F50E0BE0112
:103330006F5F7F4FC7010E94F518CE0101960E9472
:10334000D507C70126960FB6F894DEBF0FBECDBFD6
:10335000DF91CF911F91FF90EF9008951F93CF932E
:10336000DF93CDB7DEB72C970FB6F894DEBF0FBE54
:10337000CDBF162FBC01CE0107960E94DA07412F60
:10338000BE01695F7F4FCE0101960E9485198D8134
:103390009E81892B41F0E981FA8111E080818823A7
:1033A00019F010E001C011E0CE0101960E94D5078E
:1033B000CE0107960E94D50781E081272C960FB693
:1033C000F894DEBF0FBECDBFDF91CF911F9108955E
:1033D000CF93DF93EC01988188818E7F88838881E9
:1033E0008D7F888390FF03C0CE010E9422148BA1A1
:1033F0009CA1009769F11CA21BA2EF8DF8A1A9A1C5
:10340000BAA1309799F4109749F4DC0111961C92F7
:103410001E9213961C921E9212971AC090961C929E
:103420001E925F97FC01B183A08312C0109741F4F4
:1034300012A211A2DC011396FC93EE93129708C01E
:10344000B2A3A1A3A9A1BAA19096FC93EE935F9712
:10345000DF91CF910895CF93DF9300D000D0CDB707
:10346000DEB7789484B5826084BD84B5816084BD04
:1034700085B5826085BD85B5816085BD80916E0012
:10348000816080936E001092810080918100826043
:103490008093810080918100816080938100809180
:1034A00080008160809380008091B100846080936F
:1034B000B1008091B00081608093B00080917A006B
:1034C000846080937A0080917A00826080937A0091
:1034D00080917A00816080937A0080917A00806880
:1034E00080937A001092C10085E080938A0389E07E
:1034F00080938B0386E080938C038FEF80938D0302
:1035000080938E0361E085E00E94AB0961E08091C9
:103510008B030E94AB0961E080918C030E94AB0990
:1035200082E380939C0360918A0370E08FE893E0CC
:103530000E94C30F60918B0370E082E993E00E94C8
:10354000C30F60918C0370E085E993E00E94C30F84
:103550002BE430E04FE050E061E08AE893E00E9425
:1035600049112BE430E04FE050E062E08AE893E05C
:103570000E9449112BE430E04FE050E063E08AE81C
:1035800093E00E94491184E18093720385E1809366
:1035900073038EE0809374038AE08093750302E7DF
:1035A00013E062E0F80181918F010E94AB09F3E022
:1035B00006371F07B1F78FE08093B0038FEF80933A
:1035C000B1038093B2031092AB0389EA93E00E94A7
:1035D000121282E793E09093ED038093EC0319823B
:1035E0001A821B821C82CE0101967C0100E010E051
:1035F0006C01C8010E94601FF70181937F010F5F7A
:103600001F4F04301105A9F769817A818B819C8154
:1036100020E03EEC4BE257E40E94371F811161C06D
:1036200061E085E090E00E94711262E086E090E047
:103630000E94711260E087E090E00E947112009198
:10364000EC031091ED0384E090E00E949412780165
:10365000F8E1EF0EF11C91E0813009F090E0F80103
:1036600096A325A536A543A554A561E0C7010E94F0
:103670004911F80121A932A947A550A962E0C70163
:103680000E944911F80125A936A943A954A963E06C
:10369000C7010E94491181E00E94E50882E00E9472
:1036A000E50883E00E94E508A090EC03B090ED03EC
:1036B0008FE090E00E949412182F80E190E00E9429
:1036C00096126C0182E190E00E9496127C01C50185
:1036D000C796F50111AF123008F054C00E941212C3
:1036E00051C061E084E090E00E9471126FE089E0D7
:1036F00090E00E9471126BE48AE090E00E947112E7
:103700006FE08BE090E00E9471126BE48CE090E03F
:103710000E9471126FE08DE090E00E9471126BE4E4
:103720008EE090E00E94711260E08FE090E00E94D5
:10373000711260E070E080E190E00E9485126FEF0E
:1037400073E082E190E00E94851280E09EECABE2A3
:10375000B7E489839A83AB83BC83760100E010E0F1
:10376000F701D1907F01C8010E94601FD81621F097
:103770006D2DC8010E94681F0F5F1F4F0430110597
:1037800079F74ECF02E713E0E091EC03F091ED03FF
:10379000D3AEC2AEF5AEE4AE1093C1030093C00346
:1037A0001093E5030093E4030E94AD066093E603E3
:1037B0007093E7038093E8039093E9031093EF037A
:1037C0000093EE031093F5030093F40388E191E076
:1037D0000E94B7088DE391E00E94320880E191E0F9
:1037E0000E94B70884E090E00E949412813019F0A2
:1037F00083E391E002C088E291E00E9432088DE309
:1038000091E00E94320884E091E00E94B70889E0CC
:1038100090E00E9494120E94D20888EF90E00E94EB
:10382000B7088BE090E00E9494120E94D2088AEEC2
:1038300090E00E94B7088DE090E00E9494120E94F0
:10384000D2088EED90E00E94B7088AE090E00E94D6
:1038500094120E94D20882ED90E00E94B7088CE09A
:1038600090E00E9494120E94D20884EC90E00E94A2
:10387000B7088EE090E00E9494120E94D20886EB76
:1038800090E00E94B7088FE090E00E9494120E949E
:10389000D20889EA90E00E94B70880E190E00E9497
:1038A00096120E9485088CE990E00E94B70882E198
:1038B00090E00E9496120E94850882E793E0909320
:1038C000DE028093DD0261E081E10E94AB09E091BC
:1038D0002B02F0912C0282E08083E0912702F0918C
:1038E00028021082E0912902F0912A0283E380836A
:1038F00010923302E0912F02F091300286E0808333
:10390000E0912D02F0912E02808180618083E09110
:103910002D02F0912E02808188608083E0912D023B
:10392000F0912E02808180688083E0912D02F091D9
:103930002E0280818F7D808384E090E00E94312080
:103940002091DF023091E002FC01338322832AE0E0
:1039500031E0318320839093E2028093E1020E9460
:10396000950980E693E0F3E089369F0721F0909374
:10397000710380937003E0917003F09171033097AD
:1039800009F0168287E593E023E08036920721F064
:103990009093680380936703E0916703F091680355
:1039A000309709F0168209E613E0F801E080F18013
:1039B000E114F10439F0C7010E94BC05F701E1A050
:1039C000F2A0F6CFF801078110850115110569F7FE
:1039D00089E693E00E94FB040E94690EF9CF0F93E1
:1039E0001F93CF93DF93EC0188818E7F888388813A
:1039F0008D7F888319861A861B861C861D821E82EF
:103A00001F82188619821A821B821C8218A21F8E9E
:103A10001AA219A21CA21BA21D8A1E8A1F8A188E16
:103A20003A8F298F1C8E1B8E1E8E1D8E49835A83C2
:103A30006B837C8389819A81AB81BC818D839E83DA
:103A4000AF83B8870E94AD0669877A878B879C878A
:103A50008FEF9FEFDC018D879E87AF87B88B898BB7
:103A60009A8BAB8BBC8B0115110501F18BA19CA12D
:103A700008171907D9F01CA30BA3D8018D919C91AD
:103A80001197892B29F4CD93DC9318A21F8E09C0BE
:103A9000D8011296ED91FC911397F8A3EF8FD2A362
:103AA000C1A31AA219A2F801D383C283CE01DF9168
:103AB000CF911F910F910C94BC05E091D201EC3095
:103AC00088F421E02E0F2093D201DC01EC93B6E0C4
:103AD000EB9FF0011124ED52FE4F88EB9BE09283A7
:103AE000818308952FEFFC0120830895FF920F93A7
:103AF0001F93CF93DF938C01F62EEA010E94B30F40
:103B0000BE01680F711D653B710514F064EB70E038
:103B100077FF02C060E070E082E0F81649F083E0D1
:103B2000F81649F081E0F8120FC0C801089605C0E8
:103B3000C801059602C0C8010B96DF91CF911F9175
:103B40000F91FF900C94730EDF91CF911F910F9105
:103B5000FF90089588EB92E00E94E81988EE92E0C9
:103B60000E94E8198DE093E00E94E81982E393E057
:103B70000C94E8190F931F93CF93EBE1F2E01382BB
:103B8000128288EE93E0A0E0B0E084839583A68360
:103B9000B7838AE191E09183808385EC90E09587FB
:103BA000848784EC90E09787868780EC90E0918B07
:103BB000808B81EC90E0938B828B82EC90E0958BF4
:103BC000848B86EC90E0978B868B118E128E138EF1
:103BD000148E8FE893E00E945D1D82E993E00E94BD
:103BE0005D1D85E993E00E945D1DE2E7F3E0C1E021
:103BF000C6A317A210A611A682E382A713AE12AE27
:103C00000FEF13E015AF04AF81E090E00E94312088
:103C10009093B4038093B3031092B9031092B80346
:103C20001092BA031092BF031092C2031092C30302
:103C30001092C4031092C5031092C6031092C703DA
:103C40001092C8031092C9031092CA031092CB03BA
:103C50001092CC031092CD031092CE031092CF039A
:103C60001092D0031092D1031092D2031092D3037A
:103C70001092D4031092D5031092D6031092D7035A
:103C80001092D8031092D9031092DA031092DB033A
:103C90001092DC031092DD031092DE031092DF031A
:103CA0001092E0031092E1031092E2031092E303FA
:103CB0001092E6031092E7031092E8031092E903D2
:103CC0001093F1030093F0031092F3031092F203A8
:103CD0001092F6031092F8031092F703E9E6F3E06E
:103CE000118210821382128215821482108617822A
:103CF000C683E0E6F3E011821082138212821582FD
:103D0000148210861782C683E7E5F3E011821082E1
:103D1000138212821582148210861782C68309E6E6
:103D200013E027E633E044E650E060E070E082E331
:103D300093E00E94EF1C2CE932E04AE050E060E0A2
:103D400070E08DE093E00E94EF1C07E513E02DEE9C
:103D500030E042E350E060E070E088EE92E00E94E4
:103D6000EF1CEDEDF2E016821782108611861286A6
:103D700022E434E146E450E060E070E088EB92E059
:103D80000E94EF1CCF911F910F9108951F93FC018A
:103D900099278827BC01E89411911032E9F3193072
:103DA00010F01E30C8F31B3251F01D3249F46894F4
:103DB00006C00E94F81E610F711D811D911D119199
:103DC00010531A30B0F33EF490958095709561953C
:103DD0007F4F8F4F9F4F1F910895BB274A3031F47B
:103DE000992322F4BDE2909581959F4F0C940E1F6C
:103DF000592F482F372F262F660F771F881F991F9F
:103E0000660F771F881F991F620F731F841F951FEE
:103E1000660F771F881F991F0895BB27FB01552741
:103E2000AA27880F991FAA1FA41710F0A41B839517
:103E30005051B9F7A05DAA3308F0A95DA19300978E
:103E400079F7B111B1931192CB010C94271FDC01CA
:103E5000FC01672F71917723E1F7329704C07C91C1
:103E60006D9370836291AE17BF07C8F308950E94E7
:103E70003C1F08F481E00895990F0008550FAA0B24
:103E8000E0E8FEEF16161706E807F907C0F012166D
:103E90001306E407F50798F0621B730B840B950B70
:103EA00039F40A2661F0232B242B252B21F40895C5
:103EB0000A2609F4A140A6958FEF811D811D089562
:103EC000F999FECF92BD81BDF89A992780B50895E2
:103ED000262FF999FECF1FBA92BD81BD20BD0FB626
:103EE000F894FA9AF99A0FBE01960895052E97FB59
:103EF0001EF400940E948D1F57FD07D00E94DF1F03
:103F000007FC03D04EF40C948D1F509540953095CE
:103F100021953F4F4F4F5F4F089590958095709535
:103F200061957F4F8F4F9F4F08950E940120A59F5D
:103F3000900DB49F900DA49F800D911D11240895A4
:103F4000B7FF0C94951F0E94951F821B930B089539
:103F50002F923F924F925F926F927F928F929F9299
:103F6000AF92BF92CF92DF92EF92FF920F931F9387
:103F7000CF93DF93CDB7DEB7CA1BDB0B0FB6F89438
:103F8000DEBF0FBECDBF09942A88398848885F8478
:103F90006E847D848C849B84AA84B984C884DF80E9
:103FA000EE80FD800C811B81AA81B981CE0FD11DCD
:103FB0000FB6F894DEBF0FBECDBFED010895A1E2AC
:103FC0001A2EAA1BBB1BFD010DC0AA1FBB1FEE1F93
:103FD000FF1FA217B307E407F50720F0A21BB30BDE
:103FE000E40BF50B661F771F881F991F1A9469F75A
:103FF00060957095809590959B01AC01BD01CF01B6
:104000000895A29FB001B39FC001A39F700D811DB1
:104010001124911DB29F700D811D1124911D0895D1
:10402000991B79E004C0991F961708F0961B881F0A
:104030007A95C9F780950895EE0FFF1F0590F491CA
:10404000E02D09940E940120332312F48A1B9B0B5C
:104050000C942C200E940120B7FF0895821B930B23
:1040600008950F931F93CF93DF938230910510F43F
:1040700082E090E0E0910104F091020420E030E061
:10408000A0E0B0E0309719F14081518102811381A5
:1040900048175907C8F08417950769F4109731F04D
:1040A00012960C93129713961C9327C00093010449
:1040B0001093020422C02115310519F0421753074D
:1040C00018F49A01BD01EF01DF01F801DBCF2115E2
:1040D0003105F9F0281B390B2430310580F48A8131
:1040E0009B816115710521F0FB019383828304C0DC
:1040F0009093020480930104FE01329644C0FE01B5
:10410000E20FF31F81939193225031093983288361
:104110003AC02091FF0330910004232B41F42091F9
:10412000020130910301309300042093FF0320919A
:104130000001309101012115310541F42DB73EB741
:104140004091040150910501241B350BE091FF03C0
:10415000F0910004E217F307A0F42E1B3F0B281781
:10416000390778F0AC014E5F5F4F2417350748F0F0
:104170004E0F5F1F509300044093FF038193919370
:1041800002C0E0E0F0E0CF01DF91CF911F910F91ED
:104190000895CF93DF93009709F481C0FC01329713
:1041A00013821282A0910104B0910204109781F44D
:1041B00020813181820F931F2091FF0330910004F1
:1041C0002817390751F5F0930004E093FF0367C007
:1041D000ED0120E030E0CE17DF0740F44A815B813B
:1041E0009E0141155105F1F0EA01F5CFD383C28359
:1041F00040815181840F951FC817D90759F48881D0
:104200009981840F951F0296918380838A819B8177
:10421000938382832115310529F4F0930204E093FE
:1042200001043DC0E901FB83EA8349915991C40F20
:10423000D51FEC17FD0761F480819181840F951FD4
:104240000296E90199838883828193819B838A8383
:10425000E0E0F0E012968D919C911397009719F091
:10426000FD01DC01F7CF8D919C9111979D012E5F8F
:104270003F4F820F931F2091FF03309100042817B6
:10428000390769F4309729F410920204109201045E
:1042900002C013821282B0930004A093FF03DF9147
:1042A000CF910895A0E0B0E0E8E5F1E20C94AC1FF6
:1042B000EC01009721F4CB010E943120B4C0FC0135
:1042C000E60FF71F9C0122503109E217F30708F4AB
:1042D000A8C0D9010D911C91119706171707B0F0CE
:1042E0000530110508F49BC0C8010497861797078D
:1042F00008F495C002501109061B170B0193119386
:104300006D937C93CF010E94C92089C05B01A01AE4
:10431000B10A4C01800E911EA0910104B0910204DB
:10432000612C712CE12CF12C109709F446C08D9171
:104330009C911197A815B905B1F56C0142E0C40E26
:10434000D11CCA14DB0478F14C018A189B08640163
:1043500042E0C40ED11C1296BC9012971396AC91F9
:10436000B5E0CB16D10440F0B282A3839182808263
:10437000D9016D937C9309C00E5F1F4F800F911F71
:10438000F90191838083EB2DFA2FE114F10431F0D0
:10439000D7011396FC93EE93129741C0F093020459
:1043A000E09301043CC06816790608F43C017D01E5
:1043B00012960D90BC91A02DB7CF8091FF039091E4
:1043C000000488169906E1F466167706C8F4809111
:1043D000000190910101009741F48DB79EB7409183
:1043E000040150910501841B950BE817F907C8F4E7
:1043F000F0930004E093FF03F901718360830FC021
:10440000CB010E9431207C01009759F0A801BE0128
:104410000E941D22CE010E94C920C70104C0CE0106
:1044200002C080E090E0CDB7DEB7EEE00C94C81F8C
:1044300081E090E0F8940C942D22FB01DC0102C095
:1044400001900D9241505040D8F70895FB01DC01D6
:1044500001900D920020E1F7089510E0C2ECD0E049
:1044600004C0FE010E941C202196C33CD107C9F75D
:04447000F894FFCFEE
:10447400000003048000000000009C133B13AA12F8
:1044840000000000F20E00000000FA0D0706910D76
:10449400470EC20DA00DB40D52494748545F484120
:1044A4004E44004C4546545F48414E44000D0A00BA
:1044B40041542B42415544310041542B424155440F
:1044C400320041542B42415544330041542B424164
:1044D4005544340041542B42415544350041542B3A
:1044E40042415544360041542B4241554437004122
:1044F400542B42415544380041542B4241554439D0
:104504000041542B42415544410041542B424155F2
:1045140044420041542B42415544430041542B50E2
:10452400494E0041542B4E414D45004F4B002E0047
:084534004D4B32002D31000057
:00000001FF
