:100000000C94BD000C94E5000C94E5000C94E50004
:100010000C94E5000C94E5000C94E5000C94E500CC
:100020000C94E5000C94E5000C94E5000C94900F02
:100030000C94E5000C94E5000C94E5000C94E500AC
:100040000C94870B0C94E5000C94900E0C946A0EA3
:100050000C94E5000C94E5000C94E5000C94E5008C
:100060000C94E5000C94E5004B145714B614EF14EF
:10007000F414FD143D1531156815EA155516C11611
:100080000B17D41588179517D217DD17E017EB1744
:1000900000000000240027002A00000000002500C6
:1000A00028002B0000000000230026002900040483
:1000B0000404040404040202020202020303030310
:1000C00003030102040810204080010204081020EC
:1000D00001020408102000000008000201000003D3
:1000E0000407000000000000000053656E736F728B
:1000F0004D6178203D200053656E736F726D696E9F
:10010000203D200053656E736F7254797065203DF9
:1001100020004D617846696E67657273203D20004E
:100120004D6178496E646578203D20004D617854BA
:1001300068756D62203D20004D696E46696E676589
:100140007273203D20004D696E496E646578203DD4
:1001500020004D696E5468756D62203D2000486135
:100160006E64203D20000A454550524F4D20434FBC
:100170004E54454E5400E619031E11241FBECFEF06
:10018000D8E0DEBFCDBF11E0A0E0B1E0EEE0F3E4E7
:1001900002C005900D92A83CB107D9F724E0A8EC65
:1001A000B1E001C01D92A330B207E1F710E0CCEB43
:1001B000D0E004C02197FE010E94691FCB3BD1070C
:1001C000C9F70E94F21A0C947A210C9400000F9344
:1001D0001F93CF93DF9380916303909164038130E9
:1001E000910521F0029709F478C09BC1E0919B032F
:1001F000F0919C03EC5BFF4F80819181019709F0A6
:1002000090C10E947B0BE0919B03F0919C03DF0166
:10021000A75BBF4F0D911D912D913C911397AB01A1
:10022000BC01401B510B620B730B403157426105FF
:10023000710598F11D921D921D921C9213971597AE
:10024000EF01CA5BDF4F888199818D939C938091E8
:100250009F039091A00320919D0330919E0333AFA3
:1002600022AF95AF84AF60919D0370919E0380E1B2
:1002700090E00E94211260919F037091A00382E19F
:1002800090E00E9421121092A00310929F038FEF22
:1002900093E090939E0380939D03E0919B03F091E4
:1002A0009C0387A990AD0E94420620919F03309144
:1002B000A0032817390724F49093A00380939F0389
:1002C00020919D0330919E03821793070CF029C162
:1002D00090939E0380939D0324C18091A1039091EC
:1002E000A203FC01EC5BFF4F2081318122303105FC
:1002F00009F017C12091A4033091A5032115310500
:1003000009F409C13996C081D0E02C173D07C1F12D
:100310002330310501F164F42130310541F12230FF
:10032000310551F580960E94C20E8093A60324C029
:1003300025303105B1F04CF026303105E9F48396D3
:100340000E94C20E8093AA0317C04D960E94C20E4F
:100350008093A80311C04D960E94C20E8093A903FA
:100360000BC083960E94C20E8093AB0305C080969B
:100370000E94C20E8093A703D093A503C093A40349
:100380008091A4039091A503873091050CF096C04D
:100390008530910534F4833091059CF501972CF458
:1003A000C0C007970CF459C0BCC060E070E08091F9
:1003B000A1039091A2030E948210E091A103F09109
:1003C000A203882331F0CF01489626A1211115C040
:1003D00011C062E070E0CF010E948210882309F40E
:1003E000A0C0E091A103F091A203CF01489626A1FD
:1003F000222319F045E050E002C04BEF5FEF61E0CF
:1004000057C060E070E08091A1039091A2030E9428
:100410008210E091A103F091A203882331F0CF0173
:10042000489626A1211115C011C062E070E0CF01ED
:100430000E948210882309F474C0E091A103F09116
:10044000A203CF01489626A1222319F045E050E0EF
:1004500002C04BEF5FEF62E02BC060E070E0809184
:10046000A1039091A2030E948210E091A103F09158
:10047000A203882331F0CF01489626A1211115C08F
:1004800011C062E070E0CF010E948210882309F45D
:1004900048C0E091A103F091A203CF01489626A1A4
:1004A000222319F045E050E002C04BEF5FEF63E01C
:1004B000DF91CF911F910F910C94CF1D1092A50346
:1004C0001092A4034091A7036091A60381E090E0FD
:1004D0000E9467064091A9036091A80382E090E022
:1004E0000E9467064091AB036091AA0383E090E00D
:1004F0000E9467068091A1039091A203FC01E35B37
:10050000FF4F10823997DC01AA5BBF4F8D919C9100
:100510009183808306C081E090E09093A50380934F
:10052000A403DF91CF911F910F9108950F931F9313
:10053000CF93DF938091910390919203FC01EC5B48
:10054000FF4F208131812115310549F024303105DB
:1005500009F09CC034968081882309F497C00E94DA
:100560007B0B00919303109194032091950330919C
:100570009603DC01CB01801B910BA20BB30B4097C0
:10058000A105B10508F482C00E947B0B6093930320
:1005900070939403809395039093960380919103B5
:1005A00090919203C7960E94CA118C01093582E08E
:1005B0001807C4F0C801012E000CAA0BBB0B9C014C
:1005C000AD012855324041095109AAE0B0E00E942E
:1005D000E21E27EA31E040E050E00E94C31E922F65
:1005E000832F1AC0003981E01807A4F49801A6EF00
:1005F000BFEF0E946F1F20E931E040E050E00E9411
:10060000C31EBA01A901465F5F4F6F4F7F4F942F02
:10061000852F02C090E080E0C92FD82FCB30D105C4
:1006200014F0CAE0D0E0003981E01807B4F48091FA
:10063000910390919203AE0163E048960E948F115E
:100640008091910390919203AE0162E04896DF9110
:10065000CF911F910F910C948F1109351240B4F076
:100660008091910390919203AE0163E048960E94BD
:1006700070118091910390919203AE0162E04896CF
:10068000DF91CF911F910F910C947011DF91CF9159
:100690001F910F910895CF93DF9360E070E08091F8
:1006A0006D0390916E030E948210882309F459C053
:1006B00048EE53E060E070E081E793E00E941406AA
:1006C00060E070E080916D0390916E030E94C40819
:1006D000882309F471C148E853E160E070E081E8E3
:1006E00093E00E941406882309F466C180916D038B
:1006F00090916E03FC01EC5BFF4F20813181232B35
:1007000009F05AC140E050E062E048960E94FB10B8
:1007100064E670E080E090E00E94410B80916D0300
:1007200090916E0344EB50E062E048960E94FB100B
:10073000C0916D03D0916E03FE01EA5BFF4F118201
:1007400010820E947B0BFE01E75BFF4F6083718389
:1007500082839383CC5BDF4F81E090E09983888331
:100760002BC161E070E080916D0390916E030E9457
:100770008210882309F464C048EE53E060E070E022
:1007800085E793E00E941406882381F0E0916D03D1
:10079000F0916E03DF01AC5BBF4F8D919C9102978E
:1007A00029F4E35BFF4F80818F5F808361E070E01D
:1007B00080916D0390916E030E94C408882309F410
:1007C000FBC048E853E160E070E085E893E00E94F8
:1007D0001406882309F4F0C080916D0390916E0394
:1007E000FC01EC5BFF4F20813181232B09F0E4C039
:1007F00040E050E063E048960E94FB1064E670E041
:1008000080E090E00E94410B80916D0390916E0317
:1008100044EB50E063E048960E94FB1080916D032A
:1008200090916E03FC01EA5BFF4F118210823796B4
:1008300021E02083399722E030E031832083BCC05F
:1008400062E070E080916D0390916E030E948210CF
:10085000882309F456C048EE53E060E070E089E771
:1008600093E00E941406882309F1E0916D03F09152
:100870006E03DF01AC5BBF4F8D919C91892BB1F46E
:1008800020916F03CF014896222341F045A556A53C
:1008900061E00E94FB1010926F0308C043A554A5AD
:1008A00061E00E94FB1081E080936F0362E070E0E2
:1008B00080916D0390916E030E94C408882309F40F
:1008C0007BC048E853E160E070E089E893E00E9473
:1008D0001406882309F470C0E0916D03F0916E0353
:1008E000EC5BFF4F80819181009731F0049709F014
:1008F00063C01182108260C084E090E091838083A5
:100900005BC063E070E080916D0390916E030E9484
:100910008210882309F450C048EE53E060E070E094
:100920008DE793E00E941406E0916D03F0916E0351
:10093000882399F0DF01AC5BBF4F8D919C91892B8F
:1009400061F480917003882321F011A61092700346
:1009500004C081E081A78093700363E070E0CF0161
:100960000E94C408882341F148E853E160E070E048
:100970008DE893E00E9414068823F1F0E0916D0366
:10098000F0916E03DF01AC5BBF4F8D919C91892B81
:1009900099F496A181E0892786A384E090E00E94E3
:1009A0003012813011F061E001C062E084E090E03B
:1009B000DF91CF910C940D12DF91CF9108954F925A
:1009C0005F926F927F928F929F92AF92BF92EF92BF
:1009D000FF921F93CF93DF93EC01888199819D83D0
:1009E0008C83892B31F48F819885009711F00E94B8
:1009F000DF0411E08C819D81892B09F47DC08F81FA
:100A00009885009729F00E94DF04811101C010E051
:100A1000EC81FD81E1A0F2A0808180FF6AC0858524
:100A20009685A785B089892B8A2B8B2B69F49081B9
:100A300080818E7F808380818D7F808390FF59C0ED
:100A4000CF010E94151955C00E947B0BEC81FD81DE
:100A5000218132814381548141845284638474842E
:100A600085809680A780B084DC01CB01841995092C
:100A7000A609B70988159905AA05BB05D0F1858592
:100A80009685A785B089181619061A061B065CF408
:100A900085859685A785B0890197A109B1098587C4
:100AA0009687A787B08B85899689A789B08D01968F
:100AB000A11DB11D858B968BA78BB08F85809680ED
:100AC000A780B08481859285A385B485880D991D02
:100AD000AA1DBB1D81879287A387B4872583368390
:100AE00047835087018CF28DE02D309711F00995E6
:100AF00010E0FD82EC827ECF112399F08E81882355
:100B000081F083B7817F83BF83B7816083BF83B761
:100B1000816083BF889583B78E7F83BF83B78E7FC5
:100B200083BF812FDF91CF911F91FF90EF90BF90F6
:100B3000AF909F908F907F906F905F904F900895AF
:100B40000F931F93CF93DF93FC01A3A1B4A1109740
:100B5000E9F1EC01158A168A178A108E038CF48D40
:100B6000E02D309779F1888181FD2CC014960D918C
:100B70001C9115971596DC93CE931497888182600B
:100B800088830995988180FB90F9988388818D7F6F
:100B90008883EBA1FCA1158304830E947B0B098150
:100BA0001A812B813C810D831E832F833887DC01C2
:100BB000CB01801B910BA20BB30B89879A87AB8764
:100BC000BC8704C0888181608883E7CFDF91CF91A3
:100BD0001F910F910895833081F028F4813099F0AE
:100BE0008230A1F008958730A9F08830B9F08430C0
:100BF000D1F4809180008F7D03C0809180008F7739
:100C000080938000089584B58F7702C084B58F7D6E
:100C100084BD08958091B0008F7703C08091B000AB
:100C20008F7D8093B0000895CF92DF92EF92FF9274
:100C30000F931F93CF93DF93EC016A017B010E9416
:100C40007B0B088119812A813B81DC01CB01801B50
:100C5000910BA20BB30B11E0C816D906EA06FB06EE
:100C600008F010E00E947B0B688379838A839B8362
:100C7000812FDF91CF911F910F91FF90EF90DF9027
:100C8000CF900895EF92FF920F931F93CF93DF932E
:100C90007C0100E110E0C0E0D0E0D701ED91FC91D3
:100CA0000190F081E02DC7010995C80FD91F0150AF
:100CB000110999F7CE0124E0959587952A95E1F7DA
:100CC000DF91CF911F910F91FF90EF9008951F93A7
:100CD000CF93DF93182FC62F641710F4D42F02C0C0
:100CE000D62FC42F8091A1039091A2034C2F612F86
:100CF0008F5B9F4F0E9402198091A1039091A203E4
:100D00004D2F612F8F5B9F4F0E94EF182D2F30E0EA
:100D10004C2F50E08091A1039091A203612F48963F
:100D2000DF91CF911F910C94BD100F931F93CF9320
:100D3000DF93209194022223F1F08C01C0E0D0E0F7
:100D4000F80184819581C817D90758F4BE01C801FC
:100D50000E94DC0B682F88EC91E00E94590D2196CF
:100D6000EFCF0E947B0B609390027093910280936F
:100D7000920290939302DF91CF911F910F9108956A
:100D8000EF92FF920F931F93CF93DF93CDB7DEB710
:100D900062970FB6F894DEBF0FBECDBF8C01CB01BA
:100DA000F8011182108213821282158214824AE0A5
:100DB0009E012F5F3F4F7901B9010E943A1EF70152
:100DC00001900020E9F73197AF014E195F09B70193
:100DD000C8010E94820C62960FB6F894DEBF0FBE67
:100DE000CDBFDF91CF911F910F91FF90EF900895AC
:100DF000009769F0FC0101900020E9F73197AF01FD
:100E0000481B590BBC0188EC91E00C94C20C80E0AB
:100E100090E008958F929F92AF92BF920F931F938D
:100E2000CF93DF93CDB7DEB7A1970FB6F894DEBFAF
:100E30000FBECDBF19A2423008F44AE08E010F5D0B
:100E40001F4F842E912CA12CB12CA50194010E943E
:100E50002C1FE62FB901CA0101501109EA3014F420
:100E6000E05D01C0E95CD801EC93232B242B252BFA
:100E700061F7C8010E94F806A1960FB6F894DEBF8C
:100E80000FBECDBFDF91CF911F910F91BF90AF905B
:100E90009F908F900895CF92DF92EF92FF92CF9321
:100EA000DF936C01990FEE08FF08F7FE13C06DE2A7
:100EB00088EC91E00E94590DEC0166277727CB0161
:100EC0006C197D098E099F094AE00E940A07C80F24
:100ED000D91F06C04AE0C701B6010E940A07EC010B
:100EE00088E291E00E94F8068C0F9D1FDF91CF9160
:100EF000FF90EF90DF90CF9008950F931F93CF93C3
:100F0000DF938C01C0E0D0E0F801EC0FFD1F64918D
:100F1000662341F088EC91E00E94590D892B11F075
:100F20002196F2CFCE01DF91CF911F910F910895BD
:100F3000CF93DF93682F70E080E090E04AE00E945A
:100F40000A07EC0188E291E00E94F8068C0F9D1FD1
:100F5000DF91CF910895EF92FF920F931F93CF935C
:100F6000DF93C82F0091990310919A03780181E4CF
:100F7000E80EF11C6C2FC7010E94DD18D82F6C2FD2
:100F8000C7010E94CB18282F30E04D2F50E06C2F66
:100F9000C8014896DF91CF911F910F91FF90EF907C
:100FA0000C94BD10FC01448155816081718188ECF5
:100FB00091E00C94C20CCF93DF93282F30E0F9011D
:100FC000EA52FF4F8491F901EE53FF4FD491F9019A
:100FD000E255FF4FC491CC2391F081110E94EB05A3
:100FE000EC2FF0E0EE0FFF1FEC55FF4FA591B491F1
:100FF000EC91ED2381E090E021F480E002C080E0FC
:1010000090E0DF91CF9108951F93CF93DF93282F26
:1010100030E0F901EA52FF4F8491F901EE53FF4F9E
:10102000D491F901E255FF4FC491CC23C1F0162FA2
:1010300081110E94EB05EC2FF0E0EE0FFF1FE6564A
:10104000FF4FA591B4919FB7F894111104C08C91F2
:10105000D095D82302C0EC91DE2BDC939FBFDF91AB
:10106000CF911F910895CF93DF9361E081E10E94BA
:1010700004080E947B0BCAE8D2E06E837F838887D6
:1010800099878C819D81DC01ED91FC910480F58133
:10109000E02D40E056E960E070E0099581E08A8744
:1010A000E881F981EC5BFF4F84E090E091838083DD
:1010B000DF91CF910895CF93DF93CAE8D2E01E82EB
:1010C0001F821886198660E081E10E9404081A8652
:1010D000E881F981EC5BFF4F11821082DF91CF91A3
:1010E0000895CF93DF9390E0FC01EE53FF4F2491DE
:1010F000FC01E255FF4F8491882361F190E0880F55
:10110000991FFC01E057FF4FC591D491FC01E656B1
:10111000FF4FA591B491611109C09FB7F8948881E0
:10112000209582238883EC912E230BC0623061F4DA
:101130009FB7F8948881322F309583238883EC9170
:101140002E2B2C939FBF06C08FB7F894E8812E2BCF
:1011500028838FBFDF91CF9108958E3008F08E5095
:101160008770806480937C0080917A008064809393
:101170007A0080917A0086FDFCCF809178002091E2
:10118000790090E0922B0895EF92FF920F931F93B6
:10119000CF93DF937C01FC01E60FF71F80819CEE6B
:1011A000980FEB012296923030F40E94AD08883CF3
:1011B00091059CF004C00E94DB07892B71F010E0C0
:1011C0000E947B0BCC0FDD1FCC0FDD1FCE0DDF1D72
:1011D000688379838A839B8319C00E947B0BCC0F21
:1011E000DD1FCC0FDD1FCE0DDF1D088119812A8187
:1011F0003B81DC01CB01801B910BA20BB30B11E0F7
:1012000088389341A105B10508F410E0812FDF91E2
:10121000CF911F910F91FF90EF900895CF93DF939F
:10122000CDB7DEB762970FB6F894DEBF0FBECDBF65
:10123000BC01CE010D960E94C006BE01635F7F4FC8
:10124000CE0107960E94A80C68E271E0CE010796D5
:101250000E94560CBC01CE0101960E94A80CCE0142
:1012600001960E949506CE0101960E94A30CCE0124
:1012700007960E94A30CCE010D960E94A30C6296C5
:101280000FB6F894DEBF0FBECDBFDF91CF910895AA
:101290000F931F93CF93DF93CDB7DEB762970FB64F
:1012A000F894DEBF0FBECDBF8B01BC01CE010D9601
:1012B0000E94C006BE01635F7F4FCE0107960E9469
:1012C000A80C6BE3CE0107960E94480CB8010E945F
:1012D000120C68E271E00E94560CBC01CE0101962E
:1012E0000E94A80CCE0101960E949506CE0101969F
:1012F0000E94A30CCE0107960E94A30CCE010D966E
:101300000E94A30C62960FB6F894DEBF0FBECDBF4D
:10131000DF91CF911F910F9108950F931F93CF935A
:10132000DF93CDB7DEB762970FB6F894DEBF0FBE7E
:10133000CDBF8B01BC01CE010D960E94C006BE013F
:10134000635F7F4FCE0107960E94A80C6BE3CE012E
:1013500007960E94480CB8010E946F0C68E271E089
:101360000E94560CBC01CE0101960E94A80CCE0131
:1013700001960E949506CE0101960E94A30CCE0113
:1013800007960E94A30CCE010D960E94A30C6296B4
:101390000FB6F894DEBF0FBECDBFDF91CF911F9186
:1013A0000F9108958F929F92AF92BF92CF92DF924A
:1013B000EF92FF920F931F93CF93DF935C016B012A
:1013C0007A01DB0114968C9188248A94880EC0E0FF
:1013D0000FEF10E0D0E0982E812F90E0E816F9068C
:1013E00094F06D2F70E0C6010E94DC0B8B3311F07E
:1013F0008D1206C01F5FC1E0C00F8D1253C0092DB2
:10140000DF5F8D1648F7812F90E0E816F9060CF0A3
:1014100043C0002E000C110B0C2E000CDD0B0C1722
:101420001D0728F49C2F8D2FE801092F182F6AE241
:1014300071E0C5010E94550EF601E480F580CE15DD
:10144000DF0590F50E151F0508F47801D601ED9122
:10145000FC911197EE0DFF1D108110826D917C9112
:101460006C0F7D1F6115710561F0FB01019000207B
:10147000E9F73197AF01461B570BC5010E94820C5B
:1014800003C0C5010E94000CF60180819181FC011E
:10149000EE0DFF1D108308C06AE271E0C5010E94D5
:1014A000550E02C00D2FACCFC501DF91CF911F911A
:1014B0000F91FF90EF90DF90CF90BF90AF909F90F3
:1014C0008F900895EF92FF921F93CF93DF9300D0F8
:1014D00000D000D0CDB7DEB77C01142FCE0101962D
:1014E0000E94A80C412F50E0BE016F5F7F4FC701E3
:1014F0000E94D209CE0101960E94A30CC701269634
:101500000FB6F894DEBF0FBECDBFDF91CF911F9114
:10151000FF90EF9008951F93CF93DF93CDB7DEB781
:101520002C970FB6F894DEBF0FBECDBF162FBC01AF
:10153000CE0107960E94A80C412FBE01695F7F4F24
:10154000CE0101960E94620A8D819E81892B41F015
:10155000E981FA8111E08081882319F010E001C04F
:1015600011E0CE0101960E94A30CCE0107960E94C5
:10157000A30C81E081272C960FB6F894DEBF0FBE36
:10158000CDBFDF91CF911F9108953FB7F89480911F
:10159000B1039091B203A091B303B091B40326B507
:1015A000A89B05C02F3F19F00196A11DB11D3FBF9B
:1015B000BA2FA92F982F8827820F911DA11DB11D29
:1015C000BC01CD0142E0660F771F881F991F4A9525
:1015D000D1F708950E9465210F931F93CF93DF9356
:1015E000EC0188819981009729F02A813B81261797
:1015F000370788F48B016F5F7F4F0E949F20009711
:1016000061F0998388831B830A832C813D81232B7E
:1016100011F4FC01108281E001C080E0DF91CF91E4
:101620001F910F910895EF92FF920F931F93CF9305
:10163000DF936115710511F480E01CC0411551055F
:10164000C1F07B01EC018C819D818A01080F191F7B
:10165000B801CE010E94EC0A882371F328813981F8
:101660008C819D81B701820F931F0E9473211D837E
:101670000C8381E0DF91CF911F910F91FF90EF904C
:1016800008958F929F92AF92BF92CF92DF92EF9286
:10169000FF926B017C010E94C50A4B015C01C114E1
:1016A000D104E104F104F1F00E94C50ADC01CB0190
:1016B00088199909AA09BB09883E9340A105B1057B
:1016C00070F321E0C21AD108E108F10888EE880E13
:1016D00083E0981EA11CB11CC114D104E104F104E3
:1016E00019F7DDCFFF90EF90DF90CF90BF90AF90D4
:1016F0009F908F9008952FB7F8946091AD037091EB
:10170000AE038091AF039091B0032FBF08951F9255
:101710000F920FB60F9211242F933F938F939F93A5
:10172000AF93BF938091AD039091AE03A091AF03AF
:10173000B091B0033091AC0323E0230F2D3720F498
:101740000196A11DB11D05C026E8230F0296A11D1B
:10175000B11D2093AC038093AD039093AE03A0938F
:10176000AF03B093B0038091B1039091B203A09105
:10177000B303B091B4030196A11DB11D8093B103D1
:101780009093B203A093B303B093B403BF91AF910E
:101790009F918F913F912F910F900FBE0F901F90AF
:1017A0001895FC0180819181009711F00C94131E13
:1017B00060E070E0CB010895FC012481358162175F
:1017C000730748F480819181009729F0FC01E60FAE
:1017D000F71F8081089580E00895CF93DF9300D0B4
:1017E000CDB7DEB769831A8241E050E0BE016F5F7A
:1017F0007F4F0E94130B0F900F90DF91CF910895B0
:10180000CF93DF93EC0188819981009711F00E94BA
:101810001620198218821D821C821B821A82DF9177
:10182000CF910895EF92FF920F931F93CF93DF9381
:10183000CDB7DEB728970FB6F894DEBF0FBECDBF89
:101840007C01CB014AE08E010F5F1F4FB8010E945F
:101850003A1EF80101900020E9F73197AF01401BD3
:10186000510BB801C7010E94130B811103C0C701BE
:101870000E94000CC70128960FB6F894DEBF0FBE79
:10188000CDBFDF91CF911F910F91FF90EF90089501
:10189000CF93DF93EC010E94ED0B811103C0CE01C9
:1018A0000E94000CCE01DF91CF910895CF93DF937A
:1018B000EC016115710561F0FB0101900020E9F771
:1018C0003197AF01461B570B0E94130B811103C0C8
:1018D000CE010E94000CCE01DF91CF910895CF93ED
:1018E000DF93EC01FB0144815581608171810E948D
:1018F000130B811103C0CE010E94000CCE01DF91B9
:10190000CF910895EF92FF920F931F93CF93DF93A0
:10191000EC017B018A01BA010E94EC0A811104C02A
:10192000CE010E94000C07C01D830C83B701888183
:1019300099810E947321CE01DF91CF911F910F9168
:10194000FF90EF900895FC01808191810C94162006
:10195000FB01DC0111961C921E9213961C921E92A2
:10196000129715961C921E9214978617970749F0A6
:10197000608171816115710521F0448155810C945C
:10198000820C0895CF92DF92EF92FF920F931F93F4
:10199000CF93DF936C017A018B01C0E0D0E0CE15CC
:1019A000DF0581F0D8016D918D01D601ED91FC919B
:1019B0000190F081E02DC6010995892B11F0219647
:1019C000EECF7E01C701DF91CF911F910F91FF9064
:1019D000EF90DF90CF900895089580E090E0089513
:1019E000FC01538D448D252F30E0842F90E0821B25
:1019F000930B541710F0CF96089501970895FC01AA
:101A0000918D828D981761F0828DDF01A80FB11D35
:101A10005D968C91928D9F5F9F73928F90E0089559
:101A20008FEF9FEF0895FC01918D828D981731F013
:101A3000828DE80FF11D858D90E008958FEF9FEF67
:101A40000895FC01918D228D892F90E0805C9F4F3D
:101A5000821B91098F739927089588EC91E00E9469
:101A6000210D21E0892B09F420E0822F0895FC014B
:101A7000848DDF01A80FB11DA35ABF4F2C91848D17
:101A800090E001968F739927848FA689B7892C934C
:101A9000A089B1898C91837080648C93938D848D9F
:101AA000981306C00288F389E02D80818F7D8083A2
:101AB0000895EF92FF920F931F93CF93DF93EC0162
:101AC00081E0888F9B8D8C8D981305C0E889F989FA
:101AD000808185FD26C0F62E0B8D10E00F5F1F4F15
:101AE0000F731127E02E8C8DE8120CC00FB607FC87
:101AF000FACFE889F989808185FFF5CFCE010E9470
:101B0000370DF1CF8B8DFE01E80FF11DE35AFF4F2A
:101B1000F0829FB7F8940B8FEA89FB8980818062FD
:101B20000AC09FB7F894EE89FF896083E889F98934
:101B300080818370806480839FBF81E090E0DF912B
:101B4000CF911F910F91FF90EF900895CF93DF9366
:101B5000EC01888D8823C9F0EA89FB89808185FDA5
:101B600005C0A889B9898C9186FD0FC00FB607FC06
:101B7000F5CF808185FFF2CFA889B9898C9185FF47
:101B8000EDCFCE010E94370DE7CFDF91CF910895C1
:101B900080E090E0892B29F00E942D0D81110C949A
:101BA00000000895CF92DF92EF92FF92CF93DF93E0
:101BB000EC01603232E073070CF03EC0CB01653BB4
:101BC000710514F084EB90E02981A8E8B0E06D0184
:101BD000C21AD10827FDD394D601AA0FBB1FAA0FA2
:101BE000BB1F6D01BB0FEE08FF084A8128E532E0FC
:101BF000241B310947FD3395220F331F220F331F5A
:101C0000A901330F660B770B9A01AB012C193D0923
:101C10004E095F09DC0197FF02C0A0E0B0E00E941E
:101C2000ED1E24EB30E040E050E00E94C31EC20EE7
:101C3000D31EE41EF51EB601E881EC3058F529816B
:101C400088E890E0821B910927FD9395880F991FE2
:101C5000880F991F681779077CF02A8188E592E040
:101C6000821B910927FD9395880F991F880F991F53
:101C7000681779070CF4CB010297880F991F2FB7CB
:101C8000F89436E0E39FF0011124E954FC4F92836D
:101C900081832FBFDF91CF91FF90EF90DF90CF90A6
:101CA0000895FC0182810C94AD08FC011182108220
:101CB00013821282158214826115710551F0FB01A5
:101CC00001900020E9F73197AF01461B570B0C94A8
:101CD000820C08951F920F920FB60F9211242F932A
:101CE0003F934F935F936F937F938F939F93AF93A4
:101CF000BF93EF93FF9388EC91E00E94370DFF9123
:101D0000EF91BF91AF919F918F917F916F915F9173
:101D10004F913F912F910F900FBE0F901F901895EC
:101D20001F920F920FB60F9211242F938F939F93B0
:101D3000EF93FF93E091D801F091D9018081E09178
:101D4000DE01F091DF0182FD12C090818091E101FE
:101D50008F5F8F732091E201821751F0E091E101D2
:101D6000F0E0E853FE4F958F8093E10101C0808140
:101D7000FF91EF919F918F912F910F900FBE0F9038
:101D80001F9018958F929F92AF92BF92CF92DF9241
:101D9000EF92FF92FC01828128E532E06901C81AC6
:101DA000D10887FDD394CC0CDD1CCC0CDD1C0D2C94
:101DB000000CEE08FF08818128E830E04901881A0C
:101DC000910887FD9394880C991C880C991C092C08
:101DD000000CAA08BB08E081EF3FA9F086E0E89F6D
:101DE000F0011124E954FC4F2181328183E0220F5C
:101DF000331F8A95E1F794E0369527959A95E1F798
:101E00002E5F3F4F02C020E030E02F5F3F4FC901FF
:101E1000330FAA0BBB0B9C01AD01281939094A09E4
:101E20005B09A4EBB0E00E94E21EA701960128190D
:101E300039094A095B090E94C31EC901FF90EF904E
:101E4000DF90CF90BF90AF909F908F9008956230B9
:101E500031F0633031F0613041F4089603C00596EB
:101E600001C00B960E94C20E08958FEF08951F9334
:101E7000CF93DF93EC01162F88818C3008F04BC094
:101E800061E0812F0E947108888196E0899FF001AE
:101E90001124E954FC4F1F739081907C192B1083FF
:101EA00019821A826CE00E945D1F9CE0899FA0014C
:101EB000112420E030E096E0BA01620F731F969F74
:101EC000F001979FF00D1124E954FC4F608166FDED
:101ED00016C02F5F3F4F2C30310571F781110FC0B5
:101EE0001092800082E08093810010928500109211
:101EF0008400B19A80916F00826080936F00E881C6
:101F000086E0E89FF0011124E954FC4F8081806451
:101F100080838FEF83838881DF91CF911F91089514
:101F20001F920F920FB60F9211240F931F932F93AE
:101F30003F934F935F936F937F938F939F93AF9351
:101F4000BF93EF93FF938091B50387FF05C0109275
:101F500085001092840037C02091B503022E000C3A
:101F6000330B8091B60390E02817390764F5209170
:101F7000B50316E02103F0011124E954FC4F8081E0
:101F800086FF21C02091B5032103F0011124E954FB
:101F9000FC4F808160E08F730E9404082091B5039C
:101FA0002103F0011124E954FC4F83818F3F59F044
:101FB0002091B5032103F0011124E954FC4F60E0A6
:101FC00083810E9471088091B5038F5F8093B50370
:101FD0002091B503022E000C330B8091B60390E0E4
:101FE000281739070CF064C08091B5038C300CF0D1
:101FF0005FC040918400509185002091B50316E0A8
:102000002103F0011124E954FC4F81819281840F56
:10201000951F90938900809388002091B503210338
:10202000F0011124E954FC4F808186FF58C02091B3
:10203000B5032103F0011124E954FC4F808161E0D4
:102040008F730E9404082091B5032103F00111242D
:10205000E954FC4F83818F3F09F441C00091B503DF
:102060002091B5032103F0011124E954FC4F838131
:102070000E94AD080103F0011124E954FC4F95833F
:1020800084832091B5032103F0011124E954FC4F0E
:1020900061E083810E9471082091B5032103F00162
:1020A0001124E954FC4F60E083810E94040817C0AA
:1020B0008091840090918500049680349C4918F4A6
:1020C00080E49CE905C0809184009091850004968D
:1020D00090938900809388008FEF8093B503FF91E0
:1020E000EF91BF91AF919F918F917F916F915F9190
:1020F0004F913F912F911F910F910F900FBE0F9015
:102100001F901895CF92DF92EF92FF921F93CF937B
:10211000DF936C01EB017C01E60EF71EF701808175
:102120009CEE980F923038F40E94AD0811E0883C84
:1021300091053CF005C00E94DB0711E0892B09F0F6
:1021400010E0F7018481811779F00E947B0B2296C1
:10215000CC0FDD1FCC0FDD1FCC0DDD1D6883798317
:102160008A839B83F7011483812FDF91CF911F9185
:10217000FF90EF90DF90CF900895FC01453B510513
:1021800014F044EB50E057FF02C040E050E037FD50
:102190000DC0253B310514F024EB30E0922F832F46
:1021A000421753073CF4942F852F04C020E030E001
:1021B00090E080E0421753070CF4A9012685211115
:1021C00005C09C01942F852F432F522F623049F078
:1021D000633061F0613071F4548B438B958B868B47
:1021E0000895508F478B918F828F0895548F438F1E
:1021F000958F868F0895CF93DF93FC01623039F07D
:10220000633009F446C0613009F067C021C080899D
:10221000811163C0C18DD28DA789B08DAC17BD0768
:1022200054F09C2F8D2FCA17DB0714F49A2F8B2F95
:10223000DE01C92FD82F4A175B0734F0BA01C41743
:10224000D5071CF4BE0101C0BD01CF01059641C0F8
:102250008785811142C0C589D689238934892C1785
:102260003D0754F09C2F8D2FC217D30714F4922FE3
:10227000832F9E01C92FD82F4217530734F0BA017C
:10228000C417D5071CF4BE0101C0B901CF010896DF
:1022900020C08189811121C0C58DD68D838D948DFB
:1022A0008C179D0754F03C2F2D2FC817D90714F415
:1022B000382F292FCE01C32FD22F4817590734F0BA
:1022C000BA01C417D5071CF4BE0101C0BC01CF017F
:1022D0000B96DF91CF910C94D20DDF91CF910895A1
:1022E000FF920F931F93CF93DF938C01F62EEA0199
:1022F000FC018685882319F0D195C195D1096F2DF0
:10230000C8010E94270FAE01480F511D6F2DC80153
:10231000DF91CF911F910F91FF900C94FB10FF92D2
:102320000F931F93CF93DF938C01F62EEA01FC01EC
:102330008685811103C0D195C195D1096F2DC80142
:102340000E94270FAE01480F511D6F2DC801DF916C
:10235000CF911F910F91FF900C94FB100F931F933F
:10236000CF93DF938C0183E090E00E947E1FEC010D
:10237000F801878126E231E0398328838A8360E08F
:102380000E947108F801D183C083DF91CF911F9122
:102390000F910895CF92DF92EF92FF920F931F93C8
:1023A000CF93DF93EC01888199810E944206CB8014
:1023B000DC800D2C000CEE08FF08092E000CAA0B87
:1023C000BB0B9C01AD012C193D094E095F09AFEF14
:1023D000B3E00E94E21E2D813E818901330F220B62
:1023E000330BA90198012C193D094E095F090E9480
:1023F000C31EC901811524E0920714F08FEF93E00A
:1024000097FF02C080E090E0DF91CF911F910F9184
:10241000FF90EF90DF90CF9008951F93CF93DF93BD
:10242000EC01162F0E94AD1E181739F0612FCE0156
:10243000DF91CF911F910C94B51EDF91CF911F9129
:1024400008951F93CF93DF93EC01172F0E940D1275
:10245000612FCE010196DF91CF911F910C940D1247
:102460000C94AD1E1F93CF93DF93EC010E943012AA
:10247000182FCE0101960E94301290E0982F8827E5
:10248000810F911DDF91CF911F910895CF93DF931D
:1024900000D000D000D0CDB7DEB7411586E958078F
:1024A0006105710509F45DC038F5403C82E15807CB
:1024B0006105710509F44FC080F4403B84E0580782
:1024C0006105710509F444C0403659406105710544
:1024D00009F063C069E471E052C0403885E25807F2
:1024E00061057105D9F141155B446105710509F07C
:1024F00054C064E671E043C0411584E8580783E0A6
:1025000068077105A1F170F4411581EE5807610566
:10251000710551F14115524C61407105F1F56FE7BC
:1025200071E02DC0411580E158078EE06807710504
:1025300009F1411588E1580785E168077105E9F05F
:1025400040315F426740710541F561E971E017C0B4
:1025500060E471E014C062E571E011C06BE571E008
:102560000EC06DE671E00BC066E771E008C068E878
:1025700071E005C06AE971E002C063EA71E0CE0172
:1025800001960E94550ECE0101960E94D207CE01FF
:1025900001960E94A30C81E001C080E026960FB650
:1025A000F894DEBF0FBECDBFDF91CF910895EF92BB
:1025B000FF920F931F93CF93DF93CDB7DEB7629750
:1025C0000FB6F894DEBF0FBECDBF7B016AE271E0AB
:1025D000CE010D960E94550EF701848195810497D6
:1025E00011F010E033C000E010E0B801C7010E9414
:1025F000DC0B9FEC980F9930A0F7682FCE010D9659
:102600000E94ED0B0F5F1F4F0430110571F76CEA4C
:1026100071E0CE0101960E94550EBE01635F7F4FAF
:10262000CE0101960E946F0CBC01CE0107960E945C
:10263000A80CCE0107960E94D207CE0107960E94F1
:10264000A30CCE0101960E94A30C11E0CE010D96C1
:102650000E94A30C812F62960FB6F894DEBF0FBEC6
:10266000CDBFDF91CF911F910F91FF90EF90089513
:102670000F931F93CF93DF93CDB7DEB72C970FB691
:10268000F894DEBF0FBECDBFFB01848195814597D5
:10269000F8F48B0163EB71E0CE0101960E94550EB8
:1026A000B801CE0101960E946F0CBC01CE010796C5
:1026B0000E94A80CCE0107960E94D207CE01079671
:1026C0000E94A30CCE0101960E94A30C81E001C0E0
:1026D00080E02C960FB6F894DEBF0FBECDBFDF9121
:1026E000CF911F910F9108958F929F92AF92BF92B9
:1026F000CF92DF92EF92FF920F931F93CF93DF93CE
:10270000CDB7DEB7A4970FB6F894DEBF0FBECDBF2E
:10271000E0918A02F0918B02EC5BFF4F8081918106
:10272000209194028430910519F4211104C01DC533
:10273000892B09F414C580919402882309F418C5E3
:102740006AE271E0CE0101960E94550E88EC91E09C
:102750000E94210D18161906BCF46AE070E080E0B2
:1027600090E00E94410B88EC91E00E94210D181628
:10277000190664F788EC91E00E94FF0C682FCE01E7
:1027800001960E94ED0BE2CF8D819E81029738F475
:102790006AE271E0CE014F960E94550E1CC00E9465
:1027A0007B0B6093900270939102809392029093BE
:1027B000930289819A8198A38F8F8B819C819AA3A0
:1027C00089A38D819E819CA38BA31A8219821C826E
:1027D0001B821E821D82CE0101960E94A30C0E94C4
:1027E0007B0B009190021091910220919202309106
:1027F0009302DC01CB01801B910BA20BB30B803C3D
:102800009742A940B10510F00E945B088BA19CA1E2
:10281000029708F49FC4BE01615E7F4FCE0101960E
:102820000E94A80C40E050E0BE016F5F7F4FCE01D8
:1028300007960E94D209CE0107960E94D10B6B0128
:102840007C01CE0107960E94A30CCE0101960E9446
:10285000A30CBE01615E7F4FCE0149960E94A80C79
:1028600010919402112309F471C45601BE01675EF0
:102870007F4FCE0143960E94A80C0D2C000CEE0851
:10288000FF0888E0C816D10408F00AC1F601EC5C24
:10289000FF4F0C94691F6BEB71E0CE0101960E9413
:1028A000550EBE016F5F7F4F80E090E0F1C0BE012A
:1028B0006D5E7F4FCE0107960E94A80C0091940296
:1028C000002341F10E947B0B609390027093910270
:1028D0008093920290939302E0918E02F0918F0286
:1028E0000190F081E02D82809380BE01695F7F4F6F
:1028F000CE0101960E94A80CBE016F5F7F4F8091B0
:102900008E0290918F02F4010995082FCE01019655
:102910000E94A30CCE0107960E94A30C011102C0D5
:1029200000E301C001E361E070E0CE0101960E9486
:10293000C006BE016F5F7F4FCE0107960E94A80CB4
:102940006BE3CE0107960E94480C602F0E94480C52
:1029500068E271E00E94560CBC01CE010D960E9407
:10296000A80CCE010D960E94950672C0BE016D5E48
:102970007F4FCE0107960E94A80C80919402882375
:1029800039F10E947B0B60939002709391028093C7
:10299000920290939302E0918E02F0918F02019047
:1029A000F081E02D80809180BE01695F7F4FCE0174
:1029B00001960E94A80CBE016F5F7F4F80918E022E
:1029C00090918F02F4010995CE0101960E94A30C0B
:1029D000CE0107960E94A30C82E090E00BC00E94FB
:1029E0005B0883E090E006C00E945B080E94330809
:1029F00084E090E00E940E0951C061E070E0CE01D9
:102A000001960E94C006BE016F5F7F4FCE01079600
:102A10000E94A80C6EEB71E0CE0107960E94560C46
:102A200062E070E00E94120C6EEB71E00E94560CA6
:102A300061E070E00E94120CBC01CE010D960E9474
:102A4000A80CBE01635F7F4F85E090E00E948D0976
:102A5000CE010D960E94A30CCE0107960E94A30CF6
:102A600019C060EC71E0CE0101960E94550EBE01C6
:102A70006F5F7F4F87E090E00BC064EC71E0CE01A8
:102A800001960E94550EBE016F5F7F4F86E090E079
:102A90000E948D09CE0101960E94A30C012F01C056
:102AA00000E0CE0143960E94A30C01114FC3BE016A
:102AB000675E7F4FCE010D960E94A80CF6013897F5
:102AC000EC30F10508F093C2E45CFF4F0C94691FF1
:102AD000BE01635F7F4FCE0107960E94A80C61E0A4
:102AE000CE0107960E948B0A082F882389F0BE0129
:102AF000635F7F4FCE0101960E94A80C62E0CE0179
:102B000001960E948B0A082FCE0101960E94A30C09
:102B1000CE0107960E94A30C002309F458C0BE0101
:102B2000635F7F4FCE0101960E94A80C41E0BE0179
:102B30006F5F7F4FCE0107960E94620ACE01079613
:102B40000E94D10B162FCE0107960E94A30CCE0136
:102B500001960E94A30CBE01635F7F4FCE010196D8
:102B60000E94A80C42E0BE016F5F7F4FCE01079626
:102B70000E94620ACE0107960E94D10B6B017C0174
:102B8000CE0107960E94A30CCE0101960E94A30CD1
:102B900080918A0290918B02A601612F48960E9433
:102BA000FB1088E090E0B0C1BE01635F7F4FCE01B3
:102BB00001960E94A80C61E0CE0101960E948B0A4A
:102BC000082FCE0101960E94A30C011174C18FEF52
:102BD0009FEF0AC2BE01635F7F4FCE0107960E943E
:102BE000A80C61E0CE0107960E948B0A082F88236B
:102BF00089F0BE01635F7F4FCE0101960E94A80C51
:102C000062E0CE0101960E948B0A082FCE01019648
:102C10000E94A30CCE0107960E94A30C0023B9F2D8
:102C2000BE01635F7F4FCE0101960E94A80C41E078
:102C3000BE016F5F7F4FCE0107960E94620ACE01F0
:102C400007960E94D10B162FCE0107960E94A30C67
:102C5000CE0101960E94A30CBE01635F7F4FCE019F
:102C600001960E94A80C42E0BE016F5F7F4FCE012B
:102C700007960E94620ACE0107960E94D10BF62E9B
:102C8000CE0107960E94A30CCE0101960E94A30CD0
:102C900080918A0290918B024F2D612F8F5B9F4F05
:102CA0000E94EF1889E090E02FC1BE01635F7F4F63
:102CB000CE0107960E94A80C61E0CE0107960E9403
:102CC0008B0A082F882389F0BE01635F7F4FCE01F6
:102CD00001960E94A80C62E0CE0101960E948B0A28
:102CE000082FCE0101960E94A30CCE0107960E94E8
:102CF000A30C002309F46BCFBE01635F7F4FCE01AD
:102D000001960E94A80C41E0BE016F5F7F4FCE018B
:102D100007960E94620ACE0107960E94D10B162FD9
:102D2000CE0107960E94A30CCE0101960E94A30C2F
:102D3000BE01635F7F4FCE0101960E94A80C42E066
:102D4000BE016F5F7F4FCE0107960E94620ACE01DF
:102D500007960E94D10BF62ECE0107960E94A30C77
:102D6000CE0101960E94A30C80918A0290918B0261
:102D70004F2D612F8F5B9F4F0E9402198AE090E0D8
:102D8000C3C0BE01635F7F4FCE0101960E94A80CB5
:102D900061E0CE0101960E948B0A082FCE010196B8
:102DA0000E94A30C002309F412CFBE01635F7F4F82
:102DB000CE0101960E94A80C41E0BE016F5F7F4FDB
:102DC000CE0107960E94620ACE0107960E94D10B9F
:102DD0006B017C01CE0107960E94A30CCE010196E7
:102DE0000E94A30C80918A0290918B026C2D8F5BC4
:102DF0009F4F0E94CB18FBE3CF0ED11CB601680F8A
:102E0000711DCE0101960E94C006BE016F5F7F4F0B
:102E10008BE090E049C0BE01635F7F4FCE01019619
:102E20000E94A80C61E0CE0101960E948B0A082F37
:102E3000CE0101960E94A30C002309F4C8CEBE0166
:102E4000635F7F4FCE0101960E94A80C41E0BE0156
:102E50006F5F7F4FCE0107960E94620ACE010796F0
:102E60000E94D10B6B017C01CE0107960E94A30C3E
:102E7000CE0101960E94A30C80918A0290918B0250
:102E80006C2D8F5B9F4F0E94DD182BE3C20ED11C6F
:102E9000B601680F711DCE0101960E94C006BE01E9
:102EA0006F5F7F4F8CE090E00E948D09CE0101960C
:102EB0000E94A30C2BC0BE01635F7F4FCE01019621
:102EC0000E94A80C41E0BE016F5F7F4FCE010796C4
:102ED0000E94620ACE0107960E94D10B6B017C0111
:102EE000CE0107960E94A30CCE0101960E94A30C6E
:102EF000CA94CD2811F461E001C062E084E090E062
:102F00000E940D128DE090E00E940E09102F70C0FB
:102F100084E090E00E94301261E070E0813011F0B6
:102F200060E070E08EE090E045C0BE01635F7F4FDF
:102F3000CE0101960E94A80C61E0CE0101960E948C
:102F40008B0A082FCE0101960E94A30C002309F4DE
:102F50003ECEBE01635F7F4FCE0101960E94A80C5A
:102F600041E0BE016F5F7F4FCE0107960E94620A6B
:102F7000CE0107960E94D10B162FCE0107960E9414
:102F8000A30CCE0101960E94A30CE0918A02F0915D
:102F90008B0212A7612F153608F064E662A78FE056
:102FA00090E0B2CFE0918A02F0918B0262A570E0CE
:102FB00080E190E00E9448091BC081E190E014C0CC
:102FC000E0918A02F0918B02E85BFF4F81E0808301
:102FD00082E190E009C0E0918A02F0918B02E85B07
:102FE000FF4F108283E190E00E940E0901C010E0C3
:102FF000CE010D960E94A30C1111A8C0BE01675E00
:103000007F4FCE010D960E94A80C95E1A916B10440
:1030100009F451C084F4F4E1AF16B10409F092C090
:1030200080918A0290918B02C7960E94CA11BC01BE
:1030300084E190E082C026E1A216B10409F475C0D3
:1030400087E1A816B10409F07DC080918A029091B1
:103050008B0240E050E062E048960E94FB1064E67C
:1030600070E080E090E00E94410B80918A02909194
:103070008B0244EB50E062E048960E94FB10009106
:103080008A0210918B02F801EA5BFF4F84E090E026
:10309000918380830E947B0BF801E75BFF4F608385
:1030A000718382839383359781E090E0918380835D
:1030B00087E190E045C0BE01635F7F4FCE0101967E
:1030C0000E94A80C61E0CE0101960E948B0A182F85
:1030D000CE0101960E94A30C112321F1BE01635F72
:1030E0007F4FCE0101960E94A80C41E0BE016F5FA8
:1030F0007F4FCE0107960E94620ACE0107960E947A
:10310000D10B162FCE0107960E94A30CCE0101967B
:103110000E94A30C612F8FE090E00E940D1285E1C8
:1031200090E00EC08FEF9FEF0BC08FE090E00E9409
:103130003012682F70E086E190E00E94480902C0DA
:103140000E940E09CE010D960E94A30CCE01499655
:103150000E94A30CCE014F960E94A30C09C022230B
:1031600009F4E9CA0E945B08E6CA0E943308E3CA70
:10317000A4960FB6F894DEBF0FBECDBFDF91CF91FE
:103180001F910F91FF90EF90DF90CF90BF90AF9085
:103190009F908F900895623039F0633041F0613034
:1031A00051F48AE090E005C08CE090E002C08EE02F
:1031B00090E00C9430128FEF0895623039F0633054
:1031C00041F0613051F489E090E005C08BE090E07F
:1031D00002C08DE090E00C9430128FEF0895862F9E
:1031E000642F823039F0833041F0813051F48AE02D
:1031F00090E005C08CE090E002C08EE090E00C947E
:103200000D120895862F642F823039F0833041F0FB
:10321000813051F489E090E005C08BE090E002C07D
:103220008DE090E00C940D1208950F931F93CF93AF
:10323000DF93DC015D96ED91FC915E97309781F014
:10324000EC01ABA1BCA114960D911C91159715969C
:103250009C938E9314970995EBA1FCA1158304838D
:10326000DF91CF911F910F910895CF93DF93EC01E0
:10327000988188818E7F888388818D7F888390FF65
:1032800003C0CE010E9415198BA19CA1009769F182
:103290001CA21BA2EF8DF8A1A9A1BAA1309799F4A5
:1032A000109749F4DC0111961C921E9213961C9201
:1032B0001E9212971AC090961C921E925F97FC0164
:1032C000B183A08312C0109741F412A211A2DC01B5
:1032D0001396FC93EE93129708C0B2A3A1A3A9A1E1
:1032E000BAA19096FC93EE935F97DF91CF910895EA
:1032F0000F931F93CF93DF93EC0188818E7F888398
:1033000088818D7F888319861A861B861C861D827C
:103310001E821F82188619821A821B821C8218A2A2
:103320001F8E1AA219A21CA21BA21D8A1E8A1F8A06
:10333000188E3A8F298F1C8E1B8E1E8E1D8E4983F0
:103340005A836B837C8389819A81AB81BC818D8315
:103350009E83AF83B8870E947B0B69877A878B87B0
:103360009C878FEF9FEFDC018D879E87AF87B88B9F
:10337000898B9A8BAB8BBC8B0115110501F18BA14D
:103380009CA108171907D9F01CA30BA3D8018D9194
:103390009C911197892B29F4CD93DC9318A21F8E51
:1033A00009C0D8011296ED91FC911397F8A3EF8F05
:1033B000D2A3C1A31AA219A2F801D383C283CE015A
:1033C000DF91CF911F910F910C94A0050F931F9344
:1033D000CF93E8ECF1E01382128288EE93E0A0E054
:1033E000B0E084839583A683B7838AE091E09183DC
:1033F000808385EC90E09587848784EC90E09787C4
:10340000868780EC90E0918B808B81EC90E0938BB1
:10341000828B82EC90E0958B848B86EC90E0978B8E
:10342000868B118E128E138E148E8CE393E00E9485
:10343000B61D8FE393E00E94B61D82E493E00E94E4
:10344000B61DEFE1F3E0C1E0C6A317A210A611A6D6
:1034500082E382A713AE12AE0FEF13E015AF04AFF5
:1034600081E090E00E947E1F90936103809360034F
:1034700010926603109265031092670310926C031A
:1034800010926F03109270031092710310927203E6
:1034900010927303109274031092750310927603C6
:1034A00010927703109278031092790310927A03A6
:1034B00010927B0310927C0310927D0310927E0386
:1034C00010927F0310928003109281031092820366
:1034D0001092830310928403109285031092860346
:1034E00010928703109288031092890310928A0326
:1034F00010928B0310928C0310928D0310928E0306
:1035000010928F03109290031092930310929403E1
:10351000109295031092960310939E0300939D03BF
:103520001092A00310929F031092A3031092A50380
:103530001092A403E6E1F3E011821082138212825A
:103540001582148210861782C683EDE0F3E01182A3
:103550001082138212821582148210861782C6830B
:10356000E4E0F3E011821082138212821582148249
:1035700010861782C68306E113E02BE433E044E6AD
:1035800050E060E070E08FED92E00E94781926E94B
:1035900032E04AE050E060E070E08AEB92E00E94A6
:1035A000781904E013E027EE30E042E350E060E0F9
:1035B00070E085E992E00E947819EAE8F2E016826C
:1035C000178210861186128624E733E146E450E024
:1035D00060E070E085E692E00E947819CF911F913B
:1035E0000F910895CF93DF9300D000D0CDB7DEB711
:1035F000789484B5826084BD84B5816084BD85B5CE
:10360000826085BD85B5816085BD80916E008160D9
:1036100080936E001092810080918100826080937F
:103620008100809181008160809381008091800081
:103630008160809380008091B10084608093B100AC
:103640008091B00081608093B00080917A008460A6
:1036500080937A0080917A00826080937A008091D2
:103660007A00816080937A0080917A0080688093EC
:103670007A001092C10085E08093370389E080933F
:10368000380386E0809339038FEF80933A03809369
:103690003B0361E085E00E94710861E0809138039E
:1036A0000E94710861E0809139030E94710882E3F1
:1036B000809349036091370370E08CE393E00E94AC
:1036C000370F6091380370E08FE393E00E94370F6B
:1036D0006091390370E082E493E00E94370F2BE49D
:1036E00030E04FE050E061E087E393E00E94BD10DE
:1036F0002BE430E04FE050E062E087E393E00E948B
:10370000BD102BE430E04FE050E063E087E393E04E
:103710000E94BD1084E180931F0385E18093200304
:103720008EE0809321038AE0809322030FE113E06F
:1037300062E0F80181918F010E947108F3E0033289
:103740001F07B1F78FE080935D038FEF80935E03D7
:1037500080935F031092580386E593E00E94AE11B8
:103760008FE193E090939A038093990319821A82D0
:103770001B821C82CE0101967C0100E010E06C01EE
:10378000C8010E94AD1EF70181937F010F5F1F4F9B
:1037900004301105A9F769817A818B819C8120E031
:1037A0003EEC4BE257E40E94841E811161C061E04F
:1037B00085E090E00E940D1262E086E090E00E94B9
:1037C0000D1261E087E090E00E940D1200919903D4
:1037D00010919A0384E090E00E9430127801F8E1A1
:1037E000EF0EF11C91E0813009F090E0F80196A312
:1037F00025A536A543A554A561E0C7010E94BD10CB
:10380000F80121A932A947A550A962E0C7010E9489
:10381000BD10F80125A936A943A954A963E0C70141
:103820000E94BD1081E00E94AB0782E00E94AB07BE
:1038300083E00E94AB07A0909903B0909A038FE0B9
:1038400090E00E943012182F80E190E00E94321226
:103850006C0182E190E00E9432127C01C501C796A2
:10386000F50111AF123008F054C00E94AE1151C0E2
:1038700061E084E090E00E940D126FE089E090E04A
:103880000E940D126BE48AE090E00E940D126FE03E
:103890008BE090E00E940D126BE48CE090E00E94BF
:1038A0000D126FE08DE090E00E940D126BE48EE04F
:1038B00090E00E940D1260E08FE090E00E940D12F7
:1038C00060E070E080E190E00E9421126FEF73E011
:1038D00082E190E00E94211280E09EECABE2B7E42E
:1038E00089839A83AB83BC83760100E010E0F70103
:1038F000D1907F01C8010E94AD1ED81621F06D2D18
:10390000C8010E94B51E0F5F1F4F0430110579F7E3
:103910004ECF0FE113E0E0919903F0919A03D3AEFB
:10392000C2AEF5AEE4AE10936E0300936D03109338
:103930009203009391030E947B0B60939303709317
:103940009403809395039093960310939C030093A4
:103950009B031093A2030093A10386E691E00E94CB
:103960007D0788E291E00E94F8068EE591E00E94D2
:103970007D0784E090E00E943012813019F086E3E8
:1039800091E002C08BE291E00E94F80688E291E0AB
:103990000E94F80682E591E00E947D0789E090E0B0
:1039A0000E9430120E94980786E491E00E947D07F1
:1039B0008BE090E00E9430120E94980788E391E02B
:1039C0000E947D078DE090E00E9430120E949807CF
:1039D0008CE291E00E947D078AE090E00E94301224
:1039E0000E94980780E291E00E947D078CE090E0C1
:1039F0000E9430120E94980782E191E00E947D07A8
:103A00008EE090E00E9430120E94980784E091E0DE
:103A10000E947D078FE090E00E9430120E9498077C
:103A200087EF90E00E947D0780E190E00E943212D3
:103A30000E944B078AEE90E00E947D0782E190E0B1
:103A40000E9432120E944B078FE193E090938B0209
:103A500080938A0261E081E10E947108E091D801BF
:103A6000F091D90182E08083E091D401F091D501F9
:103A70001082E091D601F091D70183E38083109208
:103A8000E001E091DC01F091DD0186E08083E091CE
:103A9000DA01F091DB01808180618083E091DA01BD
:103AA000F091DB01808188608083E091DA01F09100
:103AB000DB01808180688083E091DA01F091DB0195
:103AC00080818F7D808384E090E00E947E1F209122
:103AD0008C0230918D02FC01338322832CE131E092
:103AE0003183208390938F0280938E020E945B0823
:103AF0008DE093E0F3E086319F0721F090931E0361
:103B000080931D03E0911D03F0911E03309709F08F
:103B1000168284E093E023E08D30920721F09093A9
:103B2000150380931403E0911403F091150330976B
:103B300009F0168206E113E0F801E080F180E1145B
:103B4000F10439F0C7010E94A005F701E1A0F2A03D
:103B5000F6CFF801078110850115110569F786E197
:103B600093E00E94DF040E94C80DF9CFE091B603F4
:103B7000EC3088F421E02E0F2093B603DC01EC93A7
:103B8000B6E0EB9FF0011124E954FC4F88EB9BE079
:103B90009283818308952FEFFC0120830895FF9283
:103BA0000F931F93CF93DF938C01F62EEA010E94AF
:103BB000270FBE01680F711D653B710514F064EBA2
:103BC00070E077FF02C060E070E082E0F81649F034
:103BD00083E0F81649F081E0F8120FC0C80108969A
:103BE00005C0C801059602C0C8010B96DF91CF91B0
:103BF0001F910F91FF900C94D20DDF91CF911F91E7
:103C00000F91FF90089585E692E00E94351985E9AD
:103C100092E00E9435198AEB92E00E9435198FEDEF
:103C200092E00C9435191F93FC0199278827BC0159
:103C3000E89411911032E9F3193010F01E30C8F3F6
:103C40001B3251F01D3249F4689406C00E94451E93
:103C5000610F711D811D911D119110531A30B0F328
:103C60003EF490958095709561957F4F8F4F9F4F53
:103C70001F910895BB274A3031F4992322F4BDE205
:103C8000909581959F4F0C945B1E592F482F372F8D
:103C9000262F660F771F881F991F660F771F881FB3
:103CA000991F620F731F841F951F660F771F881F50
:103CB000991F0895BB27FB015527AA27880F991F35
:103CC000AA1FA41710F0A41B83955051B9F7A05D4B
:103CD000AA3308F0A95DA193009779F7B111B193C8
:103CE0001192CB010C94741EDC01FC01672F7191C1
:103CF0007723E1F7329704C07C916D9370836291D2
:103D0000AE17BF07C8F308950E94891E08F481E02A
:103D10000895990F0008550FAA0BE0E8FEEF16165C
:103D20001706E807F907C0F012161306E407F507AF
:103D300098F0621B730B840B950B39F40A2661F023
:103D4000232B242B252B21F408950A2609F4A140C6
:103D5000A6958FEF811D811D0895F999FECF92BD23
:103D600081BDF89A992780B50895262FF999FECF3D
:103D70001FBA92BD81BD20BD0FB6F894FA9AF99A88
:103D80000FBE01960895052E97FB1EF400940E9425
:103D9000DA1E57FD07D00E942C1F07FC03D04EF4FB
:103DA0000C94DA1E50954095309521953F4F4F4F1A
:103DB0005F4F089590958095709561957F4F8F4FD7
:103DC0009F4F08950E944E1FA59F900DB49F900D88
:103DD000A49F800D911D11240895B7FF0C94E21E3D
:103DE0000E94E21E821B930B08952F923F924F92E6
:103DF0005F926F927F928F929F92AF92BF92CF927B
:103E0000DF92EF92FF920F931F93CF93DF93CDB783
:103E1000DEB7CA1BDB0B0FB6F894DEBF0FBECDBFFB
:103E200009942A88398848885F846E847D848C84CC
:103E30009B84AA84B984C884DF80EE80FD800C81D5
:103E40001B81AA81B981CE0FD11D0FB6F894DEBFB8
:103E50000FBECDBFED010895A1E21A2EAA1BBB1B18
:103E6000FD010DC0AA1FBB1FEE1FFF1FA217B30746
:103E7000E407F50720F0A21BB30BE40BF50B661F5C
:103E8000771F881F991F1A9469F760957095809520
:103E900090959B01AC01BD01CF010895A29FB00197
:103EA000B39FC001A39F700D811D1124911DB29F6E
:103EB000700D811D1124911D0895991B79E004C096
:103EC000991F961708F0961B881F7A95C9F7809559
:103ED0000895EE0FFF1F0590F491E02D09940E94C4
:103EE0004E1F332312F48A1B9B0B0C94791F0E94E4
:103EF0004E1FB7FF0895821B930B08950F931F93D6
:103F0000CF93DF938230910510F482E090E0E0914E
:103F10000104F091020420E030E0A0E0B0E030972E
:103F200019F1408151810281138148175907C8F066
:103F30008417950769F4109731F012960C93129735
:103F400013961C9327C0009301041093020422C00F
:103F50002115310519F04217530718F49A01BD01D4
:103F6000EF01DF01F801DBCF21153105F9F0281B46
:103F7000390B2430310580F48A819B8161157105EC
:103F800021F0FB019383828304C090930204809309
:103F90000104FE01329644C0FE01E20FF31F81933B
:103FA000919322503109398328833AC02091FF032D
:103FB00030910004232B41F4209102013091030140
:103FC000309300042093FF03209100013091010100
:103FD0002115310541F42DB73EB7409104015091B0
:103FE0000501241B350BE091FF03F0910004E2175B
:103FF000F307A0F42E1B3F0B2817390778F0AC010C
:104000004E5F5F4F2417350748F04E0F5F1F5093E8
:1040100000044093FF038193919302C0E0E0F0E03D
:10402000CF01DF91CF911F910F910895CF93DF932F
:10403000009709F481C0FC01329713821282A0918B
:104040000104B0910204109781F420813181820F24
:10405000931F2091FF03309100042817390751F571
:10406000F0930004E093FF0367C0ED0120E030E02F
:10407000CE17DF0740F44A815B819E01411551054F
:10408000F1F0EA01F5CFD383C28340815181840FDF
:10409000951FC817D90759F488819981840F951FF6
:1040A0000296918380838A819B81938382832115E9
:1040B000310529F4F0930204E09301043DC0E901C5
:1040C000FB83EA8349915991C40FD51FEC17FD0773
:1040D00061F480819181840F951F0296E901998393
:1040E0008883828193819B838A83E0E0F0E012964B
:1040F0008D919C911397009719F0FD01DC01F7CF8A
:104100008D919C9111979D012E5F3F4F820F931FC0
:104110002091FF03309100042817390769F4309784
:1041200029F4109202041092010402C01382128238
:10413000B0930004A093FF03DF91CF910895A0E016
:10414000B0E0E5EAF0E20C94F91EEC01009721F4EE
:10415000CB010E947E1FB4C0FC01E60FF71F9C013B
:1041600022503109E217F30708F4A8C0D9010D91D4
:104170001C91119706171707B0F00530110508F4C8
:104180009BC0C80104978617970708F495C0025092
:104190001109061B170B019311936D937C93CF01AB
:1041A0000E94162089C05B01A01AB10A4C01800E42
:1041B000911EA0910104B0910204612C712CE12C9C
:1041C000F12C109709F446C08D919C911197A81578
:1041D000B905B1F56C0142E0C40ED11CCA14DB0470
:1041E00078F14C018A189B08640142E0C40ED11C8E
:1041F0001296BC9012971396AC91B5E0CB16D104F1
:1042000040F0B282A38391828082D9016D937C9326
:1042100009C00E5F1F4F800F911FF90191838083AA
:10422000EB2DFA2FE114F10431F0D7011396FC9332
:10423000EE93129741C0F0930204E09301043CC056
:104240006816790608F43C017D0112960D90BC9128
:10425000A02DB7CF8091FF03909100048816990696
:10426000E1F466167706C8F480910001909101018F
:10427000009741F48DB79EB740910401509105011C
:10428000841B950BE817F907C8F4F0930004E0933A
:10429000FF03F901718360830FC0CB010E947E1F71
:1042A0007C01009759F0A801BE010E946A21CE014D
:1042B0000E941620C70104C0CE0102C080E090E039
:1042C000CDB7DEB7EEE00C94151F81E090E0F894D6
:1042D0000C947A21FB01DC0102C001900D92415047
:1042E0005040D8F70895FB01DC0101900D920020A9
:1042F000E1F7089510E0CCEBD0E004C0FE010E948D
:0E430000691F2196CD3BD107C9F7F894FFCF76
:10430E0000000304800000000000590DC20CF00CE8
:10431E00A60D210DFF0C130D000000003813D7124F
:10432E00461200000000510E0D0A00524947485433
:10433E005F48414E44004C4546545F48414E440050
:10434E0041542B42415544310041542B4241554476
:10435E00320041542B42415544330041542B4241CB
:10436E005544340041542B42415544350041542BA1
:10437E0042415544360041542B4241554437004189
:10438E00542B42415544380041542B424155443937
:10439E000041542B42415544410041542B4241555A
:1043AE0044420041542B42415544430041542B504A
:1043BE00494E0041542B4E414D45004F4B002E00AF
:0843CE004D4B32002D310000BF
:00000001FF
