:100000000C9416010C943E010C943E010C94BC0A15
:100010000C94BC0A0C94BC0A0C943E010C943E0156
:100020000C943E010C943E010C943E010C940E1075
:100030000C943E010C943E010C943E010C943E0144
:100040000C94C4140C943E010C94B50D0C948F0DBB
:100050000C943E010C943E010C943E010C943E0124
:100060000C943E010C943E014578747261205072EC
:10007000657373656400537461727420536572769E
:100080006F732043616C696200457874726120501F
:10009000726573736564204C6F6E6700436C6F7399
:1000A00065205468756D62004F70656E20546875E8
:1000B0006D62005468756D6220507265737365647B
:1000C000005468756D622050726573736564204CCE
:1000D0006F6E6700556E6C6F636B2046696E676567
:1000E0007273004C6F636B2046696E6765727300B4
:1000F0004C6F636B2050726573736564006E657737
:100100002048616E642074797065203D20004C6F3A
:10011000636B2050726573736564204C6F6E67006B
:1001200053746172742053656E736F722043616CF7
:1001300069620043616C6962205072657373656423
:10014000204C6F6E670043616C696220507265736A
:10015000736564004D61785468756D62203D2000C0
:100160000A4D696E5468756D62203D20004D6178BE
:1001700046696E67657273203D20000A4D696E46C0
:10018000696E67657273203D20004D6178496E6429
:100190006578203D20004D696E496E646578203D8C
:1001A0002000536572766F732043616C696220464C
:1001B000696E6973686564004E6578742043616C8C
:1001C000696220537465700000000000230026005F
:1001D000290053746172740000000000240027009D
:1001E0002A0000000000250028002B00040404045D
:1001F00004040404020202020202030303030303D1
:1002000001020408102040800102040810200102AD
:100210000408102000000008000201000003040789
:1002200000000000000000007B18AB1911241FBE65
:10023000CFEFD8E0DEBFCDBF12E0A0E0B1E0E6EA4C
:10024000F9E302C005900D92AC35B107D9F724E06F
:10025000ACE5B2E001C01D92AE3CB207E1F711E09F
:10026000C5E1D1E004C02197FE010E94C41AC43147
:10027000D107C9F70E940E150C94C61C0C940000FF
:100280000F931F938091DA039091DB0381309105E6
:1002900021F0029709F49CC0E8C1E0910E04F091AE
:1002A0000F04ED5AFF4F80819181019709F0DDC164
:1002B0000E94B814E0910E04F0910F04DF01AB5AD4
:1002C000BF4F0D911D912D913C911397AB01BC0136
:1002D000401B510B620B730B403157426105710596
:1002E00008F456C01D921D921D921C9213971297EE
:1002F0001D921C928091120490911304209110047D
:100300003091110434AF23AF96AF85AF60911004E4
:10031000709111048DE090E00E948A1160911204A6
:10032000709113048FE090E00E948A118CE591E0B7
:100330000E94590986E791E00E9459098CE591E0F5
:100340000E94590982E991E00E9459098DE991E0E2
:100350000E947E088DE090E00E949B110E94200A7E
:100360008AEA91E00E947E088FE090E00E949B1153
:100370000E94200A87EB91E00E9459091092130411
:10038000109212048FEF93E0909311048093100465
:10039000E0910E04F0910F0480AD91AD0E946709C9
:1003A00020911204309113042817390724F49093F4
:1003B00013048093120420911004309111048217C9
:1003C00093070CF052C190931104809310044DC117
:1003D0008091140490911504FC01ED5AFF4F208187
:1003E00031812230310509F040C12091170430914C
:1003F00018042115310509F432C1369680819181A6
:100400002817390709F457C09093180480931704EC
:1004100088EB91E00E94EC088091170490911804F9
:100420008330910559F184F481309105D9F1029717
:1004300009F041C0809114049091150481960E94A6
:10044000E70D8093190437C08530910509F164F0F8
:10045000069789F5809114049091150487960E945F
:10046000E70D80931D0427C080911404909115041A
:100470004B960E94E70D80931B041DC080911404CD
:10048000909115044B960E94E70D80931C0413C0B5
:10049000809114049091150487960E94E70D809333
:1004A0001E0409C0809114049091150481960E9445
:1004B000E70D80931A0480911704909118048730F7
:1004C00091050CF063C08530910534F483309105BB
:1004D00004F5019724F4C9C00797D4F1C6C08091F0
:1004E0001404909115040E94661320911404309115
:1004F0001504882311F061E019C0C9010E944F134F
:10050000882309F4B2C0809114049091150461E02D
:1005100038C080911404909115040E9466132091B4
:10052000140430911504882339F062E0C90148961B
:100530001F910F910C94AB09C9010E944F1388239E
:1005400009F493C0809114049091150462E019C0DD
:1005500080911404909115040E9466132091140454
:1005600030911504882311F063E0E0CFC9010E94A7
:100570004F13882309F479C08091140490911504D5
:1005800063E048961F910F910C948C091092180407
:100590001092170440911A046091190481E090E0D0
:1005A0000E94DD0940911C0460911B0482E090E0F0
:1005B0000E94DD0940911E0460911D0483E090E0DB
:1005C0000E94DD0982EA91E00E94EC0886E991E050
:1005D0000E94D10888E090E00E9499110E94CA0907
:1005E0008AE891E00E94D10889E090E00E94991188
:1005F0000E94CA098BE791E00E94D1088AE090E04E
:100600000E9499110E94CA098DE691E00E94D108CA
:100610008BE090E00E9499110E94CA0980E691E067
:100620000E94D10886E090E00E9499110E94CA09B8
:1006300084E591E00E94D10887E090E00E94991142
:100640000E94CA098091140490911504FC01E75A94
:10065000FF4F1182108236971182108206C081E00E
:1006600090E090931804809317041F910F910895C0
:10067000CF92DF92EF92FF920F931F93CF93DF936E
:10068000C0910804D0910904FE01ED5AFF4F80810A
:100690009181892B09F095C088AD99AD0E946709B9
:1006A000CBACDCAC0D2C000CEE08FF08092E000CC6
:1006B000AA0BBB0B9C01AD012C193D094E095F092A
:1006C000AFEFB3E00E94151A2DAD3EAD8901330F97
:1006D000220B330BA90198012C193D094E095F0922
:1006E0000E94F61937FD0AC0211584E0380714F07E
:1006F0002FEF33E02535E1E03E0734F58091080423
:10070000909109047C01F8E1EF0EF11CFC0125A594
:10071000211102C0CBEF01C0C5E087960E94E70D12
:100720004C2F480F20E063E0C7010E94D81380914E
:100730000804909109047C01F8E1EF0EF11CFC0122
:1007400025A5222349F12AC02B3A3240D4F18091C9
:100750000804909109047C0128E1E20EF11CFC01DF
:1007600025A5222311F0CBEF01C0C5E087960E949A
:10077000E70D4C2F480F20E063E0C7010E94D8131B
:1007800080910804909109047C01F8E1EF0EF11CBE
:10079000FC0125A5222311F0CBEF01C0C5E04B964B
:1007A0000E94E70D4C2F480F20E062E0C701DF9167
:1007B000CF911F910F91FF90EF90DF90CF900C940D
:1007C000D813DF91CF911F910F91FF90EF90DF90A1
:1007D000CF9008951F93CF93DF938091E40390917E
:1007E000E5030E946613882309F462C048EE53E0D3
:1007F00060E070E088EE93E00E945008882321F0CA
:1008000086E491E00E94EC088091E4039091E50376
:10081000AC01485F5F4FFC0160810E94FA088823A9
:1008200009F4C8C148E853E160E070E088EF93E064
:100830000E945008882309F4BDC183E391E00E941F
:10084000EC08E091E403F091E503ED5AFF4F80815D
:100850009181892B09F0AEC180E291E00E94EC0801
:100860008091E4039091E50321E040E062E0489646
:100870000E94D8138091E4039091E50321E044EBBA
:1008800062E048960E94D813C091E403D091E5033A
:100890000E94B814FE01EB5AFF4F6083718382837C
:1008A0009383CD5ADF4F81E090E09983888382C1A2
:1008B000C091E403D091E5036981CE010E94AF119C
:1008C000182F8D81181739F00E94B8146C877D8716
:1008D0008E879F871D83112309F471C048EE53E072
:1008E00060E070E08CEE93E00E9450088823B1F045
:1008F00088E690E00E94EC08E091E403F091E503C3
:10090000DF01AD5ABF4F8D919C91029739F4E75AA0
:10091000FF4F808191810196918380838091E403D0
:100920009091E503AC01445F5F4FFC0161810E943F
:10093000FA08882309F43EC148E853E160E070E01A
:100940008CEF93E00E945008882309F433C189E8B2
:1009500090E00E94EC08E091E403F091E503ED5A89
:10096000FF4F80819181892B09F024C186E790E0B7
:100970000E94EC088091E4039091E50321E040E0BF
:1009800063E048960E94D8138091E4039091E503B8
:1009900021E044EB63E048960E94D8138091E40381
:1009A0009091E503FC01E75AFF4F21E030E03183ED
:1009B0002083369722E030E031832083FBC0809192
:1009C000E4039091E5030E944F13882309F460C06B
:1009D00048EE53E060E070E080EF93E00E94500842
:1009E0008823B1F183EB90E00E94EC08E091E403EE
:1009F000F091E503ED5AFF4F80819181892B41F5FC
:100A00008091E603882391F08CE990E00E94EC0845
:100A10008091E4039091E50321E0FC0143A961E0AA
:100A200048960E94D8131092E60312C088EA90E01C
:100A30000E94EC088091E4039091E50321E0FC0121
:100A400042A961E048960E94D81381E08093E603B2
:100A50008091E4039091E503AC01405F5F4FFC019E
:100A600062810E94FA08882309F4A4C048E853E18F
:100A700060E070E080E094E00E945008882309F470
:100A800099C081EC90E0DF91CF911F910C94EC081C
:100A9000C091E403D091E5036B81CE010E94AF11B8
:100AA000182F8F81181739F00E94B8146C8B7D8B2A
:100AB0008E8B9F8B1F83112309F47CC048EE53E07B
:100AC00060E070E084EF93E00E945008882351F1C9
:100AD00080EF90E00E94EC08E091E403F091E503E0
:100AE000ED5AFF4F80819181892BE1F48091E703DA
:100AF000882361F084ED90E00E94EC08E091E4032B
:100B0000F091E50310AA1092E7030CC083EE90E089
:100B10000E94EC08E091E403F091E50381E080ABF2
:100B20008093E7038091E4039091E503AC014C5E70
:100B30005F4FFC0163810E94FA088823D9F148E8DD
:100B400053E160E070E084E094E00E945008882364
:100B500089F18EE091E00E94EC08E091E403F091CD
:100B6000E503DF01AD5ABF4F8D919C91892B11F5A3
:100B700095A581E0892785A7882311F061E301C04D
:100B800060E384E090E00E9476118DEF90E00E9497
:100B9000D108E091E403F091E50385A5811103C03C
:100BA00088ED91E002C082ED91E0DF91CF911F913D
:100BB0000C945909DF91CF911F9108954F925F9244
:100BC0006F927F928F929F92AF92BF92EF92FF921D
:100BD0001F93CF93DF93EC01888199819D838C8350
:100BE000892B31F48F819885009711F00E94DE05E2
:100BF00011E08C819D81892B09F47DC08F819885BE
:100C0000009729F00E94DE05811101C010E0EC81FF
:100C1000FD81E1A0F2A0808180FF6AC08585968574
:100C2000A785B089892B8A2B8B2B69F490818081D1
:100C30008E7F808380818D7F808390FF59C0CF011C
:100C40000E94731455C00E94B814EC81FD8121816B
:100C500032814381548141845284638474848580C9
:100C60009680A780B084DC01CB0184199509A60980
:100C7000B70988159905AA05BB05D0F18585968524
:100C8000A785B089181619061A061B065CF4858517
:100C90009685A785B0890197A109B10985879687AF
:100CA000A787B08B85899689A789B08D0196A11DEC
:100CB000B11D858B968BA78BB08F85809680A78082
:100CC000B08481859285A385B485880D991DAA1D60
:100CD000BB1D81879287A387B4872583368347838B
:100CE0005087018CF28DE02D309711F0099510E0BE
:100CF000FD82EC827ECF112399F08E81882381F0D2
:100D000083B7817F83BF83B7816083BF83B78160EF
:100D100083BF889583B78E7F83BF83B78E7F83BF62
:100D2000812FDF91CF911F91FF90EF90BF90AF90F7
:100D30009F908F907F906F905F904F9008950F934A
:100D40001F93CF93DF93FC01A3A1B4A11097E9F106
:100D5000EC01158A168A178A108E038CF48DE02D0B
:100D6000309779F1888181FD2CC014960D911C91EA
:100D700015971596DC93CE931497888182608883AB
:100D80000995988180FB90F9988388818D7F88836D
:100D9000EBA1FCA1158304830E94B81409811A8178
:100DA0002B813C810D831E832F833887DC01CB018F
:100DB000801B910BA20BB30B89879A87AB87BC87EB
:100DC00004C0888181608883E7CFDF91CF911F9134
:100DD0000F910895CF93DF93EC01988188818E7FE6
:100DE000888388818D7F888390FF03C0CE010E9415
:100DF00073148BA19CA1009769F11CA21BA2EF8D1B
:100E0000F8A1A9A1BAA1309799F4109749F4DC018F
:100E100011961C921E9213961C921E9212971AC043
:100E200090961C921E925F97FC01B183A08312C022
:100E3000109741F412A211A2DC011396FC93EE93D9
:100E4000129708C0B2A3A1A3A9A1BAA19096FC933E
:100E5000EE935F97DF91CF9108950E94B11CFC0142
:100E6000248135816217730748F48081918100974E
:100E700029F0FC01E60FF71F8081089580E00895B6
:100E800020915E0230915F022817390771F490912A
:100E90005D0280915C02981741F0E0915D02F0E004
:100EA000E15EFB4F808190E008958FEF9FEF089502
:100EB00008951F93CF93DF93DC015C968D919C91F5
:100EC0005D97009739F421E030E013963C932E9320
:100ED00012973BC05196ED91FC91529750962C91F0
:100EE0005097322F30951FB75E964C915E97742FB6
:100EF000727041FD6095F8944081772311F0422B88
:100F000001C043234083EC012197F1F748E0508171
:100F100060FF02C0522B01C053235083EC01219784
:100F2000F1F76695415099F78081772319F0832373
:100F3000808302C0282B20831FBF5C968D919C91DB
:100F40005D970197F1F781E090E0DF91CF911F91DC
:100F5000089520915E0230915F022817390771F4DD
:100F600080915C0220915D0290E0805C9F4F821B2B
:100F7000910960E470E00E949C1A089580E090E07E
:100F8000089520915E0230915F0228173907B9F465
:100F900090915D0280915C02981789F0E0915D026A
:100FA000F0E0E15EFB4F808120915D0230E02F5F39
:100FB0003F4F2F73332720935D0290E008958FEF0A
:100FC0009FEF08950F931F93CF93DF93EC018881D8
:100FD0008E7F888388818D7F888319861A861B86F9
:100FE0001C861D821E821F82188619821A821B820D
:100FF0001C8218A21F8E1AA219A21CA21BA21D8A53
:101000001E8A1F8A188E3A8F298F1C8E1B8E1E8E69
:101010001D8E49835A836B837C8389819A81AB813E
:10102000BC818D839E83AF83B8870E94B814698783
:101030007A878B879C878FEF9FEFDC018D879E8758
:10104000AF87B88B898B9A8BAB8BBC8B0115110545
:1010500001F18BA19CA108171907D9F01CA30BA3C0
:10106000D8018D919C911197892B29F4CD93DC9314
:1010700018A21F8E09C0D8011296ED91FC9113970A
:10108000F8A3EF8FD2A3C1A31AA219A2F801D383A8
:10109000C283CE01DF91CF911F910F910C949F06D7
:1010A000CF92DF92EF92FF920F931F93CF93DF9334
:1010B000EC016A017B010E94B814088119812A8120
:1010C0003B81DC01CB01801B910BA20BB30B11E028
:1010D000C816D906EA06FB0608F010E00E94B8140C
:1010E000688379838A839B83812FDF91CF911F91BE
:1010F0000F91FF90EF90DF90CF900895009769F0E7
:10110000FC0101900020E9F73197AF01481B590B12
:10111000BC0180E692E00C94E10B80E090E0089541
:101120008F929F92AF92BF920F931F93CF93DF93B3
:10113000CDB7DEB7A1970FB6F894DEBF0FBECDBF17
:1011400019A2423008F44AE08E010F5D1F4F842E31
:10115000912CA12CB12CA50194010E945F1AE62FBD
:10116000B901CA0101501109EA3014F4E05D01C06F
:10117000E95CD801EC93232B242B252B61F7C801C4
:101180000E947E08A1960FB6F894DEBF0FBECDBFB9
:10119000DF91CF911F910F91BF90AF909F908F9053
:1011A00008950F931F93CF93DF938C01C0E0D0E09D
:1011B000F801EC0FFD1F6491662341F080E692E098
:1011C0000E94780C892B11F02196F2CFCE01DF918D
:1011D000CF911F910F910895CF93DF930E94D10873
:1011E000EC018DED91E00E947E088C0F9D1FDF9138
:1011F000CF9108950F931F93CF93DF93EA010E943D
:10120000AF11811107C00E94B814688379838A8363
:101210009B8312C00E94B814088119812A813B81E6
:10122000AB01BC01401B510B620B730B81E04838D2
:1012300053416105710508F480E0DF91CF911F9162
:101240000F9108958F929F92AF92BF92CF92DF92AB
:10125000EF92FF920E9493144B015C0185E0C82E2F
:10126000D12CE12CF12C0E949314DC01CB018819C4
:101270009909AA09BB09883E9340A105B10598F3D5
:1012800021E0C21AD108E108F10888EE880E83E057
:10129000981EA11CB11CC114D104E104F10419F77A
:1012A000FF90EF90DF90CF90BF90AF909F908F9086
:1012B0000895CF93DF930E947E08EC018DED91E0BD
:1012C0000E947E088C0F9D1FDF91CF910895EF92B1
:1012D000FF920F931F93CF93DF937C0100E110E007
:1012E000C0E0D0E0D701ED91FC910190F081E02DBC
:1012F000C7010995C80FD91F0150110999F7CE01EF
:1013000024E0959587952A95E1F7DF91CF911F917C
:101310000F91FF90EF9008950F931F93CF93DF935A
:101320008C01D62FFC018589811102C0CBEF01C051
:10133000C5E06D2FC8010E94A0134C2F480F453BFC
:1013400008F044EB20E06D2FC801DF91CF911F9191
:101350000F910C94B0130F931F93CF93DF938C01D5
:10136000D62FFC018589882311F0CBEF01C0C5E0A1
:101370006D2FC8010E94A0134C2F480F453B08F069
:1013800044EB20E06D2FC801DF91CF911F910F91A9
:101390000C94B013CF93DF93682F70E080E090E05F
:1013A0004AE00E949008EC018DED91E00E947E08D9
:1013B0008C0F9D1FDF91CF9108951F93CF93DF93E3
:1013C000C82FD62F641710F4142F02C0162FD42F55
:1013D000C23051F0C33071F0C13091F46D2F86E00E
:1013E00090E00E94761112C06D2F88E090E00E947C
:1013F000761110C06D2F8AE090E00E9476110EC029
:10140000C23041F0C33051F0C13069F4612F87E040
:1014100090E007C0612F89E090E003C0612F8BE06E
:1014200090E00E9476118091140490911504212F70
:101430004D2F6C2F4896DF91CF911F910C947D1307
:10144000CF92DF92EF92FF92CF93DF936C01990FCF
:10145000EE08FF08F7FE13C06DE280E692E00E94FE
:10146000780CEC0166277727CB016C197D098E0972
:101470009F094AE00E949008C80FD91F06C04AE0A1
:10148000C701B6010E949008EC018DED91E00E9429
:101490007E088C0F9D1FDF91CF91FF90EF90DF9022
:1014A000CF900895CF92DF92EF92FF920F931F9308
:1014B000CF93DF93DC0112962C912223E1F08B0174
:1014C0007C01C0E0D0E0F80184819581C817D9077C
:1014D00090F4D701CD90DC90BE01C8010E942F0787
:1014E000D601ED91FC910190F081E02D682FC601AD
:1014F00009952196E8CFDF91CF911F910F91FF9031
:10150000EF90DF90CF900895FC01808191810C9441
:10151000621BEF92FF920F931F93CF93DF93EC0127
:10152000FB0104811581E080F180E114F104C9F030
:1015300001151105C9F08C819D81080F191FB80193
:10154000CE010E94F10C882361F0288139818C81C1
:101550009D81B701820F931F0E94BF1C1D830C83C6
:1015600003C0CE010E94180DCE01DF91CF911F91D3
:101570000F91FF90EF9008951F920F920FB60F9268
:1015800011242F933F934F935F936F937F938F9388
:101590009F93AF93BF93EF93FF93E0915E02F0911F
:1015A0005F02309709F451C0968DA685B785858571
:1015B00091FF04C09C91892329F447C09C91892301
:1015C00009F043C0A389B4899C91858980958923BA
:1015D0008C93868997890197F1F7608D718DA68527
:1015E000B785558538E020E0CB010197F1F7822FD0
:1015F00090E095958795282F4C91452309F0206818
:10160000315091F7868D81FD209580915C0290E0AC
:1016100001968F73992730915D02381749F0A09198
:101620005C02B0E0A15EBB4F2C9380935C0203C0D0
:10163000868D8160868F828D938D0197F1F7A389C6
:10164000B4899C918589892B8C93FF91EF91BF91EF
:10165000AF919F918F917F916F915F914F913F914A
:101660002F910F900FBE0F901F901895833081F02F
:1016700028F4813099F08230A1F008958730A9F0E4
:101680008830B9F08430D1F4809180008F7D03C020
:10169000809180008F7780938000089584B58F7744
:1016A00002C084B58F7D84BD08958091B0008F778E
:1016B00003C08091B0008F7D8093B00008951F9388
:1016C000CF93DF93282F30E0F901EC5EFD4F84913A
:1016D000F901E050FE4FD491F901E451FE4FC4915D
:1016E000CC23C1F0162F81110E94360BEC2FF0E0B5
:1016F000EE0FFF1FEE51FE4FA591B4919FB7F894E6
:10170000111104C08C91D095D82302C0EC91DE2B2E
:10171000DC939FBFDF91CF911F910895CF93DF930B
:1017200090E0FC01E050FE4F2491FC01E451FE4F9B
:101730008491882361F190E0880F991FFC01E852A1
:10174000FE4FC591D491FC01EE51FE4FA591B4918D
:10175000611109C09FB7F8948881209582238883FE
:10176000EC912E230BC0623061F49FB7F89488810E
:10177000322F309583238883EC912E2B2C939FBF9F
:1017800006C08FB7F894E8812E2B28838FBFDF9196
:10179000CF9108958E3008F08E50877080648093CA
:1017A0007C0080917A00806480937A0080917A0036
:1017B00086FDFCCF809178002091790090E0922BFB
:1017C0000895CF92DF92EF92FF920F931F93CF93E2
:1017D000DF936C017A018B01C0E0D0E0CE15DF050C
:1017E00081F0D8016D918D01D601ED91FC910190B0
:1017F000F081E02DC6010995892B11F02196EECFDD
:101800007E01C701DF91CF911F910F91FF90EF9063
:10181000DF90CF900895089580E090E00895FC0156
:10182000538D448D252F30E0842F90E0821B930B45
:10183000541710F0CF96089501970895FC01918DEB
:10184000828D981761F0828DDF01A80FB11D5D9622
:101850008C91928D9F5F9F73928F90E008958FEF90
:101860009FEF0895FC01918D828D981731F0828D44
:10187000E80FF11D858D90E008958FEF9FEF08959B
:10188000FC01918D228D892F90E0805C9F4F821BFF
:1018900091098F739927089580E692E00E94400C89
:1018A00021E0892B09F420E0822F0895FC01848D2A
:1018B000DF01A80FB11DA35ABF4F2C91848D90E07A
:1018C00001968F739927848FA689B7892C93A08955
:1018D000B1898C91837080648C93938D848D9813DF
:1018E00006C00288F389E02D80818F7D8083089572
:1018F000EF92FF920F931F93CF93DF93EC0181E060
:10190000888F9B8D8C8D981305C0E889F98980811B
:1019100085FD26C0F62E0B8D10E00F5F1F4F0F7355
:101920001127E02E8C8DE8120CC00FB607FCFACF01
:10193000E889F989808185FFF5CFCE010E94560C98
:10194000F1CF8B8DFE01E80FF11DE35AFF4FF082BE
:101950009FB7F8940B8FEA89FB89808180620AC067
:101960009FB7F894EE89FF896083E889F9898081BF
:101970008370806480839FBF81E090E0DF91CF918E
:101980001F910F91FF90EF900895CF93DF93EC019B
:10199000888D8823C9F0EA89FB89808185FD05C08F
:1019A000A889B9898C9186FD0FC00FB607FCF5CFC9
:1019B000808185FFF2CFA889B9898C9185FFEDCF11
:1019C000CE010E94560CE7CFDF91CF91089580E0C1
:1019D00090E0892B29F00E944C0C81110C9400009E
:1019E00008950F931F93CF93DF93EC018881998122
:1019F000009729F02A813B812617370788F48B014D
:101A00006F5F7F4F0E94EB1B009761F09983888383
:101A10001B830A832C813D81232B11F4FC0110824E
:101A200081E001C080E0DF91CF911F910F91089577
:101A3000CF93DF93EC0188819981009711F00E9488
:101A4000621B198218821D821C821B821A82DF91FE
:101A5000CF910895EF92FF920F931F93CF93DF934F
:101A6000EC0186179707C1F0FB0100811181011578
:101A7000110539F0E480F580B7010E94F10C811165
:101A800004C0CE010E94180D07C0FD82EC82B8018F
:101A9000888199810E94BF1CCE01DF91CF911F9157
:101AA0000F91FF90EF900895EF92FF920F931F9385
:101AB000CF93DF93EC01198218821B821A821D8258
:101AC0001C826115710521F18B01FB010190002041
:101AD000E9F731977F01E61AF70AB7010E94F10C86
:101AE000811109C0CE01DF91CF911F910F91FF901D
:101AF000EF900C94180DFD82EC82B80188819981D9
:101B0000DF91CF911F910F91FF90EF900C94BF1C2C
:101B1000DF91CF911F910F91FF90EF9008951F9249
:101B20000F920FB60F9211242F933F934F935F9311
:101B30006F937F938F939F93AF93BF93EF93FF9395
:101B400080E692E00E94560CFF91EF91BF91AF9119
:101B50009F918F917F916F915F914F913F912F91C5
:101B60000F900FBE0F901F9018951F920F920FB6F7
:101B70000F9211242F938F939F93EF93FF93E091F4
:101B80007002F09171028081E0917602F09177020B
:101B900082FD12C09081809179028F5F8F732091B6
:101BA0007A02821751F0E0917902F0E0E05AFD4F9D
:101BB000958F8093790201C08081FF91EF919F9171
:101BC0008F912F910F900FBE0F901F9018958F92AD
:101BD0009F92AF92BF92CF92DF92EF92FF92FC0161
:101BE000828128E532E06901C81AD10887FDD394C3
:101BF000CC0CDD1CCC0CDD1C0D2C000CEE08FF0801
:101C0000818128E830E04901881A910887FD939482
:101C1000880C991C880C991C092C000CAA08BB087C
:101C2000E081EF3FA9F088E0E89FF0011124EF592F
:101C3000FB4F2181328183E0220F331F8A95E1F728
:101C400094E0369527959A95E1F72E5F3F4F02C0B5
:101C500020E030E02F5F3F4FC901330FAA0BBB0BD1
:101C60009C01AD01281939094A095B09A4EBB0E0D0
:101C70000E94151AA7019601281939094A095B091A
:101C80000E94F619C901FF90EF90DF90CF90BF90AE
:101C9000AF909F908F9008950F931F93CF93DF93F2
:101CA0008C01DC01EC91B8E0EB9FF0011124EF59BD
:101CB000FB4FC381D481C03282E0D80784F4C801CD
:101CC0000E94E70DC817D90711F10E942209F7CF2A
:101CD00080E090E0C817D907D1F00E942209D8010E
:101CE000EC91EF3FA9F3B8E0EB9FF0011124EF591D
:101CF000FB4F8181928123E0880F991F2A95E1F79C
:101D000034E0969587953A95E1F70296E3CFDF9117
:101D1000CF911F910F9108958F929F92AF92BF9292
:101D2000EF92FF920F931F93CF93DF937C01142FB9
:101D3000FC010081F8E00F9FE0011124FE01EF5942
:101D4000FB4F74836383442309F471C0603282E0E3
:101D500078070CF03FC0CB01653B710514F084EBB4
:101D600090E0F7012181A8E8B0E04D01821A9108C6
:101D700027FD9394D401AA0FBB1FAA0FBB1F4D01CF
:101D8000BB0FAA08BB08428128E532E0241B3109B9
:101D900047FD3395220F331F220F331FA901330F45
:101DA000660B770B9A01AB01281939094A095B09BF
:101DB000DC0197FF02C0A0E0B0E00E94201A24EBF3
:101DC00030E040E050E00E94F619820E931EA41EFF
:101DD000B51EB4010C3008F09FC0F701218188E8DE
:101DE00090E0821B910927FD9395880F991F880F1A
:101DF000991F681779077CF0228188E592E0821BA1
:101E0000910927FD9395880F991F880F991F6817CF
:101E100079070CF4CB012FB7F894CF59DB4F029719
:101E2000880F991F9E838D831F832FBF75C06032DB
:101E3000F2E07F070CF03FC0CB01653B710514F069
:101E400084EB90E0F7012181A8E8B0E04D01821A0F
:101E5000910827FD9394D401AA0FBB1FAA0FBB1FA3
:101E60004D01BB0FAA08BB08428128E532E0241BC4
:101E7000310947FD3395220F331F220F331FA9016C
:101E8000330F660B770B9A01AB01281939094A0900
:101E90005B09DC0197FF02C0A0E0B0E00E94201ABD
:101EA00024EB30E040E050E00E94F619820E931ED1
:101EB000A41EB51EB401FE01EF59FB4F748363836A
:101EC0000C3050F5F701218188E890E0821B9109E0
:101ED00027FD9395880F991F880F991F6817790719
:101EE00084F0828128E532E0281B310987FD339593
:101EF000220F331F220F331FCB01261737070CF495
:101F0000C9012FB7F894CF59DB4F0297880F991F5B
:101F10009A8389832FBF1F82DF91CF911F910F91E9
:101F2000FF90EF90BF90AF909F908F9008951F9378
:101F3000CF93DF93EC01162F88818C3008F048C0D6
:101F400061E0812F0E948E0B888198E0899FF001CB
:101F50001124EF59FB4F1F739081907C192B108334
:101F600019821A826CE00E94901A9CE0899FA0015D
:101F7000112420E030E0FA01E20FF31F93E0EE0FAE
:101F8000FF1F9A95E1F7EF59FB4F908196FD16C020
:101F90002F5F3F4F2C30310571F781110FC0109228
:101FA000800082E08093810010928500109284006E
:101FB000B19A80916F00826080936F00E88188E021
:101FC000E89FF0011124EF59FB4F808180648083EA
:101FD0008881DF91CF911F910895DC01E091600429
:101FE000EC30C8F481E08E0F80936004EC9388E0BD
:101FF000E89FF0011124EF59FB4F88EB9BE092839F
:10200000818315961C92159780E091E014969C931D
:102010008E93139708958FEF8C9308951F920F92CC
:102020000FB60F9211242F933F934F935F936F93AB
:102030007F938F939F93AF93BF93EF93FF93809181
:102040005F0487FF05C0109285001092840016C0BF
:1020500020915F04022E000C330B8091600490E00D
:10206000281739075CF4E0915F0428E0E202F001F0
:102070001124EF59FB4F808186FD15C080915F04CC
:102080008F5F80935F0420915F04022E000C330B5E
:102090008091600490E0281739079CF480915F04D8
:1020A0008C3034F10EC0E0915F0428E0E202F001D0
:1020B0001124EF59FB4F808160E08F730E945F0B0A
:1020C000DDCF809184009091850084349C4918F480
:1020D00080E49CE905C0809184009091850004967D
:1020E00090938900809388008FEF80935F04EDC008
:1020F000E0915F0488E0E802F0011124EF59FB4F02
:102100008781882309F4B5C0A0915F04E0915F0442
:1021100088E0A802D0011124AF59BB4F28E0E202A9
:10212000F0011124EF59FB4F15962D913C91169714
:1021300081819281A0915F04E0915F0482179307EF
:1021400008F04BC088E0E802F0011124EF59FB4F82
:1021500028E0A202D0011124AF59BB4F17962C9151
:1021600081819281820F911D92838183A0915F046E
:10217000E0915F0488E0A802D0011124AF59BB4F61
:1021800028E0E202F0011124EF59FB4F15962D9142
:102190003C911697818192818217930708F469C058
:1021A000E0915F04A0915F0488E0E802F00111244F
:1021B000EF59FB4F28E0A202D0011124AF59BB4FC9
:1021C00015968D919C91169792838183E0915F047F
:1021D00088E0E802F001112449C028E0E202F001A1
:1021E0001124EF59FB4F88E0A802D0011124AF5908
:1021F000BB4F17962C9181819281821B910992830A
:102200008183A0915F04E0915F0428E0A202D001E5
:102210001124AF59BB4F88E0E802F0011124EF59B7
:10222000FB4F15962D913C9116978181928128172D
:102230003907F8F0E0915F04A0915F0428E0E20222
:10224000F0011124EF59FB4F88E0A802D0011124BE
:10225000AF59BB4F15968D919C91169792838183B0
:10226000E0915F0428E0E202F0011124EF59FB4FF6
:1022700017822091840030918500E0915F0488E00E
:10228000E802F0011124EF59FB4F81819281820F06
:10229000931F9093890080938800E0915F0428E069
:1022A000E202F0011124EF59FB4F808186FF0DC03F
:1022B000E0915F0488E0E802F0011124EF59FB4F40
:1022C000808161E08F730E945F0BFF91EF91BF915E
:1022D000AF919F918F917F916F915F914F913F91BE
:1022E0002F910F900FBE0F901F9018951F93CF93B3
:1022F000DF93EC01162F0E94E019181739F0612FB7
:10230000CE01DF91CF911F910C94E819DF91CF910D
:102310001F9108951F93CF93DF93EC01172F0E9415
:102320007611612FCE010196DF91CF911F910C9410
:1023300076110C94E0191F93CF93DF93EC010E9468
:102340009911182FCE0101960E94991190E0982FB3
:102350008827810F911DDF91CF911F910895CF9311
:10236000DF938CEE860F823048F4862F0E94CA0BD2
:1023700021E0883C91055CF120E029C070E0FB0180
:10238000EC5EFD4F8491FB01E050FE4FD491FB01C8
:10239000E451FE4FC491CC23A1F081110E94360B71
:1023A000EC2FF0E0EE0FFF1FE853FE4FA591B49124
:1023B000EC91ED2331E020E009F430E0832F922FFF
:1023C00002C080E090E021E08227282F2170822F38
:1023D000DF91CF9108950F931F93CF93DF9300D098
:1023E00000D000D0CDB7DEB78C01411586E9580783
:1023F0006105710509F45EC038F5403CF2E15F0704
:102400006105710509F450C080F4403BE4E05E07CB
:102410006105710509F445C04036594061057105F3
:1024200009F066C069EE71E053C0403885E2580794
:1024300061057105E1F141155B446105710509F024
:1024400057C064E072E044C04115F4E85F07F3E070
:102450006F077105A9F178F44115E1EE5E0761059A
:10246000710559F14115524C6140710509F040C0A8
:102470006FE172E02DC0411580E158078EE06807DA
:10248000710509F14115E8E15E07E5E16E077105A7
:10249000E9F040315F426740710551F561E372E058
:1024A00017C060EE71E014C062EF71E011C06BEF15
:1024B00071E00EC06DE072E00BC066E172E008C032
:1024C00068E272E005C06AE372E002C063E472E0B1
:1024D000CE0101960E94540DBE016F5F7F4FF8013F
:1024E000828193810E94520ACE0101960E94840A41
:1024F00026960FB6F894DEBF0FBECDBFDF91CF9109
:102500001F910F910895EF92FF920F931F93CF9316
:10251000DF93CDB7DEB72C970FB6F894DEBF0FBEB2
:10252000CDBF8C017B016CE472E0CE0101960E946C
:10253000540DB701CE0101960E94890A18861F82A8
:102540001A8619861C861B86BC01CE0107960E943E
:102550002A0DBE01695F7F4FF801828193810E943D
:10256000520ACE0107960E94840ACE0101960E946B
:10257000840A2C960FB6F894DEBF0FBECDBFDF9154
:10258000CF911F910F91FF90EF900895AF92BF925E
:10259000CF92DF92EF92FF920F931F93CF93DF932F
:1025A000CDB7DEB762970FB6F894DEBF0FBECDBFD2
:1025B0006C015B016FED71E0CE010D960E94540D30
:1025C00000E010E0B801C5010E942F079FEC980FB2
:1025D000993010F010E049C089831A82E988FA889E
:1025E000FFEFEF1AFF0AB701CE010D960E94F10C22
:1025F000882369F02D853E8589899A89BE016F5FA0
:102600007F4F820F931F0E94BF1CFA8AE98A0F5FD7
:102610001F4F04301105B1F664E572E0CE0101965A
:102620000E94540DBE01635F7F4FCE0101960E9450
:10263000890A18861F821A8619861C861B86BC0189
:10264000CE0107960E942A0DBE01695F7F4FF601F9
:10265000828193810E94520ACE0107960E94840AC9
:10266000CE0101960E94840A11E0CE010D960E94CF
:10267000840A812F62960FB6F894DEBF0FBECDBFDD
:10268000DF91CF911F910F91FF90EF90DF90CF904E
:10269000BF90AF900895FC0182810C94CA0B1F93E8
:1026A000CF93DF93EC016A810E94AF11182F8E81C6
:1026B000181739F00E94B814688B798B8A8B9B8B22
:1026C0001E83812FDF91CF911F9108951F93CF9388
:1026D000DF93EC0168810E94AF11182F8C811817CD
:1026E00039F00E94B814688779878A879B871C8392
:1026F000812FDF91CF911F910895FC01453B08F098
:1027000044EB253B08F024EB822F421708F4842F7A
:10271000241708F4242F9589911103C0982F822F34
:10272000292F623039F0633041F0613041F4228F5B
:10273000838F0895248F858F0895268F878F08951E
:10274000623031F0633031F0613041F4099603C0FA
:10275000039601C00F960E94E70D08958FEF08952C
:102760000F931F93CF93FC01C22F623041F063306F
:1027700051F06130C9F48C01075F1F4F07C08C0115
:102780000D5F1F4F03C08C01015F1F4F642F70E06E
:10279000418DC8010E948C0ECC2331F0C801CF912D
:1027A0001F910F910C944C0ECF911F910F91089592
:1027B0000F931F93CF93FC01942F623039F0633055
:1027C00009F43EC0613009F057C017C087898111F4
:1027D00053C0458D348D842F341708F4832F9817F8
:1027E00048F0842F431708F4832F482F981718F4C4
:1027F000492F01C0482F62E039C0868981113CC051
:10280000338D828D632F831708F4682F961738F065
:10281000632F381708F4682F961708F4692FC22F12
:102820008F01075F1F4F70E0418DC8010E948C0E21
:10283000CC2311F1C801CF911F910F910C944C0E34
:10284000808D811119C0478D368D842F341708F47F
:10285000832F981748F0842F431708F4832F482FAD
:10286000981718F4492F01C0482F63E0CF01CF918A
:102870001F910F910C94B013CF911F910F91089558
:10288000CF93DF93EC016D8B2B8D4A8D61E00E941D
:102890007D132D8D4C8D62E0CE010E947D132F8D16
:1028A0004E8D63E0CE01DF91CF910C947D130F9399
:1028B0001F93CF93DF938C0183E090E00E94CA1AAC
:1028C000EC01F80187812AE531E0398328838A8386
:1028D00060E00E948E0BF801D183C083DF91CF911D
:1028E0001F910F9108950F931F93CF93DF93DC01F6
:1028F0005D96ED91FC915E97309781F0EC01ABA174
:10290000BCA114960D911C91159715969C938E93CE
:1029100014970995EBA1FCA115830483DF91CF9156
:102920001F910F9108953FB7F8948091C60490913C
:10293000C704A091C804B091C90426B5A89B05C0DE
:102940002F3F19F00196A11DB11D3FBFBA2FA92F2E
:10295000982F8827820F911DA11DB11DBC01CD01AB
:1029600042E0660F771F881F991F4A95D1F7089597
:102970002FB7F8946091C2047091C3048091C4048D
:102980009091C5042FBF08951F920F920FB60F921A
:1029900011242F933F938F939F93AF93BF93809175
:1029A000C2049091C304A091C404B091C5043091B5
:1029B000C10423E0230F2D3720F40196A11DB11D82
:1029C00005C026E8230F0296A11DB11D2093C10466
:1029D0008093C2049093C304A093C404B093C5042D
:1029E0008091C6049091C704A091C804B091C90415
:1029F0000196A11DB11D8093C6049093C704A093B6
:102A0000C804B093C904BF91AF919F918F913F913A
:102A10002F910F900FBE0F901F901895CF93DF93BB
:102A200000D000D0CDB7DEB7789484B5826084BD85
:102A300084B5816084BD85B5826085BD85B58160C2
:102A400085BD80916E00816080936E001092810040
:102A500080918100826080938100809181008160FB
:102A600080938100809180008160809380008091BC
:102A7000B10084608093B1008091B0008160809348
:102A8000B00080917A00846080937A0080917A000F
:102A9000826080937A0080917A00816080937A00CE
:102AA00080917A00806880937A001092C100E09152
:102AB0007002F091710282E08083E0916C02F091EB
:102AC0006D021082E0916E02F0916F028FEC8083B4
:102AD00010927802E0917402F091750286E0808392
:102AE000E0917202F0917302808180618083E091B5
:102AF0007202F0917302808188608083E09172029B
:102B0000F0917302808180688083E0917202F0917D
:102B1000730280818F7D808382ED91E00E94EC08BA
:102B200061E080919F030E948E0B61E08091A00381
:102B30000E948E0B61E08091A1030E948E0B82E3C4
:102B40008093B80360919F0370E082EA93E00E9453
:102B5000970F6091A00370E088EA93E00E94970FBE
:102B60006091A10370E08EEA93E00E94970F2BE43E
:102B70004FE061E08FE993E00E947D132BE44FE08A
:102B800062E08FE993E00E947D132BE44FE063E065
:102B90008FE993E00E947D1362E0809187030E9499
:102BA0008E0B62E0809188030E948E0B62E0809120
:102BB00089030E948E0B62E080918A030E948E0B33
:102BC0001092C1038FEB93E00E94571461E0809153
:102BD000CC030E948E0B8FE190E00E94CA1A8C01F8
:102BE000F090CA03E090CB03DC0113961C921E9276
:102BF000129788EE93E0A0E0B0E0F801848395831B
:102C0000A683B7838EE091E091838083178A168A2A
:102C1000118E108E138E128E158E148E668D6E7F11
:102C20006D7F668F6695617081E068278F2D0E94A9
:102C30005F0B61E08F2D0E948E0B8F2D90E0FC01C9
:102C4000E050FE4FE491D8015096EC93FC01E45122
:102C5000FE4FE491F0E0EE0FFF1FEE51FE4F859125
:102C60009491F801928B818B60E08E2D0E948E0BE7
:102C7000D8015E968C9181FD04C061E08E2D0E948A
:102C80005F0BF801E4868E2D90E0FC01E050FE4FD2
:102C9000E491D8011D96EC931D97FC01E451FE4F81
:102CA000E491F0E0EE0FFF1FE853FE4F25913491C1
:102CB000F801378726871093CE030093CD03138E38
:102CC000128E118E108E178A168A25E630E0358F07
:102CD000248FF5E1FE1508F458C021E230E0579644
:102CE0003C932E93569723E630E059963C932E93CF
:102CF000589722E430E05B963C932E935A9750917C
:102D00006800B7E0BE1560F441E0EDE0EE1508F0B4
:102D100040E031E0232F01C0220F4A95EAF701C0BD
:102D200024E0252B20936800F7E0FE1530F42DE019
:102D30002E1530F42CE630E005C02DE630E002C060
:102D40002BE630E0D80154963C932E935397B7E08E
:102D5000BE1530F081E001C0880FEA94EAF70EC09A
:102D6000EDE09C01EE1518F02850310902C02E50FC
:102D7000310981E001C0880F2A95EAF7D8015596FC
:102D80008C9385E690E00197F1F7F801828D938DA1
:102D9000892B49F1E0915E02F0915F020E171F0747
:102DA00011F1309739F0A389B4899C918589809578
:102DB00089238C93D8015E968C915E978E7F5E9668
:102DC0008C935E9710925C0210925D0210935F02EA
:102DD00000935E025396ED91FC9154979081559625
:102DE0008C91892B808383E090E00E94CA1A7C0139
:102DF00007E813E08091CD039091CE03F701128292
:102E000091838083F092D203E092D10384E090E03A
:102E10000E94CA1ADC011396FC92EE92129720E2ED
:102E200031E02D933C939093D0038093CF03109285
:102E3000D3031092D4031092D5031092D60360E00E
:102E40008091CC030E945F0B1092D7031093E30391
:102E50000093E2031093E5030093E4031093090445
:102E60000093080410930B0400930A0410930D04BC
:102E700000930C0419821A821B821C82FE01319677
:102E80007F0100E010E06F01C8010E94E019D70146
:102E90008D937D010F5F1F4F04301105A9F76981E4
:102EA0007A818B819C8120E03DEC4BE257E40E94CB
:102EB000B719811168C000910C0410910D0484E0D1
:102EC00090E00E94991161E0813309F060E0C8014F
:102ED00048960E94401400910C0410910D0486E065
:102EE00090E00E949911F82E87E090E00E949911DD
:102EF000282F4F2D61E0C80148960E947D13009154
:102F00000C0410910D0488E090E00E949911F82EB5
:102F100089E090E00E949911282F4F2D62E0C801AE
:102F200048960E947D1300910C0410910D048AE0D4
:102F300090E00E949911F82E8BE090E00E94991188
:102F4000282F4F2D63E0C80148960E947D13A09062
:102F50000C04B0900D048CE090E00E949911182FA1
:102F60008DE090E00E949B116C018FE090E00E9448
:102F70009B117C01C501C896F50112AF111154C017
:102F80000E94571451C061E384E090E00E947611E2
:102F90006FE086E090E00E9476116BE487E090E0BD
:102FA0000E9476116FE088E090E00E9476116BE459
:102FB00089E090E00E9476116FE08AE090E00E9444
:102FC00076116BE48BE090E00E94761160E08CE07B
:102FD00090E00E94761160E070E08DE090E00E9449
:102FE0008A116FEF73E08FE090E00E948A1180E019
:102FF0009DECABE2B7E489839A83AB83BC83760113
:1030000000E010E0D701DD907D01C8010E94E019C9
:10301000D81621F06D2DC8010E94E8190F5F1F4FCF
:103020000430110579F747CF87E893E0E0910C046D
:10303000F0910D04D4AEC3AEF6AEE5AE90930F049E
:1030400080930E04909315048093140461E08FE93B
:1030500093E00E94401461E384E090E00E947611C6
:103060001092C1038FEB93E00E94571460E08CE054
:1030700090E00E94761185E793E0B3E08E379B07DE
:1030800021F09093860380938503E0918503F0916E
:103090008603309709F016828CE693E0E3E08537EB
:1030A0009E0721F090937D0380937C03E0917C0345
:1030B000F0917D03309709F016820EE713E0D801F6
:1030C000ED90FC90E114F10439F0C7010E949F06D5
:1030D000F701E1A0F2A0F6CFD80117960D911C914F
:1030E00018970115110559F78EE793E00E94DE0548
:1030F0000E94E70CF9CFEF92FF920F931F93CF93AB
:10310000DF93E0E6F2E01382128288EE93E0A0E023
:10311000B0E084839583A683B78388E491E09183AC
:10312000808385EC90E09587848784EC90E0978796
:10313000868780EC90E0918B808B81EC90E0938B84
:10314000828B82EC90E0958B848B86EC90E0978B61
:10315000868B118E128E138E148EC7E8D3E01C82DC
:103160001D821E821F82188619861A861B861C865F
:103170001D861E861F86188A198A1A8A1B8A1C8A2F
:103180001D8A1E8A1F8A84E1888385E189838EE0F7
:103190008A838AE08B8382EA93E00E94ED0F88EABB
:1031A00093E00E94ED0F8EEA93E00E94ED0F11E094
:1031B0001DA71EA61FA618AA82E389AB85E0888FEB
:1031C00089E0898F86E08A8F1CAE1BAEEE24EA94DC
:1031D00083E0F82EFEAEEDAE8FE08FAF8FEF8093E1
:1031E000C7038093C9031092D3031092D4031092A3
:1031F000D5031092D6031092D7038093CA0380930D
:10320000CB038093CC0381E090E00E94CA1A909394
:10321000D9038093D8031092E1031092E003109237
:10322000E6031092E7031092E8031092E90310926C
:10323000EA031092EB031092EC031092ED0310924C
:10324000EE031092EF031092F0031092F10310922C
:10325000F2031092F3031092F4031092F50310920C
:10326000F6031092F7031092F8031092F9031092EC
:10327000FA031092FB031092FC031092FD031092CC
:10328000FE031092FF0310920004109201041092AA
:103290000204109203041092040410920504109288
:1032A000060410920704F0921104E09210041092A8
:1032B0001304109212041092160410921804109223
:1032C0001704EEE7F3E01182108213821282158256
:1032D0001482108617821683E5E7F3E011821082CC
:1032E0001382128215821482108617821683ECE6EE
:1032F000F3E01182108213821282158214821086EA
:10330000178216830EE713E02AEE33E044E650E01E
:1033100060E070E087E493E00E94E20728E333E096
:103320004AE050E060E070E082E293E00E94E20751
:103330000CE613E020E431E042E350E060E070E0AE
:103340008DEF92E00E94E207DF91CF911F910F91E4
:10335000FF90EF9008958DEF92E00E94EA0682E2DE
:1033600093E00E94EA0687E493E00C94EA060E9448
:10337000BC1908F481E00895990F0008550FAA0BB5
:10338000E0E8FEEF16161706E807F907C0F0121678
:103390001306E407F50798F0621B730B840B950B7B
:1033A00039F40A2661F0232B242B252B21F40895D0
:1033B0000A2609F4A140A6958FEF811D811D08956D
:1033C000F999FECF92BD81BDF89A992780B50895ED
:1033D000262FF999FECF1FBA92BD81BD20BD0FB631
:1033E000F894FA9AF99A0FBE01960895052E97FB64
:1033F0001EF400940E940D1A57FD07D00E945F1A18
:1034000007FC03D04EF40C940D1A5095409530955E
:1034100021953F4F4F4F5F4F089590958095709540
:1034200061957F4F8F4F9F4F08950E94811AA59FEE
:10343000900DB49F900DA49F800D911D11240895AF
:10344000B7FF0C94151A0E94151A821B930B08954E
:103450002F923F924F925F926F927F928F929F92A4
:10346000AF92BF92CF92DF92EF92FF920F931F9392
:10347000CF93DF93CDB7DEB7CA1BDB0B0FB6F89443
:10348000DEBF0FBECDBF09942A88398848885F8483
:103490006E847D848C849B84AA84B984C884DF80F4
:1034A000EE80FD800C811B81AA81B981CE0FD11DD8
:1034B0000FB6F894DEBF0FBECDBFED010895A1E2B7
:1034C0001A2EAA1BBB1BFD010DC0AA1FBB1FEE1F9E
:1034D000FF1FA217B307E407F50720F0A21BB30BE9
:1034E000E40BF50B661F771F881F991F1A9469F765
:1034F00060957095809590959B01AC01BD01CF01C1
:103500000895A29FB001B39FC001A39F700D811DBC
:103510001124911DB29F700D811D1124911D0895DC
:10352000991B79E004C0991F961708F0961B881F15
:103530007A95C9F78095089597FB072E16F40094A5
:1035400007D077FD09D00E94B01A07FC05D03EF4E1
:10355000909581959F4F0895709561957F4F08953F
:10356000AA1BBB1B51E107C0AA1FBB1FA617B707A9
:1035700010F0A61BB70B881F991F5A95A9F78095C5
:103580009095BC01CD010895EE0FFF1F0590F491B9
:10359000E02D09940F931F93CF93DF938230910511
:1035A00010F482E090E0E091CC04F091CD0420E0B2
:1035B00030E0A0E0B0E0309719F140815181028104
:1035C000138148175907C8F08417950769F41097B5
:1035D00031F012960C93129713961C9327C0009308
:1035E000CC041093CD0422C02115310519F04217E7
:1035F000530718F49A01BD01EF01DF01F801DBCF99
:1036000021153105F9F0281B390B2430310580F4E0
:103610008A819B816115710521F0FB01938382836F
:1036200004C09093CD048093CC04FE01329644C034
:10363000FE01E20FF31F81939193225031093983E8
:1036400028833AC02091CA043091CB04232B41F443
:1036500020910601309107013093CB042093CA04D6
:1036600020910401309105012115310541F42DB758
:103670003EB74091080150910901241B350BE091A0
:10368000CA04F091CB04E217F307A0F42E1B3F0B02
:103690002817390778F0AC014E5F5F4F24173507C4
:1036A00048F04E0F5F1F5093CB044093CA048193A0
:1036B000919302C0E0E0F0E0CF01DF91CF911F9144
:1036C0000F910895CF93DF93009709F481C0FC0117
:1036D000329713821282A091CC04B091CD0410973E
:1036E00081F420813181820F931F2091CA0430918F
:1036F000CB042817390751F5F093CB04E093CA04A3
:1037000067C0ED0120E030E0CE17DF0740F44A81CA
:103710005B819E0141155105F1F0EA01F5CFD3839C
:10372000C28340815181840F951FC817D90759F46E
:1037300088819981840F951F0296918380838A8165
:103740009B81938382832115310529F4F093CD0465
:10375000E093CC043DC0E901FB83EA834991599190
:10376000C40FD51FEC17FD0761F480819181840F90
:10377000951F0296E90199838883828193819B83B7
:103780008A83E0E0F0E012968D919C911397009768
:1037900019F0FD01DC01F7CF8D919C9111979D01EE
:1037A0002E5F3F4F820F931F2091CA043091CB04AC
:1037B0002817390769F4309729F41092CD04109234
:1037C000CC0402C013821282B093CB04A093CA042B
:1037D000DF91CF910895A0E0B0E0E1EFFBE10C9420
:1037E0002C1AEC01009721F4CB010E94CA1AB4C034
:1037F000FC01E60FF71F9C0122503109E217F30785
:1038000008F4A8C0D9010D911C911197061717074C
:10381000B0F00530110508F49BC0C8010497861765
:10382000970708F495C002501109061B170B019366
:1038300011936D937C93CF010E94621B89C05B0141
:10384000A01AB10A4C01800E911EA091CC04B09137
:10385000CD04612C712CE12CF12C109709F446C099
:103860008D919C911197A815B905B1F56C0142E0B5
:10387000C40ED11CCA14DB0478F14C018A189B08D1
:10388000640142E0C40ED11C1296BC9012971396AC
:10389000AC91B5E0CB16D10440F0B282A383918203
:1038A0008082D9016D937C9309C00E5F1F4F800FFA
:1038B000911FF90191838083EB2DFA2FE114F1041C
:1038C00031F0D7011396FC93EE93129741C0F09319
:1038D000CD04E093CC043CC06816790608F43C01A2
:1038E0007D0112960D90BC91A02DB7CF8091CA0496
:1038F0009091CB0488169906E1F466167706C8F411
:103900008091040190910501009741F48DB79EB715
:103910004091080150910901841B950BE817F907A4
:10392000C8F4F093CB04E093CA04F9017183608377
:103930000FC0CB010E94CA1A7C01009759F0A80160
:10394000BE010E94B61CCE010E94621BC70104C0CA
:10395000CE0102C080E090E0CDB7DEB7EEE00C947F
:10396000481A81E090E0F8940C94C61CFB01DC013D
:1039700002C001900D9241505040D8F70895FB01CC
:10398000DC0101900D920020E1F7089511E0C5E1FE
:10399000D1E004C0FE010E94C41A2196C631D107AD
:0639A000C9F7F894FFCF07
:1039A60000642D640000CE0480000000000059076A
:1039B600E10B0C0C5807A907C107400700000000DF
:1039C6008312C612EB11000000002D07E10B0C0C50
:1039D6000B0C2D072D072D07000000002D07E10B0E
:1039E6000C0C0B0C00000000780CE10B0F0CC50C46
:1039F600400C1E0C320C000000004B132D2D2D2DFB
:103A06002D2D2D2D2D2D2D2D2D2D2D2D2D2D2D2DE0
:103A16002D2D2D2D2D0053656E736F722043616C15
:103A26006962726174696F6E2046696E6973686552
:103A36006400526573756C7473203A200053656E8A
:103A4600736F724D696E203D200053656E736F7201
:103A56004D6178203D20002D2D2D2D2D2D2D2D2D28
:103A66002D2D2D2D2D2D2D2D2D2D2D2D2D2D2D2D80
:103A76000A005269676874004C656674000D0A0096
:103A860041542B42415544310041542B4241554447
:103A9600320041542B42415544330041542B42419C
:103AA6005544340041542B42415544350041542B72
:103AB60042415544360041542B424155443700415A
:103AC600542B42415544380041542B424155443908
:103AD6000041542B42415544410041542B4241552B
:103AE60044420041542B42415544430041542B4E1D
:0C3AF600414D450041542B50494E00004A
:00000001FF
