:100000000C945B010C9483010C9483010C94EA0F13
:100010000C94EA0F0C94EA0F0C9483010C94830166
:100020000C9483010C9483010C9483010C945D0B5C
:100030000C9483010C9483010C9483010C94830130
:100040000C9426080C9483010C9496080C94700868
:100050000C9483010C9483010C9483010C94830110
:100060000C9483010C948301457874726120507262
:10007000657373656400537461727420536572769E
:100080006F732043616C696200457874726120501F
:10009000726573736564204C6F6E6700436C6F7399
:1000A00065205468756D62004F70656E20546875E8
:1000B0006D62005468756D6220507265737365647B
:1000C000005468756D622050726573736564204CCE
:1000D0006F6E6700556E6C6F636B2046696E676567
:1000E0007273004C6F636B2046696E6765727300B4
:1000F0004C6F636B2050726573736564006E657737
:100100002048616E642074797065203D20004C6F3A
:10011000636B2050726573736564204C6F6E67006B
:1001200053746172742053656E736F722043616CF7
:1001300069620043616C6962205072657373656423
:10014000204C6F6E670043616C696220507265736A
:10015000736564004D61785468756D62203D2000C0
:100160004D696E5468756D62203D20004D61784682
:10017000696E67657273203D20004D696E46696E39
:1001800067657273203D20004D6178496E64657823
:10019000203D20004D696E496E646578203D200049
:1001A000536572766F732043616C69622046696E95
:1001B0006973686564004E6578742043616C696298
:1001C00020537465700053656E736F724D617820B3
:1001D0003D200053656E736F726D696E203D200087
:1001E00053656E736F7254797065203D20004D61C8
:1001F0007846696E67657273203D20004D617849CD
:100200006E646578203D20004D61785468756D629C
:10021000203D20004D696E46696E67657273203D12
:1002200020004D696E496E646578203D20004D695F
:100230006E5468756D62203D200048616E64203DFB
:1002400020000A454550524F4D20434F4E54454ED5
:1002500054005374617274000000000023002600F3
:10026000290000000000240027002A0000000000F0
:10027000250028002B0004040404040404040202E2
:100280000202020203030303030301020408102015
:100290004080010204081020010204081020000020
:1002A0000008000201000003040700000000000035
:1002B00000007314F91311241FBECFEFD8E0DEBF86
:1002C000CDBF11E0A0E0B1E0EAEDFEE202C0059092
:1002D0000D92AC3BB107D9F723E0ACEBB1E001C024
:1002E0001D92AB3EB207E1F711E0CAE5D1E004C0D0
:1002F0002197FE010E943416C935D107C9F70E9423
:10030000E2100C9460170C9400000F931F938091DF
:10031000A1039091A2038130910521F0029709F485
:100320009CC018C2E091D403F091D503ED5AFF4F61
:1003300080819181019709F00DC20E941A08E09115
:10034000D403F091D503DF01AB5ABF4F0D911D913E
:100350002D913C911397AB01BC01401B510B620BDB
:10036000730B403157426105710508F456C01D9268
:100370001D921D921C92139712971D921C928091B0
:10038000D8039091D9032091D6033091D70334AF8D
:1003900023AF96AF85AF6091D6037091D7038DE000
:1003A00090E00E94E10D6091D8037091D9038FE035
:1003B00090E00E94E10D82E291E00E942F0F8CE319
:1003C00091E00E942F0F82E291E00E942F0F88E5BA
:1003D00091E00E942F0F83E691E00E94540E8DE081
:1003E00090E00E94F20D0E94B80F80E791E00E9419
:1003F000540E8FE090E00E94F20D0E94B80F8DE73E
:1004000091E00E942F0F1092D9031092D8038FEF22
:1004100093E09093D7038093D603E091D403F091B7
:10042000D50380AD91AD0E943D0F2091D80330914E
:10043000D9032817390724F49093D9038093D8035C
:100440002091D6033091D703821793070CF082C115
:100450009093D7038093D6037DC18091DA03909166
:10046000DB03FC01ED5AFF4F208131812230310541
:1004700009F070C12091DD033091DE0321153105B3
:1004800009F462C13696808190E02817390709F493
:1004900057C09093DE038093DD0386EB91E00E94CA
:1004A000C20E8091DD039091DE038330910559F1F6
:1004B00084F481309105D9F1029709F041C080910F
:1004C000DA039091DB0381960E94620A8093DF0336
:1004D00037C08530910509F164F0069789F5809160
:1004E000DA039091DB0387960E94620A8093E3030C
:1004F00027C08091DA039091DB034B960E94620A39
:100500008093E1031DC08091DA039091DB034B9649
:100510000E94620A8093E20313C08091DA039091F3
:10052000DB0387960E94620A8093E40309C08091EE
:10053000DA039091DB0381960E94620A8093E003C4
:100540008091DD039091DE03873091050CF094C01B
:100550008530910534F483309105DCF501972CF456
:10056000F9C007970CF45DC0F5C08091DA03909153
:10057000DB030E94180DE091DA03F091DB0388237E
:1005800031F0CF01489625A5211113C00FC0CF012E
:100590000E94010D882309F4DDC0E091DA03F09197
:1005A000DB03CF01489625A5222319F045E050E052
:1005B00002C04BEF5FEF61E00E94B2138091DA035B
:1005C0009091DB0381960E94620A1F910F910C9417
:1005D000620F8091DA039091DB030E94180DE09185
:1005E000DA03F091DB03882331F0CF01489625A58B
:1005F000211113C00FC0CF010E94010D882309F4FF
:10060000A9C0E091DA03F091DB03CF01489625A55C
:10061000222319F045E050E002C04BEF5FEF62E0AB
:1006200027C08091DA039091DB030E94180DE091BE
:10063000DA03F091DB03882331F0CF01489625A53A
:10064000211113C00FC0CF010E94010D882309F4AE
:1006500081C0E091DA03F091DB03CF01489625A534
:10066000222319F045E050E002C04BEF5FEF63E05A
:100670001F910F910C94B2131092DE031092DD03C0
:100680004091E0036091DF0381E090E00E94750FEC
:100690004091E2036091E10382E090E00E94750FD7
:1006A0004091E4036091E30383E090E00E94750FC2
:1006B00080EA91E00E94C20E84E991E00E94A70EB8
:1006C00088E090E00E94F00D0E94620F88E891E0BF
:1006D0000E94A70E89E090E00E94F00D0E94620F38
:1006E0008AE791E00E94A70E8AE090E00E94F00D58
:1006F0000E94620F8CE691E00E94A70E8BE090E0D2
:100700000E94F00D0E94620F80E691E00E94A70E09
:1007100086E090E00E94F00D0E94620F84E591E077
:100720000E94A70E87E090E00E94F00D0E94620FE9
:100730008091DA039091DB03FC01E75AFF4F1082AE
:1007400036971182108206C081E090E09093DE031C
:100750008093DD031F910F910895CF92DF92EF9266
:10076000FF920F931F93CF93DF93C091CE03D0914D
:10077000CF03FE01ED5AFF4F80819181892B09F053
:100780009FC088AD99AD0E943D0FCBACDCAC0D2C69
:10079000000CEE08FF08092E000CAA0BBB0B9C01F5
:1007A000AD012C193D094E095F09AFEFB3E00E947E
:1007B000E4152DAD3EAD8901330F220B330BA9019A
:1007C00098012C193D094E095F090E94C51537FD96
:1007D0000AC0211584E0380714F02FEF33E02535E7
:1007E000E1E03E074CF58091CE039091CF037C0170
:1007F000F8E1EF0EF11CFC0125A5211102C0CBEFA1
:1008000001C0C5E087960E94620A4C2FCC0F550BA1
:10081000480F511D20E063E0C7010E94520D8091F6
:10082000CE039091CF037C01F8E1EF0EF11CFC01A7
:1008300025A5222379F12CC02B3A32400CF440C07C
:100840008091CE039091CF037C0128E1E20EF11C50
:10085000FC0125A5211102C0C5E001C0CBEF8796A0
:100860000E94620A4C2FCC0F550B480F511D20E0FF
:1008700063E0C7010E94520D8091CE039091CF0397
:100880007C01F8E1EF0EF11CFC0125A5211102C04D
:10089000C5E001C0CBEF4B960E94620A4C2FCC0FF3
:1008A000550B480F511D20E062E0C701DF91CF9149
:1008B0001F910F91FF90EF90DF90CF900C94520D0D
:1008C000DF91CF911F910F91FF90EF90DF90CF902C
:1008D00008951F93CF93DF938091AA039091AB0368
:1008E0000E94180D882309F464C048EE53E060E0CC
:1008F00070E08EEA93E00E94260E882321F086E4C1
:1009000091E00E94C20E8091AA039091AB03AC01CA
:10091000485F5F4FFC0160810E94D00E882309F47C
:10092000CDC148E853E160E070E08EEB93E00E94B7
:10093000260E882309F4C2C183E391E00E94C20E0F
:10094000E091AA03F091AB03ED5AFF4F80819181B2
:10095000892B09F0B3C180E291E00E94C20E809120
:10096000AA039091AB0321E040E050E062E048969A
:100970000E94520D8091AA039091AB0321E044EBB9
:1009800050E062E048960E94520DC091AA03D091B7
:10099000AB030E941A08FE01EB5AFF4F608371837C
:1009A00082839383CD5ADF4F81E090E099838883DF
:1009B00085C1C091AA03D091AB036981CE010E9489
:1009C000C50C182F8D81181739F00E941A086C87F2
:1009D0007D878E879F871D83112309F46FC048EEA2
:1009E00053E060E070E082EB93E00E94260E8823E3
:1009F000A1F088E690E00E94C20EE091AA03F09177
:100A0000AB03DF01AD5ABF4F8D919C91029729F442
:100A1000E75AFF4F80818F5F80838091AA03909176
:100A2000AB03AC01445F5F4FFC0161810E94D00EBB
:100A3000882309F443C148E853E160E070E082ECA8
:100A400093E00E94260E882309F438C189E890E0DB
:100A50000E94C20EE091AA03F091AB03ED5AFF4F42
:100A600080819181892B09F029C186E790E00E945D
:100A7000C20E8091AA039091AB0321E040E050E0C8
:100A800063E048960E94520D8091AA039091AB03B7
:100A900021E044EB50E063E048960E94520D8091C3
:100AA000AA039091AB03FC01E75AFF4F21E020839A
:100AB000369722E030E03183208300C18091AA0381
:100AC0009091AB030E94010D882309F462C048EEA7
:100AD00053E060E070E086EB93E00E94260E8823EE
:100AE000C1F183EB90E00E94C20EE091AA03F09165
:100AF000AB03ED5AFF4F80819181892B51F5809195
:100B0000AC03882399F08CE990E00E94C20E80919A
:100B1000AA039091AB03FC0143A950E021E061E0FE
:100B200048960E94520D1092AC0313C088EA90E0E0
:100B30000E94C20E8091AA039091AB03FC0142A9CE
:100B400050E021E061E048960E94520D81E08093E0
:100B5000AC038091AA039091AB03AC01405F5F4F5F
:100B6000FC0162810E94D00E882309F4A7C048E8E6
:100B700053E160E070E086EC93E00E94260E88234B
:100B800009F49CC081EC90E0DF91CF911F910C940F
:100B9000C20EC091AA03D091AB036B81CE010E941B
:100BA000C50C182F8F81181739F00E941A086C8B0A
:100BB0007D8B8E8B9F8B1F83112309F47FC048EEA2
:100BC00053E060E070E08AEB93E00E94260E8823F9
:100BD00051F180EF90E00E94C20EE091AA03F091E3
:100BE000AB03ED5AFF4F80819181892BE1F4809115
:100BF000AD03882361F084ED90E00E94C20EE09185
:100C0000AA03F091AB0310AA1092AD030CC083EEBF
:100C100090E00E94C20EE091AA03F091AB0381E044
:100C200080AB8093AD038091AA039091AB03AC019C
:100C30004C5E5F4FFC0163810E94D00E8823F1F16E
:100C400048E853E160E070E08AEC93E00E94260EF1
:100C50008823A1F18EE091E00E94C20EE091AA03E8
:100C6000F091AB03DF01AD5ABF4F8D919C91892B61
:100C700029F595A581E0892785A784E090E00E9469
:100C8000F00D813011F061E001C062E084E090E09D
:100C90000E94CD0D8DEF90E00E94A70E84E090E0C1
:100CA0000E94F00D813019F08EE991E002C088E9D0
:100CB00091E0DF91CF911F910C942F0FDF91CF9195
:100CC0001F9108954F925F926F927F928F929F92A1
:100CD000AF92BF92EF92FF921F93CF93DF93EC01FD
:100CE000888199819D838C83892B31F48F819885AC
:100CF000009711F00E94620611E08C819D81892B82
:100D000009F47DC08F819885009729F00E946206C2
:100D1000811101C010E0EC81FD81E1A0F2A0808191
:100D200080FF6AC085859685A785B089892B8A2B27
:100D30008B2B69F4908180818E7F808380818D7F71
:100D4000808390FF59C0CF010E94060E55C00E94BB
:100D50001A08EC81FD8121813281438154814184D3
:100D600052846384748485809680A780B084DC017B
:100D7000CB0184199509A609B70988159905AA0513
:100D8000BB05D0F185859685A785B089181619060B
:100D90001A061B065CF485859685A785B0890197A0
:100DA000A109B10985879687A787B08B8589968920
:100DB000A789B08D0196A11DB11D858B968BA78B40
:100DC000B08F85809680A780B08481859285A38529
:100DD000B485880D991DAA1DBB1D81879287A387A5
:100DE000B4872583368347835087018CF28DE02DAD
:100DF000309711F0099510E0FD82EC827ECF11232F
:100E000099F08E81882381F083B7817F83BF83B778
:100E1000816083BF83B7816083BF889583B78E7FEE
:100E200083BF83B78E7F83BF812FDF91CF911F91C7
:100E3000FF90EF90BF90AF909F908F907F906F90BA
:100E40005F904F9008950F931F93CF93DF93FC0112
:100E5000A3A1B4A11097E9F1EC01158A168A178AAB
:100E6000108E038CF48DE02D309779F1888181FD0F
:100E70002CC014960D911C9115971596DC93CE936A
:100E800014978881826088830995988180FB90F906
:100E9000988388818D7F8883EBA1FCA115830483CF
:100EA0000E941A0809811A812B813C810D831E83BF
:100EB0002F833887DC01CB01801B910BA20BB30B76
:100EC00089879A87AB87BC8704C0888181608883C3
:100ED000E7CFDF91CF911F910F910895CF92DF92CD
:100EE000EF92FF920F931F93CF93DF936C017A01E0
:100EF0008B01C0E0D0E0CE15DF0581F0D8016D9107
:100F00008D01D601ED91FC910190F081E02DC6019B
:100F10000995892B11F02196EECF7E01C701DF9153
:100F2000CF911F910F91FF90EF90DF90CF90089598
:100F3000089580E090E008950E945B1787E292E0B8
:100F40000E94F90821E0892B09F420E0822F0895FE
:100F5000EF92FF920F931F93CF93DF93EC0181E009
:100F6000888F9B8D8C8D981305C0E889F9898081C5
:100F700085FD26C0F62E0B8D10E00F5F1F4F0F73FF
:100F80001127E02E8C8DE8120CC00FB607FCFACFAB
:100F9000E889F989808185FFF5CFCE010E941E0A7C
:100FA000F1CF8B8DFE01E80FF11DE35AFF4FF08268
:100FB0009FB7F8940B8FEA89FB89808180620AC011
:100FC0009FB7F894EE89FF896083E889F989808169
:100FD0008370806480839FBF81E090E0DF91CF9138
:100FE0001F910F91FF90EF9008953FB7F894809173
:100FF000C1019091C201A091C301B091C40126B575
:10100000A89B05C02F3F19F00196A11DB11D3FBF40
:10101000BA2FA92F982F8827820F911DA11DB11DCE
:10102000BC01CD0142E0660F771F881F991F4A95CA
:10103000D1F708952FB7F8946091BD017091BE016A
:101040008091BF019091C0012FBF08951F920F9210
:101050000FB60F9211242F933F938F939F93AF93CB
:10106000BF938091BD019091BE01A091BF01B0914D
:10107000C0013091BC0123E0230F2D3720F40196ED
:10108000A11DB11D05C026E8230F0296A11DB11DAB
:101090002093BC018093BD019093BE01A093BF013A
:1010A000B093C0018091C1019091C201A091C30190
:1010B000B091C4010196A11DB11D8093C10190930F
:1010C000C201A093C301B093C401BF91AF919F919E
:1010D0008F913F912F910F900FBE0F901F901895F9
:1010E0001F920F920FB60F9211242F933F934F939D
:1010F0005F936F937F938F939F93AF93BF93EF9380
:10110000FF9387E292E00E941E0AFF91EF91BF9148
:10111000AF919F918F917F916F915F914F913F918F
:101120002F910F900FBE0F901F9018951F920F9246
:101130000FB60F9211242F938F939F93EF93FF93EA
:10114000E0913702F09138028081E0913D02F09108
:101150003E0282FD12C09081809140028F5F8F73AA
:1011600020914102821751F0E0914002F0E0E95DE8
:10117000FD4F958F8093400201C08081FF91EF91D8
:101180009F918F912F910F900FBE0F901F901895E8
:10119000FC01538D448D252F30E0842F90E0821B7D
:1011A000930B541710F0CF96089501970895FC0102
:1011B000918D828D981761F0828DDF01A80FB11D8E
:1011C0005D968C91928D9F5F9F73928F90E00895B2
:1011D0008FEF9FEF0895FC01918D828D981731F06C
:1011E000828DE80FF11D858D90E008958FEF9FEFC0
:1011F0000895FC01918D228D892F90E0805C9F4F96
:10120000821B91098F739927089580E090E0892BC4
:1012100029F00E949E0781110C94000008958F927E
:101220009F92AF92BF92EF92FF920F931F93CF9333
:10123000DF937C01142FFC010081F8E00F9FE00197
:101240001124FE01E953FE4F74836383442309F4A0
:1012500071C0603282E078070CF03FC0CB01653B83
:10126000710514F084EB90E0F7012181A8E8B0E06B
:101270004D01821A910827FD9394D401AA0FBB1F38
:10128000AA0FBB1F4D01BB0FAA08BB08428128E56E
:1012900032E0241B310947FD3395220F331F220F03
:1012A000331FA901330F660B770B9A01AB01281985
:1012B00039094A095B09DC0197FF02C0A0E0B0E0F0
:1012C0000E94EF1524EB30E040E050E00E94C5158D
:1012D000820E931EA41EB51EB4010C3008F09FC0F0
:1012E000F701218188E890E0821B910927FD939501
:1012F000880F991F880F991F681779077CF0228142
:1013000088E592E0821B910927FD9395880F991F2C
:10131000880F991F681779070CF4CB012FB7F89441
:10132000C953DE4F0297880F991F9E838D831F83B9
:101330002FBF75C06032F2E07F070CF03FC0CB01D9
:10134000653B710514F084EB90E0F7012181A8E87A
:10135000B0E04D01821A910827FD9394D401AA0FA1
:10136000BB1FAA0FBB1F4D01BB0FAA08BB084281C0
:1013700028E532E0241B310947FD3395220F331F46
:10138000220F331FA901330F660B770B9A01AB01B4
:10139000281939094A095B09DC0197FF02C0A0E05E
:1013A000B0E00E94EF1524EB30E040E050E00E94F6
:1013B000C515820E931EA41EB51EB401FE01E9538D
:1013C000FE4F748363830C3050F5F701218188E868
:1013D00090E0821B910927FD9395880F991F880F34
:1013E000991F6817790784F0828128E532E0281B6D
:1013F000310987FD3395220F331F220F331FCB0195
:10140000261737070CF4C9012FB7F894C953DE4FDC
:101410000297880F991F9A8389832FBF1F82DF91BC
:10142000CF911F910F91FF90EF90BF90AF909F9041
:101430008F900895FC0182810C948810FC01848DAA
:10144000DF01A80FB11DA35ABF4F2C91848D90E0EE
:1014500001968F739927848FA689B7892C93A089C9
:10146000B1898C91837080648C93938D848D981353
:1014700006C00288F389E02D80818F7D80830895E6
:10148000CF93DF93EC01888D8823C9F0EA89FB892B
:10149000808185FD05C0A889B9898C9186FD0FC022
:1014A0000FB607FCF5CF808185FFF2CFA889B989F7
:1014B0008C9185FFEDCFCE010E941E0AE7CFDF9110
:1014C000CF9108958F929F92AF92BF92CF92DF9269
:1014D000EF92FF92FC01828128E532E06901C81A8F
:1014E000D10887FDD394CC0CDD1CCC0CDD1C0D2C5D
:1014F000000CEE08FF08818128E830E04901881AD5
:10150000910887FD9394880C991C880C991C092CD0
:10151000000CAA08BB08E081EF3FA9F088E0E89F33
:10152000F0011124E953FE4F2181328183E0220F23
:10153000331F8A95E1F794E0369527959A95E1F760
:101540002E5F3F4F02C020E030E02F5F3F4FC901C8
:10155000330FAA0BBB0B9C01AD01281939094A09AD
:101560005B09A4EBB0E00E94E415A70196012819DD
:1015700039094A095B090E94C515C901FF90EF901E
:10158000DF90CF90BF90AF909F908F9008950F9372
:101590001F93CF93DF938C01DC01EC91B8E0EB9FBC
:1015A000F0011124E953FE4FC381D481C03282E09F
:1015B000D80784F4C8010E94620AC817D90711F13C
:1015C0000E94F80EF7CF80E090E0C817D907D1F05D
:1015D0000E94F80ED801EC91EF3FA9F3B8E0EB9F21
:1015E000F0011124E953FE4F8181928123E0880F9D
:1015F000991F2A95E1F734E0969587953A95E1F79A
:101600000296E3CFDF91CF911F910F9108951F9321
:10161000CF93DF93EC01162F88818C3008F048C0FF
:1016200061E0812F0E944C10888198E0899FF00131
:101630001124E953FE4F1F739081907C192B108366
:1016400019821A826CE00E9428169CE0899FA001F2
:10165000112420E030E0FA01E20FF31F93E0EE0FD7
:10166000FF1F9A95E1F7E953FE4F908196FD16C052
:101670002F5F3F4F2C30310571F781110FC0109251
:10168000800082E080938100109285001092840097
:10169000B19A80916F00826080936F00E88188E04A
:1016A000E89FF0011124E953FE4F8081806480831C
:1016B0008881DF91CF911F9108951F920F920FB6ED
:1016C0000F9211242F933F934F935F936F937F93C8
:1016D0008F939F93AF93BF93EF93FF938091C50137
:1016E00087FF05C0109285001092840016C02091DB
:1016F000C501022E000C330B8091C60190E0281723
:1017000039075CF4E091C50128E0E202F001112400
:10171000E953FE4F808186FD15C08091C5018F5F22
:101720008093C5012091C501022E000C330B8091DE
:10173000C60190E0281739079CF48091C5018C30D0
:1017400034F10EC0E091C50128E0E202F00111245D
:10175000E953FE4F808160E08F730E941D10DDCF42
:10176000809184009091850084349C4918F480E431
:101770009CE905C080918400909185000496909327
:101780008900809388008FEF8093C501EDC0E091C0
:10179000C50188E0E802F0011124E953FE4F87817A
:1017A000882309F4B5C0A091C501E091C50188E086
:1017B000A802D0011124A953BE4F28E0E202F00193
:1017C0001124E953FE4F15962D913C911697818176
:1017D0009281A091C501E091C5018217930708F09D
:1017E0004BC088E0E802F0011124E953FE4F28E0E5
:1017F000A202D0011124A953BE4F17962C918181CA
:101800009281820F911D92838183A091C501E09105
:10181000C50188E0A802D0011124A953BE4F28E0D9
:10182000E202F0011124E953FE4F15962D913C91EF
:101830001697818192818217930708F469C0E0911D
:10184000C501A091C50188E0E802F0011124E95327
:10185000FE4F28E0A202D0011124A953BE4F1596D5
:101860008D919C91169792838183E091C50188E0C8
:10187000E802F001112449C028E0E202F00111243D
:10188000E953FE4F88E0A802D0011124A953BE4FAE
:1018900017962C9181819281821B91099283818379
:1018A000A091C501E091C50128E0A202D001112458
:1018B000A953BE4F88E0E802F0011124E953FE4F1E
:1018C00015962D913C9116978181928128173907A1
:1018D000F8F0E091C501A091C50128E0E202F00115
:1018E0001124E953FE4F88E0A802D0011124A95326
:1018F000BE4F15968D919C91169792838183E091AE
:10190000C50128E0E202F0011124E953FE4F1782DD
:101910002091840030918500E091C50188E0E802C3
:10192000F0011124E953FE4F81819281820F931FB0
:101930009093890080938800E091C50128E0E2023D
:10194000F0011124E953FE4F808186FF0DC0E09124
:10195000C50188E0E802F0011124E953FE4F8081BF
:1019600061E08F730E941D10FF91EF91BF91AF91C5
:101970009F918F917F916F915F914F913F912F91A7
:101980000F900FBE0F901F901895CF93DF938CEEA2
:10199000860F823048F4862F0E94881021E0883C10
:1019A00091055CF120E029C070E0FB01E256FD4F9B
:1019B0008491FB01E657FD4FD491FB01EA58FD4F9E
:1019C000C491CC23A1F081110E94F40FEC2FF0E020
:1019D000EE0FFF1FE85AFD4FA591B491EC91ED2356
:1019E00031E020E009F430E0832F922F02C080E044
:1019F00090E021E08227282F2170822FDF91CF9164
:101A000008951F93CF93DF93EC016A810E94C50C68
:101A1000182F8E81181739F00E941A08688B798B5D
:101A20008A8B9B8B1E83812FDF91CF911F9108950D
:101A30001F93CF93DF93EC0168810E94C50C182F90
:101A40008C81181739F00E941A08688779878A876D
:101A50009B871C83812FDF91CF911F910895FC01FB
:101A6000453B08F044EB253B08F024EB822F42175E
:101A700008F4842F241708F4242F9589911103C0AA
:101A8000982F822F292F623039F0633041F0613076
:101A900041F4228F838F0895248F858F0895268F98
:101AA000878F08950F931F93CF93FC01C22F62304D
:101AB00031F0633081F1613009F04FC016C0878981
:101AC00081114BC0958D848D692F891708F4682F7B
:101AD000461738F0692F981708F4682F461708F44E
:101AE000642F8F010D5F1F4F2BC08689811135C078
:101AF000938D828D692F891708F4682F461738F067
:101B0000692F981708F4682F461708F4642F8F017F
:101B1000075F1F4F15C0808D81111FC0978D868D67
:101B2000692F891708F4682F461738F0692F98171E
:101B300008F4682F461708F4642F8F01015F1F4FC8
:101B400070E0418DC8010E940F09CC2331F0C8011B
:101B5000CF911F910F910C94C70ACF911F910F91B4
:101B600008950F931F93CF93DF938C0183E090E050
:101B70000E943A16EC01F80187812EE031E03983AA
:101B800028838A8360E00E944C10F801D183C083CF
:101B9000DF91CF911F910F9108951F93CF93DF9302
:101BA000EC01162F0E94AF15181739F0612FCE01E6
:101BB000DF91CF911F910C94B715DF91CF911F91B9
:101BC00008951F93CF93DF93EC01172F0E94CD0D43
:101BD000612FCE010196DF91CF911F910C94CD0D15
:101BE0000C94AF151F93CF93DF93EC010E94F00D7F
:101BF000182FCE0101960E94F00D90E0982F8827B3
:101C0000810F911DDF91CF911F9108950F931F9325
:101C1000CF93DF93DC015D96ED91FC915E97309759
:101C200081F0EC01ABA1BCA114960D911C9115970C
:101C300015969C938E9314970995EBA1FCA115839F
:101C40000483DF91CF911F910F910895CF92DF927E
:101C5000EF92FF920F931F93CF93DF93EC016A01F2
:101C60007B010E941A08088119812A813B81DC01CD
:101C7000CB01801B910BA20BB30B11E0C816D90648
:101C8000EA06FB0608F010E00E941A0868837983D0
:101C90008A839B83812FDF91CF911F910F91FF90BA
:101CA000EF90DF90CF900895009769F0FC010190CC
:101CB0000020E9F73197AF01481B590BBC0187E2BF
:101CC00092E00C946E0780E090E008958F929F92CE
:101CD000AF92BF920F931F93CF93DF93CDB7DEB731
:101CE000A1970FB6F894DEBF0FBECDBF19A2423048
:101CF00008F44AE08E010F5D1F4F842E912CA12C19
:101D0000B12CA50194010E94F715E62FB901CA0173
:101D100001501109EA3014F4E05D01C0E95CD8011A
:101D2000EC93232B242B252B61F7C8010E94540E22
:101D3000A1960FB6F894DEBF0FBECDBFDF91CF9155
:101D40001F910F91BF90AF909F908F9008950F9328
:101D50001F93CF93DF938C01C0E0D0E0F801EC0F2C
:101D6000FD1F6491662341F087E292E00E94A8077C
:101D7000892B11F02196F2CFCE01DF91CF911F91E7
:101D80000F910895CF93DF930E94A70EEC0188EB8B
:101D900091E00E94540E8C0F9D1FDF91CF9108950A
:101DA0000F931F93CF93DF93EA010E94C50C81111B
:101DB00007C00E941A08688379838A839B8312C0B4
:101DC0000E941A08088119812A813B81AB01BC015C
:101DD000401B510B620B730B81E048385341610586
:101DE000710508F480E0DF91CF911F910F91089564
:101DF0008F929F92AF92BF92CF92DF92EF92FF921B
:101E00000E94F5074B015C0185E0C82ED12CE12C26
:101E1000F12C0E94F507DC01CB0188199909AA0968
:101E2000BB09883E9340A105B10598F321E0C21A91
:101E3000D108E108F10888EE880E83E0981EA11C05
:101E4000B11CC114D104E104F10419F7FF90EF9023
:101E5000DF90CF90BF90AF909F908F900895CF93D9
:101E6000DF930E94540EEC0188EB91E00E94540E27
:101E70008C0F9D1FDF91CF910895EF92FF920F93EA
:101E80001F93CF93DF937C0100E110E0C0E0D0E02E
:101E9000D701ED91FC910190F081E02DC7010995EA
:101EA000C80FD91F0150110999F7CE0124E095956B
:101EB00087952A95E1F7DF91CF911F910F91FF90C0
:101EC000EF900895CF93DF93682F70E080E090E06B
:101ED0004AE00E94660EEC0188EB91E00E94540EED
:101EE0008C0F9D1FDF91CF9108951F93CF93DF93A8
:101EF000C82FD62F641710F4142F02C0162FD42F1A
:101F0000C23051F0C33071F0C13091F46D2F86E0D2
:101F100090E00E94CD0D12C06D2F88E090E00E94ED
:101F2000CD0D10C06D2F8AE090E00E94CD0D0EC047
:101F3000C23041F0C33051F0C13069F4612F87E005
:101F400090E007C0612F89E090E003C0612F8BE033
:101F500090E00E94CD0D8091DA039091DB03212F58
:101F60004D2F6C2F4896DF91CF911F910C942F0D20
:101F7000CF92DF92EF92FF92CF93DF936C01990F94
:101F8000EE08FF08F7FE13C06DE287E292E00E94C0
:101F9000A807EC0166277727CB016C197D098E090C
:101FA0009F094AE00E94660EC80FD91F06C04AE08A
:101FB000C701B6010E94660EEC0188EB91E00E9419
:101FC000540E8C0F9D1FDF91CF91FF90EF90DF900B
:101FD000CF9008951F920F920FB60F9211240F9079
:101FE0000FBE0F901F901895833081F028F4813038
:101FF00099F08230A1F008958730A9F08830B9F0C7
:102000008430D1F4809180008F7D03C08091800066
:102010008F7780938000089584B58F7702C084B550
:102020008F7D84BD08958091B0008F7703C080912B
:10203000B0008F7D8093B00008951F93CF93DF93FE
:10204000282F30E0F901E256FD4F8491F901E6575F
:10205000FD4FD491F901EA58FD4FC491CC23C1F052
:10206000162F81110E94F40FEC2FF0E0EE0FFF1FEE
:10207000E459FD4FA591B4919FB7F894111104C094
:102080008C91D095D82302C0EC91DE2BDC939FBFBE
:10209000DF91CF911F910895CF93DF9390E0FC01E2
:1020A000E657FD4F2491FC01EA58FD4F84918823A7
:1020B00061F190E0880F991FFC01EE59FD4FC59129
:1020C000D491FC01E459FD4FA591B491611109C06F
:1020D0009FB7F8948881209582238883EC912E23E2
:1020E0000BC0623061F49FB7F8948881322F30952D
:1020F00083238883EC912E2B2C939FBF06C08FB730
:10210000F894E8812E2B28838FBFDF91CF9108951B
:102110008E3008F08E508770806480937C008091B0
:102120007A00806480937A0080917A0086FDFCCFEB
:10213000809178002091790090E0922B0895CF93C0
:10214000DF93EC01988188818E7F888388818D7FE1
:10215000888390FF03C0CE010E94060E8BA19CA134
:10216000009769F11CA21BA2EF8DF8A1A9A1BAA149
:10217000309799F4109749F4DC0111961C921E9245
:1021800013961C921E9212971AC090961C921E9241
:102190005F97FC01B183A08312C0109741F412A293
:1021A00011A2DC011396FC93EE93129708C0B2A320
:1021B000A1A3A9A1BAA19096FC93EE935F97DF919A
:1021C000CF910895CF93DF9300D000D0CDB7DEB785
:1021D000789484B5826084BD84B5816084BD85B502
:1021E000826085BD85B5816085BD80916E0081600E
:1021F00080936E00109281008091810082608093B4
:1022000081008091810081608093810080918000B5
:102210008160809380008091B10084608093B100E0
:102220008091B00081608093B00080917A008460DA
:1022300080937A0080917A00826080937A00809106
:102240007A00816080937A0080917A008068809320
:102250007A001092C100E0913702F091380282E0DA
:102260008083E0913302F09134021082E0913502D4
:10227000F09136028FEC808310923F02E0913B0296
:10228000F0913C0216E01083E0913902F0913A029D
:10229000808180618083E0913902F0913A028081EF
:1022A00088608083E0913902F0913A0280818068F1
:1022B0008083E0913902F0913A0280818F7D8083A2
:1022C00082E592E00E94C20E85E08093660389E079
:1022D000809367031093680361E085E00E944C10CF
:1022E00061E0809167030E944C1061E08091680377
:1022F0000E944C1082E380937F036091660370E03C
:1023000089E693E00E94070B6091670370E08FE617
:1023100093E00E94070B6091680370E085E793E00B
:102320000E94070B2BE44FE061E086E693E00E94F9
:102330002F0D2BE44FE062E086E693E00E942F0D24
:102340002BE44FE063E086E693E00E942F0D84E1EA
:1023500080934E0385E180934F038EE0809350037A
:102360008AE08093510362E084E10E944C1062E0B5
:1023700080914F030E944C1062E0809150030E94B4
:102380004C1062E0809151030E944C108FE08093CA
:102390008D038FEF80938E0380938F0310928803B9
:1023A00086E893E00E94B10D8EE493E09093D3030E
:1023B0008093D20319821A821B821C82CE0101965D
:1023C0007C0100E010E06C01C8010E94AF15F7012C
:1023D00081937F010F5F1F4F04301105A9F76981B9
:1023E0007A818B819C8120E03DEC4BE257E40E9496
:1023F000861581117EC00091D2031091D30384E031
:1024000090E00E94F00D7801F8E1EF0EF11C91E0F0
:10241000813009F090E0F80195A723A942A961E075
:10242000C7010E942F0DF80125A944A962E0C70148
:102430000E942F0DF80127A946A963E0C7010E9459
:102440002F0D0091D2031091D30386E090E00E94FB
:10245000F00DF82E87E090E00E94F00D282F4F2D10
:1024600061E0C80148960E942F0D0091D20310919F
:10247000D30388E090E00E94F00DF82E89E090E010
:102480000E94F00D282F4F2D62E0C80148960E944F
:102490002F0D0091D2031091D3038AE090E00E94A7
:1024A000F00DF82E8BE090E00E94F00D282F4F2DBC
:1024B00063E0C80148960E942F0DA090D203B0900F
:1024C000D3038CE090E00E94F00D182F8DE090E097
:1024D0000E94F20D6C018FE090E00E94F20D7C01F1
:1024E000C501C896F50112AF111154C00E94B10D7B
:1024F00051C061E084E090E00E94CD0D6FE086E085
:1025000090E00E94CD0D6BE487E090E00E94CD0D3D
:102510006FE088E090E00E94CD0D6BE489E090E0F0
:102520000E94CD0D6FE08AE090E00E94CD0D6BE43B
:102530008BE090E00E94CD0D60E08CE090E00E9486
:10254000CD0D60E070E08DE090E00E94E10D6FEF56
:1025500073E08FE090E00E94E10D80E09DECABE243
:10256000B7E489839A83AB83BC83760100E010E0F3
:10257000F701D1907F01C8010E94AF15D81621F054
:102580006D2DC8010E94B7150F5F1F4F0430110554
:1025900079F731CF8EE493E0E091D203F091D30349
:1025A000D4AEC3AEF6AEE5AE9093AB038093AA0370
:1025B0009093CF038093CE039093D5038093D4035D
:1025C0009093DB038093DA0382E492E00E94C20ED0
:1025D0008AE392E00E94A70E84E090E00E94F00D52
:1025E000813019F08EEA91E002C083EA91E00E9406
:1025F0002F0F8EE292E00E94A70E86E090E00E94EC
:10260000F00D0E94620F82E292E00E94A70E88E025
:1026100090E00E94F00D0E94620F84E192E00E941F
:10262000A70E8AE090E00E94F00D0E94620F88E001
:1026300092E00E94A70E87E090E00E94F00D0E94B9
:10264000620F8CEF91E00E94A70E89E090E00E945B
:10265000F00D0E94620F8EEE91E00E94A70E8BE0BB
:1026600090E00E94F00D0E94620F80EE91E00E94C7
:10267000A70E8CE090E00E94F00D0E94620F83EDA7
:1026800091E00E94A70E8DE090E00E94F20D0E9462
:10269000B80F86EC91E00E94A70E8FE090E00E94B8
:1026A000F20D0E94B80F8CE393E0F3E085349F07AE
:1026B00021F090934D0380934C03E0914C03F091F3
:1026C0004D03309709F0168283E393E023E08C33C7
:1026D000920721F09093440380934303E0914303D6
:1026E000F0914403309709F0168205E413E0F801F5
:1026F000E080F180E114F10439F0C7010E94230762
:10270000F701E1A0F2A0F6CFF801078110850115CD
:10271000110569F785E493E00E9462060E940509AD
:10272000F9CFDC01E091C601EC30C8F481E08E0FF6
:102730008093C601EC9388E0E89FF0011124E953EF
:10274000FE4F88EB9BE09283818315961C92159730
:1027500080E091E014969C938E93139708958FEFE9
:102760008C930895EF92FF920F931F93CF938C0158
:10277000C62F7A01623031F0633031F0613041F4BC
:10278000099603C0039601C00F960E94620A01C019
:102790008FEFB701680F711D77FD06C0653B7105AE
:1027A00024F064EB70E001C060E0C23051F0C3304F
:1027B00071F0C130C1F470E0F801418DC801099693
:1027C0000BC070E0F801418DC801039605C070E0B0
:1027D000F801418DC8010F96CF911F910F91FF9085
:1027E000EF900C940F09CF911F910F91FF90EF90F4
:1027F000089584EC92E00E949F1089EE92E00E947E
:102800009F108EE093E00C949F100F931F93CF9333
:10281000DF93EC0188818E7F888388818D7F888318
:1028200019861A861B861C861D821E821F821886A8
:1028300019821A821B821C8218A21F8E1AA219A248
:102840001CA21BA21D8A1E8A1F8A188E3A8F298FEE
:102850001C8E1B8E1E8E1D8E49835A836B837C8338
:1028600089819A81AB81BC818D839E83AF83B88738
:102870000E941A0869877A878B879C878FEF9FEF62
:10288000DC018D879E87AF87B88B898B9A8BAB8B4A
:10289000BC8B0115110501F18BA19CA1081719072B
:1028A000D9F01CA30BA3D8018D919C911197892B72
:1028B00029F4CD93DC9318A21F8E09C0D80112967B
:1028C000ED91FC911397F8A3EF8FD2A3C1A31AA2A5
:1028D00019A2F801D383C283CE01DF91CF911F915A
:1028E0000F910C942307EF92FF920F931F93CF93B6
:1028F000DF93E7E2F2E01382128288EE93E0A0E039
:10290000B0E084839583A683B78384E191E09183CB
:10291000808385EC90E09587848784EC90E09787AE
:10292000868780EC90E0918B808B81EC90E0938B9C
:10293000828B82EC90E0958B848B86EC90E0978B79
:10294000868B118E128E138E148ECEE4D3E01C82F1
:102950001D821E821F82188619861A861B861C8677
:102960001D861E861F86188A198A1A8A1B8A1C8A47
:102970001D8A1E8A1F8A89E693E00E9491138FE6C2
:1029800093E00E94911385E793E00E94911311E078
:102990001DA71EA61FA618AA82E389AB1CAE1BAEFC
:1029A000EE24EA9483E0F82EFEAEEDAE81E090E0F6
:1029B0000E943A16909391038093900310929C0387
:1029C00010929D0310929E0310929F031092A003F9
:1029D0001092A7031092AC031092AD031092AE03B5
:1029E0001092AF031092B0031092B1031092B20391
:1029F0001092B3031092B4031092B5031092B60371
:102A00001092B7031092B8031092B9031092BA0350
:102A10001092BB031092BC031092BD031092BE0330
:102A20001092BF031092C0031092C1031092C20310
:102A30001092C3031092C4031092C5031092C603F0
:102A40001092C7031092C8031092C9031092CA03D0
:102A50001092CB031092CC031092CD03F092D703C7
:102A6000E092D6031092D9031092D8031092DC039F
:102A70001092DE031092DD03E5E4F3E01182108290
:102A80001382128215821482108617821683ECE359
:102A9000F3E0118210821382128215821482108652
:102AA00017821683E3E3F3E011821082138212820D
:102AB0001582148210861782168305E413E029E636
:102AC00034E044E650E060E070E08EE093E00E9485
:102AD00005142DEA33E04AE050E060E070E089EE52
:102AE00092E00E94051403E313E025E831E042E39D
:102AF00050E060E070E084EC92E00E940514DF9109
:102B0000CF911F910F91FF90EF9008950E948B1528
:102B100008F481E00895990F0008550FAA0BE0E82A
:102B2000FEEF16161706E807F907C0F0121613068F
:102B3000E407F50798F0621B730B840B950B39F4CF
:102B40000A2661F0232B242B252B21F408950A2635
:102B500009F4A140A6958FEF811D811D0895F99973
:102B6000FECF92BD81BDF89A992780B50895262F92
:102B7000F999FECF1FBA92BD81BD20BD0FB6F89462
:102B8000FA9AF99A0FBE01960895052E97FB1EF446
:102B900000940E94DC1557FD07D00E94F71507FC32
:102BA00003D04EF40C94DC1550954095309521954A
:102BB0003F4F4F4F5F4F0895909580957095619569
:102BC0007F4F8F4F9F4F08950E941916A59F900D1C
:102BD000B49F900DA49F800D911D11240895B7FFFF
:102BE0000C94E4150E94E415821B930B0895A1E256
:102BF0001A2EAA1BBB1BFD010DC0AA1FBB1FEE1F77
:102C0000FF1FA217B307E407F50720F0A21BB30BC1
:102C1000E40BF50B661F771F881F991F1A9469F73D
:102C200060957095809590959B01AC01BD01CF0199
:102C30000895A29FB001B39FC001A39F700D811D95
:102C40001124911DB29F700D811D1124911D0895B5
:102C5000991B79E004C0991F961708F0961B881FEE
:102C60007A95C9F780950895EE0FFF1F0590F491AE
:102C7000E02D09940F931F93CF93DF93823091053A
:102C800010F482E090E0E091E903F091EA0320E0A3
:102C900030E0A0E0B0E0309719F14081518102812D
:102CA000138148175907C8F08417950769F41097DE
:102CB00031F012960C93129713961C9327C0009331
:102CC000E9031093EA0322C02115310519F04217D8
:102CD000530718F49A01BD01EF01DF01F801DBCFC2
:102CE00021153105F9F0281B390B2430310580F40A
:102CF0008A819B816115710521F0FB019383828399
:102D000004C09093EA038093E903FE01329644C025
:102D1000FE01E20FF31F8193919322503109398311
:102D200028833AC02091E7033091E803232B41F434
:102D300020910601309107013093E8032093E703C7
:102D400020910401309105012115310541F42DB781
:102D50003EB74091080150910901241B350BE091C9
:102D6000E703F091E803E217F307A0F42E1B3F0BF3
:102D70002817390778F0AC014E5F5F4F24173507ED
:102D800048F04E0F5F1F5093E8034093E703819391
:102D9000919302C0E0E0F0E0CF01DF91CF911F916D
:102DA0000F910895CF93DF93009709F481C0FC0140
:102DB000329713821282A091E903B091EA0310972F
:102DC00081F420813181820F931F2091E70330919C
:102DD000E8032817390751F5F093E803E093E70378
:102DE00067C0ED0120E030E0CE17DF0740F44A81F4
:102DF0005B819E0141155105F1F0EA01F5CFD383C6
:102E0000C28340815181840F951FC817D90759F497
:102E100088819981840F951F0296918380838A818E
:102E20009B81938382832115310529F4F093EA0372
:102E3000E093E9033DC0E901FB83EA83499159919D
:102E4000C40FD51FEC17FD0761F480819181840FB9
:102E5000951F0296E90199838883828193819B83E0
:102E60008A83E0E0F0E012968D919C911397009791
:102E700019F0FD01DC01F7CF8D919C9111979D0117
:102E80002E5F3F4F820F931F2091E7033091E8039D
:102E90002817390769F4309729F41092EA03109241
:102EA000E90302C013821282B093E803A093E70300
:102EB000DF91CF91089581E090E0F8940C94601731
:102EC00011E0CAE5D1E004C0FE010E94341621964B
:0A2ED000CB35D107C9F7F894FFCF06
:102EDA0000642D640000EB038000000000001A0A61
:102EEA0000000000A8076E07C808400AF908D708BA
:102EFA00EB082D2D2D2D2D2D2D2D2D2D2D2D2D2D5F
:102F0A002D2D2D2D2D2D2D2D2D2D2D0053656E732F
:102F1A006F722043616C6962726174696F6E2046D8
:102F2A00696E697368656400526573756C747320A1
:102F3A003A200053656E736F724D696E203D200012
:102F4A0053656E736F724D6178203D20002D2D2DD3
:102F5A002D2D2D2D2D2D2D2D2D2D2D2D2D2D2D2D97
:102F6A002D2D2D2D2D2D0A005269676874004C6590
:102F7A0066740052494748545F48414E44004C45E4
:0C2F8A0046545F48414E44000D0A000010
:00000001FF
