:100000000C94B8010C94E0010C94E0010C94E00114
:100010000C94E0010C94E0010C94E0010C94E001DC
:100020000C94E0010C94E0010C94E0010C94850B1D
:100030000C94E0010C94E0010C94E0010C94E001BC
:100040000C949B110C94E0010C946C0A0C94460ADD
:100050000C94E0010C94E0010C94E0010C94E0019C
:100060000C94E0010C94E0016E65772048616E64A9
:100070002074797065203D20004C6F636B205072B6
:100080006573736564204C6F6E6700556E6C6F63AB
:100090006B2046696E67657273004C6F636B204618
:1000A000696E67657273004C6F636B205072657385
:1000B000736564005468756D622050726573736572
:1000C00064204C6F6E6700436C6F736520546875D5
:1000D0006D62004F70656E205468756D62005468E3
:1000E000756D62205072657373656400537461723C
:1000F0007420536572766F732043616C69620045AA
:10010000787472612050726573736564204C6F6EF1
:10011000670045787472612050726573736564007E
:1001200053746172742053656E736F722043616CF7
:1001300069620043616C6962205072657373656423
:10014000204C6F6E670043616C696220507265736A
:100150007365640053617665205468756D62203A5A
:10016000200053617665205468756D62203A200046
:10017000536176652046696E67657273203A200088
:10018000536176652046696E67657273203A200078
:100190005361766520496E646578203A200053618A
:1001A000766520496E646578203A20004D61785468
:1001B00068756D62203D20004D696E5468756D62F2
:1001C000203D20004D617846696E67657273203D61
:1001D00020004D696E46696E67657273203D200090
:1001E0004D6178496E646578203D20004D696E4907
:1001F0006E646578203D2000536572766F732043EE
:10020000616C69622046696E6973686564004E6559
:1002100078742043616C69622053746570002D2DE1
:100220002D2D2D2D2D2D2D2D2D2D2D2D2D2D2D2DFE
:100230002D2D2D2D2D2D2D2D2D2D2D2D2D2D2D2DEE
:100240002D2D2D00417574686F72203A2054686F0F
:100250006D61732042726F75737361726420002D3B
:100260002D2D2D2D2D2D2D2D2D2D2D2D2D2D2D2DBE
:100270002D2D2D2D2D2D2D2D2D2D2D2D2D2D2D2DAE
:100280002D2D2D2D0053656E736F724D6178203DBD
:10029000200053656E736F726D696E203D200053B0
:1002A000656E736F7254797065203D20004D6178E2
:1002B00046696E67657273203D20004D6178496E16
:1002C000646578203D20004D61785468756D62202A
:1002D0003D20004D696E46696E67657273203D2052
:1002E000004D696E496E646578203D20004D696E51
:1002F0005468756D62203D200048616E64203D2089
:10030000000A454550524F4D20434F4E54454E54E0
:100310000000000000240027002A00000000002543
:100320000028002B00000000002300260029000404
:10033000040404040404040202020202020303038C
:100340000303030102040810204080010204081086
:100350002001020408102000000008000201000033
:1003600003040700000000000000000029151D150F
:1003700011241FBECFEFD8E0DEBFCDBF11E0A0E05B
:10038000B1E0EAEBF2E302C005900D92A63DB107A1
:10039000D9F723E0A6EDB1E001C01D92AB3DB20755
:1003A000E1F711E0C7EBD1E004C02197FE010E9404
:1003B0005317C63BD107C9F70E94E5110C94501999
:1003C0000C9400000F931F93CF93DF9380918503CC
:1003D000909186038130910521F0029709F49CC029
:1003E00028C2E091BD03F091BE0386AD97AD0197A1
:1003F00009F01FC20E948F11E091BD03F091BE036E
:10040000DF01AD5BBF4F0D911D912D913C91139775
:10041000AB01BC01401B510B620B730B40315742C7
:100420006105710508F458C01D921D921D921C9221
:10043000139713978D919C9197AF86AF8091C103CD
:100440009091C2032091BF033091C00335AB24AB20
:1004500097AB86AB6091BF037091C00380E190E0E1
:100460000E94D90D6091C1037091C20382E190E0B6
:100470000E94D90D8EE191E00E94230F88E391E064
:100480000E94230F8EE191E00E94230F84E591E00A
:100490000E94230F8FE591E00E94D00E80E190E052
:1004A0000E94EA0D0E941F108CE691E00E94D00E7F
:1004B00082E190E00E94EA0D0E941F1089E791E01E
:1004C0000E94230F1092C2031092C1038FEF93E09A
:1004D0009093C0038093BF03E091BD03F091BE03EE
:1004E00081A992A90E94A40F2091C1033091C20357
:1004F0002817390724F49093C2038093C1032091F5
:10050000BF033091C003821793070CF092C1909300
:10051000C0038093BF038DC18091C3039091C40336
:10052000FC0126AD37AD2230310509F082C12091A2
:10053000C6033091C7032115310509F474C1E95B85
:10054000FF4FC081D0E02C173D0709F464C0233071
:100550003105A1F1A4F42130310509F447C022305E
:10056000310509F050C080960E949E0A8093C8030E
:1005700082E691E00E94B50E8091C80342C025300A
:10058000310541F17CF026303105E9F583960E9472
:100590009E0A8093CC0380E891E00E94B50E809182
:1005A000CC032FC04D960E949E0A8093CA038EE909
:1005B00091E00E94B50E8091CA0323C04D960E941F
:1005C0009E0A8093CB0380E991E00E94B50E809152
:1005D000CB0317C083960E949E0A8093CD0380E7C9
:1005E00091E00E94B50E8091CD030BC080960E94D1
:1005F0009E0A8093C90384E591E00E94B50E809124
:10060000C9030E94C90FD093C703C093C6038EE0ED
:1006100092E00E94310F8091C6039091C70387300A
:1006200091050CF096C08530910534F48330910526
:100630009CF501972CF4FDC007970CF459C0F9C044
:1006400060E070E08091C3039091C4030E94770C36
:10065000E091C303F091C403882331F0CF014896A1
:1006600026A1211115C011C062E070E0CF010E94E7
:10067000770C882309F4DDC0E091C303F091C40333
:10068000CF01489626A1222319F045E050E002C090
:100690004BEF5FEF61E057C060E070E08091C30313
:1006A0009091C4030E94770CE091C303F091C403BE
:1006B000882331F0CF01489626A1211115C011C021
:1006C00062E070E0CF010E94770C882309F4B1C08A
:1006D000E091C303F091C403CF01489626A12223E1
:1006E00019F045E050E002C04BEF5FEF62E02BC035
:1006F00060E070E08091C3039091C4030E94770C86
:10070000E091C303F091C403882331F0CF014896F0
:1007100026A1211115C011C062E070E0CF010E9436
:10072000770C882309F485C0E091C303F091C403DA
:10073000CF01489626A1222319F045E050E002C0DF
:100740004BEF5FEF63E0DF91CF911F910F910C941E
:10075000B20C1092C7031092C6034091C903609176
:10076000C80381E090E00E94DC0F4091CB036091D0
:10077000CA0382E090E00E94DC0F4091CD036091BB
:10078000CC0383E090E00E94DC0F88EF91E00E94B0
:10079000310F8CEE91E00E94B50E8BE090E00E944C
:1007A000E80D0E94C90F80EE91E00E94B50E8CE02A
:1007B00090E00E94E80D0E94C90F82ED91E00E9436
:1007C000B50E8DE090E00E94E80D0E94C90F84EC08
:1007D00091E00E94B50E8EE090E00E94E80D0E942C
:1007E000C90F88EB91E00E94B50E89E090E00E946D
:1007F000E80D0E94C90F8CEA91E00E94B50E8AE0D4
:1008000090E00E94E80D0E94C90FE091C303F091AF
:10081000C403DF01A95BBF4F1C9217978D919C9178
:1008200097AF86AF06C081E090E09093C7038093B6
:10083000C603DF91CF911F910F910895CF92DF9260
:10084000EF92FF920F931F93CF93DF93E091B30347
:10085000F091B40386AD97AD009749F0049709F085
:10086000D2C0EE5BFF4F8081882309F4CCC00E9488
:100870008F110091B5031091B6032091B703309109
:10088000B803DC01CB01801B910BA20BB30B40978B
:10089000A105B10508F4B7C00E948F116093B5039C
:1008A0007093B6038093B7039093B803C091B303DA
:1008B000D091B40389A99AA90E94A40FCCA8DDA85D
:1008C0000D2C000CEE08FF08092E000CAA0BBB0B28
:1008D0009C01AD012C193D094E095F09AFEFB3E052
:1008E0000E94BD162EA93FA98901330F220B330B9D
:1008F000A90198012C193D094E095F090E949E1615
:1009000037FD27C0E9012115344014F0CFEFD3E0C3
:10091000C93582E0D807C4F0CE010D2E000CAA0B19
:10092000BB0B9C01AD012855324041095109AAE099
:10093000B0E00E94BD1627EA31E040E050E00E949E
:100940009E16922F832F1DC0C03981E0D807BCF4BA
:1009500002C0C0E0D0E09E01A6EFBFEF0E944417A6
:1009600020E931E040E050E00E949E16BA01A90162
:10097000465F5F4F6F4F7F4F942F852F02C090E0EF
:1009800080E0092F182F0B30110514F00AE010E059
:10099000C03981E0D807D4F48091B3039091B403B7
:1009A000A80163E048960E946E0D8091B303909178
:1009B000B403A80162E04896DF91CF911F910F9197
:1009C000FF90EF90DF90CF900C946E0DC935D24020
:1009D000D4F08091B3039091B403A80163E04896EA
:1009E0000E948C0D8091B3039091B403A80162E042
:1009F0004896DF91CF911F910F91FF90EF90DF907C
:100A0000CF900C948C0DDF91CF911F910F91FF909F
:100A1000EF90DF90CF900895CF93DF9360E070E088
:100A200080918F03909190030E94770C882309F4A2
:100A300062C048EE53E060E070E083E993E00E941A
:100A40003F0F882321F086E491E00E94310F60E09F
:100A500070E080918F03909190030E942011882371
:100A600009F4A4C148E853E160E070E083EA93E050
:100A70000E943F0F882309F499C183E391E00E940B
:100A8000310FE0918F03F091900386AD97AD892BE4
:100A900009F08CC180E291E00E94310F80918F03B8
:100AA0009091900340E050E062E048960E94120D61
:100AB0000E946D0F80918F039091900344EB50E062
:100AC00062E048960E94120DC0918F03D09190036E
:100AD000FE01E05CFF4F118210820E948F11FE0127
:100AE000ED5BFF4F608371838283938381E090E0AD
:100AF0009FAF8EAF5BC161E070E080918F039091FA
:100B000090030E94770C882309F46AC048EE53E0F2
:100B100060E070E087E993E00E943F0F882389F04E
:100B200082E191E00E94310FE0918F03F0919003F8
:100B300086AD97AD029729F4E95BFF4F80818F5F07
:100B4000808361E070E080918F03909190030E9418
:100B50002011882309F42AC148E853E160E070E0DD
:100B600087EA93E00E943F0F882309F41FC18FEFAB
:100B700090E00E94310FE0918F03F091900386ADD9
:100B800097AD892B09F012C18CEE90E00E94310FD5
:100B900080918F039091900340E050E063E048968D
:100BA0000E94120D0E946D0F80918F03909190030F
:100BB00044EB50E063E048960E94120DE0918F03F1
:100BC000F0919003DF01A05CBF4F11961C921E9222
:100BD000179681E08C9382E090E097AF86AFE6C0F5
:100BE00062E070E080918F03909190030E94770CF7
:100BF000882309F45AC048EE53E060E070E08BE9C6
:100C000093E00E943F0F8823A1F18EED90E00E94B7
:100C1000310FE0918F03F091900386AD97AD892B52
:100C200041F580919103882391F087EC90E00E9438
:100C3000310F80918F0390919003FC0144A550E007
:100C400061E048960E94120D1092910312C083ED4C
:100C500090E00E94310F80918F0390919003FC01EE
:100C600043A550E061E048960E94120D81E0809318
:100C7000910362E070E080918F03909190030E9455
:100C80002011882309F492C048E853E160E070E045
:100C90008BEA93E00E943F0F882309F487C084EB1E
:100CA00090E0DF91CF910C94310F63E070E0809180
:100CB0008F03909190030E94770C882309F476C0EB
:100CC00048EE53E060E070E08FE993E00E943F0F50
:100CD000882341F187EA90E00E94310FE0918F0371
:100CE000F091900386AD97AD892BE1F4809192034A
:100CF000882361F08BE890E00E94310FE0918F0330
:100D0000F091900311A6109292030CC08AE990E032
:100D10000E94310FE0918F03F091900381E081A751
:100D20008093920363E070E080918F039091900331
:100D30000E9420118823D1F148E853E160E070E07F
:100D40008FEA93E00E943F0F882381F189E790E0CA
:100D50000E94310FE0918F03F091900386AD97AD23
:100D6000892B21F596A181E0892786A384E090E074
:100D70000E94E80D813011F061E001C062E084E082
:100D800090E00E94C50D88E690E00E94B50E84E0D8
:100D900090E00E94E80D813019F08AE991E002C0EC
:100DA00084E991E0DF91CF910C94230FDF91CF91F3
:100DB00008954F925F926F927F928F929F92AF921F
:100DC000BF92EF92FF921F93CF93DF93EC01888144
:100DD00099819D838C83892B31F48F81988500972D
:100DE00011F00E94D90611E08C819D81892B09F4B4
:100DF0007DC08F819885009729F00E94D9068111C6
:100E000001C010E0EC81FD81E1A0F2A0808180FFB3
:100E10006AC085859685A785B089892B8A2B8B2BFF
:100E200069F4908180818E7F808380818D7F808333
:100E300090FF59C0CF010E94FE0D55C00E948F1136
:100E4000EC81FD812181328143815481418452842E
:100E50006384748485809680A780B084DC01CB0194
:100E600084199509A609B70988159905AA05BB052E
:100E7000D0F185859685A785B089181619061A06BA
:100E80001B065CF485859685A785B0890197A10925
:100E9000B10985879687A787B08B85899689A789A9
:100EA000B08D0196A11DB11D858B968BA78BB08F40
:100EB00085809680A780B08481859285A385B4853E
:100EC000880D991DAA1DBB1D81879287A387B487B2
:100ED0002583368347835087018CF28DE02D309730
:100EE00011F0099510E0FD82EC827ECF112399F07C
:100EF0008E81882381F083B7817F83BF83B7816030
:100F000083BF83B7816083BF889583B78E7F83BF9C
:100F100083B78E7F83BF812FDF91CF911F91FF9089
:100F2000EF90BF90AF909F908F907F906F905F9069
:100F30004F9008950F931F93CF93DF93FC01A3A1CC
:100F4000B4A11097E9F1EC01158A168A178A108E60
:100F5000038CF48DE02D309779F1888181FD2CC0D0
:100F600014960D911C9115971596DC93CE931497BA
:100F70008881826088830995988180FB90F99883A5
:100F800088818D7F8883EBA1FCA1158304830E9457
:100F90008F1109811A812B813C810D831E832F8340
:100FA0003887DC01CB01801B910BA20BB30B898727
:100FB0009A87AB87BC8704C0888181608883E7CF2C
:100FC000DF91CF911F910F910895CF93DF93EC01A3
:100FD000988188818E7F888388818D7F888390FF28
:100FE00003C0CE010E94FE0D8BA19CA1009769F168
:100FF0001CA21BA2EF8DF8A1A9A1BAA1309799F468
:10100000109749F4DC0111961C921E9213961C92C3
:101010001E9212971AC090961C921E925F97FC0126
:10102000B183A08312C0109741F412A211A2DC0177
:101030001396FC93EE93129708C0B2A3A1A3A9A1A3
:10104000BAA19096FC93EE935F97DF91CF910895AC
:10105000CF92DF92EF92FF920F931F93CF93DF9384
:101060006C017A018B01C0E0D0E0CE15DF0581F084
:10107000D8016D918D01D601ED91FC910190F08127
:10108000E02DC6010995892B11F02196EECF7E0146
:10109000C701DF91CF911F910F91FF90EF90DF90EB
:1010A000CF900895089580E090E00895FC01538D5D
:1010B000448D252F30E0842F90E0821B930B541732
:1010C00010F0CF96089501970895FC01918D828DBF
:1010D000981761F0828DDF01A80FB11D5D968C918C
:1010E000928D9F5F9F73928F90E008958FEF9FEF97
:1010F0000895FC01918D828D981731F0828DE80F53
:10110000F11D858D90E008958FEF9FEF0895FC010C
:10111000918D228D892F90E0805C9F4F821B9109D9
:101120008F739927089580E292E00E94870821E05A
:10113000892B09F420E0822F0895FC01848DDF01C2
:10114000A80FB11DA35ABF4F2C91848D90E001963A
:101150008F739927848FA689B7892C93A089B18929
:101160008C91837080648C93938D848D981306C0CA
:101170000288F389E02D80818F7D80830895EF922E
:10118000FF920F931F93CF93DF93EC0181E0888F41
:101190009B8D8C8D981305C0E889F989808185FD28
:1011A00026C0F62E0B8D10E00F5F1F4F0F73112717
:1011B000E02E8C8DE8120CC00FB607FCFACFE88940
:1011C000F989808185FFF5CFCE010E949D08F1CF7E
:1011D0008B8DFE01E80FF11DE35AFF4FF0829FB7A0
:1011E000F8940B8FEA89FB89808180620AC09FB7DF
:1011F000F894EE89FF896083E889F989808183709A
:10120000806480839FBF81E090E0DF91CF911F9148
:101210000F91FF90EF900895CF93DF93EC01888DAD
:101220008823C9F0EA89FB89808185FD05C0A889EA
:10123000B9898C9186FD0FC00FB607FCF5CF808170
:1012400085FFF2CFA889B9898C9185FFEDCFCE01BA
:101250000E949D08E7CFDF91CF91089580E090E054
:10126000892B29F00E94930881110C9400000895A5
:10127000CF92DF92EF92FF92CF93DF93EC01603237
:1012800032E073070CF03EC0CB01653B710514F0F2
:1012900084EB90E02981A8E8B0E06D01C21AD10882
:1012A00027FDD394D601AA0FBB1FAA0FBB1F6D0148
:1012B000BB0FEE08FF084A8128E532E0241B310904
:1012C00047FD3395220F331F220F331FA901330F20
:1012D000660B770B9A01AB012C193D094E095F098A
:1012E000DC0197FF02C0A0E0B0E00E94C81624EB2A
:1012F00030E040E050E00E949E16C20ED31EE41E75
:10130000F51EB601E881EC3058F5298188E890E0B7
:10131000821B910927FD9395880F991F880F991FAC
:10132000681779077CF02A8188E592E0821B910991
:1013300027FD9395880F991F880F991F68177907C4
:101340000CF4CB010297880F991F2FB7F89436E061
:10135000E39FF0011124E852FE4F928381832FBF57
:10136000DF91CF91FF90EF90DF90CF900895FC0137
:1013700082810C9409110F931F93CF93DF93EC019B
:1013800088819981009729F02A813B8126173707A8
:1013900088F48B016F5F7F4F0E947A18009761F08D
:1013A000998388831B830A832C813D81232B11F42D
:1013B000FC01108281E001C080E0DF91CF911F919C
:1013C0000F910895CF93DF93EC0188819981009765
:1013D00011F00E94F117198218821D821C821B8253
:1013E0001A82DF91CF910895CF92DF92EF92FF9210
:1013F0000F931F93CF93DF93CDB7DEB728970FB628
:10140000F894DEBF0FBECDBF8C01CB014AE09E0138
:101410002F5F3F4F6901B9010E942A16F601019022
:101420000020E9F73197EC19FD0901F1D801149674
:10143000ED90FC901597EE0EFF1EB701C8010E94BB
:10144000BB09882381F0F801208131818481958155
:10145000B601820F931F0E944919D8011596FC927C
:10146000EE92149703C0C8010E94E209C8012896B1
:101470000FB6F894DEBF0FBECDBFDF91CF911F91A5
:101480000F91FF90EF90DF90CF9008951F920F92F1
:101490000FB60F9211242F933F934F935F936F9347
:1014A0007F938F939F93AF93BF93EF93FF9380E2CC
:1014B00092E00E949D08FF91EF91BF91AF919F91A3
:1014C0008F917F916F915F914F913F912F910F90ED
:1014D0000FBE0F901F9018951F920F920FB60F928C
:1014E00011242F938F939F93EF93FF93E0913002FA
:1014F000F09131028081E0913602F091370282FD55
:1015000012C09081809139028F5F8F7320913A02CF
:10151000821751F0E0913902F0E0E05EFD4F958FC7
:101520008093390201C08081FF91EF919F918F914B
:101530002F910F900FBE0F901F9018958F929F9232
:10154000AF92BF92CF92DF92EF92FF92FC01828125
:1015500028E532E06901C81AD10887FDD394CC0C84
:10156000DD1CCC0CDD1C0D2C000CEE08FF0881816D
:1015700028E830E04901881A910887FD9394880C87
:10158000991C880C991C092C000CAA08BB08E08146
:10159000EF3FA9F086E0E89FF0011124E852FE4FEA
:1015A0002181328183E0220F331F8A95E1F794E095
:1015B000369527959A95E1F72E5F3F4F02C020E0C0
:1015C00030E02F5F3F4FC901330FAA0BBB0B9C01CB
:1015D000AD01281939094A095B09A4EBB0E00E9462
:1015E000BD16A7019601281939094A095B090E940D
:1015F0009E16C901FF90EF90DF90CF90BF90AF9003
:101600009F908F900895623031F0633031F06130F7
:1016100041F4089603C0059601C00B960E949E0AED
:1016200008958FEF08951F93CF93DF93EC01162F4A
:1016300088818C3008F04BC061E0812F0E94CD1072
:10164000888196E0899FF0011124E852FE4F1F73B4
:101650009081907C192B108319821A826CE00E9471
:1016600038179CE0899FA001112420E030E096E02B
:10167000BA01620F731F969FF001979FF00D11241E
:10168000E852FE4F608166FD16C02F5F3F4F2C3041
:10169000310571F781110FC01092800082E08093B4
:1016A00081001092850010928400B19A80916F00A1
:1016B000826080936F00E88186E0E89FF00111244A
:1016C000E852FE4F8081806480838FEF838388811E
:1016D000DF91CF911F910895E091D701EC3088F40C
:1016E00021E02E0F2093D701DC01EC93B6E0EB9FB5
:1016F000F0011124E852FE4F88EB9BE09283818336
:1017000008952FEFFC01208308951F920F920FB6CA
:101710000F9211240F931F932F933F934F935F9337
:101720006F937F938F939F93AF93BF93EF93FF93A9
:101730008091D60187FF05C0109285001092840029
:1017400037C02091D601022E000C330B8091D701B7
:1017500090E02817390764F52091D60116E021039F
:10176000F0011124E852FE4F808186FF21C02091B4
:10177000D6012103F0011124E852FE4F808160E080
:101780008F730E949E102091D6012103F001112435
:10179000E852FE4F83818F3F59F02091D6012103FB
:1017A000F0011124E852FE4F60E083810E94CD10C9
:1017B0008091D6018F5F8093D6012091D601022EB1
:1017C000000C330B8091D70190E0281739070CF0FB
:1017D00064C08091D6018C300CF05FC040918400D1
:1017E000509185002091D60116E02103F0011124CB
:1017F000E852FE4F81819281840F951F909389005A
:10180000809388002091D6012103F0011124E85231
:10181000FE4F808186FF58C02091D6012103F00140
:101820001124E852FE4F808161E08F730E949E1068
:101830002091D6012103F0011124E852FE4F83814B
:101840008F3F09F441C00091D6012091D6012103B8
:10185000F0011124E852FE4F83810E940911010317
:10186000F0011124E852FE4F958384832091D60124
:101870002103F0011124E852FE4F61E083810E94B0
:10188000CD102091D6012103F0011124E852FE4F22
:1018900060E083810E949E1017C080918400909127
:1018A0008500049680349C4918F480E49CE905C0C6
:1018B0008091840090918500049690938900809394
:1018C00088008FEF8093D601FF91EF91BF91AF9188
:1018D0009F918F917F916F915F914F913F912F9148
:1018E0001F910F910F900FBE0F901F901895CF92E0
:1018F000DF92EF92FF921F93CF93DF936C01EB0186
:101900007C01E60EF71EF70180819CEE980F923065
:1019100038F40E94091111E0883C91053CF005C0A3
:101920000E94751011E0892B09F010E0F701848105
:10193000811779F00E948F112296CC0FDD1FCC0FFA
:10194000DD1FCC0DDD1D688379838A839B83F701BE
:101950001483812FDF91CF911F91FF90EF90DF9043
:10196000CF900895FF920F931F93CF93DF938C0135
:10197000F62EEA010E94030BBE01680F711D77FD70
:1019800006C0653B710524F064EB70E001C060E0C7
:1019900082E0F81651F083E0F81659F081E0F81271
:1019A00012C070E0C801089607C070E0C801059633
:1019B00003C070E0C8010B96DF91CF911F910F918A
:1019C000FF900C943809DF91CF911F910F91FF90F8
:1019D0000895FC0150E0453B510514F044EB50E004
:1019E00030E0253B310514F024EB30E0922F421714
:1019F00008F4242F941708F4942F8685811103C0CE
:101A0000822F292F982F623039F0633041F06130F6
:101A100041F4938B248B0895958B268B0895978B97
:101A2000208F0895FC01623031F06330D1F16130D4
:101A300009F053C01BC0808981114FC086899589E8
:101A4000682F981708F4692F262F30E042175307A4
:101A50004CF0682F891708F4692F70E04617570774
:101A60000CF4BA0170E0CF01059635C0878581116D
:101A700034C084899389682F981708F4692F262F1A
:101A800030E0421753074CF0682F891708F4692F8C
:101A900070E0461757070CF4BA0170E0CF010896C2
:101AA0001AC08189811119C0808D9789682F981774
:101AB00008F4692F262F30E0421753074CF0682FA7
:101AC000891708F4692F70E0461757070CF4BA011C
:101AD00070E0CF010B960C94380908950F931F9373
:101AE000CF93DF938C01D62FFC018685C42F811103
:101AF00001C0C1956D2FC8010E94030B482F50E013
:101B00004C0F511DC7FD5A956D2FC801DF91CF9124
:101B10001F910F910C94120D0F931F93CF93DF938E
:101B20008C01D62FFC018685C42F8111C1956D2FA4
:101B3000C8010E94030B482F50E04C0F511DC7FDF8
:101B40005A956D2FC801DF91CF911F910F910C9481
:101B5000120D0F931F93CF93DF938C0183E090E0DE
:101B60000E945917EC01F80187812AE031E039839E
:101B700028838A8360E00E94CD10F801D183C0835E
:101B8000DF91CF911F910F9108951F93CF93DF9312
:101B9000EC01162F0E948816181739F0612FCE011C
:101BA000DF91CF911F910C949016DF91CF911F91EF
:101BB00008951F93CF93DF93EC01172F0E94C50D5B
:101BC000612FCE010196DF91CF911F910C94C50D2D
:101BD0000C9488161F93CF93DF93EC010E94E80DBD
:101BE000182FCE0101960E94E80D90E0982F8827CB
:101BF000810F911DDF91CF911F9108950F931F9336
:101C0000CF93DF93DC015D96ED91FC915E97309769
:101C100081F0EC01ABA1BCA114960D911C9115971C
:101C200015969C938E9314970995EBA1FCA11583AF
:101C30000483DF91CF911F910F910895833081F03C
:101C400028F4813099F08230A1F008958730A9F00E
:101C50008830B9F08430D1F4809180008F7D03C04A
:101C6000809180008F7780938000089584B58F776E
:101C700002C084B58F7D84BD08958091B0008F77B8
:101C800003C08091B0008F7D8093B00008950F93C2
:101C90001F93CF93DF93EC0188818E7F88838881A7
:101CA0008D7F888319861A861B861C861D821E825C
:101CB0001F82188619821A821B821C8218A21F8E0C
:101CC0001AA219A21CA21BA21D8A1E8A1F8A188E84
:101CD0003A8F298F1C8E1B8E1E8E1D8E49835A8330
:101CE0006B837C8389819A81AB81BC818D839E8348
:101CF000AF83B8870E948F1169877A878B879C870B
:101D00008FEF9FEFDC018D879E87AF87B88B898B24
:101D10009A8BAB8BBC8B0115110501F18BA19CA19A
:101D200008171907D9F01CA30BA3D8018D919C911A
:101D30001197892B29F4CD93DC9318A21F8E09C02B
:101D4000D8011296ED91FC911397F8A3EF8FD2A3CF
:101D5000C1A31AA219A2F801D383C283CE01DF91D5
:101D6000CF911F910F910C949A070F931F93CF93CC
:101D7000DF938C01C0E0D0E0F801EC0FFD1F64910F
:101D8000662341F080E292E00E94BF08892B11F0A7
:101D90002196F2CFCE01DF91CF911F910F9108953F
:101DA000009769F0FC0101900020E9F73197AF013D
:101DB000481B590BBC0180E292E00C94280880E09B
:101DC00090E008958F929F92AF92BF920F931F93CE
:101DD000CF93DF93CDB7DEB7A1970FB6F894DEBFF0
:101DE0000FBECDBF19A2423008F44AE08E010F5D4C
:101DF0001F4F842E912CA12CB12CA50194010E947F
:101E00000717E62FB901CA0101501109EA3014F48D
:101E1000E05D01C0E95CD801EC93232B242B252B3A
:101E200061F7C8010E94D00EA1960FB6F894DEBFEC
:101E30000FBECDBFDF91CF911F910F91BF90AF909B
:101E40009F908F900895CF93DF930E94D00EEC0166
:101E500081ED91E00E94D00E8C0F9D1FDF91CF91FC
:101E60000895CF93DF930E94B50EEC0181ED91E0D0
:101E70000E94D00E8C0F9D1FDF91CF910895CF92BD
:101E8000DF92EF92FF920F931F93CF93DF93EC01BA
:101E90006A017B010E948F11088119812A813B818F
:101EA000DC01CB01801B910BA20BB30B11E0C81618
:101EB000D906EA06FB0608F010E00E948F1168833D
:101EC00079838A839B83812FDF91CF911F910F911B
:101ED000FF90EF90DF90CF9008958F929F92AF92F6
:101EE000BF92CF92DF92EF92FF920E946A114B0154
:101EF0005C0184E6C82ED12CE12CF12C0E946A11E1
:101F0000DC01CB0188199909AA09BB09883E9340D5
:101F1000A105B10598F321E0C21AD108E108F10842
:101F200088EE880E83E0981EA11CB11CC114D10458
:101F3000E104F10419F7FF90EF90DF90CF90BF908C
:101F4000AF909F908F900895EF92FF920F931F9301
:101F5000CF93DF937C0100E110E0C0E0D0E0D70137
:101F6000ED91FC910190F081E02DC7010995C80F1A
:101F7000D91F0150110999F7CE0124E09595879555
:101F80002A95E1F7DF91CF911F910F91FF90EF908C
:101F90000895CF93DF93682F70E080E090E04AE0EF
:101FA0000E94E20EEC0181ED91E00E94D00E8C0FB8
:101FB0009D1FDF91CF9108951F93CF93DF93C82F7B
:101FC000D62F641710F4142F02C0162FD42FC2304E
:101FD00051F0C33071F0C13091F46D2F89E090E081
:101FE0000E94C50D12C06D2F8BE090E00E94C50DC0
:101FF00010C06D2F8DE090E00E94C50D0EC0C23064
:1020000041F0C33051F0C13069F4612F8AE090E0B3
:1020100007C0612F8CE090E003C0612F8EE090E05C
:102020000E94C50D8091C3039091C403212F4D2FB1
:102030006C2F4896DF91CF911F910C94E90CCF92B1
:10204000DF92EF92FF92CF93DF936C01990FEE082E
:10205000FF08F7FE13C06DE280E292E00E94BF0825
:10206000EC0166277727CB016C197D098E099F0942
:102070004AE00E94E20EC80FD91F06C04AE0C7011D
:10208000B6010E94E20EEC0181ED91E00E94D00EBB
:102090008C0F9D1FDF91CF91FF90EF90DF90CF903D
:1020A00008950F931F93CF93DF93EC010C811D8153
:1020B0000F5F1F4FB8010E94BB09882369F0288178
:1020C00039818C819D8164ED71E0820F931F0E94A4
:1020D00049191D830C8303C0CE010E94E209CE0181
:1020E000DF91CF911F910F910895CF93DF93282F08
:1020F00030E0F901E95AFC4F8491F901ED5BFC4FA6
:10210000D491F901E15DFC4FC491CC2391F0811190
:102110000E941E0EEC2FF0E0EE0FFF1FEB5DFC4F58
:10212000A591B491EC91ED2381E090E021F480E061
:1021300002C080E090E0DF91CF9108951F93CF938C
:10214000DF93282F30E0F901E95AFC4F8491F9011F
:10215000ED5BFC4FD491F901E15DFC4FC491CC23C0
:10216000C1F0162F81110E941E0EEC2FF0E0EE0F31
:10217000FF1FE55EFC4FA591B4919FB7F894111134
:1021800004C08C91D095D82302C0EC91DE2BDC9357
:102190009FBFDF91CF911F910895CF93DF9390E080
:1021A000FC01ED5BFC4F2491FC01E15DFC4F84914F
:1021B000882361F190E0880F991FFC01EF5EFC4FCE
:1021C000C591D491FC01E55EFC4FA591B4916111DC
:1021D00009C09FB7F8948881209582238883EC9169
:1021E0002E230BC0623061F49FB7F8948881322FA0
:1021F000309583238883EC912E2B2C939FBF06C0B0
:102200008FB7F894E8812E2B28838FBFDF91CF9171
:1022100008958E3008F08E508770806480937C0023
:1022200080917A00806480937A0080917A0086FDA4
:10223000FCCF809178002091790090E0922B089556
:10224000EF92FF920F931F93CF93DF937C01FC01DA
:10225000E60FF71F80819CEE980FEB0122969230DB
:1022600030F40E940911883C91059CF004C00E9442
:102270007510892B71F010E00E948F11CC0FDD1FBB
:10228000CC0FDD1FCE0DDF1D688379838A839B838E
:1022900019C00E948F11CC0FDD1FCC0FDD1FCE0D9A
:1022A000DF1D088119812A813B81DC01CB01801B64
:1022B000910BA20BB30B11E088389341A105B10536
:1022C00008F410E0812FDF91CF911F910F91FF90C3
:1022D000EF9008953FB7F8948091D3039091D40381
:1022E000A091D503B091D60326B5A89B05C02F3F7A
:1022F00019F00196A11DB11D3FBFBA2FA92F982F2C
:102300008827820F911DA11DB11DBC01CD0142E0A6
:10231000660F771F881F991F4A95D1F708952FB729
:10232000F8946091CF037091D0038091D103909184
:10233000D2032FBF08951F920F920FB60F92112450
:102340002F933F938F939F93AF93BF938091CF032E
:102350009091D003A091D103B091D2033091CE03DC
:1023600023E0230F2D3720F40196A11DB11D05C0D8
:1023700026E8230F0296A11DB11D2093CE03809362
:10238000CF039093D003A093D103B093D203809155
:10239000D3039091D403A091D503B091D6030196B5
:1023A000A11DB11D8093D3039093D403A093D503B3
:1023B000B093D603BF91AF919F918F913F912F9191
:1023C0000F900FBE0F901F901895CF93DF93CDB74E
:1023D000DEB760970FB6F894DEBF0FBECDBF78941E
:1023E00084B5826084BD84B5816084BD85B582601A
:1023F00085BD85B5816085BD80916E0081608093CB
:102400006E00109281008091810082608093810033
:102410008091810081608093810080918000816043
:10242000809380008091B10084608093B10080919E
:10243000B00081608093B00080917A0084608093C6
:102440007A0080917A00826080937A0080917A008D
:10245000816080937A0080917A00806880937A000E
:102460001092C100E0913002F091310282E080834D
:10247000E0912C02F0912D021082E0912E02F09159
:102480002F0283E3808310923802E0913402F091AE
:10249000350296E09083E0913202F0913302808120
:1024A00080618083E0913202F09133028081886004
:1024B0008083E0913202F0913302808180688083D2
:1024C000E0913202F091330280818F7D808385E03C
:1024D00080935F0389E080936003909361038FEFA3
:1024E000809362038093630361E085E00E94CD10D6
:1024F00061E0809160030E94CD1061E080916103F2
:102500000E94CD1082E38093710360915F0370E0BD
:1025100084E693E00E94130B6091600370E087E60D
:1025200093E00E94130B6091610370E08AE693E0F0
:102530000E94130B2BE44FE061E08FE593E00E94D3
:10254000E90C2BE44FE062E08FE593E00E94E90C98
:102550002BE44FE063E08FE593E00E94E90C84E117
:102560008093470385E1809348038EE0809349037D
:102570008AE080934A0307E413E062E0F801819166
:102580008F010E94CD10F3E00B341F07B1F78FE0ED
:1025900080937F038FEF8093800380938103109259
:1025A0007A0388E793E00E94A90D87E493E0909373
:1025B000BC038093BB0319821A821B821C82CE014A
:1025C00001967C0100E010E06C01C8010E948816B1
:1025D000F70181937F010F5F1F4F04301105A9F7A9
:1025E00069817A818B819C8120E03EEC4BE257E44B
:1025F0000E945F1681118EC061E085E090E00E942C
:10260000C50D62E086E090E00E94C50D60E087E0C5
:1026100090E00E94C50D0091BB031091BC0384E0C3
:1026200090E00E94E80D7801F8E1EF0EF11C91E0D6
:10263000813009F090E0F80196A324A543A561E05C
:10264000C7010E94E90CF80126A545A562E0C70173
:102650000E94E90CF80120A947A563E0C7010E9488
:10266000E90C0091BB031091BC0389E090E00E944B
:10267000E80DF82E8AE090E00E94E80D282F4F2DFB
:1026800061E0C80148960E94E90C0091BB031091DB
:10269000BC038BE090E00E94E80DF82E8CE090E007
:1026A0000E94E80D282F4F2D62E0C80148960E9435
:1026B000E90C0091BB031091BC038DE090E00E94F7
:1026C000E80DF82E8EE090E00E94E80D282F4F2DA7
:1026D00063E0C80148960E94E90C8090BB0390908B
:1026E000BC038FE090E00E94E80D182F80E190E09D
:1026F0000E94EA0D5C0182E190E00E94EA0D7C01FB
:10270000C401C196F40113AB123008F057C00E9407
:10271000A90D54C061E084E090E00E94C50D6FE017
:1027200089E090E00E94C50D6BE48AE090E00E9491
:10273000C50D6FE08BE090E00E94C50D6BE48CE06E
:1027400090E00E94C50D6FE08DE090E00E94C50D05
:102750006BE48EE090E00E94C50D60E08FE090E0B9
:102760000E94C50D60E070E080E190E00E94D90D0C
:102770006FEF73E082E190E00E94D90D80E09EEC63
:10278000ABE2B7E48D879E87AF87B88B7E01FDE013
:10279000EF0EF11C00E010E0F701B1907F01C801DD
:1027A0000E948816B81621F06B2DC8010E94901661
:1027B0000F5F1F4F0430110579F71ECF07E413E0B8
:1027C000E091BB03F091BC03B5AAA4AAF7AAE6AABC
:1027D0001093900300938F031093B4030093B303FB
:1027E0000E948F116093B5037093B6038093B70373
:1027F0009093B8031093BE030093BD031093C403DA
:102800000093C3038FE592E00E94310F1A82198270
:102810001C821B821E821D826CE170E0C6010E9438
:10282000BB09811104C0C6010E94E2090AC08CE103
:1028300090E09E838D8364EB71E089819A810E9490
:10284000491918861F821A8619861C861B860981DB
:102850001A8101151105A9F0ED80FE80B701CE01A6
:1028600007960E94BB09811105C0CE0107960E9400
:10287000E20907C0FC86EB86B8018F8198850E942B
:10288000491961E070E0CE0107960E94F4090E94A8
:10289000511062E070E00E94F4090E94511060E063
:1028A00070E00E94F409FC014481558160817181CE
:1028B00080E292E00E94280881ED91E00E94D00E13
:1028C0008F8198850E94F11789819A810E94F11762
:1028D00084E492E00E94310F8EE192E00E94310F79
:1028E00081E093E00E94310F89EF92E00E94B50EE3
:1028F00084E090E00E94E80D813019F08AEA91E0CE
:1029000002C08FE991E00E94230F8DEE92E00E94B9
:10291000B50E89E090E00E94E80D0E94C90F81EE9B
:1029200092E00E94B50E8BE090E00E94E80D0E94BC
:10293000C90F83ED92E00E94B50E8DE090E00E94F9
:10294000E80D0E94C90F87EC92E00E94B50E8AE064
:1029500090E00E94E80D0E94C90F8BEB92E00E946C
:10296000B50E8CE090E00E94E80D0E94C90F8DEA40
:1029700092E00E94B50E8EE090E00E94E80D0E9469
:10298000C90F8FE992E00E94B50E8FE090E00E949F
:10299000E80D0E94C90F82E992E00E94B50E80E125
:1029A00090E00E94EA0D0E941F1085E892E00E94CC
:1029B000B50E82E190E00E94EA0D0E941F1085E3AF
:1029C00093E0F3E08E339F0721F0909346038093CA
:1029D0004503E0914503F0914603309709F01682D4
:1029E0008CE293E023E08533920721F090933D033E
:1029F00080933C03E0913C03F0913D03309709F054
:102A000016820EE313E0F801E080F180E114F10496
:102A100039F0C7010E949A07F701E1A0F2A0F6CFB2
:102A2000F801078110850115110569F78EE393E020
:102A30000E94D9060E942E09F9CF8DEB92E00E94E8
:102A4000E50782EE92E00E94E50787E093E00C94B0
:102A5000E507EF92FF920F931F93CF93DF93E0E28E
:102A6000F2E01382128288EE93E0A0E0B0E084836B
:102A70009583A683B78380E191E09183808385EC81
:102A800090E09587848784EC90E09787868780EC38
:102A900090E0918B808B81EC90E0938B828B82EC29
:102AA00090E0958B848B86EC90E0978B868B118ED3
:102AB000128E138E148E84E693E00E946C0B87E6D0
:102AC00093E00E946C0B8AE693E00E946C0BC7E4D3
:102AD000D3E011E01EA31FA218A619A682E38AA7BD
:102AE0001DAA1CAAEE24EA9483E0F82EFFAAEEAAFF
:102AF00081E090E00E9459179CAF8BAF1092880341
:102B0000109287031092890310928E031092910302
:102B100010929203109293031092940310929503D3
:102B200010929603109297031092980310929903B3
:102B300010929A0310929B0310929C0310929D0393
:102B400010929E0310929F031092A0031092A10373
:102B50001092A2031092A3031092A4031092A50353
:102B60001092A6031092A7031092A8031092A90333
:102B70001092AA031092AB031092AC031092AD0313
:102B80001092AE031092AF031092B0031092B103F3
:102B90001092B2031092B5031092B6031092B703CD
:102BA0001092B803F092C003E092BF031092C203E8
:102BB0001092C1031092C5031092C7031092C6036E
:102BC000EEE3F3E0118210821382128215821482E6
:102BD000108617821683E5E3F3E0118210821382D8
:102BE000128215821482108617821683ECE2F3E0BB
:102BF000118210821382128215821482108617822B
:102C000016830EE313E02CE035E044E650E060E08C
:102C100070E087E093E00E94470E2EE134E04AE046
:102C200050E060E070E082EE92E00E94470E0CE21D
:102C300013E022EE31E042E350E060E070E08DEB23
:102C400092E00E94470EDF91CF911F910F91FF906C
:102C5000EF900895BB274A3031F4992322F4BDE266
:102C6000909581959F4F0C943616BB27FB015527F5
:102C7000AA27880F991FAA1FA41710F0A41B8395D9
:102C80005051B9F7A05DAA3308F0A95DA193009750
:102C900079F7B111B1931192CB010C944F16DC016D
:102CA000FC01672F71917723E1F7329704C07C9183
:102CB0006D9370836291AE17BF07C8F308950E94A9
:102CC000641608F481E00895990F0008550FAA0BC7
:102CD000E0E8FEEF16161706E807F907C0F012162F
:102CE0001306E407F50798F0621B730B840B950B32
:102CF00039F40A2661F0232B242B252B21F4089587
:102D00000A2609F4A140A6958FEF811D811D089523
:102D1000F999FECF92BD81BDF89A992780B50895A3
:102D2000262FF999FECF1FBA92BD81BD20BD0FB6E7
:102D3000F894FA9AF99A0FBE01960895052E97FB1A
:102D40001EF400940E94B51657FD07D00E94071785
:102D500007FC03D04EF40C94B51650954095309571
:102D600021953F4F4F4F5F4F0895909580957095F7
:102D700061957F4F8F4F9F4F08950E942917A59F00
:102D8000900DB49F900DA49F800D911D1124089566
:102D9000B7FF0C94BD160E94BD16821B930B0895BD
:102DA0002F923F924F925F926F927F928F929F925B
:102DB000AF92BF92CF92DF92EF92FF920F931F9349
:102DC000CF93DF93CDB7DEB7CA1BDB0B0FB6F894FA
:102DD000DEBF0FBECDBF09942A88398848885F843A
:102DE0006E847D848C849B84AA84B984C884DF80AB
:102DF000EE80FD800C811B81AA81B981CE0FD11D8F
:102E00000FB6F894DEBF0FBECDBFED010895A1E26D
:102E10001A2EAA1BBB1BFD010DC0AA1FBB1FEE1F54
:102E2000FF1FA217B307E407F50720F0A21BB30B9F
:102E3000E40BF50B661F771F881F991F1A9469F71B
:102E400060957095809590959B01AC01BD01CF0177
:102E50000895A29FB001B39FC001A39F700D811D73
:102E60001124911DB29F700D811D1124911D089593
:102E7000991B79E004C0991F961708F0961B881FCC
:102E80007A95C9F7809508950E942917332312F483
:102E90008A1B9B0B0C944E170E942917B7FF0895AD
:102EA000821B930B0895EE0FFF1F0590F491E02D08
:102EB00009940F931F93CF93DF938230910510F401
:102EC00082E090E0E091D903F091DA0320E030E075
:102ED000A0E0B0E0309719F1408151810281138167
:102EE00048175907C8F08417950769F4109731F00F
:102EF00012960C93129713961C9327C00093D90334
:102F00001093DA0322C02115310519F04217530737
:102F100018F49A01BD01EF01DF01F801DBCF2115A3
:102F20003105F9F0281B390B2430310580F48A81F2
:102F30009B816115710521F0FB019383828304C09D
:102F40009093DA038093D903FE01329644C0FE01C8
:102F5000E20FF31F81939193225031093983288323
:102F60003AC02091D7033091D803232B41F420910C
:102F70000201309103013093D8032093D7032091AD
:102F80000001309101012115310541F42DB73EB703
:102F90004091040150910501241B350BE091D703AA
:102FA000F091D803E217F307A0F42E1B3F0B28176C
:102FB000390778F0AC014E5F5F4F2417350748F0B2
:102FC0004E0F5F1F5093D8034093D7038193919383
:102FD00002C0E0E0F0E0CF01DF91CF911F910F91AF
:102FE0000895CF93DF93009709F481C0FC013297D5
:102FF00013821282A091D903B091DA03109781F461
:1030000020813181820F931F2091D7033091D80303
:103010002817390751F5F093D803E093D70367C019
:10302000ED0120E030E0CE17DF0740F44A815B81FC
:103030009E0141155105F1F0EA01F5CFD383C2831A
:1030400040815181840F951FC817D90759F4888191
:103050009981840F951F0296918380838A819B8139
:10306000938382832115310529F4F093DA03E093E9
:10307000D9033DC0E901FB83EA8349915991C40F0B
:10308000D51FEC17FD0761F480819181840F951F96
:103090000296E90199838883828193819B838A8345
:1030A000E0E0F0E012968D919C911397009719F053
:1030B000FD01DC01F7CF8D919C9111979D012E5F51
:1030C0003F4F820F931F2091D7033091D8032817C9
:1030D000390769F4309729F41092DA031092D90372
:1030E00002C013821282B093D803A093D703DF915A
:1030F000CF910895A0E0B0E0E0E8F8E10C94D41698
:10310000EC01009721F4CB010E945917B4C0FC01D7
:10311000E60FF71F9C0122503109E217F30708F46C
:10312000A8C0D9010D911C91119706171707B0F08F
:103130000530110508F49BC0C8010497861797074E
:1031400008F495C002501109061B170B0193119347
:103150006D937C93CF010E94F11789C05B01A01A87
:10316000B10A4C01800E911EA091D903B091DA03EF
:10317000612C712CE12CF12C109709F446C08D9133
:103180009C911197A815B905B1F56C0142E0C40EE8
:10319000D11CCA14DB0478F14C018A189B08640125
:1031A00042E0C40ED11C1296BC9012971396AC91BB
:1031B000B5E0CB16D10440F0B282A3839182808225
:1031C000D9016D937C9309C00E5F1F4F800F911F33
:1031D000F90191838083EB2DFA2FE114F10431F092
:1031E000D7011396FC93EE93129741C0F093DA0344
:1031F000E093D9033CC06816790608F43C017D01D0
:1032000012960D90BC91A02DB7CF8091D7039091CD
:10321000D80388169906E1F466167706C8F48091FB
:10322000000190910101009741F48DB79EB7409144
:10323000040150910501841B950BE817F907C8F4A8
:10324000F093D803E093D703F901718360830FC033
:10325000CB010E9459177C01009759F0A801BE01CB
:103260000E944019CE010E94F117C70104C0CE018F
:1032700002C080E090E0CDB7DEB7EEE00C94F0162F
:10328000FB01DC0102C001900D9241505040D8F783
:103290000895FB01DC0101900D920020E1F70895F3
:1032A00011E0C7EBD1E004C0FE010E945317219644
:0A32B000C83BD107C9F7F894FFCF1F
:1032BA000000DB03800000000000B70900000000E6
:1032CA00BF08280856080C098708650879082D2DB3
:1032DA002D2D2D2D2D2D2D2D2D2D2D2D2D2D2D2D14
:1032EA002D2D2D2D2D2D2D0053656E736F722043BC
:1032FA00616C6962726174696F6E2046696E697386
:10330A0068656400526573756C7473203A200053C3
:10331A00656E736F724D696E203D200053656E7342
:10332A006F724D6178203D20002D2D2D2D2D2D2DD4
:10333A002D2D2D2D2D2D2D2D2D2D2D2D2D2D2D2DB3
:10334A002D2D0A005269676874004C656674005234
:10335A00494748545F48414E44004C4546545F48EB
:10336A00414E44004861636B6265727279204C6910
:10337A006272617279202D2056657273696F6E20B0
:06338A00000D0A002E00F8
:00000001FF
