:100000000C94B8010C94E0010C94E0010C94E00114
:100010000C94E0010C94E0010C94E0010C94E001DC
:100020000C94E0010C94E0010C94E0010C94A50BFD
:100030000C94E0010C94E0010C94E0010C94E001BC
:100040000C94EB110C94E0010C948C0A0C94660A4D
:100050000C94E0010C94E0010C94E0010C94E0019C
:100060000C94E0010C94E0016E65772048616E64A9
:100070002074797065203D20004C6F636B205072B6
:100080006573736564204C6F6E6700556E6C6F63AB
:100090006B2046696E67657273004C6F636B204618
:1000A000696E67657273004C6F636B205072657385
:1000B000736564005468756D622050726573736572
:1000C00064204C6F6E6700436C6F736520546875D5
:1000D0006D62004F70656E205468756D62005468E3
:1000E000756D62205072657373656400537461723C
:1000F0007420536572766F732043616C69620045AA
:10010000787472612050726573736564204C6F6EF1
:10011000670045787472612050726573736564007E
:1001200053746172742053656E736F722043616CF7
:1001300069620043616C6962205072657373656423
:10014000204C6F6E670043616C696220507265736A
:100150007365640053617665205468756D62203A5A
:10016000200053617665205468756D62203A200046
:10017000536176652046696E67657273203A200088
:10018000536176652046696E67657273203A200078
:100190005361766520496E646578203A200053618A
:1001A000766520496E646578203A20004D61785468
:1001B00068756D62203D20004D696E5468756D62F2
:1001C000203D20004D617846696E67657273203D61
:1001D00020004D696E46696E67657273203D200090
:1001E0004D6178496E646578203D20004D696E4907
:1001F0006E646578203D2000536572766F732043EE
:10020000616C69622046696E6973686564004E6559
:1002100078742043616C69622053746570002D2DE1
:100220002D2D2D2D2D2D2D2D2D2D2D2D2D2D2D2DFE
:100230002D2D2D2D2D2D2D2D2D2D2D2D2D2D2D2DEE
:100240002D2D2D00417574686F72203A2054686F0F
:100250006D61732042726F75737361726420002D3B
:100260002D2D2D2D2D2D2D2D2D2D2D2D2D2D2D2DBE
:100270002D2D2D2D2D2D2D2D2D2D2D2D2D2D2D2DAE
:100280002D2D2D2D0053656E736F724D6178203DBD
:10029000200053656E736F726D696E203D200053B0
:1002A000656E736F7254797065203D20004D6178E2
:1002B00046696E67657273203D20004D6178496E16
:1002C000646578203D20004D61785468756D62202A
:1002D0003D20004D696E46696E67657273203D2052
:1002E000004D696E496E646578203D20004D696E51
:1002F0005468756D62203D200048616E64203D2089
:10030000000A454550524F4D20434F4E54454E54E0
:100310000000000000240027002A00000000002543
:100320000028002B00000000002300260029000404
:10033000040404040404040202020202020303038C
:100340000303030102040810204080010204081086
:100350002001020408102000000008000201000033
:100360000304070000000000000000008B157F154B
:1003700011241FBECFEFD8E0DEBFCDBF11E0A0E05B
:10038000B1E0E2E7F3E302C005900D92A63DB107AC
:10039000D9F723E0A6EDB1E001C01D92A13EB2075E
:1003A000E1F711E0C7EBD1E004C02197FE010E9404
:1003B000AF17C63BD107C9F70E9435120C94AC1990
:1003C0000C9400000F931F93CF93DF9380918B03C6
:1003D00090918C038130910521F0029709F4A1C01E
:1003E00031C2E091C303F091C403EC5BFF4F808105
:1003F0009181019709F026C20E94DF11E091C303A9
:10040000F091C403DF01A75BBF4F0D911D912D91AA
:100410003C911397AB01BC01401B510B620B730B5A
:10042000403157426105710508F45BC01D921D9271
:100430001D921C9213971597EF01CA5BDF4F8881BD
:1004400099818D939C938091C7039091C8032091CB
:10045000C5033091C60333AF22AF95AF84AF60912F
:10046000C5037091C60380E190E00E94270E609161
:10047000C7037091C80382E190E00E94270E8EE1CD
:1004800091E00E94710F88E391E00E94710F8EE16C
:1004900091E00E94710F84E591E00E94710F8FE559
:1004A00091E00E941E0F80E190E00E94380E0E94B1
:1004B0006F108CE691E00E941E0F82E190E00E9496
:1004C000380E0E946F1089E791E00E94710F109220
:1004D000C8031092C7038FEF93E09093C6038093F5
:1004E000C503E091C303F091C40387A990AD0E94B6
:1004F000F20F2091C7033091C8032817390724F45D
:100500009093C8038093C7032091C5033091C6031D
:10051000821793070CF096C19093C6038093C5038E
:1005200091C18091C9039091CA03FC01EC5BFF4F1C
:10053000208131812230310509F084C12091CC0322
:100540003091CD032115310509F476C13996C0816A
:10055000D0E02C173D0709F464C023303105A1F128
:10056000A4F42130310509F447C02230310509F0E7
:1005700050C080960E94BE0A8093CE0382E691E02E
:100580000E94030F8091CE0342C02530310541F116
:100590007CF026303105E9F583960E94BE0A8093EF
:1005A000D20380E891E00E94030F8091D2032FC014
:1005B0004D960E94BE0A8093D0038EE991E00E947E
:1005C000030F8091D00323C04D960E94BE0A8093F2
:1005D000D10380E991E00E94030F8091D10317C0FD
:1005E00083960E94BE0A8093D30380E791E00E9425
:1005F000030F8091D3030BC080960E94BE0A8093A4
:10060000CF0384E591E00E94030F8091CF030E9405
:100610001710D093CD03C093CC038EE092E00E94DC
:100620007F0F8091CC039091CD03873091050CF022
:1006300096C08530910534F4833091059CF501977F
:100640002CF400C107970CF459C0FCC060E070E0C6
:100650008091C9039091CA030E94970CE091C9034D
:10066000F091CA03882331F0CF01489626A12111C9
:1006700015C011C062E070E0CF010E94970C882382
:1006800009F4E0C0E091C903F091CA03CF01489694
:1006900026A1222319F045E050E002C04BEF5FEFA6
:1006A00061E057C060E070E08091C9039091CA0397
:1006B0000E94970CE091C903F091CA03882331F09E
:1006C000CF01489626A1211115C011C062E070E04B
:1006D000CF010E94970C882309F4B4C0E091C903AC
:1006E000F091CA03CF01489626A1222319F045E0D4
:1006F00050E002C04BEF5FEF62E02BC060E070E0C3
:100700008091C9039091CA030E94970CE091C9039C
:10071000F091CA03882331F0CF01489626A1211118
:1007200015C011C062E070E0CF010E94970C8823D1
:1007300009F488C0E091C903F091CA03CF0148963B
:1007400026A1222319F045E050E002C04BEF5FEFF5
:1007500063E0DF91CF911F910F910C94D20C109216
:10076000CD031092CC034091CF036091CE0381E082
:1007700090E00E942A104091D1036091D00382E062
:1007800090E00E942A104091D3036091D20383E04D
:1007900090E00E942A1088EF91E00E947F0F8CEE7B
:1007A00091E00E94030F8BE090E00E94360E0E94C1
:1007B000171080EE91E00E94030F8CE090E00E9401
:1007C000360E0E94171082ED91E00E94030F8DE01B
:1007D00090E00E94360E0E94171084EC91E00E9477
:1007E000030F8EE090E00E94360E0E94171088EBF7
:1007F00091E00E94030F89E090E00E94360E0E9473
:1008000017108CEA91E00E94030F8AE090E00E94AA
:10081000360E0E9417108091C9039091CA03FC0103
:10082000E35BFF4F10823997DC01AA5BBF4F8D91CC
:100830009C919183808306C081E090E09093CD03EA
:100840008093CC03DF91CF911F910F910895CF92A8
:10085000DF92EF92FF920F931F93CF93DF938091DC
:10086000B9039091BA03FC01EC5BFF4F2081318109
:100870002115310549F02430310509F0D1C03496F5
:100880008081882309F4CCC00E94DF110091BB0352
:100890001091BC032091BD033091BE03DC01CB015C
:1008A000801B910BA20BB30B4097A105B10508F477
:1008B000B7C00E94DF116093BB037093BC038093A9
:1008C000BD039093BE03C091B903D091BA038FA921
:1008D00098AD0E94F20FCAACDBAC0D2C000CEE08F8
:1008E000FF08092E000CAA0BBB0B9C01AD012C19B3
:1008F0003D094E095F09AFEFB3E00E9419172CAD17
:100900003DAD8901330F220B330BA90198012C193E
:100910003D094E095F090E94FA1637FD27C0E9011B
:100920002115344014F0CFEFD3E0C93582E0D80769
:10093000C4F0CE010D2E000CAA0BBB0B9C01AD0127
:100940002855324041095109AAE0B0E00E94191728
:1009500027EA31E040E050E00E94FA16922F832F00
:100960001DC0C03981E0D807BCF402C0C0E0D0E0AF
:100970009E01A6EFBFEF0E94A01720E931E040E002
:1009800050E00E94FA16BA01A901465F5F4F6F4F0F
:100990007F4F942F852F02C090E080E0092F182F01
:1009A0000B30110514F00AE010E0C03981E0D807DF
:1009B000D4F48091B9039091BA03A80163E04896FA
:1009C0000E94B90D8091B9039091BA03A80162E029
:1009D0004896DF91CF911F910F91FF90EF90DF909C
:1009E000CF900C94B90DC935D240D4F08091B903A1
:1009F0009091BA03A80163E048960E94D80D8091B7
:100A0000B9039091BA03A80162E04896DF91CF91B3
:100A10001F910F91FF90EF90DF90CF900C94D80D25
:100A2000DF91CF911F910F91FF90EF90DF90CF90CA
:100A30000895CF93DF9360E070E0809195039091EB
:100A400096030E94970C882309F466C048EE53E091
:100A500060E070E089E993E00E948D0F882321F027
:100A600086E491E00E947F0F60E070E08091950342
:100A7000909196030E947011882309F4B7C148E849
:100A800053E160E070E089EA93E00E948D0F8823D3
:100A900009F4ACC183E391E00E947F0FE0919503DC
:100AA000F0919603EC5BFF4F80819181892B09F0D7
:100AB0009DC180E291E00E947F0F8091950390910B
:100AC000960340E050E062E048960E94440D0E9488
:100AD000BB0F809195039091960344EB50E062E048
:100AE00048960E94440DC0919503D0919603FE0153
:100AF000EA5BFF4F118210820E94DF11FE01E75B6B
:100B0000FF4F6083718382839383CC5BDF4F81E0EF
:100B100090E0998388836AC161E070E080919503D9
:100B2000909196030E94970C882309F46FC048EEB9
:100B300053E060E070E08DE993E00E948D0F882320
:100B4000A1F082E191E00E947F0FE0919503F09186
:100B50009603DF01AC5BBF4F8D919C91029729F406
:100B6000E35BFF4F80818F5F808361E070E0809165
:100B70009503909196030E947011882309F436C161
:100B800048E853E160E070E08DEA93E00E948D0F49
:100B9000882309F42BC18FEF90E00E947F0FE09132
:100BA0009503F0919603EC5BFF4F80819181892B37
:100BB00009F01CC18CEE90E00E947F0F809195039C
:100BC0009091960340E050E063E048960E94440D07
:100BD0000E94BB0F809195039091960344EB50E0E7
:100BE00063E048960E94440D80919503909196038E
:100BF000FC01EA5BFF4F11821082379621E02083CF
:100C0000399722E030E031832083F0C062E070E069
:100C100080919503909196030E94970C882309F484
:100C20005CC048EE53E060E070E081EA93E00E942F
:100C30008D0F8823B1F18EED90E00E947F0FE0913F
:100C40009503F0919603EC5BFF4F80819181892B96
:100C500041F580919703882391F087EC90E00E9402
:100C60007F0F8091950390919603FC0145A556A5B1
:100C700061E048960E94440D1092970312C083EDE4
:100C800090E00E947F0F8091950390919603FC0164
:100C900043A554A561E048960E94440D81E08093ED
:100CA000970362E070E080919503909196030E9413
:100CB0007011882309F49AC048E853E160E070E0BD
:100CC00081EB93E00E948D0F882309F48FC084EBA1
:100CD00090E0DF91CF910C947F0F63E070E0809102
:100CE0009503909196030E94970C882309F47EC087
:100CF00048EE53E060E070E085EA93E00E948D0FDB
:100D0000882351F187EA90E00E947F0FE0919503DC
:100D1000F0919603EC5BFF4F80819181892BE1F488
:100D200080919803882361F08BE890E00E947F0F08
:100D3000E0919503F091960311A6109298030CC0D0
:100D40008AE990E00E947F0FE0919503F09196036D
:100D500081E081A78093980363E070E08091950320
:100D6000909196030E947011882309F43FC048E8CF
:100D700053E160E070E085EB93E00E948D0F8823E3
:100D8000A9F189E790E00E947F0FE0919503F0912F
:100D90009603DF01AC5BBF4F8D919C91009711F0E2
:100DA000049721F596A181E0892786A384E090E04D
:100DB0000E94360E813011F061E001C062E084E0F3
:100DC00090E00E94130E88E690E00E94030F84E0FA
:100DD00090E00E94360E813019F08AE991E002C05D
:100DE00084E991E0DF91CF910C94710FDF91CF9165
:100DF00008954F925F926F927F928F929F92AF92DF
:100E0000BF92EF92FF921F93CF93DF93EC01888103
:100E100099819D838C83892B31F48F8198850097EC
:100E200011F00E94F90611E08C819D81892B09F453
:100E30007DC08F819885009729F00E94F906811165
:100E400001C010E0EC81FD81E1A0F2A0808180FF73
:100E50006AC085859685A785B089892B8A2B8B2BBF
:100E600069F4908180818E7F808380818D7F8083F3
:100E700090FF59C0CF010E944C0E55C00E94DF1157
:100E8000EC81FD81218132814381548141845284EE
:100E90006384748485809680A780B084DC01CB0154
:100EA00084199509A609B70988159905AA05BB05EE
:100EB000D0F185859685A785B089181619061A067A
:100EC0001B065CF485859685A785B0890197A109E5
:100ED000B10985879687A787B08B85899689A78969
:100EE000B08D0196A11DB11D858B968BA78BB08F00
:100EF00085809680A780B08481859285A385B485FE
:100F0000880D991DAA1DBB1D81879287A387B48771
:100F10002583368347835087018CF28DE02D3097EF
:100F200011F0099510E0FD82EC827ECF112399F03B
:100F30008E81882381F083B7817F83BF83B78160EF
:100F400083BF83B7816083BF889583B78E7F83BF5C
:100F500083B78E7F83BF812FDF91CF911F91FF9049
:100F6000EF90BF90AF909F908F907F906F905F9029
:100F70004F9008950F931F93CF93DF93FC01A3A18C
:100F8000B4A11097E9F1EC01158A168A178A108E20
:100F9000038CF48DE02D309779F1888181FD2CC090
:100FA00014960D911C9115971596DC93CE9314977A
:100FB0008881826088830995988180FB90F9988365
:100FC00088818D7F8883EBA1FCA1158304830E9417
:100FD000DF1109811A812B813C810D831E832F83B0
:100FE0003887DC01CB01801B910BA20BB30B8987E7
:100FF0009A87AB87BC8704C0888181608883E7CFEC
:10100000DF91CF911F910F910895CF93DF93EC0162
:10101000988188818E7F888388818D7F888390FFE7
:1010200003C0CE010E944C0E8BA19CA1009769F1D8
:101030001CA21BA2EF8DF8A1A9A1BAA1309799F427
:10104000109749F4DC0111961C921E9213961C9283
:101050001E9212971AC090961C921E925F97FC01E6
:10106000B183A08312C0109741F412A211A2DC0137
:101070001396FC93EE93129708C0B2A3A1A3A9A163
:10108000BAA19096FC93EE935F97DF91CF9108956C
:10109000CF92DF92EF92FF920F931F93CF93DF9344
:1010A0006C017A018B01C0E0D0E0CE15DF0581F044
:1010B000D8016D918D01D601ED91FC910190F081E7
:1010C000E02DC6010995892B11F02196EECF7E0106
:1010D000C701DF91CF911F910F91FF90EF90DF90AB
:1010E000CF900895089580E090E00895FC01538D1D
:1010F000448D252F30E0842F90E0821B930B5417F2
:1011000010F0CF96089501970895FC01918D828D7E
:10111000981761F0828DDF01A80FB11D5D968C914B
:10112000928D9F5F9F73928F90E008958FEF9FEF56
:101130000895FC01918D828D981731F0828DE80F12
:10114000F11D858D90E008958FEF9FEF0895FC01CC
:10115000918D228D892F90E0805C9F4F821B910999
:101160008F739927089580E292E00E94A70821E0FA
:10117000892B09F420E0822F0895FC01848DDF0182
:10118000A80FB11DA35ABF4F2C91848D90E00196FA
:101190008F739927848FA689B7892C93A089B189E9
:1011A0008C91837080648C93938D848D981306C08A
:1011B0000288F389E02D80818F7D80830895EF92EE
:1011C000FF920F931F93CF93DF93EC0181E0888F01
:1011D0009B8D8C8D981305C0E889F989808185FDE8
:1011E00026C0F62E0B8D10E00F5F1F4F0F731127D7
:1011F000E02E8C8DE8120CC00FB607FCFACFE88900
:10120000F989808185FFF5CFCE010E94BD08F1CF1D
:101210008B8DFE01E80FF11DE35AFF4FF0829FB75F
:10122000F8940B8FEA89FB89808180620AC09FB79E
:10123000F894EE89FF896083E889F9898081837059
:10124000806480839FBF81E090E0DF91CF911F9108
:101250000F91FF90EF900895CF93DF93EC01888D6D
:101260008823C9F0EA89FB89808185FD05C0A889AA
:10127000B9898C9186FD0FC00FB607FCF5CF808130
:1012800085FFF2CFA889B9898C9185FFEDCFCE017A
:101290000E94BD08E7CFDF91CF91089580E090E0F4
:1012A000892B29F00E94B30881110C940000089545
:1012B000CF92DF92EF92FF92CF93DF93EC016032F7
:1012C00032E073070CF03EC0CB01653B710514F0B2
:1012D00084EB90E02981A8E8B0E06D01C21AD10842
:1012E00027FDD394D601AA0FBB1FAA0FBB1F6D0108
:1012F000BB0FEE08FF084A8128E532E0241B3109C4
:1013000047FD3395220F331F220F331FA901330FDF
:10131000660B770B9A01AB012C193D094E095F0949
:10132000DC0197FF02C0A0E0B0E00E94241724EB8C
:1013300030E040E050E00E94FA16C20ED31EE41ED8
:10134000F51EB601E881EC3058F5298188E890E077
:10135000821B910927FD9395880F991F880F991F6C
:10136000681779077CF02A8188E592E0821B910951
:1013700027FD9395880F991F880F991F6817790784
:101380000CF4CB010297880F991F2FB7F89436E021
:10139000E39FF0011124E852FE4F928381832FBF17
:1013A000DF91CF91FF90EF90DF90CF900895FC01F7
:1013B00082810C9459110F931F93CF93DF93EC010B
:1013C00088819981009729F02A813B812617370768
:1013D00088F48B016F5F7F4F0E94D618009761F0F1
:1013E000998388831B830A832C813D81232B11F4ED
:1013F000FC01108281E001C080E0DF91CF911F915C
:101400000F910895CF93DF93EC0188819981009724
:1014100011F00E944D18198218821D821C821B82B5
:101420001A82DF91CF910895CF92DF92EF92FF92CF
:101430000F931F93CF93DF93CDB7DEB728970FB6E7
:10144000F894DEBF0FBECDBF8C01CB014AE09E01F8
:101450002F5F3F4F6901B9010E948616F601019086
:101460000020E9F73197EC19FD0901F1D801149634
:10147000ED90FC901597EE0EFF1EB701C8010E947B
:10148000DB09882381F0F8012081318184819581F5
:10149000B601820F931F0E94A519D8011596FC92E0
:1014A000EE92149703C0C8010E94020AC801289650
:1014B0000FB6F894DEBF0FBECDBFDF91CF911F9165
:1014C0000F91FF90EF90DF90CF9008951F920F92B1
:1014D0000FB60F9211242F933F934F935F936F9307
:1014E0007F938F939F93AF93BF93EF93FF9380E28C
:1014F00092E00E94BD08FF91EF91BF91AF919F9143
:101500008F917F916F915F914F913F912F910F90AC
:101510000FBE0F901F9018951F920F920FB60F924B
:1015200011242F938F939F93EF93FF93E0913002B9
:10153000F09131028081E0913602F091370282FD14
:1015400012C09081809139028F5F8F7320913A028F
:10155000821751F0E0913902F0E0E05EFD4F958F87
:101560008093390201C08081FF91EF919F918F910B
:101570002F910F900FBE0F901F9018958F929F92F2
:10158000AF92BF92CF92DF92EF92FF92FC018281E5
:1015900028E532E06901C81AD10887FDD394CC0C44
:1015A000DD1CCC0CDD1C0D2C000CEE08FF0881812D
:1015B00028E830E04901881A910887FD9394880C47
:1015C000991C880C991C092C000CAA08BB08E08106
:1015D000EF3FA9F086E0E89FF0011124E852FE4FAA
:1015E0002181328183E0220F331F8A95E1F794E055
:1015F000369527959A95E1F72E5F3F4F02C020E080
:1016000030E02F5F3F4FC901330FAA0BBB0B9C018A
:10161000AD01281939094A095B09A4EBB0E00E9421
:101620001917A7019601281939094A095B090E946F
:10163000FA16C901FF90EF90DF90CF90BF90AF9066
:101640009F908F900895623031F0633031F06130B7
:1016500041F4089603C0059601C00B960E94BE0A8D
:1016600008958FEF08951F93CF93DF93EC01162F0A
:1016700088818C3008F04BC061E0812F0E941D11E1
:10168000888196E0899FF0011124E852FE4F1F7374
:101690009081907C192B108319821A826CE00E9431
:1016A00094179CE0899FA001112420E030E096E08F
:1016B000BA01620F731F969FF001979FF00D1124DE
:1016C000E852FE4F608166FD16C02F5F3F4F2C3001
:1016D000310571F781110FC01092800082E0809374
:1016E00081001092850010928400B19A80916F0061
:1016F000826080936F00E88186E0E89FF00111240A
:10170000E852FE4F8081806480838FEF83838881DD
:10171000DF91CF911F910895E091D701EC3088F4CB
:1017200021E02E0F2093D701DC01EC93B6E0EB9F74
:10173000F0011124E852FE4F88EB9BE092838183F5
:1017400008952FEFFC01208308951F920F920FB68A
:101750000F9211240F931F932F933F934F935F93F7
:101760006F937F938F939F93AF93BF93EF93FF9369
:101770008091D60187FF05C01092850010928400E9
:1017800037C02091D601022E000C330B8091D70177
:1017900090E02817390764F52091D60116E021035F
:1017A000F0011124E852FE4F808186FF21C0209174
:1017B000D6012103F0011124E852FE4F808160E040
:1017C0008F730E94EE102091D6012103F0011124A5
:1017D000E852FE4F83818F3F59F02091D6012103BB
:1017E000F0011124E852FE4F60E083810E941D1138
:1017F0008091D6018F5F8093D6012091D601022E71
:10180000000C330B8091D70190E0281739070CF0BA
:1018100064C08091D6018C300CF05FC04091840090
:10182000509185002091D60116E02103F00111248A
:10183000E852FE4F81819281840F951F9093890019
:10184000809388002091D6012103F0011124E852F1
:10185000FE4F808186FF58C02091D6012103F00100
:101860001124E852FE4F808161E08F730E94EE10D8
:101870002091D6012103F0011124E852FE4F83810B
:101880008F3F09F441C00091D6012091D601210378
:10189000F0011124E852FE4F83810E945911010387
:1018A000F0011124E852FE4F958384832091D601E4
:1018B0002103F0011124E852FE4F61E083810E9470
:1018C0001D112091D6012103F0011124E852FE4F91
:1018D00060E083810E94EE1017C080918400909197
:1018E0008500049680349C4918F480E49CE905C086
:1018F0008091840090918500049690938900809354
:1019000088008FEF8093D601FF91EF91BF91AF9147
:101910009F918F917F916F915F914F913F912F9107
:101920001F910F910F900FBE0F901F901895CF929F
:10193000DF92EF92FF921F93CF93DF936C01EB0145
:101940007C01E60EF71EF70180819CEE980F923025
:1019500038F40E94591111E0883C91053CF005C013
:101960000E94C51011E0892B09F010E0F701848175
:10197000811779F00E94DF112296CC0FDD1FCC0F6A
:10198000DD1FCC0DDD1D688379838A839B83F7017E
:101990001483812FDF91CF911F91FF90EF90DF9003
:1019A000CF900895FF920F931F93CF93DF938C01F5
:1019B000F62EEA010E94230BBE01680F711D653BE4
:1019C000710514F064EB70E077FF02C060E070E036
:1019D00082E0F81649F083E0F81649F081E0F81249
:1019E0000FC0C801089605C0C801059602C0C8010D
:1019F0000B96DF91CF911F910F91FF900C94580996
:101A0000DF91CF911F910F91FF900895FC01453B0D
:101A1000510514F044EB50E057FF02C040E050E0A5
:101A200037FD0DC0253B310514F024EB30E0922F3B
:101A3000832F421753073CF4942F852F04C020E0D6
:101A400030E090E080E0421753070CF4A9012685AE
:101A5000211105C09C01942F852F432F522F6230F6
:101A600049F0633061F0613071F4548B438B958B96
:101A7000868B0895508F478B918F828F0895548F56
:101A8000438F958F868F0895CF93DF93FC0162304B
:101A900039F0633009F446C0613009F067C021C0F5
:101AA0008089811163C0C18DD28DA789B08DAC179B
:101AB000BD0754F09C2F8D2FCA17DB0714F49A2F03
:101AC0008B2FDE01C92FD82F4A175B0734F0BA01DC
:101AD000C417D5071CF4BE0101C0BD01CF01059696
:101AE00041C08785811142C0C589D689238934893F
:101AF0002C173D0754F09C2F8D2FC217D30714F4D9
:101B0000922F832F9E01C92FD82F4217530734F0ED
:101B1000BA01C417D5071CF4BE0101C0B901CF0139
:101B2000089620C08189811121C0C58DD68D838DF5
:101B3000948D8C179D0754F03C2F2D2FC817D90773
:101B400014F4382F292FCE01C32FD22F481759074D
:101B500034F0BA01C417D5071CF4BE0101C0BC01A2
:101B6000CF010B96DF91CF910C945809DF91CF9163
:101B70000895FF920F931F93CF93DF938C01F62E5E
:101B8000EA01FC018685811103C0D195C195D10977
:101B90006F2DC8010E94230BAE01480F511D6F2D00
:101BA000C801DF91CF911F910F91FF900C94440DCC
:101BB000FF920F931F93CF93DF938C01F62EEA01D0
:101BC000FC018685882319F0D195C195D1096F2D27
:101BD000C8010E94230BAE01480F511D6F2DC80193
:101BE000DF91CF911F910F91FF900C94440D0F93B3
:101BF0001F93CF93DF938C0183E090E00E94B51791
:101C0000EC01F80187812AE031E0398328838A8357
:101C100060E00E941D11F801D183C083DF91CF9154
:101C20001F910F9108951F93CF93DF93EC01162F0F
:101C30000E94E416181739F0612FCE01DF91CF9181
:101C40001F910C94EC16DF91CF911F9108951F9373
:101C5000CF93DF93EC01172F0E94130E612FCE015B
:101C60000196DF91CF911F910C94130E0C94E41602
:101C70001F93CF93DF93EC010E94360E182FCE01F5
:101C800001960E94360E90E0982F8827810F911DB3
:101C9000DF91CF911F9108950F931F93CF93DF93FF
:101CA000DC015D96ED91FC915E97309781F0EC013F
:101CB000ABA1BCA114960D911C91159715969C9300
:101CC0008E9314970995EBA1FCA115830483DF91F2
:101CD000CF911F910F910895833081F028F48130C6
:101CE00099F08230A1F008958730A9F08830B9F0DA
:101CF0008430D1F4809180008F7D03C0809180007A
:101D00008F7780938000089584B58F7702C084B563
:101D10008F7D84BD08958091B0008F7703C080913E
:101D2000B0008F7D8093B00008950F931F93CF93E1
:101D3000DF93EC0188818E7F888388818D7F888303
:101D400019861A861B861C861D821E821F82188693
:101D500019821A821B821C8218A21F8E1AA219A233
:101D60001CA21BA21D8A1E8A1F8A188E3A8F298FD9
:101D70001C8E1B8E1E8E1D8E49835A836B837C8323
:101D800089819A81AB81BC818D839E83AF83B88723
:101D90000E94DF1169877A878B879C878FEF9FEF7F
:101DA000DC018D879E87AF87B88B898B9A8BAB8B35
:101DB000BC8B0115110501F18BA19CA10817190716
:101DC000D9F01CA30BA3D8018D919C911197892B5D
:101DD00029F4CD93DC9318A21F8E09C0D801129666
:101DE000ED91FC911397F8A3EF8FD2A3C1A31AA290
:101DF00019A2F801D383C283CE01DF91CF911F9145
:101E00000F910C94BA070F931F93CF93DF938C011C
:101E1000C0E0D0E0F801EC0FFD1F6491662341F0B3
:101E200080E292E00E94DF08892B11F02196F2CF28
:101E3000CE01DF91CF911F910F910895009769F026
:101E4000FC0101900020E9F73197AF01481B590BC5
:101E5000BC0180E292E00C94480880E090E0089594
:101E60008F929F92AF92BF920F931F93CF93DF9366
:101E7000CDB7DEB7A1970FB6F894DEBF0FBECDBFCA
:101E800019A2423008F44AE08E010F5D1F4F842EE4
:101E9000912CA12CB12CA50194010E946317E62F6F
:101EA000B901CA0101501109EA3014F4E05D01C022
:101EB000E95CD801EC93232B242B252B61F7C80177
:101EC0000E941E0FA1960FB6F894DEBF0FBECDBFC5
:101ED000DF91CF911F910F91BF90AF909F908F9006
:101EE0000895CF93DF930E941E0FEC0181ED91E0E6
:101EF0000E941E0F8C0F9D1FDF91CF910895CF93ED
:101F0000DF930E94030FEC0181ED91E00E941E0F10
:101F10008C0F9D1FDF91CF910895CF92DF92EF92AA
:101F2000FF920F931F93CF93DF93EC016A017B0124
:101F30000E94DF11088119812A813B81DC01CB01DC
:101F4000801B910BA20BB30B11E0C816D906EA0651
:101F5000FB0608F010E00E94DF11688379838A8312
:101F60009B83812FDF91CF911F910F91FF90EF9075
:101F7000DF90CF9008958F929F92AF92BF92CF92B1
:101F8000DF92EF92FF920E94BA114B015C0184E64E
:101F9000C82ED12CE12CF12C0E94BA11DC01CB010E
:101FA00088199909AA09BB09883E9340A105B10582
:101FB00098F321E0C21AD108E108F10888EE880EF2
:101FC00083E0981EA11CB11CC114D104E104F104EA
:101FD00019F7FF90EF90DF90CF90BF90AF909F9058
:101FE0008F900895EF92FF920F931F93CF93DF93FB
:101FF0007C0100E110E0C0E0D0E0D701ED91FC9160
:102000000190F081E02DC7010995C80FD91F01503B
:10201000110999F7CE0124E0959587952A95E1F766
:10202000DF91CF911F910F91FF90EF900895CF9383
:10203000DF93682F70E080E090E04AE00E94300F6C
:10204000EC0181ED91E00E941E0F8C0F9D1FDF912E
:10205000CF9108951F93CF93DF93D82FC62F641786
:1020600010F4142F02C0162FC42FD23051F0D330E9
:1020700071F0D13091F46C2F89E090E00E94130E42
:1020800012C06C2F8BE090E00E94130E10C06C2FDA
:102090008DE090E00E94130E0EC0D23041F0D3309C
:1020A00051F0D13069F4612F8AE090E007C0612FD0
:1020B0008CE090E003C0612F8EE090E00E94130E50
:1020C000212F30E04C2F50E08091C9039091CA033A
:1020D0006D2F4896DF91CF911F910C94060DCF92F2
:1020E000DF92EF92FF92CF93DF936C01990FEE088E
:1020F000FF08F7FE13C06DE280E292E00E94DF0865
:10210000EC0166277727CB016C197D098E099F09A1
:102110004AE00E94300FC80FD91F06C04AE0C7012D
:10212000B6010E94300FEC0181ED91E00E941E0F7C
:102130008C0F9D1FDF91CF91FF90EF90DF90CF909C
:1021400008950F931F93CF93DF93EC010C811D81B2
:102150000F5F1F4FB8010E94DB09882369F02881B7
:1021600039818C819D8164ED71E0820F931F0E9403
:10217000A5191D830C8303C0CE010E94020ACE0163
:10218000DF91CF911F910F910895CF93DF93282F67
:1021900030E0F901E95AFC4F8491F901ED5BFC4F05
:1021A000D491F901E15DFC4FC491CC2391F08111F0
:1021B0000E946C0EEC2FF0E0EE0FFF1FEB5DFC4F6A
:1021C000A591B491EC91ED2381E090E021F480E0C1
:1021D00002C080E090E0DF91CF9108951F93CF93EC
:1021E000DF93282F30E0F901E95AFC4F8491F9017F
:1021F000ED5BFC4FD491F901E15DFC4FC491CC2320
:10220000C1F0162F81110E946C0EEC2FF0E0EE0F42
:10221000FF1FE55EFC4FA591B4919FB7F894111193
:1022200004C08C91D095D82302C0EC91DE2BDC93B6
:102230009FBFDF91CF911F910895CF93DF9390E0DF
:10224000FC01ED5BFC4F2491FC01E15DFC4F8491AE
:10225000882361F190E0880F991FFC01EF5EFC4F2D
:10226000C591D491FC01E55EFC4FA591B49161113B
:1022700009C09FB7F8948881209582238883EC91C8
:102280002E230BC0623061F49FB7F8948881322FFF
:10229000309583238883EC912E2B2C939FBF06C00F
:1022A0008FB7F894E8812E2B28838FBFDF91CF91D1
:1022B00008958E3008F08E508770806480937C0083
:1022C00080917A00806480937A0080917A0086FD04
:1022D000FCCF809178002091790090E0922B0895B6
:1022E000EF92FF920F931F93CF93DF937C01FC013A
:1022F000E60FF71F80819CEE980FEB01229692303B
:1023000030F40E945911883C91059CF004C00E9451
:10231000C510892B71F010E00E94DF11CC0FDD1F7A
:10232000CC0FDD1FCE0DDF1D688379838A839B83ED
:1023300019C00E94DF11CC0FDD1FCC0FDD1FCE0DA9
:10234000DF1D088119812A813B81DC01CB01801BC3
:10235000910BA20BB30B11E088389341A105B10595
:1023600008F410E0812FDF91CF911F910F91FF9022
:10237000EF9008953FB7F8948091D9039091DA03D4
:10238000A091DB03B091DC0326B5A89B05C02F3FCD
:1023900019F00196A11DB11D3FBFBA2FA92F982F8B
:1023A0008827820F911DA11DB11DBC01CD0142E006
:1023B000660F771F881F991F4A95D1F708952FB789
:1023C000F8946091D5037091D6038091D7039091D2
:1023D000D8032FBF08951F920F920FB60F921124AA
:1023E0002F933F938F939F93AF93BF938091D50388
:1023F0009091D603A091D703B091D8033091D40324
:1024000023E0230F2D3720F40196A11DB11D05C037
:1024100026E8230F0296A11DB11D2093D4038093BB
:10242000D5039093D603A093D703B093D80380919C
:10243000D9039091DA03A091DB03B091DC030196FC
:10244000A11DB11D8093D9039093DA03A093DB0300
:10245000B093DC03BF91AF919F918F913F912F91EA
:102460000F900FBE0F901F901895CF93DF93CDB7AD
:10247000DEB760970FB6F894DEBF0FBECDBF78947D
:1024800084B5826084BD84B5816084BD85B5826079
:1024900085BD85B5816085BD80916E00816080932A
:1024A0006E00109281008091810082608093810093
:1024B00080918100816080938100809180008160A3
:1024C000809380008091B10084608093B1008091FE
:1024D000B00081608093B00080917A008460809326
:1024E0007A0080917A00826080937A0080917A00ED
:1024F000816080937A0080917A00806880937A006E
:102500001092C100E0913002F091310282E08083AC
:10251000E0912C02F0912D021082E0912E02F091B8
:102520002F0283E3808310923802E0913402F0910D
:10253000350296E09083E0913202F091330280817F
:1025400080618083E0913202F09133028081886063
:102550008083E0913202F091330280818068808331
:10256000E0913202F091330280818F7D808385E09B
:1025700080935F0389E080936003909361038FEF02
:10258000809362038093630361E085E00E941D11E4
:1025900061E0809160030E941D1161E08091610300
:1025A0000E941D1182E38093710360915F0370E0CC
:1025B00084E693E00E94330B6091600370E087E64D
:1025C00093E00E94330B6091610370E08AE693E030
:1025D0000E94330B2BE430E04FE050E061E08FE5E8
:1025E00093E00E94060D2BE430E04FE050E062E003
:1025F0008FE593E00E94060D2BE430E04FE050E0C1
:1026000063E08FE593E00E94060D84E18093470329
:1026100085E1809348038EE0809349038AE08093AC
:102620004A0307E413E062E0F80181918F010E9400
:102630001D11F3E00B341F07B1F78FE08093850382
:102640008FEF8093860380938703109280038EE739
:1026500093E00E94F70D87E493E09093C203809388
:10266000C10319821A821B821C82CE0101967C0151
:1026700000E010E06C01C8010E94E416F7018193AC
:102680007F010F5F1F4F04301105A9F769817A811F
:102690008B819C8120E03EEC4BE257E40E94BB160C
:1026A00081119AC061E085E090E00E94130E62E023
:1026B00086E090E00E94130E61E087E090E00E94C7
:1026C000130E0091C1031091C20384E090E00E94B8
:1026D000360E7801F8E1EF0EF11C91E0813009F03F
:1026E00090E0F80196A325A536A543A554A561E081
:1026F000C7010E94060DF80121A932A947A550A9DA
:1027000062E0C7010E94060DF80125A936A943A978
:1027100054A963E0C7010E94060DE090C103F09048
:10272000C20389E090E00E94360E182F8AE090E004
:102730000E94360E282F30E0412F50E061E0C701A3
:1027400048960E94060DE090C103F090C2038BE012
:1027500090E00E94360E182F8CE090E00E94360E1A
:10276000282F30E0412F50E062E0C70148960E94D8
:10277000060DE090C103F090C2038DE090E00E944E
:10278000360E182F8EE090E00E94360E282F30E093
:10279000412F50E063E0C70148960E94060D8090EB
:1027A000C1039090C2038FE090E00E94360E182F74
:1027B00080E190E00E94380E5C0182E190E00E948E
:1027C000380E7C01C401C796F40111AF123008F035
:1027D00057C00E94F70D54C061E084E090E00E9471
:1027E000130E6FE089E090E00E94130E6BE48AE024
:1027F00090E00E94130E6FE08BE090E00E94130EB9
:102800006BE48CE090E00E94130E6FE08DE090E0AE
:102810000E94130E6BE48EE090E00E94130E60E0C5
:102820008FE090E00E94130E60E070E080E190E0A5
:102830000E94270E6FEF73E082E190E00E94270E66
:1028400080E09EECABE2B7E48D879E87AF87B88BC4
:102850007E01FDE0EF0EF11C00E010E0F701B19009
:102860007F01C8010E94E416B81621F06B2DC80143
:102870000E94EC160F5F1F4F0430110579F712CF3D
:1028800007E413E0E091C103F091C203B3AEA2AE3E
:10289000F5AEE4AE10939603009395031093BA033C
:1028A0000093B9030E94DF116093BB037093BC03D4
:1028B0008093BD039093BE031093C4030093C3039E
:1028C0001093CA030093C9038FE592E00E947F0F23
:1028D0001A8219821C821B821E821D826CE170E0AA
:1028E000C6010E94DB09811104C0C6010E94020AD0
:1028F0000AC08CE190E09E838D8364EB71E0898156
:102900009A810E94A51918861F821A8619861C862C
:102910001B8609811A8101151105A9F0ED80FE8041
:10292000B701CE0107960E94DB09811105C0CE01D7
:1029300007960E94020A07C0FC86EB86B8018F81C9
:1029400098850E94A51961E070E0CE0107960E946B
:10295000140A0E94A11062E070E00E94140A0E9412
:10296000A11061E070E00E94140AFC0144815581CD
:102970006081718180E292E00E94480881ED91E0DF
:102980000E941E0F8F8198850E944D1889819A811F
:102990000E944D1884E492E00E947F0F8EE192E045
:1029A0000E947F0F81E093E00E947F0F89EF92E009
:1029B0000E94030F84E090E00E94360E813019F0EF
:1029C0008AEA91E002C08FE991E00E94710F8DEEDA
:1029D00092E00E94030F89E090E00E94360E0E9470
:1029E000171081EE92E00E94030F8BE090E00E94AE
:1029F000360E0E94171083ED92E00E94030F8DE0C7
:102A000090E00E94360E0E94171087EC92E00E9420
:102A1000030F8AE090E00E94360E0E9417108BEBA5
:102A200092E00E94030F8CE090E00E94360E0E941C
:102A300017108DEA92E00E94030F8EE090E00E9452
:102A4000360E0E9417108FE992E00E94030F8FE06C
:102A500090E00E94360E0E94171082E992E00E94D8
:102A6000030F80E190E00E94380E0E946F1085E80D
:102A700092E00E94030F82E190E00E94380E0E94D3
:102A80006F1085E393E0F3E08E339F0721F090937E
:102A9000460380934503E0914503F0914603309748
:102AA00009F016828CE293E023E08533920721F04F
:102AB00090933D0380933C03E0913C03F0913D03F0
:102AC000309709F016820EE313E0F801E080F18000
:102AD000E114F10439F0C7010E94BA07F701E1A03F
:102AE000F2A0F6CFF801078110850115110569F7ED
:102AF0008EE393E00E94F9060E944E09F9CF8DEB18
:102B000092E00E94050882EE92E00E94050887E0AC
:102B100093E00C9405080F931F93CF93E0E2F2E04B
:102B20001382128288EE93E0A0E0B0E08483958364
:102B3000A683B78380E191E09183808385EC90E068
:102B40009587848784EC90E09787868780EC90E077
:102B5000918B808B81EC90E0938B828B82EC90E068
:102B6000958B848B86EC90E0978B868B118E128EE2
:102B7000138E148E84E693E00E948C0B87E693E01C
:102B80000E948C0B8AE693E00E948C0BE7E4F3E052
:102B9000C1E0C6A317A210A611A682E382A713AEB6
:102BA00012AE0FEF13E015AF04AF81E090E00E948A
:102BB000B517909389038093880310928E03109227
:102BC0008D0310928F03109294031092970310922A
:102BD00098031092990310929A0310929B031092FB
:102BE0009C0310929D0310929E0310929F031092DB
:102BF000A0031092A1031092A2031092A3031092BB
:102C0000A4031092A5031092A6031092A70310929A
:102C1000A8031092A9031092AA031092AB0310927A
:102C2000AC031092AD031092AE031092AF0310925A
:102C3000B0031092B1031092B2031092B30310923A
:102C4000B4031092B5031092B6031092B70310921A
:102C5000B8031092BB031092BC031092BD031092F4
:102C6000BE031093C6030093C5031092C8031092CD
:102C7000C7031092CB031092CD031092CC03EEE366
:102C8000F3E0118210821382128215821482108660
:102C90001782C683E5E3F3E0118210821382128269
:102CA0001582148210861782C683ECE2F3E011824B
:102CB0001082138212821582148210861782C683B4
:102CC0000EE313E029E135E044E650E060E070E017
:102CD00087E093E00E94950E27E234E04AE050E05E
:102CE00060E070E082EE92E00E94950E0CE213E04C
:102CF00022EE31E042E350E060E070E08DEB92E0E4
:102D00000E94950ECF911F910F910895BB274A30D5
:102D100031F4992322F4BDE2909581959F4F0C9454
:102D20009216BB27FB015527AA27880F991FAA1FB8
:102D3000A41710F0A41B83955051B9F7A05DAA33D6
:102D400008F0A95DA193009779F7B111B1931192A1
:102D5000CB010C94AB16DC01FC01672F719177233A
:102D6000E1F7329704C07C916D9370836291AE1746
:102D7000BF07C8F308950E94C01608F481E00895C3
:102D8000990F0008550FAA0BE0E8FEEF161617067C
:102D9000E807F907C0F012161306E407F50798F0E4
:102DA000621B730B840B950B39F40A2661F0232BFD
:102DB000242B252B21F408950A2609F4A140A69579
:102DC0008FEF811D811D0895F999FECF92BD81BDC0
:102DD000F89A992780B50895262FF999FECF1FBA42
:102DE00092BD81BD20BD0FB6F894FA9AF99A0FBE34
:102DF00001960895052E97FB1EF400940E9411176A
:102E000057FD07D00E94631707FC03D04EF40C94C3
:102E1000111750954095309521953F4F4F4F5F4F7B
:102E2000089590958095709561957F4F8F4F9F4F36
:102E300008950E948517A59F900DB49F900DA49FA3
:102E4000800D911D11240895B7FF0C9419170E944D
:102E50001917821B930B08952F923F924F925F9206
:102E60006F927F928F929F92AF92BF92CF92DF929A
:102E7000EF92FF920F931F93CF93DF93CDB7DEB7FF
:102E8000CA1BDB0B0FB6F894DEBF0FBECDBF099493
:102E90002A88398848885F846E847D848C849B84EA
:102EA000AA84B984C884DF80EE80FD800C811B81F8
:102EB000AA81B981CE0FD11D0FB6F894DEBF0FBE27
:102EC000CDBFED010895A1E21A2EAA1BBB1BFD0187
:102ED0000DC0AA1FBB1FEE1FFF1FA217B307E407F9
:102EE000F50720F0A21BB30BE40BF50B661F771F51
:102EF000881F991F1A9469F7609570958095909531
:102F00009B01AC01BD01CF010895A29FB001B39F09
:102F1000C001A39F700D811D1124911DB29F700DE2
:102F2000811D1124911D0895991B79E004C0991FFA
:102F3000961708F0961B881F7A95C9F78095089513
:102F40000E948517332312F48A1B9B0B0C94AA173B
:102F50000E948517B7FF0895821B930B0895EE0F0B
:102F6000FF1F0590F491E02D09940F931F93CF93C9
:102F7000DF938230910510F482E090E0E091DF036E
:102F8000F091E00320E030E0A0E0B0E0309719F1EC
:102F9000408151810281138148175907C8F0841775
:102FA000950769F4109731F012960C9312971396C7
:102FB0001C9327C00093DF031093E00322C0211568
:102FC000310519F04217530718F49A01BD01EF01BA
:102FD000DF01F801DBCF21153105F9F0281B390B92
:102FE0002430310580F48A819B816115710521F0BF
:102FF000FB019383828304C09093E0038093DF03FB
:10300000FE01329644C0FE01E20FF31F81939193BB
:1030100022503109398328833AC02091DD03309151
:10302000DE03232B41F42091020130910301309300
:10303000DE032093DD032091000130910101211571
:10304000310541F42DB73EB740910401509105017F
:10305000241B350BE091DD03F091DE03E217F3074B
:10306000A0F42E1B3F0B2817390778F0AC014E5FF8
:103070005F4F2417350748F04E0F5F1F5093DE0354
:103080004093DD038193919302C0E0E0F0E0CF0133
:10309000DF91CF911F910F910895CF93DF93009708
:1030A00009F481C0FC01329713821282A091DF03E0
:1030B000B091E003109781F420813181820F931F3A
:1030C0002091DD033091DE032817390751F5F09385
:1030D000DE03E093DD0367C0ED0120E030E0CE17B2
:1030E000DF0740F44A815B819E0141155105F1F0F3
:1030F000EA01F5CFD383C28340815181840F951FAC
:10310000C817D90759F488819981840F951F0296B1
:10311000918380838A819B819383828321153105EA
:1031200029F4F093E003E093DF033DC0E901FB8362
:10313000EA8349915991C40FD51FEC17FD0761F43B
:1031400080819181840F951F0296E901998388837C
:10315000828193819B838A83E0E0F0E012968D91D7
:103160009C911397009719F0FD01DC01F7CF8D9129
:103170009C9111979D012E5F3F4F820F931F2091CD
:10318000DD033091DE032817390769F4309729F4FD
:103190001092E0031092DF0302C013821282B093F8
:1031A000DE03A093DD03DF91CF910895A0E0B0E0AE
:1031B000ECEDF8E10C943017EC01009721F4CB0111
:1031C0000E94B517B4C0FC01E60FF71F9C01225006
:1031D0003109E217F30708F4A8C0D9010D911C9139
:1031E000119706171707B0F00530110508F49BC0BA
:1031F000C80104978617970708F495C00250110973
:10320000061B170B019311936D937C93CF010E94C2
:103210004D1889C05B01A01AB10A4C01800E911EA5
:10322000A091DF03B091E003612C712CE12CF12C13
:10323000109709F446C08D919C911197A815B90576
:10324000B1F56C0142E0C40ED11CCA14DB0478F164
:103250004C018A189B08640142E0C40ED11C1296EE
:10326000BC9012971396AC91B5E0CB16D10440F008
:10327000B282A38391828082D9016D937C9309C02D
:103280000E5F1F4F800F911FF90191838083EB2DFB
:10329000FA2FE114F10431F0D7011396FC93EE9369
:1032A000129741C0F093E003E093DF033CC068163F
:1032B000790608F43C017D0112960D90BC91A02D79
:1032C000B7CF8091DD039091DE0388169906E1F473
:1032D00066167706C8F4809100019091010100976D
:1032E00041F48DB79EB74091040150910501841BB4
:1032F000950BE817F907C8F4F093DE03E093DD03BC
:10330000F901718360830FC0CB010E94B5177C0166
:10331000009759F0A801BE010E949C19CE010E949D
:103320004D18C70104C0CE0102C080E090E0CDB7C7
:10333000DEB7EEE00C944C17FB01DC0102C00190FB
:103340000D9241505040D8F70895FB01DC010190E7
:103350000D920020E1F7089511E0C7EBD1E004C021
:10336000FE010E94AF172196C83BD107C9F7F89418
:02337000FFCF8D
:103372000000E103800000000000D7090000000007
:10338200DF08480876082C09A708850899082D2D1A
:103392002D2D2D2D2D2D2D2D2D2D2D2D2D2D2D2D5B
:1033A2002D2D2D2D2D2D2D0053656E736F72204303
:1033B200616C6962726174696F6E2046696E6973CD
:1033C20068656400526573756C7473203A2000530B
:1033D200656E736F724D696E203D200053656E738A
:1033E2006F724D6178203D20002D2D2D2D2D2D2D1C
:1033F2002D2D2D2D2D2D2D2D2D2D2D2D2D2D2D2DFB
:103402002D2D0A005269676874004C65667400527B
:10341200494748545F48414E44004C4546545F4832
:10342200414E44004861636B6265727279204C6957
:103432006272617279202D2056657273696F6E20F7
:06344200000D0A002E003F
:00000001FF
