:100000000C9463000C948B000C948B000C948E0564
:100010000C948E050C948E050C948B000C948B0024
:100020000C948B000C948B000C948B000C948B0024
:100030000C948B000C948B000C948B000C948B0014
:100040000C94EC040C948B000C945C050C94360519
:100050000C948B000C948B000C948B000C948B00F4
:100060000C948B000C948B000000000024002700EF
:100070002A0000000008000201000003040700003D
:1000800000000000000000000000230026002900FE
:1000900000000000250028002B00040404040404D0
:1000A0000404020202020202030303030303010227
:1000B00004081020408001020408102001020408F6
:1000C000102008061C0811241FBECFEFD8E0DEBFA9
:1000D000CDBF22E0A2E7B1E001C01D92AB38B2076C
:1000E000E1F711E0A0E0B1E0EEEDF5E102C005902E
:1000F0000D92A237B107D9F710E0C2E6D0E004C0F4
:100100002197FE010E94E008C136D107C9F70E947D
:10011000BC060C94E20A0C9400009B01AC01109206
:100120008302109282021092810210928002109239
:100130007F0210927E0260E079E08DE390E00E9401
:100140008B08F9012430310518F0C901039702C06A
:1001500081E090E0909385028093840290917402F4
:10016000963108F076C0B9017695679564317105CE
:1001700018F06351710902C061E070E070937F0272
:1001800060937E02369720F0B9016550710902C074
:1001900061E070E07093810260938002B901660FA4
:1001A000771F260F371F36952795369527952D30C3
:1001B000310518F02C50310902C021E030E03093B5
:1001C00083022093820240916800983058F031E019
:1001D0009E3008F430E021E0822F01C0880F3A956C
:1001E000EAF701C084E0842B80936800983038F0EF
:1001F0009E3040F0963148F020E030E008C02DE617
:1002000030E005C02BE630E002C02CE630E0309351
:100210007C0220937B02983030F481E001C0880F8B
:100220009A95EAF70EC0292F30E09E3018F4285036
:10023000310902C02E50310981E001C0880F2A9592
:10024000EAF780937D028091840290918502019764
:10025000F1F78091820290918302892B49F1E0911C
:10026000BD01F091BE0182E0E836F80709F1309750
:1002700039F0A389B4899C918589809589238C93D1
:10028000809186028E7F809386021092BC0110922C
:10029000BB0188E692E09093BE018093BD01E0919E
:1002A0007B02F0917C02908180917D02892B80837A
:1002B000089590E0FC01EE58FF4F2491FC01E255B7
:1002C000FF4F3491FC01E656FF4FE491EE2309F411
:1002D0003CC0222339F1233091F038F42130A9F0C9
:1002E000223001F584B58F7D12C0273091F028307F
:1002F000A1F02430B9F4809180008F7D03C08091FB
:1003000080008F77809380000DC084B58F7784BD87
:1003100009C08091B0008F7703C08091B0008F7DBD
:100320008093B000F0E0EE0FFF1FE057FF4FA59164
:10033000B4919FB7F894611104C08C913095382323
:1003400002C0EC913E2B3C939FBF0895CF93DF9367
:1003500090E0FC01E255FF4F2491FC01E656FF4F6F
:100360008491882361F190E0880F991FFC01E8597E
:10037000FF4FC591D491FC01E057FF4FA591B49177
:10038000611109C09FB7F8948881209582238883E2
:10039000EC912E230BC0623061F49FB7F8948881F2
:1003A000322F309583238883EC912E2B2C939FBF83
:1003B00006C08FB7F894E8812E2B28838FBFDF917A
:1003C000CF9108953FB7F8948091B7019091B8010B
:1003D000A091B901B091BA0126B5A89B05C02F3FE5
:1003E00019F00196A11DB11D3FBFBA2FA92F982F5B
:1003F0008827820F911DA11DB11DBC01CD0142E0D6
:10040000660F771F881F991F4A95D1F708958F921D
:100410009F92AF92BF92CF92DF92EF92FF926B01C9
:100420007C010E94E2014B015C01C114D104E10492
:10043000F104F1F00E94E201DC01CB018819990975
:10044000AA09BB09883E9340A105B10570F321E0DC
:10045000C21AD108E108F10888EE880E83E0981EE0
:10046000A11CB11CC114D104E104F10419F7DDCFC2
:10047000FF90EF90DF90CF90BF90AF909F908F90C4
:100480000895CF92DF92EF92FF920F931F93CF9335
:10049000DF936C017A018B01C0E0D0E0CE15DF055F
:1004A00081F0D8016D918D01D601ED91FC91019003
:1004B000F081E02DC6010995892B11F02196EECF30
:1004C0007E01C701DF91CF911F910F91FF90EF90B7
:1004D000DF90CF900895FC01538D448D252F30E09F
:1004E000842F90E0821B930B541710F0CF96089541
:1004F00001970895FC01918D828D981761F0828D8E
:10050000DF01A80FB11D5D968C91928D9F5F9F7347
:10051000928F90E008958FEF9FEF0895FC01918DE9
:10052000828D981731F0828DE80FF11D858D90E056
:1005300008958FEF9FEF0895FC01918D228D892FF3
:1005400090E0805C9F4F821B91098F7399270895DB
:100550008FEB91E00E949C0221E0892B09F420E0BE
:10056000822F0895FC01848DDF01A80FB11DA35ACD
:10057000BF4F2C91848D90E001968F739927848FC3
:10058000A689B7892C93A089B1898C9183708064E6
:100590008C93938D848D981306C00288F389E02D87
:1005A00080818F7D80830895EF92FF920F931F9338
:1005B000CF93DF93EC0181E0888F9B8D8C8D981316
:1005C00005C0E889F989808185FD26C0F62E0B8D4E
:1005D00010E00F5F1F4F0F731127E02E8C8DE81274
:1005E0000CC00FB607FCFACFE889F989808185FF36
:1005F000F5CFCE010E94B202F1CF8B8DFE01E80F44
:10060000F11DE35AFF4FF0829FB7F8940B8FEA89F0
:10061000FB89808180620AC09FB7F894EE89FF89C8
:100620006083E889F98980818370806480839FBFBB
:1006300081E090E0DF91CF911F910F91FF90EF90BB
:100640000895CF93DF93EC01888D8823C9F0EA8960
:10065000FB89808185FD05C0A889B9898C9186FDBB
:100660000FC00FB607FCF5CF808185FFF2CFA889B8
:10067000B9898C9185FFEDCFCE010E94B202E7CF00
:10068000DF91CF91089580E090E0892B29F00E94BE
:10069000A80281110C94000008952091BD013091B1
:1006A000BE012817390771F49091BB018091BC01FC
:1006B000981741F0E091BB01F0E0EE58FE4F8081C9
:1006C00090E008958FEF9FEF089508951F93CF93C3
:1006D000DF93DC015C968D919C915D97009739F4D6
:1006E00021E030E013963C932E9312973BC0519635
:1006F000ED91FC91529750962C915097322F309556
:100700001FB75E964C915E97742F727041FD609595
:10071000F8944081772311F0422B01C0432340839A
:10072000EC012197F1F748E0508160FF02C0522BA5
:1007300001C053235083EC012197F1F76695415096
:1007400099F78081772319F08323808302C0282BB7
:1007500020831FBF5C968D919C915D970197F1F767
:1007600081E090E0DF91CF911F9108952091BD012C
:100770003091BE012817390771F48091BC01209196
:10078000BB0190E0805C9F4F821B910960E470E0A8
:100790000E947708089580E090E008952091BD01BF
:1007A0003091BE0128173907B9F49091BB018091AF
:1007B000BC01981789F0E091BB01F0E0EE58FE4FC4
:1007C00080812091BB0130E02F5F3F4F2F73332793
:1007D0002093BB0190E008958FEF9FEF0895089557
:1007E00080E090E00895009769F0FC0101900020FE
:1007F000E9F73197AF01481B590BBC0188E692E03D
:100800000C94410280E090E008950E94CD0A0F937D
:100810001F93CF93DF93EC0188819981009729F092
:100820002A813B812617370788F48B016F5F7F4F42
:100830000E94070A009761F0998388831B830A83CB
:100840002C813D81232B11F4FC01108281E001C039
:1008500080E0DF91CF911F910F910895EF92FF9269
:100860000F931F93CF93DF936115710511F480E00F
:100870001CC041155105C1F07B01EC018C819D81AB
:100880008A01080F191FB801CE010E9407048823AE
:1008900071F3288139818C819D81B701820F931F6B
:1008A0000E94DB0A1D830C8381E0DF91CF911F91B1
:1008B0000F91FF90EF900895CF93DF93EC01888123
:1008C0009981009711F00E947E09198218821D8279
:1008D0001C821B821A82DF91CF910895EF92FF92C2
:1008E0000F931F93CF93DF93EC01198218821B8221
:1008F0001A821D821C826115710521F18B01FB0199
:1009000001900020E9F731977F01E61AF70AB70155
:100910000E940704811109C0CE01DF91CF911F9180
:100920000F91FF90EF900C945C04FD82EC82B80173
:1009300088819981DF91CF911F910F91FF90EF9066
:100940000C94DB0ADF91CF911F910F91FF90EF90F4
:100950000895EF92FF920F931F93CF93DF93FC01C3
:1009600011821082138212821582148286179707D1
:1009700039F1DB010D911C9111970115110501F160
:10098000EC011496ED90FC901597B7010E940704B6
:10099000811109C0CE01DF91CF911F910F91FF907E
:1009A000EF900C945C04FD82EC82B80188819981FF
:1009B000DF91CF911F910F91FF90EF900C94DB0A84
:1009C000DF91CF911F910F91FF90EF900895FC015F
:1009D000808191810C947E091F920F920FB60F9225
:1009E00011242F933F938F939F93AF93BF93809145
:1009F000B3019091B401A091B501B091B6013091CD
:100A0000B20123E0230F2D3720F40196A11DB11D63
:100A100005C026E8230F0296A11DB11D2093B20147
:100A20008093B3019093B401A093B501B093B60144
:100A30008091B7019091B801A091B901B091BA012C
:100A40000196A11DB11D8093B7019093B801A093A9
:100A5000B901B093BA01BF91AF919F918F913F912E
:100A60002F910F900FBE0F901F9018951F920F920D
:100A70000FB60F9211242F933F934F935F936F9371
:100A80007F938F939F93AF93BF93EF93FF938FEBDE
:100A900091E00E94B202FF91EF91BF91AF919F91BF
:100AA0008F917F916F915F914F913F912F910F9017
:100AB0000FBE0F901F9018951F920F920FB60F92B6
:100AC00011242F938F939F93EF93FF93E091CF0186
:100AD000F091D0018081E091D501F091D60182FDA5
:100AE00012C090818091D8018F5F8F732091D901BE
:100AF000821751F0E091D801F0E0E154FE4F958F5C
:100B00008093D80101C08081FF91EF919F918F91D7
:100B10002F910F900FBE0F901F9018951F920F925C
:100B20000FB60F9211242F933F934F935F936F93C0
:100B30007F938F939F93AF93BF93EF93FF93E09136
:100B4000BD01F091BE01309709F451C0968DA68584
:100B5000B785858591FF04C09C91892329F447C0FE
:100B60009C91892309F043C0A389B4899C9185890C
:100B7000809589238C93868997890197F1F7608DF9
:100B8000718DA685B785558538E020E0CB010197AA
:100B9000F1F7822F90E095958795282F4C9145236A
:100BA00009F02068315091F7868D81FD2095809164
:100BB000BC0190E001968F7399273091BB013817E3
:100BC00049F0A091BC01B0E0AE58BE4F2C93809389
:100BD000BC0103C0868D8160868F828D938D0197C5
:100BE000F1F7A389B4899C918589892B8C93FF9116
:100BF000EF91BF91AF919F918F917F916F915F9195
:100C00004F913F912F910F900FBE0F901F9018950D
:100C10001092C2011092C10188EE93E0A0E0B0E012
:100C20008093C3019093C401A093C501B093C60102
:100C30002AE231E03093C0012093BF0125EC30E07F
:100C40003093CC012093CB0124EC30E03093CE01E3
:100C50002093CD0120EC30E03093D0012093CF01E0
:100C600021EC30E03093D2012093D10122EC30E02E
:100C70003093D4012093D30126EC30E03093D60199
:100C80002093D5011092D8011092D9011092DA0167
:100C90001092DB0110926B0210926A0280936C0238
:100CA00090936D02A0936E02B0936F028CE391E07B
:100CB000909369028093680210927F0210927E02E4
:100CC000109281021092800210928302109282028E
:100CD0001092850210928402609186026E7F6D7F71
:100CE000609386026695617081E068270E945901D1
:100CF00061E081E00E94A601EFEAF0E0E491E09378
:100D00007802EBE9F0E0E491F0E0EE0FFF1FE0572E
:100D1000FF4F8591949190937A028093790260E0DD
:100D200080E00E94A6018091860281FD04C061E0FE
:100D300080E00E94590110927402EEEAF0E0E49122
:100D4000E0937502EAE9F0E0E491F0E0EE0FFF1FB6
:100D5000EA57FF4F859194919093770280937602A2
:100D60006AE471E082E692E00E946E0464E571E05C
:100D70008CE592E00C946E04CF93DF93CDB7DEB791
:100D800062970FB6F894DEBF0FBECDBF789484B5DE
:100D9000826084BD84B5816084BD85B5826085BD77
:100DA00085B5816085BD80916E00816080936E0005
:100DB00010928100809181008260809381008091F7
:100DC00081008160809381008091800081608093A8
:100DD00080008091B10084608093B1008091B00068
:100DE00081608093B00080917A00846080937A0063
:100DF00080917A00826080937A0080917A0081608D
:100E000080937A0080917A00806880937A001092B3
:100E1000C10061E081E10E94A60161E081E10E94E0
:100E2000590164EF71E080E090E00E94070206E063
:100E300011E0F80161917191819191918F010E946E
:100E40008D0068EE73E080E090E00E94070289E583
:100E500091E00E94F30360E076E980E090E00E9478
:100E60008D0068EE73E080E090E00E940702F1E000
:100E700006321F07F1F660E076E980E090E00E941C
:100E80008D0068EE73E080E090E00E94070262E669
:100E900072E0CE0107960E94A90462E671E0CE01DD
:100EA00001960E946E044B855C856F817885CE012A
:100EB00001960E942E04811104C0CE0101960E9469
:100EC0005C044D815E8169817A8188E692E00E94AE
:100ED0004102CE0101960E94E704CE0107960E94CE
:100EE000E70468EE73E080E090E00E9407026CE5A2
:100EF00072E0CE010D960E94A90468E571E0CE0172
:100F000007960E946E044D855E85FA0169897A898B
:100F100080E090E06817790759F14115510541F1DA
:100F2000219120532A3020F501968430910591F7C4
:100F30006AE671E0CE0101960E946E0449895A89E1
:100F40006D857E85CE0101960E942E04811104C01C
:100F5000CE0101960E945C044D815E8169817A8197
:100F600088E692E00E944102CE0101960E94E704C9
:100F7000CE0107960E94E704CE010D960E94E70479
:100F800068EE73E080E090E00E940702E091CF01FC
:100F9000F091D00182E08083E091CB01F091CC010F
:100FA0001082E091CD01F091CE0183E38083109215
:100FB000D701E091D301F091D40186E08083E091E4
:100FC000D101F091D201808180618083E091D101D3
:100FD000F091D201808188608083E091D101F0910D
:100FE000D201808180688083E091D101F091D201AB
:100FF00080818F7D808388E692E00E94B603892BF2
:1010000049F088E692E00E94CE03682F8FEB91E0D2
:101010000E94D4028FEB91E00E949C02892B49F040
:101020008FEB91E00E947A02682F88E692E00E949E
:1010300066030E944303DFCF8CE592E00E94E70441
:1010400082E692E00E94E7048CE391E090936902CB
:10105000809368028091BD019091BE0188569240B4
:1010600071F4E0917B02F0917C02908180917D028D
:101070008095892380831092BE011092BD0108954E
:101080002F923F924F925F926F927F928F929F9298
:10109000AF92BF92CF92DF92EF92FF920F931F9386
:1010A000CF93DF93CDB7DEB7CA1BDB0B0FB6F89437
:1010B000DEBF0FBECDBF09942A88398848885F8477
:1010C0006E847D848C849B84AA84B984C884DF80E8
:1010D000EE80FD800C811B81AA81B981CE0FD11DCC
:1010E0000FB6F894DEBF0FBECDBFED01089597FB9C
:1010F000072E16F4009407D077FD09D00E94AA08A5
:1011000007FC05D03EF4909581959F4F089570950A
:1011100061957F4F0895052E97FB1EF400940E9461
:10112000A20857FD07D00E94BE0807FC03D04EF46A
:101130000C94A20850954095309521953F4F4F4F04
:101140005F4F089590958095709561957F4F8F4F73
:101150009F4F0895AA1BBB1B51E107C0AA1FBB1FCD
:10116000A617B70710F0A61BB70B881F991F5A9533
:10117000A9F780959095BC01CD010895A1E21A2EA2
:10118000AA1BBB1BFD010DC0AA1FBB1FEE1FFF1F2B
:10119000A217B307E407F50720F0A21BB30BE40B7B
:1011A000F50B661F771F881F991F1A9469F76095C2
:1011B0007095809590959B01AC01BD01CF0108957C
:1011C000EE0FFF1F0590F491E02D09940F931F93EC
:1011D000CF93DF938230910510F482E090E0E091AC
:1011E0008902F0918A0220E030E0A0E0B0E0309780
:1011F00019F1408151810281138148175907C8F0C4
:101200008417950769F4109731F012960C93129792
:1012100013961C9327C00093890210938A0222C060
:101220002115310519F04217530718F49A01BD0131
:10123000EF01DF01F801DBCF21153105F9F0281BA3
:10124000390B2430310580F48A819B816115710549
:1012500021F0FB019383828304C090938A028093E0
:101260008902FE01329644C0FE01E20FF31F819312
:10127000919322503109398328833AC02091870203
:1012800030918802232B41F4209102013091030117
:101290003093880220938702209100013091010150
:1012A0002115310541F42DB73EB74091040150910D
:1012B0000501241B350BE0918702F0918802E217AB
:1012C000F307A0F42E1B3F0B2817390778F0AC0169
:1012D0004E5F5F4F2417350748F04E0F5F1F509346
:1012E0008802409387028193919302C0E0E0F0E08E
:1012F000CF01DF91CF911F910F910895CF93DF938D
:10130000009709F481C0FC01329713821282A091E8
:101310008902B0918A02109781F420813181820F75
:10132000931F20918702309188022817390751F5C1
:10133000F0938802E093870267C0ED0120E030E07F
:10134000CE17DF0740F44A815B819E0141155105AC
:10135000F1F0EA01F5CFD383C28340815181840F3C
:10136000951FC817D90759F488819981840F951F53
:101370000296918380838A819B8193838283211546
:10138000310529F4F0938A02E09389023DC0E90116
:10139000FB83EA8349915991C40FD51FEC17FD07D0
:1013A00061F480819181840F951F0296E9019983F0
:1013B0008883828193819B838A83E0E0F0E01296A8
:1013C0008D919C911397009719F0FD01DC01F7CFE7
:1013D0008D919C9111979D012E5F3F4F820F931F1E
:1013E00020918702309188022817390769F43097D5
:1013F00029F410928A021092890202C0138212828A
:10140000B0938802A0938702DF91CF910895A0E066
:10141000B0E0EDE0FAE00C944408EC01009721F410
:10142000CB010E94E608B4C0FC01E60FF71F9C0147
:1014300022503109E217F30708F4A8C0D9010D9131
:101440001C91119706171707B0F00530110508F425
:101450009BC0C80104978617970708F495C00250EF
:101460001109061B170B019311936D937C93CF0108
:101470000E947E0989C05B01A01AB10A4C01800E4E
:10148000911EA0918902B0918A02612C712CE12CED
:10149000F12C109709F446C08D919C911197A815D5
:1014A000B905B1F56C0142E0C40ED11CCA14DB04CD
:1014B00078F14C018A189B08640142E0C40ED11CEB
:1014C0001296BC9012971396AC91B5E0CB16D1044E
:1014D00040F0B282A38391828082D9016D937C9384
:1014E00009C00E5F1F4F800F911FF9019183808308
:1014F000EB2DFA2FE114F10431F0D7011396FC9390
:10150000EE93129741C0F0938A02E09389023CC0A7
:101510006816790608F43C017D0112960D90BC9185
:10152000A02DB7CF809187029091880288169906E6
:10153000E1F466167706C8F48091000190910101EC
:10154000009741F48DB79EB7409104015091050179
:10155000841B950BE817F907C8F4F0938802E09311
:101560008702F901718360830FC0CB010E94E608F6
:101570007C01009759F0A801BE010E94D20ACE0159
:101580000E947E09C70104C0CE0102C080E090E045
:10159000CDB7DEB7EEE00C94600881E090E0F894FF
:1015A0000C94E20AFB01DC0102C001900D92415053
:1015B0005040D8F70895FB01DC0101900D92002006
:1015C000E1F7089510E0C2E6D0E004C0FE010E94F9
:0E15D000E0082196C336D107C9F7F894FFCF83
:1015DE0000008B028000B004000060090000C01201
:1015EE00000080250000004B00000096000000E186
:1015FE00000000C2010000000000D40241026B0294
:10160E0021039C027A028E02000000006603410252
:10161E00F0036503B603CE034D034861636B626549
:10162E0072727900303030300041542B42415544B3
:10163E00360041542B4E414D450041542B50494EDE
:02164E0000009A
:00000001FF
